:020000040001F9
:10B00000502F0020F5B001000FB1010011B1010077
:10B010000000000000000000000000000000000030
:10B0200000000000000000000000000013B101005B
:10B03000000000000000000015B1010017B1010080
:10B0400019B1010019B1010039B4010019B10100B1
:10B0500019B101000000000051B2010019B1010056
:10B0600019B1010019B1010019B1010019B10100B4
:10B0700019B1010019B1010019B1010019B10100A4
:10B0800019B101009DB3010019B1010019B101000E
:10B09000BDB3010019B10100C5B3010019B1010030
:10B0A00019B1010019B1010000000000000000000A
:10B0B0000000000000000000000000000000000090
:10B0C0000348854600F094F80048004755E0010029
:10B0D000502F0020401E00BF00BF00BF00BF00BFB8
:10B0E00000BF00BF00BF00BF00BF00BF00BFF1D165
:10B0F000704700000321094802680A4302600848BB
:10B1000002680A4302600748804707480047FEE795
:10B11000FEE7FEE7FEE7FEE7FEE70000240500404D
:10B1200054050040E5B30100C1B0010030B50B4645
:10B13000014600202022012409E00D46D5409D4211
:10B1400005D31D469540491B254695404019154697
:10B15000521E002DF1DC30BD70B5002425460028BC
:10B1600001DA01244042002901DA01254942FFF7B2
:10B17000DDFFAC4200D04042002C00D0494270BDFF
:10B1800003460B439B0703D009E008C9121F08C000
:10B19000042AFAD203E00B780370401C491C521EAB
:10B1A000F9D27047D2B201E00270401C491EFBD2B6
:10B1B00070470022F6E710B513460A4604461946C2
:10B1C000FFF7F0FF204610BD421C0178401C00290B
:10B1D000FBD1801A704730B504460020034600E0DA
:10B1E0005B1C934203D2E05CCD5C401BF8D030BDC9
:10B1F000064C0125064E05E0E36807CC2B430C3CCA
:10B2000098471034B442F7D3FFF75EFFA4FC010067
:10B21000C4FC010030B58C180278401C13071B0FCA
:10B2200001D10378401C120906D10278401C03E0CA
:10B2300005780D70401C491C5B1EF9D101E00B70B4
:10B24000491C521EFBD1A142E6D3002030BD0000B4
:10B25000F8B50024FF25013501262746009428462D
:10B2600003F07EF9002808D034484068304204D00A
:10B27000334800212818344301602D1D76007F1CBF
:10B28000ADB2042FEBD3FF207D3003F069F9002825
:10B2900007D02C4800210160400704432A48006978
:10B2A00000902A4F200712D00126002526420AD0FE
:10B2B0002748AA00111808690969C004C00E89034B
:10B2C000BA58890F904776006D1C042DEED3002CE0
:10B2D00030DA00241D4E0021301940304156491CFF
:10B2E00025D00778BD06AD0E284601F0FBFB800097
:10B2F0003658002E1BD0BF090121A940154AA800CD
:10B3000080180068009A8003800F114202D0022842
:10B3100002D00CE003280AD1032F05D102280AD05D
:10B320000221284603F00CF939462846B047641C30
:10B33000042CCFD3F8BD0321F3E7000000630040E5
:10B34000006000407C61004000050050C8260020DD
:10B3500000650040000700508307FF22DB0E9A4083
:10B360008907090E994000280BDA0007000F0838FA
:10B37000830808489B001818C36993430B43C361B3
:10B380007047830804489B001B18186890430843C3
:10B390001860704700ED00E000E400E010B50649D9
:10B3A0000020086048608860C86003494039086030
:10B3B000486004F033F810BD4011014010B503F0AF
:10B3C000C3FF10BD10B506484068002805D080476F
:10B3D000002801D000F0E0F910BD02F0A7FC10BD7C
:10B3E0004420002010B502F0EBFC002805D00E49E7
:10B3F0000C484860C8130D4988610D48018CC9B2DA
:10B4000001290ED1818C09070BD1018D0906090F85
:10B41000042906D1808D0006000F02D105490120C4
:10B42000886010BDDFFF07C000050040006C0040D1
:10B43000C00F00F00006004010B504F055F810BD34
:10B4400030B47446641E2578641CAB4200D21D469D
:10B45000635D5B00E31830BC184702E008C8121FA8
:10B4600008C1002AFAD170477047002001E001C1ED
:10B47000121F002AFBD17047F7B584B0002516884B
:10B4800007461580406B1446002813D003780598B2
:10B49000032E51D30221017021881122491C89B247
:10B4A000218042542188491C89B22180435420883C
:10B4B000401C2080386B00281DD005462088059947
:10B4C00002461232B24237D811220A542088102282
:10B4D000401C80B220800A542088401C20800F200D
:10B4E0002A5C2388401ECA54228840B2521C228003
:10B4F0000028F5DA0025384620300290807B0028AD
:10B5000006D033462246059902F0A6FC050014D168
:10B510000298407B002806D032462146059800F06C
:10B5200021FE050009D1B878002823D00598864669
:10B530002088001DB04202D90C2007B0F0BD68463B
:10B5400079DF0028F9D121880320724650542088E1
:10B550001921401C80B22080115420887146401C63
:10B5600080B2208041186846008804F051F8218894
:10B5700040182080F878002817D0218803230A4635
:10B58000FB56C91C0598B142D6D8022181542188A6
:10B590000122491C89B2218042542188491C89B268
:10B5A000218043542088401C20807868002817D0D0
:10B5B00021880023C3560A46C91C0598B142BBD84E
:10B5C0000221815421880A22491C89B221804254D7
:10B5D0002188491C89B2218043542088401C208046
:10B5E000388900280AD000943846019606220221A4
:10B5F0000830059B04F08BF805009ED1388A00289E
:10B600000AD0009438460196072203211030059B8A
:10B6100004F07DF8050090D1388B00280AD0009402
:10B6200038460196152214211830059B04F06FF856
:10B63000050082D1386A002806D033462246059993
:10B6400001F0FCFB0500D8D1786A002806D033460B
:10B650002246059902F0CAFD0500CED10298007B72
:10B66000002807D0334622463846059903F0D4FB1C
:10B670000500C2D13878002807D033462246384624
:10B68000059902F0E7FD0500B7D1284655E710B54A
:10B6900001220221002001F051F8002801D00728E2
:10B6A00012D107220221012001F048F8002801D020
:10B6B000072809D100210A22084601F03FF8002896
:10B6C00001D0072800D1002010BD000004484268C6
:10B6D0000121C9050B46934383600A40C26070474D
:10B6E0000005005070B50024064D06E06968E000D2
:10B6F000085C012102F034FE641C28788442F5D3F2
:10B70000002070BD10200020F8B515460C460646F6
:10B71000052A01D20720F8BD02F0F8FE002803D167
:10B7200002F0CAFE0028F6D1104900204E600C70CD
:10B73000C8608D6008610E4D0DE0E00069688019F9
:10B74000009181786A46517000780A4A694602F091
:10B7500057FE0028DFD12046641EE4B20028ECD159
:10B76000054A0021024800F04FF8F8BD10200020E3
:10B770009CFC0100D9DB010005D00100BFF34F8F15
:10B7800004490348C860BFF34F8F00BFFDE70000C6
:10B790000400FA0500ED00E00EB5002102900091D2
:10B7A0006A4601910148FFF7E9FF000001400000EF
:10B7B000014B1B6818470000CC25002038B50C460B
:10B7C000A2680C235A43064B09789D58054A126A11
:10B7D00000920246204608302369A84738BD000081
:10B7E000BC260020EC1F002010B5064914230A785F
:10B7F0005A435118091DFFF7E1FF042003F0DCFB59
:10B8000010BD0000F0250020094B9B68002B07D0DD
:10B81000002A07D0002805D00068037C002B03D045
:10B82000082070470720704741744261002070472C
:10B8300024200020FFB59007002581B014460E4655
:10B84000002832D11B4F002C31D003F047FA049866
:10B8500078610320387033461821224600204B437C
:10B86000BC601834C10089180D704D708E704C602A
:10B870001C19401C0328F5DBFD607D7001240E4877
:10B88000BD702405046003211420FFF765FD0B48FB
:10B8900004600B4C0198A06003211120FFF75CFDB0
:10B8A00060683861002005B0F0BD0720FBE7BD608F
:10B8B000FBE700002420002080E200E000E100E03F
:10B8C00000150140FEB50D461B4917468968044620
:10B8D00000292AD0002C28D0052D01D20720FEBD3A
:10B8E0006069002821D0607C012820D0002603F068
:10B8F000D1FEC0001049019089684018694603F0E4
:10B90000F3FE002815D0012101700C4944604968FC
:10B910000830E2C0084901988968411868460078F3
:10B92000487003F053FD0020FEBD0820FEBD2E46EA
:10B93000DDE70420FEBD00002420002000150140AA
:10B94000F8B5134D0446A96800291CD0002C1AD064
:10B950006069002817D00026267403F09BFEC700FC
:10B96000A8686946381803F0BFFE00280DD00221F0
:10B9700001704460A868391868460078487003F080
:10B9800025FD3046F8BD0820F8BD0420F8BD0000B4
:10B9900024200020F0B50546007D002493B00E461B
:10B9A00000280DD001200146684610310394017330
:10B9B000717B4173817BF92001406846891C81734A
:10B9C0001C2104A8FFF7F5FB6946087C0221084307
:10B9D000694608742A7DEF21002A02D01022104304
:10B9E00000E008406A461074059407940894287D86
:10B9F000002800D003A8099001270A9410469771E7
:10BA0000304A82800094B27B0270F27B4270807870
:10BA1000F9221040F722801C1040EF210840410815
:10BA2000490068468170317B017214210BA8FFF731
:10BA3000C0FB01A80B9068460C908786C4860787D8
:10BA400002A80F90A888AB1D0BAA04A9A2DF0028AA
:10BA500035D1B068002830D0684687711A49818096
:10BA60000094317C01700020014668464170807866
:10BA7000F9210840F721801C0840EF2108404108C7
:10BA800049006846817011A8B16800F0FEFC0646C6
:10BA900014210BA8FFF78DFB01A80B9068460C90B2
:10BAA0008686C486068711A80F902A46E8880E323B
:10BAB0000BA9A3DF002802D100E0EC81002013B025
:10BAC000F0BD0000192A00000829000010B500216F
:10BAD000074800F047FA002809D0082807D0054990
:10BAE000884204D00449884201D0FFF755FE10BDBA
:10BAF000A82200200430000001340000F0B50C46FC
:10BB000093B01F216A4611800726002791800028E4
:10BB100009D0C17849070DD502A9FFF7ADFC00286F
:10BB200009D102AD01E000251780002C0ED0E0788D
:10BB3000002802D0304613B0F0BD01AA0AA9204661
:10BB4000FFF79AFC0028F6D10AAA02E06846002214
:10BB5000878068468088C3B268460088C1B228469C
:10BB600072DFE8E770B50D4604991646040042D02E
:10BB7000002E40D0424800224271C360016124225D
:10BB800031464048FFF7FCFA00F0D4F83D49343123
:10BB90000846103801602031816038215C38FFF799
:10BBA00008FB3848217838380170A1788170E17835
:10BBB000C170617841706269216942610161E26826
:10BBC000A168C26081600146E369A269CB618A61B4
:10BBD000616A002919D00146AC310246B83241628F
:10BBE0008A60636A1B880B80616A436A89889980CE
:10BBF0000021436A06E00E2070BD666AB668765C76
:10BC00005654491C9E888E42F7D8A16A00291CD040
:10BC10001C4AAC3211460C398A608162A36A9B8847
:10BC20008B80A16A836A098819800021836A04E0F5
:10BC3000A66AB668765C5654491C9E888E42F7D830
:10BC40002C210A5D0F4918390A73216A002909D08D
:10BC50000B4914310162226A52884A80216A026AC1
:10BC6000098811806168002904D00549891D416057
:10BC700061684160034829463838FFF73FFF70BDCF
:10BC8000541F0020C023002010B502881C4C102A2D
:10BC900017D00021112A1AD0192A11D18079002831
:10BCA0000ED1607901281ED0022822D0032822D08C
:10BCB000042805D12171E2680846002A00D0904787
:10BCC00010BD017D0129FBD18088208110BD6170EC
:10BCD000808821898842F9D1012005E02169002965
:10BCE000F4D0884710BD022000F04CF80028F5D1B0
:10BCF00010BD0320F8E7032020710420F4E70000C2
:10BD0000541F002010B5022801D003280ED1084C82
:10BD1000207800280AD000202070607900F032F8E6
:10BD2000002803D02169002900D0884710BD0000F9
:10BD3000541F002010B507210148FFF73AFA10BD43
:10BD40006C1F002010B50D480078012814D10C4C50
:10BD50006078002810D16079002802D074DF0028B4
:10BD60000BD101206070607900F00CF8002803D03E
:10BD70002169002900D08847002010BDC023002081
:10BD8000541F0020F0B5754C87B06071002606A8DE
:10BD9000069602F079FC0127082806D000286FD10A
:10BDA0000698002802D02770D4E00696FFF7C2FF5D
:10BDB0006B4D6878002802D06079012805D0A878FA
:10BDC00000280AD06079022807D1E168002903D051
:10BDD000E7700820884700E0E6706079012808D104
:10BDE0006878002809D05D48193002F0F1FB00287E
:10BDF00003D06079022802D00CE002206071A8789C
:10BE0000002805D05548193002F0E2FB002801D186
:10BE100003206071287B002804D16079032801D1B8
:10BE200004206071287E002804D16079042801D1A3
:10BE300066712671E16800290AD06079032801D073
:10BE4000042805D12878002802D06078002818D06E
:10BE5000A67018216846FFF7ACF96846067001968F
:10BE600006720396607901280FD0022816D03C4E46
:10BE7000243637465C3F03281CD004285ED13BE0C3
:10BE800069E0A77007208847E3E73448183001903D
:10BE90006846077046820682277152E02F481830A4
:10BEA00001906846077029894182A9880182022091
:10BEB000207146E0A88A69464882288A0882284874
:10BEC000243003F093FC002805D02878002802D005
:10BED0006078002801D003202FE002206946087214
:10BEE00004200396F8701E4800213838FFF706FE3C
:10BEF000002830D1052020E0A88B69460882288CD4
:10BF000048821748243003F071FC002805D02878B7
:10BF1000002802D06078002801D004200DE0022023
:10BF20006946087204200396F8700D4800213838DD
:10BF3000FFF7E4FD00280ED106202071607900286B
:10BF400003D0684673DF002805D1E168002901D0DD
:10BF500020798847002007B0F0BD0000541F002062
:10BF6000C023002073B586B004002FD06A46217C20
:10BF7000127F0020914227D00025012668460095B7
:10BF80000680458007A80190E188608A6A46A4DFA0
:10BF9000002819D16846007F2074608A0D498842C4
:10BFA00016D0207D002813D00295039504950595A1
:10BFB000E1886846018186724188818104900198F8
:10BFC0000590608A02A9A6DF08B070BD0E20FBE7CD
:10BFD0000820F9E7FFFF000038B50D4604001AD02D
:10BFE000002D18D0286820600020C0436082287986
:10BFF0002075FF2020740121684681700749018067
:10C00000221D69460120A0DF002803D129462046D1
:10C01000FFF7C0FC38BD0E2038BD00000F1800002F
:10C0200038B5002824D0002922D00A88102A1AD036
:10C03000112A1AD0502A1BD1027D002A18D0CA8892
:10C040004389891D9A4213D10A8B022A10D10268B2
:10C05000002A0DD0CB7E8C7E19022143C907C90F5F
:10C0600007D0002106E0898801E00021C943418210
:10C0700038BD01216B4619706946904738BD0000F4
:10C0800070B5054601461C220E48FFF779F80E4CA4
:10C09000002626702968002906D00822201DFFF7F7
:10C0A0006FF8201D7ADF02E00748001D7BDF0028C3
:10C0B00007D1401E60806670044A00210448FFF7E3
:10C0C000A3FB70BDAC240020741F002031F60100DA
:10C0D00040FC0100F8B5214C028800271E4DE6897E
:10C0E000102A15D01E49112A21D0122A2DD0502AEB
:10C0F0001CD1C288801DB24218D1028B022A15D1F0
:10C10000C27E837E10021843C007C00F0CD112E01C
:10C110008188698001461048082216310C30FFF7EB
:10C120002FF86F70002E01D100F0D0FEF8BD002076
:10C13000C04368806F700868FFF702FC0028F5D0E4
:10C14000A1690029F2D08847F8BD811D0248082264
:10C150000C30FFF715F8E7E7741F0020AC2400202F
:10C1600040FC01007CB5054608880C460930904229
:10C1700001D90C207CBD684671DF0028FAD12188E6
:10C180000820685420881B21401C80B2208029543C
:10C19000208800A9401C80B220804019062201316D
:10C1A000FEF7EEFF20886946801D80B22080097866
:10C1B000002900D0012129542088401C2080002023
:10C1C0007CBD00007FB504460121684681714A4963
:10C1D00081804A4A01A90120A0DF00287ED122885F
:10C1E00025463C35002A09D044482B46801C009047
:10C1F0004348616800F07EFC00287BD12289002A38
:10C200000AD03E482B460A3000903D48E168401F66
:10C2100000F070FC00286DD1228A002A0AD037482D
:10C220002B461230009036486169001F00F062FC16
:10C2300000285FD1228B002A0AD030482B461A30C2
:10C2400000902F48E169801E00F054FC002851D175
:10C25000228C002A0AD029482B46223000902848F8
:10C26000616AC01E00F046FC002843D1228D002ADE
:10C270000AD022482B462A3000902148E16A401E0D
:10C2800000F038FC002835D1216B00290ED002A81F
:10C2900002F0FCFF19482B46323000901848082263
:10C2A00002A9801F00F026FC002823D1606B002823
:10C2B0000BD012492B463A3100910279016810489F
:10C2C000401C00F017FC002814D1A16B002910D0ED
:10C2D00002A802F0BDF90948423000E00AE00090EF
:10C2E00007482B46072202A9273000F003FC00284C
:10C2F00000D1002004B070BD0A180000881F002083
:10C30000292A000070B5044600F0A4FF2146154814
:10C3100000F086F8134821461838FFF781FE2046C2
:10C32000FFF7D8FE204600F041F920880E4D102876
:10C3300004D011280BD0502810D10CE0072000F0B9
:10C3400021FA002801D0FFF727FAA08801E0002099
:10C35000C043688002E00549012008602046FFF7DD
:10C3600093FC70BDC0220020001F002000A00040F0
:10C3700038B50D4604001ED0002D1CD02868206062
:10C380000020C043E08268892083012168468170D3
:10C390000A490180221D69460120A0DF002809D139
:10C3A0002946204602F010FC002803D129462046E9
:10C3B00002F0A0FB38BD0E2038BD000014180000AC
:10C3C00030B58BB0040025D0002923D0E08A134A71
:10C3D000904221D006AA204602F04EFC694605464E
:10C3E000088000200190029003900490E2888A80E7
:10C3F00001228A71088106A803910490E08A01A9AC
:10C40000A6DF002804D169460988A94200D00C2083
:10C410000BB030BD0E20FBE70820F9E7FFFF00005E
:10C4200038B5002821D000291FD00A88102A17D03B
:10C43000112A17D0502A18D1CA884389891D9A42D7
:10C4400013D10A8B022A10D10268002A0DD0CB7EAC
:10C450008C7E19022143C907C90F07D0002106E0CD
:10C46000898801E00021C943C18238BD01216B46A2
:10C4700019706946904738BD70B504460D460846A8
:10C48000FEF7A2FE2080656070BD0A7802704978D0
:10C49000417002207047000000B585B0002348229B
:10C4A0001749082002F0D8FD002801D0FFF774F9E1
:10C4B0006A460121002002F0B7FD002801D0FFF7F5
:10C4C0006BF9104802F056FC002801D0FFF764F920
:10C4D000684602F09FFD002801D0FFF75DF90A4889
:10C4E00002F08EFD002801D0FFF756F9074802F050
:10C4F000CBFD002801D0FFF74FF905B000BD0000CB
:10C5000060220020001E002005C301007DF2010012
:10C510001CB5044681786A460C4802F0C9F8002828
:10C5200012D160781C21484309491C2340181A463F
:10C53000694602F077F9064806494030807A800063
:10C540000A582146684690471CBD0000E41F0020A1
:10C550008C25002054FC01007CB5134E00250C46B0
:10C560003060002918D06946002000F0B5F8002896
:10C5700019D101A9012000F0AFF8002813D16846B5
:10C5800001790020002901D0022004E069460978E1
:10C59000002900D00B2020707068002802D1FFF71E
:10C5A00076F8054628467CBD481F002010B51C4C77
:10C5B0000188606810290DD011290AD1401E6060E1
:10C5C00007D1FFF764F8002803D02168002900D0C4
:10C5D000884710BD00281ED100210122084600F026
:10C5E000ADF8002801D0072811D10722022101202F
:10C5F00000F0A4F8002801D0072808D10422022165
:10C60000002000F09BF8002805D0072803D02168FF
:10C61000002900D088476068401C606010BD0000A1
:10C62000481F002010B5032000F006FA002801D0B2
:10C63000062800D1002010BDF8B507460024234885
:10C6400002E0641C042C1AD2A2008258BA42F8D12B
:10C65000042C14D21D481E4E0C38002929D0012963
:10C660000ED002290BD16000201880194578002DCA
:10C6700005D018480169002901D028468847F8BD2F
:10C6800061006118755C8E19717800290CD0114910
:10C690000A224968806851430E4A521CFFF712F97A
:10C6A000002801D10B4847700A48B1781430015571
:10C6B000DDE78068FFF744F906486100611814302F
:10C6C0008919005D8D78A842D1D0F8BD10FC010019
:10C6D0005C230020301F002004280CD2074A126976
:10C6E000074B80001B5C01209840904300D0012044
:10C6F0000870002070470020FAE700000005005095
:10C7000010FC010010B5042806D007280ED00A2816
:10C7100001D102F03DFC10BD07481321408876DFAF
:10C7200006E00028F7D0FFF737F810BDFFF70AFB47
:10C730000828F6D110BD0000001F002070B50023AE
:10C74000042811D2440004190D4D012A02D10129F7
:10C750000DD0002246008019094E801900290CD006
:10C76000012906D0022906D00723184670BD0D30D6
:10C77000C2B22A55F9E74270F7E78270F5E7000088
:10C780005C23002010B5054A0146127A0020D2072A
:10C7900002D0084600F054F810BD0000301F002001
:10C7A00070B50E46204905464E608D6000200A6136
:10C7B000A9071ED50024012211462046FFF7BEFF1F
:10C7C000641C042C02D20028F5D012E0002810D1FD
:10C7D000720804211548FEF797FF002809D1FEF7DB
:10C7E00081FF002805D11148114A00211438FFF7B4
:10C7F0000BF8E90706D00F220E4952058A60002384
:10C80000CB608A6100280DD108480B4A00211C38F2
:10C81000FEF7FAFF002805D10448084A012118381C
:10C82000FEF7F2FF70BD0000301F002020FC010069
:10C8300075CA010000050050ADDE0100CDB6010053
:10C84000FEB57A4D0722EB6892059A4302936B6816
:10C8500000939C0006461B19002001210193490505
:10C860000746734C3300FEF7EBFD180D15153747DF
:10C8700055677C887F8891DE9E9E9E9E9EC8CED105
:10C88000D8DEDE140F21029A49059143A160E760CA
:10C890002F70FEBDA260E76060680F225205504015
:10C8A000800209D5A160E760022E02D1E120C0001C
:10C8B0000AE07D20400107E0E160A760022E01D17F
:10C8C000C82001E0FF2091302E706421FEF72EFC7D
:10C8D0000099414300223FE0A260E76060680F22B8
:10C8E00052055040800204D5A160E7601920400144
:10C8F000EAE7E160A760E3E7A260E76060680F2213
:10C9000052055040800202D5A160E760D1E7E160A6
:10C91000A760D7E7A260E76060680F225205504029
:10C92000800202D5A160E76001E0E160A7602E709F
:10C930000098410000220FE0A260E76060680F22CB
:10C9400052055040800202D5A160E76001E0E1603D
:10C95000A7602E700099002236480068FEF7B2FFEB
:10C96000FEBDA260E7601BE0616801208005024611
:10C970008A43A2600140E16010E0606801218905FE
:10C980000A468243A2600840E060E3E76068012154
:10C9900089050A468243A2600840E0600199C9E720
:10C9A000E160A7602DE023484068FEF7C9FF112130
:10C9B0008A1B01D0002807D00F22E96852051140D8
:10C9C000A160E760EF60FEBD0121C905E960012AB1
:10C9D0000CD91046C82148436421FEF7A7FB6968BB
:10C9E0000022414313484068FEF76CFF0F22E968BC
:10C9F00052051140E160A760FEBD0F214905A1600D
:10CA0000E7602E70FEBD07229205AAE70D214905B9
:10CA1000A160E76001218905C2E70321C905A16082
:10CA2000E7608910BCE70F214905B9E7301F0020F6
:10CA30000005005004FC0100F0B500210B4C0C4D2A
:10CA400003273F048A00A258920056193268012336
:10CA50008B40034000D00323BA431B0413433360CD
:10CA6000491C0429EED30020F0BD000010FC010099
:10CA70000007005010B500780221FFF7DDFD10BD62
:10CA80000022D243830004490428CA5002D3081864
:10CA90002030027770470000C8260020F0B500253E
:10CAA000ED43002A02D00023042601E004230826D7
:10CAB0000B4C04E09F00E7597F1C04D05B1CB34281
:10CAC000F8D32846F0BD26185DB2203635709E009A
:10CAD000A151002AF5D1E11820310877F1E70000D3
:10CAE000C826002002490918202008567047000077
:10CAF000C8260020FFB58FB01E4615460F0002D194
:10CB00000020FEF749FE002D02D10020FEF744FE72
:10CB10001C216846FEF74DFB684601780220014360
:10CB20006846017000240194039404940594012143
:10CB300008A80694817068460F990184079431789B
:10CB4000017771784177807FF9210840F721801CB7
:10CB50000840EF21084041084900684681771421C8
:10CB600009A8FEF726FB08A8099007A80A906846BE
:10CB70008585C485058604480D9709AA69460088FD
:10CB8000189BA2DF13B0F0BD881F0020F8B53E4807
:10CB90001422017851430C18E0680C2148433A49AB
:10CBA0002769CC314018058941890091241D4668C8
:10CBB00001F00CFE01463846FEF7B8FA002932D0E3
:10CBC00000200099A2884D436188AE198918CD19BB
:10CBD00000222E4900280A6109D001F0F7FD618882
:10CBE000884222D0B54202D1A08800281DD0A0687A
:10CBF00002281AD001F0EAFDA188CA1901461046A0
:10CC0000FEF794FA214C8808E06001F0DFFD014650
:10CC10002846FEF78BFA002911D00020B5422FD00C
:10CC200000280ED02CE00120CBE701F0CFFD01461B
:10CC30003846FEF77BFA15494861032021E00120C0
:10CC4000ECE7ADB2B7B201F0C1FD01463846FEF7E0
:10CC50006DFA064601F0BAFD01462846FEF766FA6F
:10CC6000864201D1781B09E001F0B0FD064601F0D3
:10CC7000ADFD01462846FEF759FA701A800820617A
:10CC8000022002F099F9F8BDF0250020EC1F0020E9
:10CC900010B5074814220178514308180079042878
:10CCA00002D000F059F810BD012002F085F910BD46
:10CCB000F025002010B50B481422017851430818C4
:10CCC000094AC18811620079012806D0032801D0E1
:10CCD000042801D1FFF75AFF10BD012002F06CF9C2
:10CCE00010BD0000F0250020EC1F0020142250434E
:10CCF000054A002180180171C18001220161C260D2
:10CD00004161018170470000F0250020F8B5104C0A
:10CD1000069E65780A2D19D027787D190A2D00D333
:10CD20000A3D14277D432D1928716A6103C92961C1
:10CD3000E860EB802E816078401C607005480078C8
:10CD4000002801D1FFF7B6FF0020F8BD0420F8BD90
:10CD5000F0250020EC1F002010B50D4C1421207888
:10CD6000484301190020091DFEF728FD2078FFF730
:10CD7000BDFF6078401E60702078401CC0B22070FB
:10CD80000A2801D100202070002002F015F910BD02
:10CD9000F0250020F8B52348C16800293ED00E6870
:10CDA00021494C680769C078E11B0D022D0AED1C72
:10CDB000002814D101201D4A000450601B4A403A4B
:10CDC00050601B49400008601A4908601A49012058
:10CDD00008602F20FEF77EF912490120C870B54285
:10CDE00000D23546E81900020F4B000A40331860A4
:10CDF0000D4A5168001B091B0902090A0002000ABA
:10CE0000C91C814209D9506818602F20FEF762F9C9
:10CE100001200749400480390860F8BD01F05EFF39
:10CE2000F8BD0000242000200015014040130140FF
:10CE300080E200E000E100E000100140F8B50646A5
:10CE4000108814468446801D0D46984201D90C2056
:10CE5000F8BD32880720062AFAD31927FF01184B9C
:10CE6000BA4201D99A42F3D171880629F0D3B94266
:10CE700001D99942ECD19A4203D0994201D08A4219
:10CE8000E6D805216046295420881221401C80B232
:10CE9000208029542088401C80B22080411930888D
:10CEA00002F0B6FB2188401880B2208041197088BA
:10CEB00002F0AEFB2188401820800020F8BD000061
:10CEC000FFFF000010B5FEF767FC10BDF8B516486F
:10CED00000F068FF144D00260C3D144C002807D0CC
:10CEE000616900291CD001206A461070684616E06E
:10CEF0002878002805D06169002911D0684606709D
:10CF00000DE0687800280DD0A1680948002200686B
:10CF1000FEF7D8FC002803D0A169002900D088477B
:10CF20002E70F8BD6168F0E7801F0020AC2400205F
:10CF300040FC010070B5094B04469E7A082000258C
:10CF40000E4207D00648844202D01889A04202D17E
:10CF50000020156070BD052070BD0000C0250020B8
:10CF6000FFFF00000C214843064910B5012240187C
:10CF70008272911E0181FF21C1720721FEF719F90A
:10CF800010BD0000C025002010B5134C207900070B
:10CF90001FD46069401C6061E068002801D0042053
:10CFA00004E000F031FF002803D0022002F05CF919
:10CFB00010BD2069002809D06068C10701D0032096
:10CFC000F4E70121084360600020EFE7FFF760FE0F
:10CFD00010BD02F03DF910BDEC1F002010B508484F
:10CFE00041680A0708D48A0702D50122114341602B
:10CFF000022002F039F910BD02F02AF910BD00003C
:10D00000EC1F0020F8B500260124154D23E06968C7
:10D01000F0004718387821462A698140114218D01B
:10D020008A432A6101F03EFA3A782146EB68914042
:10D0300019400346934099420BD17978012901D0D8
:10D04000012100E000217B684140002B01D0104607
:10D050009847761CF6B228788642D8D3F8BD0000EF
:10D0600010200020FEB50E46044681786A4623480B
:10D0700001F01EFB002827D160780C21204F484387
:10D08000C019807A400620D4022E1ED0012E1ED058
:10D090001C4DA0781C21484319490023F839411838
:10D0A0001C226846A847002813D0022E0CD02078F6
:10D0B0000C21484312490C314018807A12498000F3
:10D0C0000A58214668469047FEBD104DE1E7104DD5
:10D0D000DFE7022EF8D060780C214843C019817A2E
:10D0E000BF221140817260781C21484304493439C1
:10D0F00041181C231A466846A847D8E7E41F0020B9
:10D10000C0250020D5F1010044FC010065EA0100C2
:10D1100089E9010070B50546114A124800241C2314
:10D1200063431B189B7EFF2B04D0641C072CF6D393
:10D13000104670BD0A78022A09D01C2262431018DA
:10D14000FD22827607221030FEF71AF804E01C2137
:10D1500061430818FE2181762C700022E8E7000068
:10D1600043800000C8240020F7B505250F4F064670
:10D170000024002E0AD01C206043C019072231462B
:10D180001030FEF728F8002807D00AE01C20604382
:10D19000C019018B0298814203D1019800250460D7
:10D1A00002E0641C072CE4D32846FEBDC8240020FE
:10D1B0007CB5054681B26A46074801F079FA040059
:10D1C00008D15421684601F09DFA040002D1284696
:10D1D00001F00AFA20467CBDE41F002010B51000C3
:10D1E00001D0FEF7D9FA002010BD00001FB5694636
:10D1F000087301F0F1FA002801D0FEF7CDFA03A878
:10D2000000F020FA002801D0FEF7C6FA01A8052197
:10D210000130FDF7CEFF6946487901221043E12134
:10D220000840DF210C3008406946487107208871AA
:10D230001020C871054800900A71054800F014FBE1
:10D24000002801D0FEF7A8FA1FBD0000DDD10100C3
:10D25000001F0020F0B5054693B000200290FF2487
:10D26000EC480E940078002849D0EB4F386800282D
:10D2700045D001A800F0D8F9002801D0FEF78CFABB
:10D28000281D05902A2069460883FF200026887102
:10D290000E710396E04C28880C3C10280ED0A8880C
:10D2A00003AA0221FFF746FE002807D103980C21AC
:10D2B00041430919CA7A69468A714871288813223C
:10D2C00017287CD00FDC10281BD0112853D013282E
:10D2D00076D0142813D103980C2148430019C07A42
:10D2E000FF2871D08DE0CD4918286BD01C286AD05A
:10D2F000522804D1B87A8000095801A8884713B091
:10D30000F0BDC74F03AA01213846FFF713FE0028DE
:10D31000F5D103990C20484302220019827211238F
:10D320006A4613745171A98801810722A91DFDF76E
:10D3300027FF687DC10707D04108B6480830405C28
:10D34000FF2808D00E9006E03A460EA9A81DFFF768
:10D350000BFF00280ED103990C22514309190E9896
:10D36000C8728A7A08231A438A726946887101A8AA
:10D37000FFF7CEF839E103980C2148430119887A68
:10D38000FD2210408872010706D5C0090DD000218A
:10D3900001A8FFF767FE08E068468079FF2804D0FF
:10D3A00001F022F9FF206946887103980C2250434E
:10D3B00010210019817212206946087415E17FE07E
:10D3C00030E001E0D5E00EE1EA890EA90020FFF788
:10D3D000CBFE00280ED103980C22504300190E9961
:10D3E000C172837A0822134383726846817101A84F
:10D3F000FFF78EF803980C2148430019C07AFF28E4
:10D4000006D003981C2148438349403940180290B4
:10D4100003981C21484383494218A8880023029995
:10D4200082DF6CE768460274039B0C2058430119A5
:10D43000887A042210438872C87AFF2830D01620D8
:10D44000694608741820434373480E21243818187D
:10D450000830FDF7AEFE03980C2148430019817A8D
:10D4600040221143817203990C2200204A430A9002
:10D470001219D27A1C235A436A4B0C90D2180B9281
:10D480001C2251431A46C43289180791089009900A
:10D490003A1DA88807AB00217FDF0028C1D1A4E096
:10D4A0000EA8FFF737FE002801D00646DBE76946E5
:10D4B0000E98887103990C2251430919C872D2E75A
:10D4C000787A400840007872039A0C2094464243D0
:10D4D00011198B7AFB2003408B7214206F4638742D
:10D4E000A879002804D0C87AFFF762FEAE797CE004
:10D4F000E879400779D5B879FF2876D008273B43EB
:10D500008B72EB7A9B0708D51C2503466B43454D70
:10D510005B199D7E6D086D009D76CB7AFF2B64D0E4
:10D52000A25C022A10D01C2250433E4D0722401913
:10D530001030FDF725FE684680791C2148434019CC
:10D54000817EFD2211400EE061461C225143324A89
:10D55000403A89184A8A1C214843324940180283BC
:10D56000817E490849008176012101A8FFF77AFDF3
:10D570003BE0A8790209012A23D10007000F012806
:10D580001FD103980C2242431219927A120718D520
:10D59000182148432049243940180E210830FDF74E
:10D5A00008FE16206946087403980C2148430119A7
:10D5B000887A602210438872787A02210843787250
:10D5C0000FE003980C2250430019827A80231A43FB
:10D5D000827215206A461074B87A8000095801A832
:10D5E0008847002601E068460274324604A901A873
:10D5F000FEF7DEF86846007C122800D07FE603982C
:10D600000C2141430919897A0129F7D0FFF7AAFCB7
:10D6100075E60000D41F0020CC25002064FC01002A
:10D62000FFFF0000C8240020002806D0FF21017061
:10D6300041708170C1700020704701487047000040
:10D640000E800000F0B585B0040036D029480025D2
:10D650000560457285722846FFF784FC254818212D
:10D660002438FDF7A6FD0026FF27304600F0BCFF5A
:10D6700021488755761C072EF7D3542168468180B0
:10D680000721C1801D481C4900900831684601F0FF
:10D690001DF900280FD1184E0120083E3070207867
:10D6A00000280CD069468888C988484381B2304632
:10D6B000103001F027F805B0F0BD1148FBE7114F1D
:10D6C00000240D48A1B202AA083000F0F1FF0028A2
:10D6D00009D11C206043C01900231C2202A901F0BB
:10D6E000A1F8002801D03570E5E7641C072CE8D3C9
:10D6F000E1E70000CC250020DC1F002009D7010055
:10D700000E800000C8240020FFB554488FB0006888
:10D71000189F1E4600284FD0542F4DD86846FFF75B
:10D7200083FF002801D0FEF737F800246846047014
:10D730000471254605970696A9B20DAA484800F03F
:10D74000B7FF002806D108220DA90F98FDF743FD69
:10D75000002819D06D1C072DEED3684680780790FD
:10D76000FF2829D010982025032810D03D481C21DF
:10D77000301AFDF7DBFC012707282DD204A8029000
:10D78000119800281AD021E068468570E5E7542FEB
:10D7900003D040206946087101E06846057169467A
:10D7A0000879032108436946087104A8029001A979
:10D7B0006846119AFDF7FCFF13B0F0BD0799384693
:10D7C00088402749103949680842F5D0079801F088
:10D7D00025FF6846057138E020481C214038301A82
:10D7E000FDF7A4FC00280BD01C4D1821243D701B14
:10D7F000FDF79CFC00281AD0402069460871DBE741
:10D8000004A8029068460571447014480A940C30CC
:10D810000B904C380790684680781C21484311498A
:10D820004018089007A80690182005900DE03021B8
:10D83000684601714470C77008480C38807A8007C8
:10D8400003D428461821FDF7B4FC10986946022835
:10D85000087901D00221A5E73843A5E7CC250020AF
:10D86000E41F0020C824002070B5064618480D4665
:10D87000007800280ED01749002E0ED0002D0CD0B5
:10D880002868002809D0144C2168002907D01148C5
:10D890000A3870BD0F48801F70BD084670BD2060FB
:10D8A0000522691D201DFDF76BFC2879A072207AE6
:10D8B0000221400840000843FB2210402072E0791A
:10D8C0000123184308431040E0710020307070BD00
:10D8D000D41F00200E800000CC25002010B50E497A
:10D8E00000234A788C78A24212D0521CD2B24A70DD
:10D8F000022A00D14B704A78074B920018339A588D
:10D900000260086910180002000A0861012010BDB9
:10D910000360002010BD00002420002010B5002866
:10D9200003D0112802D0FDF75FFF10BD0248082286
:10D9300041681143416010BDEC1F002010B51C4C24
:10D94000217820464068012906D0022929D00329E0
:10D9500012D1000717D513E0000711D4154814227F
:10D96000017851430818C188A28B891A0904090C4F
:10D97000C18002D001F030FC10BDFFF7EDF910BD01
:10D9800000F028FC10BD6069401C606100F03CFAAA
:10D99000002803D0207801F00FFB10BDFFF778F9C5
:10D9A00010BD6078044980000858804710BD000011
:10D9B000EC1F0020F025002088FC010010B528DFB6
:10D9C000FFF7ACFF10BD10B529DFFFF7A7FF10BDB3
:10D9D0000EB51120694608720B2210A102A87CDF47
:10D9E000002801D0FDF7D8FE1120800178DF002843
:10D9F00001D0FDF7D1FE0021FF20913000916A4651
:10DA000001911080430053809180D08068467ADF76
:10DA1000002801D0FDF7C0FE0EBD00004E6F7264FD
:10DA200069635F5253433000002070470020704705
:10DA300000207047F8B506464078182104464C434C
:10DA400024490C2250436118224A00254B681832A1
:10DA50008018AE462F469C46002B0CD0827A134687
:10DA6000D20908D05A0606D40D461A4A614689B230
:10DA7000175908358E46174C008918343B467246B4
:10DA80002946A9DF0B2819D0002800D01248012F01
:10DA900013D170780C214843001900890F4AA7DF81
:10DAA00000280AD00E49884212D0082810D0891CBC
:10DAB00088420DD011280BD00020F8BD70780C21C1
:10DAC000484301230019008972462946A9DFE0E78F
:10DAD0000148F8BDA825002041800000FFFF00009C
:10DAE0000230000070B50C46014660781822084DDF
:10DAF00050434019382300F095FE002807D1617883
:10DB00001822514349194A68521C00D14A6070BD1D
:10DB1000A8250020F3B585B00D460E206946088281
:10DB200068780C2103274843224E3B468019008920
:10DB300004AA6946AADF002838D16878182148432A
:10DB4000741A001969460A8A0830FDF744FB002858
:10DB5000687807D0182148430119496800290DD079
:10DB6000154E0CE00C2141438919897A89071DD48F
:10DB7000182148430019FDF71CFB17E00F4E2750F2
:10DB80006846028A6878182148430019426068781C
:10DB90004843001969460830FDF7F2FA6878182101
:10DBA00048430119382318220598B047002007B0D0
:10DBB000F0BD0000C025002065EA010089E90100F0
:10DBC00010B5FFF737FF10BD10B5FFF78BFF10BD85
:10DBD00010B5FFF79FFF10BDF8B50746104E0125A1
:10DBE000BD403068FDF7ACFE00280DD10D4C20691A
:10DBF000284207D1384600F055FC0028E06804D0E0
:10DC0000284303E0A8432061F8BDA843E0602069F1
:10DC1000002228432061A1683068FDF753FEF8BD5B
:10DC20009CFC01001020002070B51B4C20790007DF
:10DC30002ED41A481422017851430D182E6900F091
:10DC4000C5FD0146E8882A89761E80188019FDF7EF
:10DC50006DFA21690025002909D06169814206D148
:10DC6000E560606801210843606000200AE000F080
:10DC7000CBF8002802D00220E56003E020690028EC
:10DC800003D0032001F0F0FA70BDFFF701F870BD7A
:10DC900001F0DEFA70BD0000EC1F0020F02500202E
:10DCA00000B506490448886201210548890281615E
:10DCB000C16000F007F800BD01030000000700503C
:10DCC0000005005010480021416081600921016178
:10DCD0000D490120403108600C4A4A600D4A0C4948
:10DCE00011600D494860C8600D490C480861094938
:10DCF0000C48C03901610C494161064ABC3A826155
:10DD0000C16103214160704700A50040FFFF000092
:10DD10000202000000A2004000A00040030A03002D
:10DD20000065004000F5014000600040F8B51C4C63
:10DD30002078002833D02069002807D00026E0682A
:10DD4000002805D00025002E04D011E00126F6E7BA
:10DD50000125F8E7684652DF052804D0002804D0E2
:10DD6000FDF71AFD04E0012602E0216900988847CA
:10DD7000002D10D1608869460880A06861DF052801
:10DD800004D0002804D0FDF707FD04E0012502E0DF
:10DD9000E168A0688847002EDCD0002DD3D0F8BD04
:10DDA00044200020418805480288914204D34088DD
:10DDB000814201D80120704700207047781F002061
:10DDC0001048018CC9B2012917D1818C090714D1DF
:10DDD000018D09060A0F03D1828D1206120F0ED093
:10DDE000090F012903D1828D1206120F07D00329D2
:10DDF00003D1808D0006000F01D000207047012064
:10DE000070470000C00F00F070B50E481422017872
:10DE100051430C18256900F0D9FC0146E08822899D
:10DE20006D1E80184019FDF781F907494A69824241
:10DE300006D3824202D10869002801D0002070BDBB
:10DE4000012070BDF0250020EC1F0020800701D0CC
:10DE5000002070470120704730B51588EC1C9C42AB
:10DE600001D90C2030BD02244C5513881C255B1CA5
:10DE70009BB21380CD5413885B1C9BB21380012886
:10DE800007D0022807D0032807D0042807D007208E
:10DE900030BD002004E0012002E0CC5401E003206A
:10DEA000C8541088401C1080002030BD10B50448B4
:10DEB000017AC90702D00078FEF7C2FC10BD00004D
:10DEC000301F0020F8B52C49C8680A690C780F7912
:10DED00089688646944600913EE00099E200551814
:10DEE0002A7836E0182353436968521CC918AB7866
:10DEF000D2B2934200D100220B78022B02D0032B26
:10DF000027D123E04E680346014603E0B14204D026
:10DF10000B46C96900291CD0F8E7002919D08B42AB
:10DF200008D1C069002805D1144F0126BE60002623
:10DF3000B44601270E68C969D961002909D00B6868
:10DF40009B190B6005E00174C06900E00021002806
:10DF5000F9D169789142C5D12146641EE4B2002905
:10DF6000BBD1054962460A61C8600F71704501D096
:10DF70000120F8BD0020F8BD242000200010014041
:10DF8000F8B5044631480026C168009107784EE094
:10DF90002E48F90080680D1843E0002C02D020467E
:10DFA000E4691FE02878182141436A68401CC0B228
:10DFB00051182870AA78904200D12E700A784868CB
:10DFC000012A30D1027C002A2DD18A684260CA68B9
:10DFD00082600A69C260496981611C490979002926
:10DFE00000D04660194943680A699C46991A09029B
:10DFF000174B090A994202D28268891807E06146E4
:10E00000511A09028268090A8A4202D9511A01602A
:10E0100000E006604660012186600174C66101F07F
:10E02000DDF9002CB9D1287869788842BAD1384610
:10E030007F1EFFB20028ABD10448C168009881421E
:10E0400001D00120F8BD0020F8BD000024200020F0
:10E05000FFFF7F0098B001F06DF9FFF721FE00236C
:10E06000514A05211846FDF7E5FB002801D0FDF7D0
:10E0700093FB4E4A01214E48FDF7C6FB002801D014
:10E08000FDF78AFB4A484B4A0121001DFDF7BCFB06
:10E09000002801D0FDF780FB474A48490320FEF7DE
:10E0A0007FFB002801D0FDF777FB01A90020FEF7D8
:10E0B00053FA002801D0FDF76FFB6846007902286B
:10E0C00069D0002168460170FEF7E6F968460078DD
:10E0D000FFF78CF8FFF77CFC382101A8FDF769F801
:10E0E000022168460171012585710621C171032451
:10E0F00084823348069024210FA8FDF75AF810A80F
:10E100000572282000251390B420009514902D4B03
:10E110000FAA294601A8FDF725FD002801D0FDF72B
:10E120003BFB00F0C1FE00F02DFE1C216846FDF710
:10E1300040F80520C00301900F20000402900095D4
:10E1400068460473204841896846C18105741F48A8
:10E1500005901F4806906846FDF792FF002801D001
:10E16000FDF71AFB124C0121002209042068FDF77B
:10E17000A9FB002801D0FDF70FFB0121C9030022F4
:10E180006068FDF79FFB002801D0FDF705FB032029
:10E19000FDF7F8FD02E0012194E748DF0028FCD0FC
:10E1A000FDF7FAFAF9E7000098200020CDBA010047
:10E1B000FCF7010081EB010005C70100CD0C000058
:10E1C000241F00208FE50100C0220020B1E50100DE
:10E1D000C5CE010010B50448082241689143416052
:10E1E000007800F0E9FE10BDEC1F002070B5144669
:10E1F00082880E4605462088111D4118921C9942BE
:10E2000001D8FE2A01D90C2070BD521C325420883E
:10E21000FF21401C80B2208031542088401C80B2F5
:10E2200020808119288801F0F3F92188401880B2F4
:10E230002080AA88002A09D0A968002908D080195E
:10E24000FCF79EFF2088A98840182080002070BD20
:10E25000072070BDF8B50F46017814460546012920
:10E2600002D16878002806D02088821C9A422DD8D6
:10E27000012902D006E00720F8BD69784118891C01
:10E28000994223D8181A801E86B2684606802188D3
:10E29000B81C081869467DDF0028EDD128780228CF
:10E2A00005D169460988B14201D809210AE008214F
:10E2B000012805D16878B04202D86A46108001E092
:10E2C0006846068068460088FE2801D90C20F8BD03
:10E2D0002288401CB8542088401C80B220803954C9
:10E2E00020886946401C2080098840182080002032
:10E2F000F8BD0020704700207047002070470000E4
:10E300008207D30EFF229A408907090E10B5994063
:10E3100000280BDA03071B0F083B9C080C4BA400DA
:10E32000E318DC6994430C43DC6107E08408094B83
:10E33000A400E418236893430B432360C106C90E6D
:10E3400001208840044908600449086010BD0000AD
:10E3500000ED00E000E400E080E200E000E100E029
:10E36000F3B581B00F46019800F05AF90124002856
:10E370001E4E019817D0FEF7B5FB80192030007FA4
:10E380008009032802D0012806D007E01848006958
:10E3900001998C40204201D1022100E00321019823
:10E3A00000F0CEF8FEBD00F047F90028FAD0019841
:10E3B000FEF798FB05468100C81D0E4AF930891802
:10E3C0000A6980B222430A610B49401800210160AA
:10E3D000002FE7D00198FEF785FB80003058002819
:10E3E000E0D00648AC404460FEBD0000C8260020D6
:10E3F00000050050006500400060004000630040E0
:10E40000FEB5044623480E46001920214156002738
:10E41000C8171346401C01D0082738E0F278194687
:10E420002046FEF73BFB0546401C2FD0B078002865
:10E4300007D01948A1000918086802229043086013
:10E4400007E000217378204600910A46019100F010
:10E4500065F8F078002810D01048AA00101831781C
:10E4600002690F4B1A400261E206D20C8907890B40
:10E470000A4301690A43026109E0064832784019FB
:10E480002030017F92011143017700E004273846D4
:10E49000FEBD0000C82600200007005000650040B7
:10E4A000FFE0FCFF03490969C140C807C00F00D065
:10E4B000012070470005005070B5124D28790028E2
:10E4C00001D0082070BD0F4900204039421E0B18B2
:10E4D0002033401CC0B21A702028F8D300242046F4
:10E4E000FEF7CEFA641CE4B2082CF8D30321062010
:10E4F000FFF706FF01200449C0074860012028718A
:10E50000002070BD08270020006300400248007909
:10E51000002800D0012070470827002030B55200A5
:10E520000A439900039C0A432102049D0A432904DB
:10E530000A43024980004018026030BD00070050C5
:10E54000820006481018026803231B049A430260E5
:10E55000026809040A430260704700000007005087
:10E56000034940180068012800D0002070470000CF
:10E57000006000404058002800D00120704703226E
:10E58000120280184068084000D00120704710B582
:10E59000002809D0032806D10220FEF7F3F800284E
:10E5A00001D0FDF7F9F810BD00F0F2FC10BD00003D
:10E5B00010B50078002807D104483B21408876DF59
:10E5C000002801D0FDF7E8F810BD0000001F002072
:10E5D0000021425C002A01D001207047491C062915
:10E5E000F7D300207047000070B505461C200B498A
:10E5F00068434418204611300621FCF7DAFD204616
:10E600001021FCF7D6FDFF2121740020A176C04324
:10E610002083284601F002F870BD0000C8240020C5
:10E620000449081820214156042901DB01207047C4
:10E6300000207047C82600200449081820214156B0
:10E64000042901D20120704700207047C82600200D
:10E6500070B50D00044602D10020FDF79DF8002C96
:10E6600002D10020FDF798F8287820706988617041
:10E67000090AA170A988E170090A2171E88860710E
:10E68000000AA07170BD000007490979490701D44B
:10E6900008207047002804D0044949780160002010
:10E6A00070470E2070470000EC1F0020F02500206E
:10E6B00030B5124B1B795B0701D4082030BD002810
:10E6C00005D0002A03D00468002C10D101E00E20F0
:10E6D00030BD0B4B1D68002D09D04568188941439A
:10E6E00069185D89454358682818884201D8072071
:10E6F00030BD14600020516030BD0000EC1F0020D0
:10E70000BC260020FEB5054625480E460079400788
:10E7100001D40820FEBD002D03D02868002834D184
:10E7200001E00E20FEBD1F4C216800292DD060891C
:10E7300021894843616841186868814225D9FFF7FB
:10E7400085FB00280FD06868019029680C2251438E
:10E750000F1979680091401A39890C46FCF7E6FCDC
:10E76000002912D101E01020FEBD21463046FCF701
:10E77000DDFC002909D1002E07D078894443019897
:10E78000811900980019814201D90720FEBD00209F
:10E7900002460090334629460320FEF7B7FAFEBD35
:10E7A000EC1F0020BC26002010B507484469601CFF
:10E7B00006D000F00BF801462046FCF7B7FC10BD70
:10E7C00001200007406910BD001000100120000763
:10E7D000006980B27047000070B500240F482546DC
:10E7E000047044702846FEF781FA6D1C0A2DF9D397
:10E7F0000B4D6C80FFF7D8FF861EFFF7E7FF4643FF
:10E800000648AE60CC306C610460048144812C7099
:10E81000AC610420EC616860002070BDF025002030
:10E82000EC1F0020FFB5274881B000791F4616462F
:10E830000D46400702D4082005B0F0BD002D06D0DB
:10E840000198002803D02868002815D101E00E2087
:10E85000F2E71D4C206800280ED06189208962688B
:10E86000414389186A68914206D9002E04D0B0420B
:10E8700002D3F119814201D90720DDE70198FFF7A2
:10E88000E5FA00281BD03846FFF7E0FA002816D03A
:10E890006868FFF7DBFA002811D068683246C119B2
:10E8A0000198FCF76DFC009628680C214843245819
:10E8B000002202212846019BA0470020BCE710202F
:10E8C000BAE70000EC1F0020BC260020F8B52C4D54
:10E8D000044628790E46400701D40820F8BD002CD4
:10E8E00020D0002E1ED0206800281BD0FFF76EFF1E
:10E8F0000146A088814213D3102811D3E088002854
:10E900000ED0FFF751FF471EFFF760FF4743E28835
:10E91000A188A8684A431218974201D3890703D0F7
:10E920000720F8BD0E20F8BD6988012926D0316086
:10E930000C22144B51437060CA1850602068585024
:10E94000A0881081E0885081FFF740FF0646FFF75E
:10E950003DFFA188E288401E514340183146FCF734
:10E96000FBFB0446FFF732FF0146A8686143081825
:10E97000A8606888401C68800020F8BD0420F8BDAD
:10E98000EC1F0020BC260020F8B5044620481E4697
:10E99000007915460F46400701D40820F8BD002F26
:10E9A00005D0002C03D02068002815D101E00E20EE
:10E9B000F8BD1848016800290ED0428901894068D5
:10E9C0004A4310186268904206D9002D04D0A9422B
:10E9D00002D3A819884201D90720F8BD3846FFF7AD
:10E9E00035FA002811D03046FFF730FA00280CD055
:10E9F0006068FFF72BFA002807D02B463A462146DD
:10EA000001200096FEF782F9F8BD1020F8BD000045
:10EA1000EC1F0020BC26002010B5114902460878E2
:10EA2000002811D004280FD0022A16D0032A0BD1B7
:10EA30000A79120711D48A69521C8A61032A08D004
:10EA4000022802D000F0B8FA10BD487800F00CFCA3
:10EA500010BD0D20FCF7C8FE10BDFEF76FFF10BD06
:10EA6000EC1F0020F8B5044620481E4600791546E4
:10EA70000F46400701D40820F8BD002F05D0002C18
:10EA800003D02068002815D101E00E20F8BD1848F9
:10EA9000016800290ED04289018940684A43101854
:10EAA0006268904206D9002D04D0A94202D3A81969
:10EAB000884201D90720F8BD3846FFF7C7F900287A
:10EAC00011D03046FFF7C2F900280CD06068FFF77C
:10EAD000BDF9002807D02B463A462146042000966F
:10EAE000FEF714F9F8BD1020F8BD0000EC1F00205F
:10EAF000BC260020F0B58FB00D4606461C216846A6
:10EB0000FCF757FB6846017802273943017000245F
:10EB10000194039404940594012108A8069481703B
:10EB20001649684601840794E9790177297A417783
:10EB3000807FF9210840F721801C0840EF21084020
:10EB4000410849006846817714210AA8FCF731FB87
:10EB5000698908A80171090A41710A9007A80B90F8
:10EB6000684607864486878609A80E903346B08893
:10EB70000E330AAA6946A2DF0FB0F0BD542A000086
:10EB80001FB5002469460C704C700120887000F09D
:10EB9000B3FB694688808C710C810848FDF710FC36
:10EBA000002809D0082807D00549884204D0054923
:10EBB000884201D0FCF7F0FD1FBD0000C0220020FC
:10EBC0000430000001340000F0B500240646601C4B
:10EBD00095B000070D46000F08A910300C9408747A
:10EBE00028794874887CF9273840801C88741C2157
:10EBF00005A8FCF7DEFA6946087D1021084369463E
:10EC000008750CA806940A9008940994012208A992
:10EC10000B948A761748694608870D94687908A985
:10EC20000875A8794875887DF7213840801C084010
:10EC3000EF210840104308A9887514216846FCF7A5
:10EC4000B8FA0EA800900DA8294601900FAA0C3121
:10EC5000304600F011F86946088114204C81888103
:10EC60000FA80490B088B31D6A4605A9A2DF15B0AD
:10EC7000F0BD0000532A0000F0B58C885470240ABF
:10EC8000064694708879D070347E002302250420D3
:10EC9000E40708D00C78002C05D00C891471240AE4
:10ECA000012354710620347EA4070DD54C78002C26
:10ECB0000AD02B43CC6815182C70270A6F70270CCC
:10ECC000240EAF70EC70001D347E640704D5897883
:10ECD000002901D004210B431370F0BD70B501244D
:10ECE0000B49600408600B494010886009494039AD
:10ECF0008860094D6C602F20FCF7ECF9AC60074D83
:10ED000000242F202C61FCF7E5F9EC7070BD0000A9
:10ED100080E100E040130140001001402420002069
:10ED200030B50A48FF21C57D0022094C0931094B45
:10ED3000002D625007D09969437EC268D154417E4C
:10ED4000491C417630BD986930BD00001027002075
:10ED500000200040002500401FB501236A461370C3
:10ED600010720348019106C8684690471FBD000015
:10ED70001027002008B502490020009108BD0000BE
:10ED8000001F002070B51C485121016064214160C2
:10ED90000121816001730146184800F031F81648DE
:10EDA0008021103001600D21C9014160FF218131B6
:10EDB00081600024047301461048083000F020F8F8
:10EDC0000D482821203001601425A0218560416074
:10EDD000047301460948103000F012F806487D21FE
:10EDE00030300560416005218160047301460348AD
:10EDF000183000F005F870BDDC220020041F002050
:10EE00000A7B002A03D049680160002102E00968FA
:10EE10000160012101717047FFB50746806A81B02A
:10EE2000144600283DD0002538462030009033E0BD
:10EE30000C20B96A68430E18B088801CFE2802D9DD
:10EE40000C2005B0F0BD22880299401C885420880F
:10EE50001622401C80B2208002990A542088401C4F
:10EE600080B2208002994118308800F0D1FB2188BF
:10EE7000401880B22080B288002A0AD0B1680029E8
:10EE80000FD0029BC018FCF77BF92088B18840188E
:10EE900020806D1C0098EDB2007BA842C8D80020ED
:10EEA000CFE70720CDE7000030B59DB01C2110A8AA
:10EEB000FCF77FF90024052110A810944181012559
:10EEC0000573447384738482601C0107090F10A8C2
:10EED0001031017121074471090F817129461031E8
:10EEE000C1710020014610A8017201462248FDF7B9
:10EEF0003FFA002801D0FCF74FFC142117A8FCF7BB
:10EF000058F90120014618A810314172012001462C
:10EF100018A8103181720020014618A8C172012082
:10EF2000014618A8103101731794057064211994D3
:10EF30000172114817A91838FDF74EF8002801D0C2
:10EF4000FCF72AFC40216846FCF733F90BA1684620
:10EF5000FDF792FA0120014608A810310177002040
:10EF6000014608A841776846FDF72CF9002801D032
:10EF7000FCF712FC1DB030BDC02200204E6F726441
:10EF8000696353656D69636F6E647563746F720056
:10EF900010B50020FDF7F6FB002801D0FCF7FCFBC4
:10EFA000FDF740FB002801D0FCF7F6FB3CDF002812
:10EFB00001D0FCF7F1FB10BD10B50F490028087017
:10EFC00009D0012811D0022812D0032802D14869A3
:10EFD000FEF7F4FC10BD00208861C8610748407846
:10EFE0000028F7D0FDF766FE10BD00F0F5F810BD63
:10EFF00000F054F810BD0000EC1F0020F0250020A8
:10F00000002803D00249C860002070470E207047D6
:10F01000442000201CB5034901910091694660DF3E
:10F020001CBD0000001F002070B50E4605461446AA
:10F0300014211046FCF7BDF8012000212080216139
:10F04000217326726572002D00D0A072002070BD61
:10F0500010B5FCF793FB10BD70B5002901D08C07EB
:10F0600001D0072070BD064C0125A16062800549D2
:10F07000636010DF0028F5D1257016202EDF70BDEB
:10F080004420002051F00100002803D0024908610B
:10F09000002070470E20704744200020F8B5164C21
:10F0A00014226068400840006060144801785143B1
:10F0B0000E183769FFF78AFB01463846FCF736F829
:10F0C00005466061FFF782FB0146F0887F1EC0198C
:10F0D000FCF72CF802228542606801D1104300E061
:10F0E00090436060E1681040084303D0002000F0C6
:10F0F000BBF8F8BD0220FAE7EC1F0020F025002045
:10F1000010B502484069FEF759FC10BDEC1F002005
:10F1100010B5FFF749FB441EFFF758FB4443FFF7C8
:10F1200055FB04494A69521E5043CA682146FEF7FE
:10F130004AFC10BDEC1F0020F8B5104814220178DD
:10F1400051430C182569FFF741FB0146E0882289ED
:10F1500080184019FBF7EAFF0F46FFF725FB461E14
:10F16000FFF734FB4643E0882289F1198018044AEE
:10F1700040191269FEF727FCF8BD0000F0250020B9
:10F18000EC1F002070B5FFF721FB0546FFF70CFBD5
:10F19000441EFFF71BFB60432946FBF7C7FFFEF742
:10F1A0000DFC70BD70B5FFF711FB8608FFF70EFB75
:10F1B0000749496948430446FFF7F6FA451EFFF739
:10F1C00005FB684332462146FEF7FDFB70BD00009B
:10F1D000EC1F00200020704770B5144814220178FD
:10F1E00051430C18241DFFF7F1FA6188104E884234
:10F1F00011D2FFF7EBFA61880D1AFFF7E7FA8208E0
:10F20000A188E0684018216940194919FEF7DBFB25
:10F21000FFF7DCFA07E0A288E06880188A08216915
:10F22000FEF7D1FB6088F06170BD0000F025002082
:10F23000EC1F002010B505480079000703D4012019
:10F2400000F012F810BD00F003F810BDEC1F002014
:10F2500010B504480822416891434160407800F0AD
:10F2600003F810BDEC1F00200249487002498000DD
:10F2700008580047EC1F002074FC010010B504463C
:10F28000FFF7CAFB2046FCF73DFD10BD70B50C0032
:10F29000054602D10020FCF77FFA002D02D10020A4
:10F2A000FCF77AFA207828702088FF2109020840AC
:10F2B000000A6870206809020840000CA8702068E5
:10F2C000000EE87020792871207A68712089000A80
:10F2D000A871A068000CE87170BD000010B5054869
:10F2E0000079000702D4FDF7D3FC10BDFFF7B0FF93
:10F2F00010BD0000EC1F0020094A002010600949E1
:10F30000012008601368002BFCD0074A1368012B0A
:10F31000FCD0064A92684860054880567047000055
:10F320000071004000700040007400400075004013
:10F3300004F801000348024941600121016070475F
:10F340006220000000750040FEB51F4C00252769B3
:10F35000E06802906846FEF7C1FA0190FEF7B2FD40
:10F3600006460198002822D000230098E16817E0A3
:10F370000E680A46864202D9301A086012E0801BE5
:10F38000F31800261660D668D169B446002E07D05F
:10F39000FE183602360A566066469660D5611546F6
:10F3A0000029E5D12846E160FEF7EAFD06E028469F
:10F3B000FEF7E6FD002801D1002E02D00298FDF7ED
:10F3C000E9FC00202071FEBD24200020012002491C
:10F3D000000508607047000000E200E010B50E4B29
:10F3E000D968002906D002680C68A24204D8A21A83
:10F3F0000A60C161D86010BD0B4604E00B46C969C4
:10F40000121B002904D00C689442F7D3A41A0C6094
:10F410000260C161D86110BD24200020F8B51D4DE7
:10F42000EC68002C34D01C48002740682969401A39
:10F430000602360A2068B04218D8361AC719224682
:10F44000107CE46900280FD0002010746B69002B39
:10F4500007D0916950699847002805D0FCF79CF9BE
:10F4600002E0516990698847002CE3D16978A87857
:10F47000814206D1401CC0B2A870022801D10020F0
:10F48000A87004490006800D18310F50FFF79EFF49
:10F49000F8BD00002420002000150140FF2107488E
:10F4A0001D31002242500648828A8168895C828A26
:10F4B000521C82820348C161704700000020004056
:10F4C00010270020002500401FB500216A4611705A
:10F4D0001072044882680192817506C86846904798
:10F4E0001FBD000010270020F0B5454D012185B05B
:10F4F00049022846FFF743F801270026414C00281F
:10F5000024D0FF2125312846FFF734F800281DD0EC
:10F51000FF2025302E5081203B4980008860A07E4E
:10F52000002800D16F6002216846017037490868E1
:10F5300008600390E17D68460172E0680190E6751D
:10F54000267606CC6846083C90472BE004212846E6
:10F55000FFF715F8002825D0FF2109312846FFF7CD
:10F5600009F800281ED0FFF7DBFBE07D617E8842B2
:10F5700018D1207E002808D0627EE168E0752069FD
:10F58000E0602676667610460AE0A07E002800D16C
:10F590006F6081201C4980008860E675607EE168AC
:10F5A000FFF7DAFBFF211D312846FEF7E3FF0028B5
:10F5B0000DD0A18AA07D814202D2FFF76FFF06E045
:10F5C000FF211D316E50002801D0FFF77DFFFF2184
:10F5D00045312846FEF7CEFF00280ED0FF204530EB
:10F5E0002E50A07E002800D02F60E07D002804D09F
:10F5F000E675607EE168FFF7AFFB05B0F0BD000087
:10F6000000200040102700200023004080240040FC
:10F610000870000A487002207047000001218140F4
:10F62000024842688A43426070470000D41F0020AD
:10F6300038B51549154A488890420FD04A78144C7D
:10F64000521CD2B24A70237B934208D3091D75DF46
:10F65000002803D0A169002900D0884738BD0025C3
:10F660004D70217C002907D03B2176DF002803D094
:10F67000A169002900D0884761690029EED0684659
:10F680000570884738BD0000741F0020FFFF000090
:10F69000AC24002012494868C005C00D19D01038AC
:10F6A00040B2002807DA0207120F083A92089200C7
:10F6B0005118C96904E081080A4A89008918096853
:10F6C0008007C00EC1400806800F012803D0032820
:10F6D00003D00220704700207047012070470000CF
:10F6E00000ED00E000E400E042788378521CD2B2E2
:10F6F000934200D100220378934201D10020704749
:10F700000A70416840781822504308187047FFB5C6
:10F7100083B016460C9D0D9C1F4602220095019455
:10F72000039800F00CF8002807D13B461022314620
:10F7300000950194039800F002F807B0F0BDFFB502
:10F7400083B0074600200C9C8646268805463AE092
:10F750007868A90042181188684681805188C18064
:10F760000022694601A865DF002839D16846017882
:10F770000598814226D17046002801D0002200E081
:10F7800002222088891842180D998A4227D871468A
:10F7900000290AD1401C80B22080069A0499115495
:10F7A0002088401C208001208646218806980A185F
:10F7B000694601A865DF002812D1694620880978CA
:10F7C000401820806D1C3888A842C1DC7046002893
:10F7D0000AD02088801B401E80B2FF2802D90C204E
:10F7E00007B0F0BD069988550020F9E70179002996
:10F7F00002D1007B002800D0012070475820002053
:10F8000078200020CED4DADDE1E3E6E8EAEBEDEFA4
:10F81000F0F1F2F4F5F6F7F8F8F9FAFBFCFCFDFE6E
:10F82000FFFF0000010202030304040505060607AA
:10F8300007080809090A0A0A0B0B0C0C0C0D0D0D20
:10F840000E0E0F0F0F1010101111111112121213B2
:10F850001313141414141515151516161617171757
:10F86000171818181818191919191A1A1A1A1B1B07
:10F870001B1B1B1C1C1C1C1D1D1D1D1D1E1E1E1EBE
:10F880001E1F1F1F1F1F1F2020202020212121217C
:10F89000212122222222222323232323232424243E
:10F8A0002424242525252525252526262626262605
:10F8B00027272727272727282828282828282929CD
:10F8C00029292929292A2A2A2A2A2A2A2B2B2B2B99
:10F8D0002B2B2B2B2C2C2C2C2C2C2C2D2D2D2D2D67
:10F8E0002D2D2D2E2E2E2E2E2E2E2E2E2F2F2F2F37
:10F8F0002F2F2F2F30303030303030303031313109
:10F9000031313131313132323232323232323233DC
:10F9100033333333333333333434343434343434AF
:10F920003434353535353535353535353636363685
:10F93000363636363636373737373737373737375D
:10F940003838383838383838383838393939393932
:10F9500039393939393A3A3A3A3A3A3A3A3A3A3A0C
:10F960003A3B3B3B3B3B3B3B3B3B3B3B3C3C3C3CE4
:10F970003C3C3C3C3C3C3C3C3D3D3D3D3D3D3D3DBF
:10F980003D3D3D3E3E3E3E3E3E3E3E3E3E3E3E3F99
:10F990003F3F3F3F3F3F3F3F3F3F3F3F4040404073
:10F9A0004040404040404040404141414141414150
:10F9B000414141414142424242424242424242422C
:10F9C000424242434343434343434343434343430A
:10F9D00044444444444444444444444444444545E5
:10F9E00045454545454545454545454546464646C3
:10F9F00046464646464646464646474747474747A1
:10FA0000474747474747474748484848484848487E
:10FA1000484848484848482B2B2B2B2B2B2B2B2B6B
:10FA20002B2B2B2B2B2B4A4A4A4A4A4A4A4A4A4AF0
:10FA30004A4A4A4A4A4B4B4B4B4B4B4B4B4B4B4B1B
:10FA40004B4B4B4B4C4C4C4C4C4C4C4C4C4C4C4CFA
:10FA50004C4C4C4C4D4D4D4D4D4D4D4D4D4D4D4DDA
:10FA60004D4D4D4D4E4E4E4E4E4E4E4E4E4E4E4EBA
:10FA70004E4E4E4E4F4F4F4F4F4F4F4F4F4F4F4F9A
:10FA80004F4F4F4F4F50505050505050505050507B
:10FA9000505050505051515151515151515151515B
:10FAA000515151515151525252525252525252523C
:10FAB000525252525252525353535353535353531D
:10FAC00053535353535353535454545454545454FE
:10FAD00054545454545454545454555555555555E0
:10FAE00055555555555555555555555656565656C1
:10FAF00056565656565656565656565656575757A3
:10FB00005757575757575757575757575757575884
:10FB10005858585858585858585858585858585865
:10FB20005858595959595959595959595959595947
:10FB3000595959595A5A5A5A5A5A5A5A5A5A5A5A29
:10FB40005A5A5A5A5A5A5A5B5B5B5B5B5B5B5B5B0C
:10FB50005B5B5B5B5B5B5B5B5B5B5C5C5C5C5C5CEF
:10FB60005C5C5C5C5C5C5C5C5C5C5C5C5C5D5D5DD2
:10FB70005D5D5D5D5D5D5D5D5D5D5D5D5D5D5D5DB5
:10FB80005E5E5E5E5E5E5E5E5E5E5E5E5E5E5E5E95
:10FB90005E5E5E5F5F5F5F5F5F5F5F5F5F5F5F5F78
:10FBA0005F5F5F5F5F5F606060606060606060605B
:10FBB000606060606060606060606161616161613F
:10FBC0006161616161616161616161616161626223
:10FBD0006262626262626262626262626262626205
:10FBE00062636363636363636363636363636363E6
:10FBF00063636363636464646464646464646464CA
:10FC0000646464641C2300203C23002068230020DB
:10FC1000110000001200000013000000140000009A
:10FC20001100030039C601001200030039C60100AB
:10FC30001300030039C601001400030039C6010097
:10FC40008C240020FBE2010015DB010031DA010009
:10FC5000D1DB0100F7E20100E5DA01002DDA010055
:10FC6000C9DB0100F3E2010035DA010029DA010005
:10FC7000C1DB010085F10100A5F1010001F10100E6
:10FC800039F1010011F1010035F20100DDCF010071
:10FC900089CF0100DDF2010029DC01002C270020C2
:10FCA00003000000C4FC0100001F002058010000F8
:10FCB00014B20100E0FC010058200020F80E000002
:10FCC0006AB40100310321FFFF0C23141801000F57
:10FCD0001801000A1801A324F403FBFFFF00000031
:040000050001B0C185
:00000001FF
