:020000040001F9
:10B00000502F0020F5B001000FB1010011B1010077
:10B010000000000000000000000000000000000030
:10B0200000000000000000000000000013B101005B
:10B03000000000000000000015B1010017B1010080
:10B0400019B1010019B1010039B4010019B10100B1
:10B0500019B101000000000051B2010019B1010056
:10B0600019B1010019B1010019B1010019B10100B4
:10B0700019B1010019B1010019B1010019B10100A4
:10B0800019B101009DB3010019B1010019B101000E
:10B09000BDB3010019B10100C5B3010019B1010030
:10B0A00019B1010019B1010000000000000000000A
:10B0B0000000000000000000000000000000000090
:10B0C0000348854600F094F80048004765E0010019
:10B0D000502F0020401E00BF00BF00BF00BF00BFB8
:10B0E00000BF00BF00BF00BF00BF00BF00BFF1D165
:10B0F000704700000321094802680A4302600848BB
:10B1000002680A4302600748804707480047FEE795
:10B11000FEE7FEE7FEE7FEE7FEE70000240500404D
:10B1200054050040E5B30100C1B0010030B50B4645
:10B13000014600202022012409E00D46D5409D4211
:10B1400005D31D469540491B254695404019154697
:10B15000521E002DF1DC30BD70B5002425460028BC
:10B1600001DA01244042002901DA01254942FFF7B2
:10B17000DDFFAC4200D04042002C00D0494270BDFF
:10B1800003460B439B0703D009E008C9121F08C000
:10B19000042AFAD203E00B780370401C491C521EAB
:10B1A000F9D27047D2B201E00270401C491EFBD2B6
:10B1B00070470022F6E710B513460A4604461946C2
:10B1C000FFF7F0FF204610BD421C0178401C00290B
:10B1D000FBD1801A704730B504460020034600E0DA
:10B1E0005B1C934203D2E05CCD5C401BF8D030BDC9
:10B1F000064C0125064E05E0E36807CC2B430C3CCA
:10B2000098471034B442F7D3FFF75EFFC8F8010047
:10B21000E8F8010030B58C180278401C13071B0FAA
:10B2200001D10378401C120906D10278401C03E0CA
:10B2300005780D70401C491C5B1EF9D101E00B70B4
:10B24000491C521EFBD1A142E6D3002030BD0000B4
:10B25000F8B50024FF25013501262746009428462D
:10B2600003F084F9002808D034484068304204D004
:10B27000334800212818344301602D1D76007F1CBF
:10B28000ADB2042FEBD3FF207D3003F06FF900281F
:10B2900007D02C4800210160400704432A48006978
:10B2A00000902A4F200712D00126002526420AD0FE
:10B2B0002748AA00111808690969C004C00E89034B
:10B2C000BA58890F904776006D1C042DEED3002CE0
:10B2D00030DA00241D4E0021301940304156491CFF
:10B2E00025D00778BD06AD0E284601F003FC80008E
:10B2F0003658002E1BD0BF090121A940154AA800CD
:10B3000080180068009A8003800F114202D0022842
:10B3100002D00CE003280AD1032F05D102280AD05D
:10B320000221284603F012F939462846B047641C2A
:10B33000042CCFD3F8BD0321F3E7000000630040E5
:10B34000006000407C61004000050050C8260020DD
:10B3500000650040000700508307FF22DB0E9A4083
:10B360008907090E994000280BDA0007000F0838FA
:10B37000830808489B001818C36993430B43C361B3
:10B380007047830804489B001B18186890430843C3
:10B390001860704700ED00E000E400E010B50649D9
:10B3A0000020086048608860C86003494039086030
:10B3B000486004F045F810BD4011014010B503F09D
:10B3C000D5FF10BD10B506484068002805D080475D
:10B3D000002801D000F0E0F910BD02F0AFFC10BD74
:10B3E0004420002010B502F0F3FC002805D00E49DF
:10B3F0000C484860C8130D4988610D48018CC9B2DA
:10B4000001290ED1818C09070BD1018D0906090F85
:10B41000042906D1808D0006000F02D105490120C4
:10B42000886010BDDFFF07C000050040006C0040D1
:10B43000C00F00F00006004010B504F067F810BD22
:10B4400030B47446641E2578641CAB4200D21D469D
:10B45000635D5B00E31830BC184702E008C8121FA8
:10B4600008C1002AFAD170477047002001E001C1ED
:10B47000121F002AFBD17047F7B584B0002516884B
:10B4800007461580406B1446002813D003780598B2
:10B49000032E51D30221017021881122491C89B247
:10B4A000218042542188491C89B22180435420883C
:10B4B000401C2080386B00281DD005462088059947
:10B4C00002461232B24237D811220A542088102282
:10B4D000401C80B220800A542088401C20800F200D
:10B4E0002A5C2388401ECA54228840B2521C228003
:10B4F0000028F5DA0025384620300290807B0028AD
:10B5000006D033462246059902F0AEFC050014D160
:10B510000298407B002806D032462146059800F06C
:10B5200029FE050009D1B878002823D00598864661
:10B530002088001DB04202D90C2007B0F0BD68463B
:10B5400079DF0028F9D121880320724650542088E1
:10B550001921401C80B22080115420887146401C63
:10B5600080B2208041186846008804F063F8218882
:10B5700040182080F878002817D0218803230A4635
:10B58000FB56C91C0598B142D6D8022181542188A6
:10B590000122491C89B2218042542188491C89B268
:10B5A000218043542088401C20807868002817D0D0
:10B5B00021880023C3560A46C91C0598B142BBD84E
:10B5C0000221815421880A22491C89B221804254D7
:10B5D0002188491C89B2218043542088401C208046
:10B5E000388900280AD000943846019606220221A4
:10B5F0000830059B04F09DF805009ED1388A00288C
:10B600000AD0009438460196072203211030059B8A
:10B6100004F08FF8050090D1388B00280AD00094F0
:10B6200038460196152214211830059B04F081F844
:10B63000050082D1386A002806D033462246059993
:10B6400001F004FC0500D8D1786A002806D0334602
:10B650002246059902F0D0FD0500CED10298007B6C
:10B66000002807D0334622463846059903F00FFCE0
:10B670000500C2D13878002807D033462246384624
:10B68000059902F0EDFD0500B7D1284655E710B544
:10B6900001220221002001F059F8002801D00728DA
:10B6A00012D107220221012001F050F8002801D018
:10B6B000072809D100210A22084601F047F800288E
:10B6C00001D0072800D1002010BD000004484268C6
:10B6D0000121C9050B46934383600A40C26070474D
:10B6E0000005005070B50024064D06E06968E000D2
:10B6F000085C012102F03AFE641C28788442F5D3EC
:10B70000002070BD10200020F8B515460C460646F6
:10B71000052A01D20720F8BD02F0FEFE002803D161
:10B7200002F0D0FE0028F6D1104900204E600C70C7
:10B73000C8608D6008610E4D0DE0E00069688019F9
:10B74000009181786A46517000780A4A694602F091
:10B750005DFE0028DFD12046641EE4B20028ECD153
:10B76000054A0021024800F04FF8F8BD10200020E3
:10B77000C0F80100E9DB010015D00100BFF34F8FD5
:10B7800004490348C860BFF34F8F00BFFDE70000C6
:10B790000400FA0500ED00E00EB5002102900091D2
:10B7A0006A4601910148FFF7E9FF000001400000EF
:10B7B000014B1B6818470000CC25002038B50C460B
:10B7C000A2680C235A43064B09789D58054A126A11
:10B7D00000920246204608302369A84738BD000081
:10B7E000BC260020EC1F002010B5064914230A785F
:10B7F0005A435118091DFFF7E1FF042003F016FC1E
:10B8000010BD0000F0250020094B9B68002B07D0DD
:10B81000002A07D0002805D00068037C002B03D045
:10B82000082070470720704741744261002070472C
:10B8300024200020FFB59007002581B014460E4655
:10B84000002832D11B4F002C31D003F059FA049854
:10B8500078610320387033461821224600204B437C
:10B86000BC601834C10089180D704D708E704C602A
:10B870001C19401C0328F5DBFD607D7001240E4877
:10B88000BD702405046003211420FFF765FD0B48FB
:10B8900004600B4C0198A06003211120FFF75CFDB0
:10B8A00060683861002005B0F0BD0720FBE7BD608F
:10B8B000FBE700002420002080E200E000E100E03F
:10B8C00000150140FEB50D461B4917468968044620
:10B8D00000292AD0002C28D0052D01D20720FEBD3A
:10B8E0006069002821D0607C012820D0002603F068
:10B8F000E3FEC0001049019089684018694603F0D2
:10B9000005FF002815D0012101700C4944604968E9
:10B910000830E2C0084901988968411868460078F3
:10B92000487003F065FD0020FEBD0820FEBD2E46D8
:10B93000DDE70420FEBD00002420002000150140AA
:10B94000F8B5134D0446A96800291CD0002C1AD064
:10B950006069002817D00026267403F0ADFEC700EA
:10B96000A8686946381803F0D1FE00280DD00221DE
:10B9700001704460A868391868460078487003F080
:10B9800037FD3046F8BD0820F8BD0420F8BD0000A2
:10B9900024200020F0B50546007D002493B00E461B
:10B9A00000280DD001200146684610310394017330
:10B9B000717B4173817BF92001406846891C81734A
:10B9C0001C2104A8FFF7F5FB6946087C0221084307
:10B9D000694608742A7DEF21002A02D01022104304
:10B9E00000E008406A461074059407940894287D86
:10B9F000002800D003A8099001270A9410469771E7
:10BA0000304A82800094B27B0270F27B4270807870
:10BA1000F9221040F722801C1040EF210840410815
:10BA2000490068468170317B017214210BA8FFF731
:10BA3000C0FB01A80B9068460C908786C4860787D8
:10BA400002A80F90A888AB1D0BAA04A9A2DF0028AA
:10BA500035D1B068002830D0684687711A49818096
:10BA60000094317C01700020014668464170807866
:10BA7000F9210840F721801C0840EF2108404108C7
:10BA800049006846817011A8B16800F006FD0646BD
:10BA900014210BA8FFF78DFB01A80B9068460C90B2
:10BAA0008686C486068711A80F902A46E8880E323B
:10BAB0000BA9A3DF002802D100E0EC81002013B025
:10BAC000F0BD0000192A00000829000010B50B493C
:10BAD0000B4803F0CFF9C1B20848343800F04AFAF5
:10BAE000002809D0082807D00649884204D0064912
:10BAF000884201D0FFF750FE10BD0000DC2200207C
:10BB0000041F00200430000001340000F0B50C4692
:10BB100093B01F216A4611800726002791800028D4
:10BB200009D0C17849070DD502A9FFF7A5FC002867
:10BB300009D102AD01E000251780002C0ED0E0787D
:10BB4000002802D0304613B0F0BD01AA0AA9204651
:10BB5000FFF792FC0028F6D10AAA02E0684600220C
:10BB6000878068468088C3B268460088C1B228468C
:10BB700072DFE8E770B50D4604991646040042D01E
:10BB8000002E40D0424800224271C360016124224D
:10BB900031464048FFF7F4FA00F0D4F83D4934311B
:10BBA0000846103801602031816038215C38FFF789
:10BBB00000FB3848217838380170A1788170E1782D
:10BBC000C170617841706269216942610161E26816
:10BBD000A168C26081600146E369A269CB618A61A4
:10BBE000616A002919D00146AC310246B83241627F
:10BBF0008A60636A1B880B80616A436A89889980BE
:10BC00000021436A06E00E2070BD666AB668765C65
:10BC10005654491C9E888E42F7D8A16A00291CD030
:10BC20001C4AAC3211460C398A608162A36A9B8837
:10BC30008B80A16A836A098819800021836A04E0E5
:10BC4000A66AB668765C5654491C9E888E42F7D820
:10BC50002C210A5D0F4918390A73216A002909D07D
:10BC60000B4914310162226A52884A80216A026AB1
:10BC7000098811806168002904D00549891D416047
:10BC800061684160034829463838FFF73FFF70BDBF
:10BC9000541F0020C023002010B502881C4C102A1D
:10BCA00017D00021112A1AD0192A11D18079002821
:10BCB0000ED1607901281ED0022822D0032822D07C
:10BCC000042805D12171E2680846002A00D0904777
:10BCD00010BD017D0129FBD18088208110BD6170DC
:10BCE000808821898842F9D1012005E02169002955
:10BCF000F4D0884710BD022000F04CF80028F5D1A0
:10BD000010BD0320F8E7032020710420F4E70000B1
:10BD1000541F002010B5022801D003280ED1084C72
:10BD2000207800280AD000202070607900F032F8D6
:10BD3000002803D02169002900D0884710BD0000E9
:10BD4000541F002010B507210148FFF732FA10BD3B
:10BD50006C1F002010B50D480078012814D10C4C40
:10BD60006078002810D16079002802D074DF0028A4
:10BD70000BD101206070607900F00CF8002803D02E
:10BD80002169002900D08847002010BDC023002071
:10BD9000541F0020F0B5754C87B06071002606A8CE
:10BDA000069602F077FC0127082806D000286FD1FC
:10BDB0000698002802D02770D4E00696FFF7C2FF4D
:10BDC0006B4D6878002802D06079012805D0A878EA
:10BDD00000280AD06079022807D1E168002903D041
:10BDE000E7700820884700E0E6706079012808D1F4
:10BDF0006878002809D05D48193002F0EFFB002870
:10BE000003D06079022802D00CE002206071A8788B
:10BE1000002805D05548193002F0E0FB002801D178
:10BE200003206071287B002804D16079032801D1A8
:10BE300004206071287E002804D16079042801D193
:10BE400066712671E16800290AD06079032801D063
:10BE5000042805D12878002802D06078002818D05E
:10BE6000A67018216846FFF7A4F968460670019687
:10BE700006720396607901280FD0022816D03C4E36
:10BE8000243637465C3F03281CD004285ED13BE0B3
:10BE900069E0A77007208847E3E73448183001902D
:10BEA0006846077046820682277152E02F48183094
:10BEB00001906846077029894182A9880182022081
:10BEC000207146E0A88A69464882288A0882284864
:10BED000243003F09DFC002805D02878002802D0EB
:10BEE0006078002801D003202FE002206946087204
:10BEF00004200396F8701E4800213838FFF706FE2C
:10BF0000002830D1052020E0A88B69460882288CC3
:10BF100048821748243003F07BFC002805D028789D
:10BF2000002802D06078002801D004200DE0022013
:10BF30006946087204200396F8700D4800213838CD
:10BF4000FFF7E4FD00280ED106202071607900285B
:10BF500003D0684673DF002805D1E168002901D0CD
:10BF600020798847002007B0F0BD0000541F002052
:10BF7000C023002073B586B004002FD06A46217C10
:10BF8000127F0020914227D00025012668460095A7
:10BF90000680458007A80190E188608A6A46A4DF90
:10BFA000002819D16846007F2074608A0D498842B4
:10BFB00016D0207D002813D0029503950495059591
:10BFC000E1886846018186724188818104900198E8
:10BFD0000590608A02A9A6DF08B070BD0E20FBE7BD
:10BFE0000820F9E7FFFF000038B50D4604001AD01D
:10BFF000002D18D0286820600020C0436082287976
:10C000002075FF2020740121684681700749018056
:10C01000221D69460120A0DF002803D129462046C1
:10C02000FFF7B8FC38BD0E2038BD00000F18000027
:10C0300038B5002824D0002922D00A88102A1AD026
:10C04000112A1AD0502A1BD1027D002A18D0CA8882
:10C050004389891D9A4213D10A8B022A10D10268A2
:10C06000002A0DD0CB7E8C7E19022143C907C90F4F
:10C0700007D0002106E0898801E00021C943418200
:10C0800038BD01216B4619706946904738BD0000E4
:10C0900070B5054601461C220E48FFF771F80E4C9C
:10C0A000002626702968002906D00822201DFFF7E7
:10C0B00067F8201D7ADF02E00748001D7BDF0028BB
:10C0C00007D1401E60806670044A00210448FFF7D3
:10C0D0009BFB70BDAC240020741F002055F60100AE
:10C0E00064F80100F8B5214C028800271E4DE6894E
:10C0F000102A15D01E49112A21D0122A2DD0502ADB
:10C100001CD1C288801DB24218D1028B022A15D1DF
:10C11000C27E837E10021843C007C00F0CD112E00C
:10C120008188698001461048082216310C30FFF7DB
:10C1300027F86F70002E01D100F0D0FEF8BD00206E
:10C14000C04368806F700868FFF7FAFB0028F5D0DD
:10C15000A1690029F2D08847F8BD811D0248082254
:10C160000C30FFF70DF8E7E7741F0020AC24002027
:10C1700064F801007CB5054608880C4609309042F9
:10C1800001D90C207CBD684671DF0028FAD12188D6
:10C190000820685420881B21401C80B2208029542C
:10C1A000208800A9401C80B220804019062201315D
:10C1B000FEF7E6FF20886946801D80B2208009785E
:10C1C000002900D0012129542088401C2080002013
:10C1D0007CBD00007FB504460121684681714A4953
:10C1E00081804A4A01A90120A0DF00287ED122884F
:10C1F00025463C35002A09D044482B46801C009037
:10C200004348616800F07EFC00287BD12289002A27
:10C210000AD03E482B460A3000903D48E168401F56
:10C2200000F070FC00286DD1228A002A0AD037481D
:10C230002B461230009036486169001F00F062FC06
:10C2400000285FD1228B002A0AD030482B461A30B2
:10C2500000902F48E169801E00F054FC002851D165
:10C26000228C002A0AD029482B46223000902848E8
:10C27000616AC01E00F046FC002843D1228D002ACE
:10C280000AD022482B462A3000902148E16A401EFD
:10C2900000F038FC002835D1216B00290ED002A80F
:10C2A00003F02EF819482B46323000901848082227
:10C2B00002A9801F00F026FC002823D1606B002813
:10C2C0000BD012492B463A3100910279016810488F
:10C2D000401C00F017FC002814D1A16B002910D0DD
:10C2E00002A802F0BBF90948423000E00AE00090E1
:10C2F00007482B46072202A9273000F003FC00283C
:10C3000000D1002004B070BD0A180000881F002072
:10C31000292A000070B5044600F0A4FF2146154804
:10C3200000F086F8134821461838FFF781FE2046B2
:10C33000FFF7D8FE204600F041F920880E4D102866
:10C3400004D011280BD0502810D10CE0072000F0A9
:10C3500021FA002801D0FFF71FFAA08801E0002091
:10C36000C043688002E00549012008602046FFF7CD
:10C3700093FC70BDC0220020001F002000A00040E0
:10C3800038B50D4604001ED0002D1CD02868206052
:10C390000020C043E08268892083012168468170C3
:10C3A0000A490180221D69460120A0DF002809D129
:10C3B0002946204602F01AFC002803D129462046CF
:10C3C00002F09EFB38BD0E2038BD0000141800009E
:10C3D00030B58BB0040025D0002923D0E08A134A61
:10C3E000904221D006AA204602F058FC6946054634
:10C3F000088000200190029003900490E2888A80D7
:10C4000001228A71088106A803910490E08A01A99B
:10C41000A6DF002804D169460988A94200D00C2073
:10C420000BB030BD0E20FBE70820F9E7FFFF00004E
:10C4300038B5002821D000291FD00A88102A17D02B
:10C44000112A17D0502A18D1CA884389891D9A42C7
:10C4500013D10A8B022A10D10268002A0DD0CB7E9C
:10C460008C7E19022143C907C90F07D0002106E0BD
:10C47000898801E00021C943C18238BD01216B4692
:10C4800019706946904738BD70B504460D46084698
:10C49000FEF79AFE2080656070BD0A7802704978C8
:10C4A000417002207047000000B585B0002348228B
:10C4B0001749082002F00AFE002801D0FFF76CF9A6
:10C4C0006A460121002002F0E9FD002801D0FFF7B3
:10C4D00063F9104802F060FC002801D0FFF75CF916
:10C4E000684602F0D1FD002801D0FFF755F90A484F
:10C4F00002F0C0FD002801D0FFF74EF9074802F016
:10C50000FDFD002801D0FFF747F905B000BD000090
:10C5100060220020001E002015C30100F1F201007E
:10C520001CB5044681786A460C4802F0C7F800281A
:10C5300012D160781C21484309491C2340181A462F
:10C54000694602F075F9064806494030807A800055
:10C550000A582146684690471CBD0000E41F002091
:10C560008C25002078F801007CB5134E00250C4680
:10C570003060002918D06946002000F0B5F8002886
:10C5800019D101A9012000F0AFF8002813D16846A5
:10C5900001790020002901D0022004E069460978D1
:10C5A000002900D00B2020707068002802D1FFF70E
:10C5B0006EF8054628467CBD481F002010B51C4C6F
:10C5C0000188606810290DD011290AD1401E6060D1
:10C5D00007D1FFF75CF8002803D02168002900D0BC
:10C5E000884710BD00281ED100210122084600F016
:10C5F000ADF8002801D0072811D10722022101201F
:10C6000000F0A4F8002801D0072808D10422022154
:10C61000002000F09BF8002805D0072803D02168EF
:10C62000002900D088476068401C606010BD000091
:10C63000481F002010B5032000F006FA002801D0A2
:10C64000062800D1002010BDF8B507460024234875
:10C6500002E0641C042C1AD2A2008258BA42F8D11B
:10C66000042C14D21D481E4E0C38002929D0012953
:10C670000ED002290BD16000201880194578002DBA
:10C6800005D018480169002901D028468847F8BD1F
:10C6900061006118755C8E19717800290CD0114900
:10C6A0000A224968806851430E4A521CFFF70AF972
:10C6B000002801D10B4847700A48B1781430015561
:10C6C000DDE78068FFF73CF9064861006118143027
:10C6D0008919005D8D78A842D1D0F8BD34F80100E9
:10C6E0005C230020301F002004280CD2074A126966
:10C6F000074B80001B5C01209840904300D0012034
:10C700000870002070470020FAE700000005005084
:10C7100034F8010010B5042806D007280ED00A28E6
:10C7200001D102F06FFC10BD07481321408876DF6D
:10C7300006E00028F7D0FFF72FF810BDFFF70AFB3F
:10C740000828F6D110BD0000001F002070B500239E
:10C75000042811D2440004190D4D012A02D10129E7
:10C760000DD0002246008019094E801900290CD0F6
:10C77000012906D0022906D00723184670BD0D30C6
:10C78000C2B22A55F9E74270F7E78270F5E7000078
:10C790005C23002010B5054A0146127A0020D2071A
:10C7A00002D0084600F054F810BD0000301F0020F1
:10C7B00070B50E46204905464E608D6000200A6126
:10C7C000A9071ED50024012211462046FFF7BEFF0F
:10C7D000641C042C02D20028F5D012E0002810D1ED
:10C7E000720804211548FEF78FFF002809D1FEF7D3
:10C7F00079FF002805D11148114A00211438FFF7AC
:10C8000003F8E90706D00F220E4952058A6000237B
:10C81000CB608A6100280DD108480B4A00211C38E2
:10C82000FEF7F2FF002805D10448084A0121183814
:10C83000FEF7EAFF70BD0000301F002044F8010041
:10C8400085CA010000050050BDDE0100CDB6010023
:10C85000FEB57A4D0722EB6892059A4302936B6806
:10C8600000939C0006461B190020012101934905F5
:10C870000746734C3300FEF7E3FD180D15153747D7
:10C8800055677C887F8891DE9E9E9E9E9EC8CED1F5
:10C89000D8DEDE140F21029A49059143A160E760BA
:10C8A0002F70FEBDA260E76060680F225205504005
:10C8B000800209D5A160E760022E02D1E120C0000C
:10C8C0000AE07D20400107E0E160A760022E01D16F
:10C8D000C82001E0FF2091302E706421FEF726FC75
:10C8E0000099414300223FE0A260E76060680F22A8
:10C8F00052055040800204D5A160E7601920400134
:10C90000EAE7E160A760E3E7A260E76060680F2202
:10C9100052055040800202D5A160E760D1E7E16096
:10C92000A760D7E7A260E76060680F225205504019
:10C93000800202D5A160E76001E0E160A7602E708F
:10C940000098410000220FE0A260E76060680F22BB
:10C9500052055040800202D5A160E76001E0E1602D
:10C96000A7602E700099002236480068FEF7AAFFE3
:10C97000FEBDA260E7601BE0616801208005024601
:10C980008A43A2600140E16010E0606801218905EE
:10C990000A468243A2600840E060E3E76068012144
:10C9A00089050A468243A2600840E0600199C9E710
:10C9B000E160A7602DE023484068FEF7C1FF112128
:10C9C0008A1B01D0002807D00F22E96852051140C8
:10C9D000A160E760EF60FEBD0121C905E960012AA1
:10C9E0000CD91046C82148436421FEF79FFB6968B3
:10C9F0000022414313484068FEF764FF0F22E968B4
:10CA000052051140E160A760FEBD0F214905A160FC
:10CA1000E7602E70FEBD07229205AAE70D214905A9
:10CA2000A160E76001218905C2E70321C905A16072
:10CA3000E7608910BCE70F214905B9E7301F0020E6
:10CA40000005005028F80100F0B500210B4C0C4DFA
:10CA500003273F048A00A258920056193268012326
:10CA60008B40034000D00323BA431B0413433360BD
:10CA7000491C0429EED30020F0BD000034F8010069
:10CA80000007005010B500780221FFF7DDFD10BD52
:10CA90000022D243830004490428CA5002D3081854
:10CAA0002030027770470000C8260020F0B500252E
:10CAB000ED43002A02D00023042601E004230826C7
:10CAC0000B4C04E09F00E7597F1C04D05B1CB34271
:10CAD000F8D32846F0BD26185DB2203635709E008A
:10CAE000A151002AF5D1E11820310877F1E70000C3
:10CAF000C826002002490918202008567047000067
:10CB0000C8260020FFB58FB01E4615460F0002D183
:10CB10000020FEF741FE002D02D10020FEF73CFE72
:10CB20001C216846FEF745FB684601780220014358
:10CB30006846017000240194039404940594012133
:10CB400008A80694817068460F990184079431788B
:10CB5000017771784177807FF9210840F721801CA7
:10CB60000840EF21084041084900684681771421B8
:10CB700009A8FEF71EFB08A8099007A80A906846B6
:10CB80008585C485058604480D9709AA69460088ED
:10CB9000189BA2DF13B0F0BD881F0020F8B53E48F7
:10CBA0001422017851430C18E0680C2148433A499B
:10CBB0002769CC314018058941890091241D4668B8
:10CBC00001F00AFE01463846FEF7B0FA002932D0DD
:10CBD00000200099A2884D436188AE198918CD19AB
:10CBE00000222E4900280A6109D001F0F5FD618874
:10CBF000884222D0B54202D1A08800281DD0A0686A
:10CC000002281AD001F0E8FDA188CA190146104691
:10CC1000FEF78CFA214C8808E06001F0DDFD01464A
:10CC20002846FEF783FA002911D00020B5422FD004
:10CC300000280ED02CE00120CBE701F0CDFD01460D
:10CC40003846FEF773FA15494861032021E00120B8
:10CC5000ECE7ADB2B7B201F0BFFD01463846FEF7D2
:10CC600065FA064601F0B8FD01462846FEF75EFA71
:10CC7000864201D1781B09E001F0AEFD064601F0C5
:10CC8000ABFD01462846FEF751FA701A8008206174
:10CC9000022002F0CBF9F8BDF0250020EC1F0020A7
:10CCA00010B5074814220178514308180079042868
:10CCB00002D000F059F810BD012002F0B7F910BD04
:10CCC000F025002010B50B481422017851430818B4
:10CCD000094AC18811620079012806D0032801D0D1
:10CCE000042801D1FFF75AFF10BD012002F09EF980
:10CCF00010BD0000F0250020EC1F0020142250433E
:10CD0000054A002180180171C18001220161C260C1
:10CD10004161018170470000F0250020F8B5104CFA
:10CD2000069E65780A2D19D027787D190A2D00D323
:10CD30000A3D14277D432D1928716A6103C92961B1
:10CD4000E860EB802E816078401C607005480078B8
:10CD5000002801D1FFF7B6FF0020F8BD0420F8BD80
:10CD6000F0250020EC1F002010B50D4C1421207878
:10CD7000484301190020091DFEF720FD2078FFF728
:10CD8000BDFF6078401E60702078401CC0B22070EB
:10CD90000A2801D100202070002002F047F910BDC0
:10CDA000F0250020F8B52348C16800293ED00E6860
:10CDB00021494C680769C078E11B0D022D0AED1C62
:10CDC000002814D101201D4A000450601B4A403A3B
:10CDD00050601B49400008601A4908601A49012048
:10CDE00008602F20FEF776F912490120C870B5427D
:10CDF00000D23546E81900020F4B000A4033186094
:10CE00000D4A5168001B091B0902090A0002000AA9
:10CE1000C91C814209D9506818602F20FEF75AF9C1
:10CE200001200749400480390860F8BD01F068FF1F
:10CE3000F8BD0000242000200015014040130140EF
:10CE400080E200E000E100E000100140F8B5064695
:10CE5000108814468446801D0D46984201D90C2046
:10CE6000F8BD32880720062AFAD31927FF01184B8C
:10CE7000BA4201D99A42F3D171880629F0D3B94256
:10CE800001D99942ECD19A4203D0994201D08A4209
:10CE9000E6D805216046295420881221401C80B222
:10CEA000208029542088401C80B22080411930887D
:10CEB00002F0C0FB2188401880B2208041197088A0
:10CEC00002F0B8FB2188401820800020F8BD000047
:10CED000FFFF000010B5FEF75FFC10BDF8B5164867
:10CEE00000F068FF144D00260C3D144C002807D0BC
:10CEF000616900291CD001206A461070684616E05E
:10CF00002878002805D06169002911D0684606708C
:10CF10000DE0687800280DD0A1680948002200685B
:10CF2000FEF7D0FC002803D0A169002900D0884773
:10CF30002E70F8BD6168F0E7801F0020AC2400204F
:10CF400064F8010070B5094B04469E7A082000255C
:10CF50000E4207D00648844202D01889A04202D16E
:10CF60000020156070BD052070BD0000C0250020A8
:10CF7000FFFF00000C214843064910B5012240186C
:10CF80008272911E0181FF21C1720721FEF711F902
:10CF900010BD0000C025002010B5134C20790007FB
:10CFA0001FD46069401C6061E068002801D0042043
:10CFB00004E000F031FF002803D0022002F08EF9D7
:10CFC00010BD2069002809D06068C10701D0032086
:10CFD000F4E70121084360600020EFE7FFF760FEFF
:10CFE00010BD02F06FF910BDEC1F002010B508480D
:10CFF00041680A0708D48A0702D50122114341601B
:10D00000022002F06BF910BD02F05CF910BD0000C7
:10D01000EC1F0020F8B500260124154D23E06968B7
:10D02000F0004718387821462A698140114218D00B
:10D030008A432A6101F03CFA3A782146EB68914034
:10D0400019400346934099420BD17978012901D0C8
:10D05000012100E000217B684140002B01D01046F7
:10D060009847761CF6B228788642D8D3F8BD0000DF
:10D0700010200020FEB50E46044681786A462348FB
:10D0800001F01CFB002827D160780C21204F484379
:10D09000C019807A400620D4022E1ED0012E1ED048
:10D0A0001C4DA0781C21484319490023F839411828
:10D0B0001C226846A847002813D0022E0CD02078E6
:10D0C0000C21484312490C314018807A12498000E3
:10D0D0000A58214668469047FEBD104DE1E7104DC5
:10D0E000DFE7022EF8D060780C214843C019817A1E
:10D0F000BF221140817260781C21484304493439B1
:10D1000041181C231A466846A847D8E7E41F0020A8
:10D11000C025002049F2010068F8010071EA010011
:10D1200095E9010070B50546114A124800241C23F8
:10D1300063431B189B7EFF2B04D0641C072CF6D383
:10D14000104670BD0A78022A09D01C2262431018CA
:10D15000FD22827607221030FEF712F804E01C212F
:10D1600061430818FE2181762C700022E8E7000058
:10D1700043800000C8240020F7B505250F4F064660
:10D180000024002E0AD01C206043C019072231461B
:10D190001030FEF720F8002807D00AE01C2060437A
:10D1A000C019018B0298814203D1019800250460C7
:10D1B00002E0641C072CE4D32846FEBDC8240020EE
:10D1C0007CB5054681B26A46074801F077FA04004B
:10D1D00008D15421684601F09BFA040002D1284688
:10D1E00001F008FA20467CBDE41F002010B51000B5
:10D1F00001D0FEF7D1FA002010BD00001FB569462E
:10D20000087301F0EFFA002801D0FEF7C5FA03A871
:10D2100000F020FA002801D0FEF7BEFA01A805218F
:10D220000130FDF7C6FF6946487901221043E1212C
:10D230000840DF210C30084069464871072088719A
:10D240001020C871054800900A71054800F014FBD1
:10D25000002801D0FEF7A0FA1FBD0000EDD10100AB
:10D26000001F0020F0B5054693B000200290FF2477
:10D27000EC480E940078002849D0EB4F386800281D
:10D2800045D001A800F0D8F9002801D0FEF784FAB3
:10D29000281D05902A2069460883FF2000268871F2
:10D2A0000E710396E04C28880C3C10280ED0A888FC
:10D2B00003AA0221FFF746FE002807D103980C219C
:10D2C00041430919CA7A69468A714871288813222C
:10D2D00017287CD00FDC10281BD0112853D013281E
:10D2E00076D0142813D103980C2148430019C07A32
:10D2F000FF2871D08DE0CD4918286BD01C286AD04A
:10D30000522804D1B87A8000095801A8884713B080
:10D31000F0BDC74F03AA01213846FFF713FE0028CE
:10D32000F5D103990C20484302220019827211237F
:10D330006A4613745171A98801810722A91DFDF75E
:10D340001FFF687DC10707D04108B6480830405C20
:10D35000FF2808D00E9006E03A460EA9A81DFFF758
:10D360000BFF00280ED103990C22514309190E9886
:10D37000C8728A7A08231A438A726946887101A89A
:10D38000FFF7CEF839E103980C2148430119887A58
:10D39000FD2210408872010706D5C0090DD000217A
:10D3A00001A8FFF767FE08E068468079FF2804D0EF
:10D3B00001F020F9FF206946887103980C22504340
:10D3C00010210019817212206946087415E17FE06E
:10D3D00030E001E0D5E00EE1EA890EA90020FFF778
:10D3E000CBFE00280ED103980C22504300190E9951
:10D3F000C172837A0822134383726846817101A83F
:10D40000FFF78EF803980C2148430019C07AFF28D3
:10D4100006D003981C2148438349403940180290A4
:10D4200003981C21484383494218A8880023029985
:10D4300082DF6CE768460274039B0C205843011995
:10D44000887A042210438872C87AFF2830D01620C8
:10D45000694608741820434373480E21243818186D
:10D460000830FDF7A6FE03980C2148430019817A85
:10D4700040221143817203990C2200204A430A90F2
:10D480001219D27A1C235A436A4B0C90D2180B9271
:10D490001C2251431A46C4328918079108900990FA
:10D4A0003A1DA88807AB00217FDF0028C1D1A4E086
:10D4B0000EA8FFF737FE002801D00646DBE76946D5
:10D4C0000E98887103990C2251430919C872D2E74A
:10D4D000787A400840007872039A0C2094464243C0
:10D4E00011198B7AFB2003408B7214206F4638741D
:10D4F000A879002804D0C87AFFF762FEAE797CE0F4
:10D50000E879400779D5B879FF2876D008273B43DA
:10D510008B72EB7A9B0708D51C2503466B43454D60
:10D520005B199D7E6D086D009D76CB7AFF2B64D0D4
:10D53000A25C022A10D01C2250433E4D0722401903
:10D540001030FDF71DFE684680791C2148434019C4
:10D55000817EFD2211400EE061461C225143324A79
:10D56000403A89184A8A1C214843324940180283AC
:10D57000817E490849008176012101A8FFF77AFDE3
:10D580003BE0A8790209012A23D10007000F0128F6
:10D590001FD103980C2242431219927A120718D510
:10D5A000182148432049243940180E210830FDF73E
:10D5B00000FE16206946087403980C21484301199F
:10D5C000887A602210438872787A02210843787240
:10D5D0000FE003980C2250430019827A80231A43EB
:10D5E000827215206A461074B87A8000095801A822
:10D5F0008847002601E068460274324604A901A863
:10D60000FEF7D6F86846007C122800D07FE6039823
:10D610000C2141430919897A0129F7D0FFF7AAFCA7
:10D6200075E60000D41F0020CC25002088F80100FA
:10D63000FFFF0000C8240020002806D0FF21017051
:10D6400041708170C1700020704701487047000030
:10D650000E800000F0B585B0040036D029480025C2
:10D660000560457285722846FFF784FC254818211D
:10D670002438FDF79EFD0026FF27304600F0BAFF54
:10D6800021488755761C072EF7D3542168468180A0
:10D690000721C1801D481C4900900831684601F0EF
:10D6A0001BF900280FD1184E0120083E3070207859
:10D6B00000280CD069468888C988484381B2304622
:10D6C000103001F025F805B0F0BD1148FBE7114F0F
:10D6D00000240D48A1B202AA083000F0EFFF002894
:10D6E00009D11C206043C01900231C2202A901F0AB
:10D6F0009FF8002801D03570E5E7641C072CE8D3BB
:10D70000E1E70000CC250020DC1F002019D7010034
:10D710000E800000C8240020FFB554488FB0006878
:10D72000189F1E4600284FD0542F4DD86846FFF74B
:10D7300083FF002801D0FEF72FF80024684604700C
:10D740000471254605970696A9B20DAA484800F02F
:10D75000B5FF002806D108220DA90F98FDF73BFD63
:10D76000002819D06D1C072DEED3684680780790ED
:10D77000FF2829D010982025032810D03D481C21CF
:10D78000301AFDF7D3FC012707282DD204A80290F8
:10D79000119800281AD021E068468570E5E7542FDB
:10D7A00003D040206946087101E06846057169466A
:10D7B0000879032108436946087104A8029001A969
:10D7C0006846119AFDF7F4FF13B0F0BD079938468B
:10D7D00088402749103949680842F5D0079801F078
:10D7E0002FFF6846057138E020481C214038301A68
:10D7F000FDF79CFC00280BD01C4D1821243D701B0C
:10D80000FDF794FC00281AD0402069460871DBE738
:10D8100004A8029068460571447014480A940C30BC
:10D820000B904C380790684680781C21484311497A
:10D830004018089007A80690182005900DE03021A8
:10D84000684601714470C77008480C38807A8007B8
:10D8500003D428461821FDF7ACFC1098694602282D
:10D86000087901D00221A5E73843A5E7CC2500209F
:10D87000E41F0020C824002070B5064618480D4655
:10D88000007800280ED01749002E0ED0002D0CD0A5
:10D890002868002809D0144C2168002907D01148B5
:10D8A0000A3870BD0F48801F70BD084670BD2060EB
:10D8B0000522691D201DFDF763FC2879A072207ADE
:10D8C0000221400840000843FB2210402072E0790A
:10D8D0000123184308431040E0710020307070BDF0
:10D8E000D41F00200E800000CC25002010B50E496A
:10D8F00000234A788C78A24212D0521CD2B24A70CD
:10D90000022A00D14B704A78074B920018339A587C
:10D910000260086910180002000A0861012010BDA9
:10D920000360002010BD00002420002010B5002856
:10D9300003D0112802D0FDF757FF10BD024808227E
:10D9400041681143416010BDEC1F002010B51C4C14
:10D95000217820464068012906D0022929D00329D0
:10D9600012D1000717D513E0000711D4154814226F
:10D97000017851430818C188A28B891A0904090C3F
:10D98000C18002D001F062FC10BDFFF7EDF910BDBF
:10D9900000F026FC10BD6069401C606100F03CFA9C
:10D9A000002803D0207801F041FB10BDFFF778F983
:10D9B00010BD6078044980000858804710BD000001
:10D9C000EC1F0020F0250020ACF8010010B528DF86
:10D9D000FFF7ACFF10BD10B529DFFFF7A7FF10BDA3
:10D9E0000EB51120694608720B2210A102A87CDF37
:10D9F000002801D0FDF7D0FE1120800178DF00283B
:10DA000001D0FDF7C9FE0021FF20913000916A4648
:10DA100001911080430053809180D08068467ADF66
:10DA2000002801D0FDF7B8FE0EBD00004E6F7264F5
:10DA300069635F52534330000020704700207047F5
:10DA400000207047F8B506464078182104464C433C
:10DA500024490C2250436118224A00254B68183291
:10DA60008018AE462F469C46002B0CD0827A134677
:10DA7000D20908D05A0606D40D461A4A614689B220
:10DA8000175908358E46174C008918343B467246A4
:10DA90002946A9DF0B2819D0002800D01248012FF1
:10DAA00013D170780C214843001900890F4AA7DF71
:10DAB00000280AD00E49884212D0082810D0891CAC
:10DAC00088420DD011280BD00020F8BD70780C21B1
:10DAD000484301230019008972462946A9DFE0E77F
:10DAE0000148F8BDA825002041800000FFFF00008C
:10DAF0000230000070B50C46014660781822084DCF
:10DB000050434019382300F093FE002807D1617874
:10DB10001822514349194A68521C00D14A6070BD0D
:10DB2000A8250020F3B585B00D460E206946088271
:10DB300068780C2103274843224E3B468019008910
:10DB400004AA6946AADF002838D16878182148431A
:10DB5000741A001969460A8A0830FDF73CFB002850
:10DB6000687807D0182148430119496800290DD069
:10DB7000154E0CE00C2141438919897A89071DD47F
:10DB8000182148430019FDF714FB17E00F4E2750EA
:10DB90006846028A6878182148430019426068780C
:10DBA0004843001969460830FDF7EAFA68781821F9
:10DBB00048430119382318220598B047002007B0C0
:10DBC000F0BD0000C025002071EA010095E90100C8
:10DBD00010B5FFF737FF10BD10B5FFF78BFF10BD75
:10DBE00010B5FFF79FFF10BDF8B50746104E012591
:10DBF000BD403068FDF7A4FE00280DD10D4C206912
:10DC0000284207D1384600F053FC0028E06804D0D1
:10DC1000284303E0A8432061F8BDA843E0602069E1
:10DC2000002228432061A1683068FDF74BFEF8BD53
:10DC3000C0F801001020002070B51B4C20790007AF
:10DC40002ED41A481422017851430D182E6900F081
:10DC5000C3FD0146E8882A89761E80188019FDF7E1
:10DC600065FA21690025002909D06169814206D140
:10DC7000E560606801210843606000200AE000F070
:10DC8000CBF8002802D00220E56003E020690028DC
:10DC900003D0032001F022FB70BDFFF701F870BD37
:10DCA00001F010FB70BD0000EC1F0020F0250020EB
:10DCB00000B506490448886201210548890281614E
:10DCC000C16000F007F800BD01030000000700502C
:10DCD0000005005010480021416081600921016168
:10DCE0000D490120403108600C4A4A600D4A0C4938
:10DCF00011600D494860C8600D490C480861094928
:10DD00000C48C03901610C494161064ABC3A826144
:10DD1000C16103214160704700A50040FFFF000082
:10DD20000202000000A2004000A00040030A03001D
:10DD30000065004000F5014000600040F8B51C4C53
:10DD40002078002833D02069002807D00026E0681A
:10DD5000002805D00025002E04D011E00126F6E7AA
:10DD60000125F8E7684652DF052804D0002804D0D2
:10DD7000FDF712FD04E0012602E0216900988847C2
:10DD8000002D10D1608869460880A06861DF0528F1
:10DD900004D0002804D0FDF7FFFC04E0012502E0D8
:10DDA000E168A0688847002EDCD0002DD3D0F8BDF4
:10DDB00044200020418805480288914204D34088CD
:10DDC000814201D80120704700207047781F002051
:10DDD0001048018CC9B2012917D1818C090714D1CF
:10DDE000018D09060A0F03D1828D1206120F0ED083
:10DDF000090F012903D1828D1206120F07D00329C2
:10DE000003D1808D0006000F01D000207047012053
:10DE100070470000C00F00F070B50E481422017862
:10DE200051430C18256900F0D7FC0146E08822898F
:10DE30006D1E80184019FDF779F907494A69824239
:10DE400006D3824202D10869002801D0002070BDAB
:10DE5000012070BDF0250020EC1F0020800701D0BC
:10DE6000002070470120704730B51588EC1C9C429B
:10DE700001D90C2030BD02244C5513881C255B1C95
:10DE80009BB21380CD5413885B1C9BB21380012876
:10DE900007D0022807D0032807D0042807D007207E
:10DEA00030BD002004E0012002E0CC5401E003205A
:10DEB000C8541088401C1080002030BD10B50448A4
:10DEC000017AC90702D00078FEF7C2FC10BD00003D
:10DED000301F0020F8B52C49C8680A690C780F7902
:10DEE00089688646944600913EE00099E200551804
:10DEF0002A7836E0182353436968521CC918AB7856
:10DF0000D2B2934200D100220B78022B02D0032B15
:10DF100027D123E04E680346014603E0B14204D016
:10DF20000B46C96900291CD0F8E7002919D08B429B
:10DF300008D1C069002805D1144F0126BE60002613
:10DF4000B44601270E68C969D961002909D00B6858
:10DF50009B190B6005E00174C06900E000210028F6
:10DF6000F9D169789142C5D12146641EE4B20029F5
:10DF7000BBD1054962460A61C8600F71704501D086
:10DF80000120F8BD0020F8BD242000200010014031
:10DF9000F8B5044631480026C168009107784EE084
:10DFA0002E48F90080680D1843E0002C02D020466E
:10DFB000E4691FE02878182141436A68401CC0B218
:10DFC00051182870AA78904200D12E700A784868BB
:10DFD000012A30D1027C002A2DD18A684260CA68A9
:10DFE00082600A69C260496981611C490979002916
:10DFF00000D04660194943680A699C46991A09028B
:10E00000174B090A994202D28268891807E06146D3
:10E01000511A09028268090A8A4202D9511A01601A
:10E0200000E006604660012186600174C66101F06F
:10E03000E7F9002CB9D1287869788842BAD13846F6
:10E040007F1EFFB20028ABD10448C168009881420E
:10E0500001D00120F8BD0020F8BD000024200020E0
:10E06000FFFF7F0098B0FFF723FE0023514A0521F0
:10E070001846FDF7DFFB002801D0FDF78DFB4E4A67
:10E0800001214E48FDF7C0FB002801D0FDF784FBBD
:10E090004A484B4A0121001DFDF7B6FB002801D07C
:10E0A000FDF77AFB474A48490320FEF781FB002829
:10E0B00001D0FDF771FB01A90020FEF755FA0028F9
:10E0C00001D0FDF769FB68460079022869D000217C
:10E0D00068460170FEF7E8F968460078FFF78EF8A9
:10E0E000FFF77EFC382101A8FDF763F8022168469E
:10E0F0000171012585710621C17103248482334891
:10E10000069024210FA8FDF754F810A805722820C6
:10E1100000251390B420009514902D4B0FAA29468A
:10E1200001A8FDF727FD002801D0FDF735FB00F021
:10E13000F5FE00F039FE1C216846FDF73AF805208F
:10E14000C00301900F2000040290009568460473FC
:10E15000204841896846C18105741F4805901F48C1
:10E1600006906846FDF794FF002801D0FDF714FBE8
:10E17000124C0121002209042068FDF7A3FB0028AE
:10E1800001D0FDF709FB0121C90300226068FDF7FA
:10E1900099FB002801D0FDF7FFFA0320FDF7FAFDF7
:10E1A00002E0012194E748DF0028FCD0FDF7F4FAF3
:10E1B000F9E7000098200020CDBA010020F8010006
:10E1C0008DEB010015C70100CD0C0000241F0020BD
:10E1D0009BE50100C0220020BDE50100D5CE010075
:10E1E00010B504480822416891434160007800F06E
:10E1F0001DFF10BDEC1F002070B5144682880E462E
:10E2000005462088111D4118921C994201D8FE2A0A
:10E2100001D90C2070BD521C32542088FF21401CB3
:10E2200080B2208031542088401C80B22080811927
:10E23000288801F0FFF92188401880B22080AA8840
:10E24000002A09D0A968002908D08019FCF798FF96
:10E250002088A98840182080002070BD072070BD4C
:10E26000F8B50F46017814460546012902D16878B1
:10E27000002806D02088821C9A422DD8012902D07D
:10E2800006E00720F8BD69784118891C994223D817
:10E29000181A801E86B2684606802188B81C0818A5
:10E2A00069467DDF0028EDD12878022805D169462E
:10E2B0000988B14201D809210AE00821012805D1C5
:10E2C0006878B04202D86A46108001E0684606804D
:10E2D00068460088FE2801D90C20F8BD2288401C21
:10E2E000B8542088401C80B2208039542088694668
:10E2F000401C20800988401820800020F8BD0020A4
:10E300007047002070470020704700008207D30E3E
:10E31000FF229A408907090E10B5994000280BDAB0
:10E3200003071B0F083B9C080C4BA400E318DC6997
:10E3300094430C43DC6107E08408094BA400E41813
:10E34000236893430B432360C106C90E0120884014
:10E35000044908600449086010BD000000ED00E0B9
:10E3600000E400E080E200E000E100E0F3B581B00D
:10E370000F46019800F05AF9012400281E4E01981A
:10E3800017D0FEF7B7FB80192030007F80090328E3
:10E3900002D0012806D007E01848006901998C4096
:10E3A000204201D1022100E00321019800F0CEF8C3
:10E3B000FEBD00F047F90028FAD00198FEF79AFB5D
:10E3C00005468100C81D0E4AF93089180A6980B2D5
:10E3D00022430A610B49401800210160002FE7D059
:10E3E0000198FEF787FB800030580028E0D00648EF
:10E3F000AC404460FEBD0000C8260020000500506F
:10E40000006500400060004000630040FEB5044627
:10E4100023480E460019202141560027C8171346ED
:10E42000401C01D0082738E0F27819462046FEF754
:10E430003DFB0546401C2FD0B078002807D0194876
:10E44000A1000918086802229043086007E0002133
:10E450007378204600910A46019100F065F8F07843
:10E46000002810D01048AA001018317802690F4B0C
:10E470001A400261E206D20C8907890B0A4301693E
:10E480000A43026109E00648327840192030017FD2
:10E4900092011143017700E004273846FEBD0000D9
:10E4A000C82600200007005000650040FFE0FCFF88
:10E4B00003490969C140C807C00F00D00120704757
:10E4C0000005005070B5124D2879002801D00820B1
:10E4D00070BD0F4900204039421E0B182033401CEC
:10E4E000C0B21A702028F8D300242046FEF7D0FAD4
:10E4F000641CE4B2082CF8D303210620FFF706FFC2
:10E5000001200449C007486001202871002070BD27
:10E51000082700200063004002480079002800D04E
:10E52000012070470827002030B552000A439900A7
:10E53000039C0A432102049D0A4329040A43024919
:10E5400080004018026030BD00070050820006487D
:10E550001018026803231B049A430260026809042E
:10E560000A4302607047000000070050034940184A
:10E570000068012800D000207047000000600040C3
:10E580004058002800D00120704703221202801852
:10E590004068084000D00120704710B5002809D01D
:10E5A000032806D10220FEF7F5F8002801D0FDF778
:10E5B000F3F810BD00F026FD10BD000010B5007886
:10E5C000002807D104483B21408876DF002801D08D
:10E5D000FDF7E2F810BD0000001F00200021425CA2
:10E5E000002A01D001207047491C0629F7D30020DA
:10E5F0007047000070B505461C200B49684344185D
:10E60000204611300621FCF7D4FD20461021FCF7EE
:10E61000D0FDFF2121740020A176C043208328462D
:10E6200001F00EF870BD0000C8240020044908184D
:10E6300020214156042901DB01207047002070474A
:10E64000C82600200449081820214156042901D277
:10E650000120704700207047C826002070B50D00CB
:10E66000044602D10020FDF797F8002C02D10020CB
:10E67000FDF792F82878207069886170090AA17006
:10E68000A988E170090A2171E8886071000AA07107
:10E6900070BD000007490979490701D40820704777
:10E6A000002804D0044949780160002070470E20FA
:10E6B00070470000EC1F0020F025002030B5124B01
:10E6C0001B795B0701D4082030BD002805D0002A43
:10E6D00003D00468002C10D101E00E2030BD0B4B9C
:10E6E0001D68002D09D045681889414369185D8966
:10E6F000454358682818884201D8072030BD146067
:10E700000020516030BD0000EC1F0020BC2600201E
:10E71000FEB5054625480E460079400701D408207D
:10E72000FEBD002D03D02868002834D101E00E2062
:10E73000FEBD1F4C216800292DD0608921894843E6
:10E74000616841186868814225D9FFF787FB002876
:10E750000FD06868019029680C2251430F1979681D
:10E760000091401A39890C46FCF7E0FC002912D1CF
:10E7700001E01020FEBD21463046FCF7D7FC002901
:10E7800009D1002E07D07889444301988119009857
:10E790000019814201D90720FEBD002002460090E9
:10E7A000334629460320FEF7B9FAFEBDEC1F0020D0
:10E7B000BC26002010B507484469601C06D000F054
:10E7C0000BF801462046FCF7B1FC10BD0120000704
:10E7D000406910BD0010001001200007006980B2E0
:10E7E0007047000070B500240F482546047044703F
:10E7F0002846FEF783FA6D1C0A2DF9D30B4D6C8069
:10E80000FFF7D8FF861EFFF7E7FF46430648AE60D6
:10E81000CC306C610460048144812C70AC610420B4
:10E82000EC616860002070BDF0250020EC1F002026
:10E83000FFB5274881B000791F4616460D464007B0
:10E8400002D4082005B0F0BD002D06D001980028A4
:10E8500003D02868002815D101E00E20F2E71D4CF6
:10E86000206800280ED06189208962684143891898
:10E870006A68914206D9002E04D0B04202D3F11941
:10E88000814201D90720DDE70198FFF7E7FA002868
:10E890001BD03846FFF7E2FA002816D06868FFF769
:10E8A000DDFA002811D068683246C1190198FCF7DA
:10E8B00067FC009628680C21484324580022022156
:10E8C0002846019BA0470020BCE71020BAE70000C3
:10E8D000EC1F0020BC260020F8B52C4D04462879FA
:10E8E0000E46400701D40820F8BD002C20D0002E91
:10E8F0001ED0206800281BD0FFF76EFF0146A088BD
:10E90000814213D3102811D3E08800280ED0FFF7DE
:10E9100051FF471EFFF760FF4743E288A188A868C0
:10E920004A431218974201D3890703D00720F8BD44
:10E930000E20F8BD6988012926D031600C22144BC5
:10E9400051437060CA18506020685850A0881081E8
:10E95000E0885081FFF740FF0646FFF73DFFA188A2
:10E96000E288401E514340183146FCF7F5FB04464F
:10E97000FFF732FF0146A86861430818A86068885D
:10E98000401C68800020F8BD0420F8BDEC1F00206A
:10E99000BC260020F8B5044620481E4600791546DE
:10E9A0000F46400701D40820F8BD002F05D0002CE9
:10E9B00003D02068002815D101E00E20F8BD1848CA
:10E9C000016800290ED04289018940684A43101825
:10E9D0006268904206D9002D04D0A94202D3A8193A
:10E9E000884201D90720F8BD3846FFF737FA0028DA
:10E9F00011D03046FFF732FA00280CD06068FFF7DC
:10EA00002DFA002807D02B463A46214601200096D1
:10EA1000FEF784F9F8BD1020F8BD0000EC1F0020BF
:10EA2000BC26002010B5114902460878002811D0F4
:10EA300004280FD0022A16D0032A0BD10A79120714
:10EA400011D48A69521C8A61032A08D0022802D094
:10EA500000F0ECFA10BD487800F040FC10BD0D202D
:10EA6000FCF7C2FE10BDFEF771FF10BDEC1F0020C9
:10EA7000F8B5044620481E46007915460F46400763
:10EA800001D40820F8BD002F05D0002C03D0206849
:10EA9000002815D101E00E20F8BD184801680029B2
:10EAA0000ED04289018940684A431018626890423A
:10EAB00006D9002D04D0A94202D3A819884201D951
:10EAC0000720F8BD3846FFF7C9F9002811D03046B5
:10EAD000FFF7C4F900280CD06068FFF7BFF90028E1
:10EAE00007D02B463A46214604200096FEF716F939
:10EAF000F8BD1020F8BD0000EC1F0020BC2600204F
:10EB0000F0B58FB00D4606461C216846FCF751FB58
:10EB10006846017802273943017000240194039468
:10EB200004940594012108A806948170164968464A
:10EB300001840794E9790177297A4177807FF92167
:10EB40000840F721801C0840EF2108404108490097
:10EB50006846817714210AA8FCF72BFB698908A86D
:10EB60000171090A41710A9007A80B90684607864F
:10EB70004486878609A80E903346B0880E330AAAC9
:10EB80006946A2DF0FB0F0BD542A00001FB5002473
:10EB900069460C704C70012088701049104800F0D4
:10EBA00069F9694688808C710C490D482031103014
:10EBB00000F060F96946088108482C38FDF708FC28
:10EBC000002809D0082807D00649884204D0064901
:10EBD000884201D0FCF7E0FD1FBD0000EC220020C0
:10EBE0000C1F00200430000001340000F0B50024A8
:10EBF0000646601C95B000070D46000F08A91030AE
:10EC00000C94087428794874887CF9273840801C53
:10EC100088741C2105A8FCF7CCFA6946087D1021F0
:10EC20000843694608750CA806940A90089409944C
:10EC3000012208A90B948A761748694608870D9423
:10EC4000687908A90875A8794875887DF721384042
:10EC5000801C0840EF210840104308A98875142142
:10EC60006846FCF7A6FA0EA800900DA82946019068
:10EC70000FAA0C31304600F011F8694608811420C3
:10EC80004C8188810FA80490B088B31D6A4605A9FD
:10EC9000A2DF15B0F0BD0000532A0000F0B58C884B
:10ECA0005470240A064694708879D070347E00230C
:10ECB00002250420E40708D00C78002C05D00C892C
:10ECC0001471240A012354710620347EA4070DD543
:10ECD0004C78002C0AD02B43CC6815182C70270ACE
:10ECE0006F70270C240EAF70EC70001D347E64072B
:10ECF00004D58978002901D004210B431370F0BD9D
:10ED000070B501240B49600408600B49401088600D
:10ED1000094940398860094D6C602F20FCF7DAF909
:10ED2000AC60074D00242F202C61FCF7D3F9EC7068
:10ED300070BD000080E100E0401301400010014080
:10ED40002420002030B50A48FF21C57D0022094C4F
:10ED50000931094B002D625007D09969437EC26882
:10ED6000D154417E491C417630BD986930BD0000C8
:10ED70001027002000200040002500401FB501237F
:10ED80006A46137010720348019106C8684690479E
:10ED90001FBD00001027002008B502490020009187
:10EDA00008BD0000001F002070B51C485121016003
:10EDB000642141600121816001730146184800F01F
:10EDC0004DF816488021103001600D21C9014160C5
:10EDD000FF2181318160002404730146104808300E
:10EDE00000F03CF80D482821203001601425A021B6
:10EDF00085604160047301460948103000F02EF828
:10EE000006487D2130300560416005218160047332
:10EE100001460348183000F021F870BDDC220020C4
:10EE2000041F002010B503680A6889689C1A8C4288
:10EE300002D9591A016010BD01210260017110BD93
:10EE400010B54B68026889689C1A8C4202D9511827
:10EE5000016010BD00210360017110BD0A7B002A12
:10EE600003D049680160002102E0096801600121C6
:10EE70000171704710B5044600790028204602D081
:10EE8000FFF7DEFF01E0FFF7CDFF206810BDFFB503
:10EE90000746806A81B0144600283DD000253846D8
:10EEA0002030009033E00C20B96A68430E18B08817
:10EEB000801CFE2802D90C2005B0F0BD22880299E2
:10EEC000401C885420881622401C80B22080029961
:10EED0000A542088401C80B2208002994118308852
:10EEE00000F0A8FB2188401880B22080B288002A58
:10EEF0000AD0B16800290FD0029BC018FCF740F976
:10EF00002088B188401820806D1C0098EDB2007BED
:10EF1000A842C8D80020CFE70720CDE730B59DB084
:10EF20001C2110A8FCF745F90024052110A8109415
:10EF3000418101250573447384738482601C010739
:10EF4000090F10A81031017121074471090F817157
:10EF500029461031C1710020014610A801720146F6
:10EF60002248FDF70DFA002801D0FCF715FC14210A
:10EF700017A8FCF71EF90120014618A810314172AC
:10EF80000120014618A8103181720020014618A8FE
:10EF9000C1720120014618A8103101731794057041
:10EFA000642119940172114817A91838FDF71CF84B
:10EFB000002801D0FCF7F0FB40216846FCF7F9F887
:10EFC0000BA16846FDF760FA0120014608A8103140
:10EFD00001770020014608A841776846FDF7FAF856
:10EFE000002801D0FCF7D8FB1DB030BDC0220020A6
:10EFF0004E6F7264696353656D69636F6E647563A8
:10F00000746F720010B50020FDF7C4FB002801D01A
:10F01000FCF7C2FBFDF70EFB002801D0FCF7BCFBA0
:10F020003CDF002801D0FCF7B7FB10BD10B50F493D
:10F030000028087009D0012811D0022812D0032816
:10F0400002D14869FEF7C2FC10BD00208861C8618A
:10F05000074840780028F7D0FDF734FE10BD00F0D7
:10F06000F5F810BD00F054F810BD0000EC1F0020B2
:10F07000F0250020002803D00249C8600020704716
:10F080000E207047442000201CB5034901910091D7
:10F09000694660DF1CBD0000001F002070B50E46F1
:10F0A0000546144614211046FCF783F80120002180
:10F0B00020802161217326726572002D00D0A0721C
:10F0C000002070BD10B5FCF759FB10BD70B50029CC
:10F0D00001D08C0701D0072070BD064C0125A1602E
:10F0E00062800549636010DF0028F5D12570162085
:10F0F0002EDF70BD44200020C5F00100002803D0A1
:10F1000002490861002070470E207047442000200B
:10F11000F8B5164C1422606840084000606014483E
:10F12000017851430E183769FFF756FB0146384600
:10F13000FBF7FCFF05466061FFF74EFB0146F088D8
:10F140007F1EC019FBF7F2FF02228542606801D1E1
:10F15000104300E090436060E1681040084303D032
:10F16000002000F0BBF8F8BD0220FAE7EC1F0020F9
:10F17000F025002010B502484069FEF727FC10BDBD
:10F18000EC1F002010B5FFF715FB441EFFF724FB12
:10F190004443FFF721FB04494A69521E5043CA68A1
:10F1A0002146FEF718FC10BDEC1F0020F8B51048F2
:10F1B0001422017851430C182569FFF70DFB014615
:10F1C000E088228980184019FBF7B0FF0F46FFF74F
:10F1D000F1FA461EFFF700FB4643E0882289F11949
:10F1E0008018044A40191269FEF7F5FBF8BD0000CB
:10F1F000F0250020EC1F002070B5FFF7EDFA054662
:10F20000FFF7D8FA441EFFF7E7FA60432946FBF7F9
:10F210008DFFFEF7DBFB70BD70B5FFF7DDFA8608EA
:10F22000FFF7DAFA0749496948430446FFF7C2FA8B
:10F23000451EFFF7D1FA684332462146FEF7CBFB65
:10F2400070BD0000EC1F00200020704770B514480E
:10F250001422017851430C18241DFFF7BDFA618870
:10F26000104E884211D2FFF7B7FA61880D1AFFF7E6
:10F27000B3FA8208A188E068401821694019491949
:10F28000FEF7A9FBFFF7A8FA07E0A288E06880185C
:10F290008A082169FEF79FFB6088F06170BD00005D
:10F2A000F0250020EC1F002010B50548007900076C
:10F2B00003D4012000F012F810BD00F003F810BDD7
:10F2C000EC1F002010B504480822416891434160BA
:10F2D000407800F003F810BDEC1F00200249487090
:10F2E0000249800008580047EC1F002098F80100F0
:10F2F00010B50446FFF796FB2046FCF70BFD10BD4A
:10F3000070B50C00054602D10020FCF745FA002D2F
:10F3100002D10020FCF740FA207828702088FF21D5
:10F3200009020840000A6870206809020840000CC1
:10F33000A8702068000EE87020792871207A687122
:10F340002089000AA871A068000CE87170BD000057
:10F3500010B505480079000702D4FDF7A1FC10BDE7
:10F36000FFF7B0FF10BD0000EC1F0020FEB51F4CE2
:10F3700000252769E06802906846FEF7B7FA019019
:10F38000FEF7A8FD06460198002822D00023009829
:10F39000E16817E00E680A46864202D9301A086012
:10F3A00012E0801BF31800261660D668D169B446B7
:10F3B000002E07D0FE183602360A56606646966062
:10F3C000D56115460029E5D12846E160FEF7E0FD4C
:10F3D00006E02846FEF7DCFD002801D1002E02D011
:10F3E0000298FDF7DFFC00202071FEBD24200020E4
:10F3F00001200249000508607047000000E200E0BB
:10F4000010B50E4BD968002906D002680C68A242DC
:10F4100004D8A21A0A60C161D86010BD0B4604E08E
:10F420000B46C969121B002904D00C689442F7D31B
:10F43000A41A0C600260C161D86110BD24200020B4
:10F44000F8B51D4DEC68002C34D01C4800274068EE
:10F450002969401A0602360A2068B04218D8361ABE
:10F46000C7192246107CE46900280FD000201074D0
:10F470006B69002B07D0916950699847002805D027
:10F48000FCF78AF902E0516990698847002CE3D1C2
:10F490006978A878814206D1401CC0B2A8700228C1
:10F4A00001D10020A87004490006800D18310F50CA
:10F4B000FFF79EFFF8BD000024200020001501404A
:10F4C000FF2107481D31002242500648828A816888
:10F4D000895C828A521C82820348C16170470000A5
:10F4E0000020004010270020002500401FB500210B
:10F4F0006A4611701072044882680192817506C8CC
:10F50000684690471FBD000010270020F0B5454D0C
:10F51000012185B049022846FFF737F80127002668
:10F52000414C002824D0FF2125312846FFF728F838
:10F5300000281DD0FF2025302E5081203B4980001F
:10F540008860A07E002800D16F60022168460170AB
:10F550003749086808600390E17D68460172E068F9
:10F560000190E675267606CC6846083C90472BE06D
:10F5700004212846FFF709F8002825D0FF2109318A
:10F580002846FEF7FDFF00281ED0FFF7DBFBE07DDD
:10F59000617E884218D1207E002808D0627EE16812
:10F5A000E0752069E0602676667610460AE0A07E67
:10F5B000002800D16F6081201C4980008860E675BA
:10F5C000607EE168FFF7DAFBFF211D312846FEF778
:10F5D000D7FF00280DD0A18AA07D814202D2FFF77B
:10F5E0006FFF06E0FF211D316E50002801D0FFF7AC
:10F5F0007DFFFF2145312846FEF7C2FF00280ED0CF
:10F60000FF2045302E50A07E002800D02F60E07DE6
:10F61000002804D0E675607EE168FFF7AFFB05B017
:10F62000F0BD000000200040102700200023004013
:10F63000802400400870000A4870022070470000D3
:10F6400001218140024842688A43426070470000BD
:10F65000D41F002038B51549154A488890420FD06C
:10F660004A78144C521CD2B24A70237B934208D37E
:10F67000091D75DF002803D0A169002900D0884743
:10F6800038BD00254D70217C002907D03B2176DF55
:10F69000002803D0A169002900D0884761690029AA
:10F6A000EED068460570884738BD0000741F002002
:10F6B000FFFF0000AC24002012494868C005C00DBF
:10F6C00019D0103840B2002807DA0207120F083AA2
:10F6D000920892005118C96904E081080A4A890019
:10F6E000891809688007C00EC1400806800F0128EC
:10F6F00003D0032803D00220704700207047012068
:10F700007047000000ED00E000E400E042788378FC
:10F71000521CD2B2934200D100220378934201D10D
:10F72000002070470A70416840781822504308183A
:10F730007047FFB583B016460C9D0D9C1F460222F4
:10F7400000950194039800F00CF8002807D13B467F
:10F750001022314600950194039800F002F807B09A
:10F76000F0BDFFB583B0074600200C9C8646268876
:10F7700005463AE07868A9004218118868468180F9
:10F780005188C1800022694601A865DF002839D16F
:10F79000684601780598814226D17046002801D03C
:10F7A000002200E002222088891842180D998A421E
:10F7B00027D8714600290AD1401C80B22080069AC1
:10F7C000049911542088401C2080012086462188FD
:10F7D00006980A18694601A865DF002812D1694613
:10F7E00020880978401820806D1C3888A842C1DC28
:10F7F000704600280AD02088801B401E80B2FF2857
:10F8000002D90C2007B0F0BD069988550020F9E711
:10F810000179002902D1007B002800D00120704727
:10F8200058200020782000201C2300203C230020AA
:10F8300068230020110000001200000013000000E7
:10F84000140000001100030049C60100120003006B
:10F8500049C601001300030049C60100140003005B
:10F8600049C601008C24002007E3010025DB0100CC
:10F8700041DA0100E1DB010003E30100F5DA0100F8
:10F880003DDA0100D9DB0100FFE2010045DA0100A9
:10F8900039DA0100D1DB0100F9F1010019F20100B0
:10F8A00075F10100ADF1010085F10100A9F201003F
:10F8B000EDCF010099CF010051F3010039DC0100C7
:10F8C0002C27002003000000E8F80100001F0020A2
:10F8D0005801000014B2010004F901005820002072
:10F8E000F80E00006AB40100310321FFFF0C23145D
:10F8F0001801000F1801000A1801A324F403FBFFEC
:04F90000FF00000004
:040000050001B0C185
:00000001FF
