:020000040000FA
:1000000070210020150400001D0400001F040000E2
:10001000210400002304000025040000000000006B
:1000200000000000000000000000000027040000A5
:100030000000000000000000290400002B04000064
:100040002D0400002D040000DD0600002D0400003A
:100050002D0400002D0400002D0400002D040000DC
:100060002D0400002D0400002D0400002D040000CC
:100070002D0400002D0400002D0400002D040000BC
:100080002D0400002D0400002D0400002D040000AC
:100090002D0400002D0400002D0400002D0400009C
:1000A0002D0400002D0400002D0400002D0400008C
:1000B0002D0400002D0400000000000000000000DE
:1000C0002D0400002D0400002D0400002D0400006C
:1000D0002D0400002D0400000000000000000000BE
:1000E0000000000000000000000000000000000010
:1000F0000000000000000000000000000000000000
:1001000000000000000000000000000000000000EF
:1001100000000000000000000000000000000000DF
:10040000DFF80CD000F02AF8004800473D09000052
:10041000702100200648804706480047FEE7FEE7B7
:10042000FEE7FEE7FEE7FEE7FEE7FEE7FEE7000089
:10043000810400000104000040EA01039B0703D08F
:1004400009E008C9121F08C0042AFAD203E011F813
:10045000013B00F8013B521EF9D27047064C074D94
:1004600006E0E06840F0010394E807009847103484
:10047000AC42F6D3FFF7C8FFB8110000D811000056
:10048000F0B58C480022041D0378211D081D0126AB
:10049000062B17D125782D0714D10D78C5F3031538
:1004A000032D03D1077817F0F00F0ED0042D03D1E0
:1004B000077817F0F00F08D0052D03D1057815F057
:1004C000F00F02D0062B09D014E04FF08055D5F87C
:1004D0004452794FC5F342353D6002E025782D073F
:1004E00008D10D78C5F30315032D03D1057815F058
:1004F000F00F02D0062B06D01DE0704D2F6827F0BC
:1005000080772F601AE025782D0714D10D78C5F378
:100510000315032D03D1077817F0F00F0ED0042D2B
:1005200003D1077817F0F00F08D0052D03D1057817
:1005300015F0F00F02D0062B0AD015E04FF08045E1
:10054000C5F80C21C5F810215B4D2D1F2A6002E073
:1005500025782D0708D10D78C5F30315032D03D198
:10056000057815F0F00F02D0062B05D066E0524C4E
:1005700003236434236002E023781B075ED10978EB
:10058000C1F30311052959D1007810F0F00F55D1AE
:100590004B4800684B4908604948001D0068091D28
:1005A0000860474808300068091D086044480C305E
:1005B0000068091D0860424810300068091D086085
:1005C0003F4814300068091D08603D481830006835
:1005D0003C49203108603A481C300068091D086019
:1005E000374820300068091D08603548243000680D
:1005F000091D0860324828300068091D086030482D
:100600002C300068091D08602D48303000682D49E5
:10061000403108602A4834300068091D08602848C5
:1006200038300068091D086025483C300068091D05
:100630000860234840300068091D08601F4874386E
:10064000016841F470010160BFF34F8FBFF36F8FFA
:100650004FF01021D1F80002002803DBD1F800028E
:10066000002822DA184B1E6018480468002CFCD0C1
:100670001524C1F800420568002DFCD0C1F80442E1
:1006800001680029FCD01A6001680029FCD0BFF382
:100690004F8F0A48F03801680D4A01F4E0611143B8
:1006A0000160BFF34F8F00BFFDE70B4909480860A9
:1006B000F0BD0000E00F00F03C050040FCED00E064
:1006C0000404001020C5004004E5014000E401409E
:1006D0000400FA050090D003140000200348007FB6
:1006E00008B100F0D7BC00F051BC00002C01002084
:1006F00002E008C8121F08C1002AFAD170477047EB
:10070000002001E001C1121F002AFBD17047000048
:10071000BFF34F8F05480168054A01F4E0611143BA
:100720000160BFF34F8F00BFFDE700000CED00E05C
:100730000400FA050EB500210091CDE901106A46CA
:1007400044F20100FFF7E4FF10B58268C3689342EA
:1007500003D000F0DFF8002010BD052010BD29B146
:1007600012B1531E134203D0092070470E20704768
:100770000160838000218160C1600846704710B528
:100780008268C3689A1A83889A4203D800F0CCF82A
:10079000002010BD042010BD10B504460948816832
:1007A000C2688088511A814206D10121064800F0B2
:1007B00093F908B1052010BD2146BDE8104001485D
:1007C000FFF7C2BF4C0100201A00002070B504469C
:1007D000234888B01E460D00426035D0A88829689D
:1007E00082B22048FFF7BBFF00282ED1A889A96854
:1007F00082B21C481030FFF7B2FF002825D120221A
:1008000019496846FFF718FEA0680690207900B1E4
:1008100001208DF814008DF81C60607900B10E2065
:100820008DF81500E0780290A07803902078019070
:10083000607800900D49684600F004F9002804D162
:100840009DF81D0018B104E0072008B070BD00F04D
:1008500089F903480121801C00F03EF9F5E700000A
:10086000180000204C01002098110000E50E000047
:1008700010B50446074801214470401C00F018FAE6
:10088000112805D12146BDE810400348FFF777BF86
:1008900010BD0000180000205C0100202DE9F0418F
:1008A0000446006800F0A2FA2078174F012606FAE5
:1008B00000F038600021606800F08FFA1348144D92
:1008C000007FA069C5F82405607D217D0843C5F837
:1008D0006C05D4E90001C5F80C05C5F81415207D98
:1008E00001280FD10021A06800F077FAE06800F03D
:1008F0007DFA207B86403E60D4E90201C5F80815E8
:10090000C5F81005BDE8F081080500502C01002055
:1009100000200040826883881A4003689A5C0A704D
:100920008168491C81607047C26883881A400368E7
:100930009954C168491CC160704700000020012122
:1009400088B0032201FA00F313F4F01F04D08300EF
:1009500003F1A043C3F80027401C2028F2D3264906
:100960004FF4F01008600024081D0460234A01AB16
:1009700007CA83E80700224804900A20059020480F
:1009800003230A3006904FF4807007901D4A04A993
:1009900001A8FFF71BFF08B1FFF7CCFE00258DF87B
:1009A0000040194F2C4601266846FFF7F5FE002847
:1009B000FAD12846FFF75CFF0028FAD19DF8000025
:1009C000692808D0492806D0722806D0522804D0B9
:1009D00000242546E8E769250CE01EB117F81450FD
:1009E000002605E007EB4400641C4578E4B20126CC
:1009F000092CD9D90024D7E7080500506C11000054
:100A000020000020D10E0000000000204907090E40
:100A1000002806DA00F00F0202F1E02282F8141D2D
:100A200003E000F1E02282F8001400F01F0201212F
:100A300091404009800000F1E020C0F88012C0F829
:100A4000001170472DE9F0411E4C07460D46E07E2F
:100A500010B10820BDE8F08107B91B4F787F2077DF
:100A60003846FFF71BFF6560386920602800174E85
:100A70004FF0000516D0397F207F48B1C6F81051DD
:100A8000C6F82051C6F82451C6F84451104804E075
:100A9000C6F81C51C6F844510E48C6F8040302209B
:100AA000FFF7B4FF207F08B1082000E00420C6F85B
:100AB0000005E5752576A5750120E076A576002070
:100AC000C8E700002C010020781100000020004041
:100AD00010030200800002002DE9F0411F4B1C7F33
:100AE0003CB14FF40052B2EB104F02D01020BDE8E1
:100AF000F081D3F804C00022194D4FF404764FF46E
:100B00000177BCF1000F05D014B1C5F8086301E00E
:100B1000C5F8087393F817E0BEF1000F10D01A7EE5
:100B200052B1BCF1000F05D014B1C5F8046301E067
:100B3000C5F804731120DAE718610122197604E080
:100B4000D9750025D8605D761D761CB1BDE8F041F1
:100B500000F066B8BDE8F04100F014B82C010020A8
:100B60000020004010B5064C207F002806D1A07E52
:100B7000002803D100F07CF90120A07610BD000010
:100B80002C0100202DE9F05F234DA87E104301D1F8
:100B900000F06EF9214C686830B14FF40170C4F870
:100BA00004030020BDE8F09F4FF000094FF4A27A43
:100BB000C4F844914FF4927BA8465946204600F071
:100BC0001FF905464FF48471204600F019F90746D5
:100BD0005146204600F014F9064647EA060129432B
:100BE000EBD055EA060007D100F01AF998F8171073
:100BF00098F819008142E0D888F817900DB10320C9
:100C0000D0E70EB10F20CDE798F81A10012009B1F6
:100C10002060C6E76060C4E72C010020002000408F
:100C20002DE9F05F204C00264FF48873C4F8106162
:100C30004FF4A275C4F84461C4F83405C4F83815FB
:100C40008AB1D4F8000240F02000C4F80002DFF8B6
:100C50005C80D8F8040048B14FF40470C4F8040371
:100C60000020BDE8F09F01202060F0E79A46A946E9
:100C70004FF4927B5146204600F0CDF80546494698
:100C8000204600F0C8F807465946204600F0C3F851
:100C90003D430543EED088F8176008B10320E0E734
:100CA000002FDDD00F20DCE7002000402C010020C9
:100CB0002DE9F0471E4D2A7F3AB14FF40053B3EBB4
:100CC000104F02D01020BDE8F087AB7D0BB1112092
:100CD000F9E7A9750023A860AB822AB3154C00265A
:100CE0004FF490729846C4F820314FF4AC73C4F8B6
:100CF0005881C4F84405C4F848150120A06068680C
:100D000080B9924699465146204600F084F807463D
:100D10004946204600F07FF80743F4D000B10F2683
:100D200085F816803046CEE7BDE8F04700F004B8FD
:100D30002C010020002000402DE9F05F1C4F002511
:100D40004FF48E7A2E46C7F81C514FF00108C7F8B1
:100D5000088000F099F8174CB815616879B123E064
:100D60005F465146484600F04BF810B9A08AB84299
:100D7000F7D1A08AB84204D000F086F801E083469B
:100D8000B946A08AA17D8842EAD3A08A584501D1FC
:100D90000F2508E04F465146384600F031F800284C
:100DA000F9D0C7F80C80A6752846BDE8F09F000072
:100DB000002000402C01002030B541EA4201DDE96D
:100DC000034541EA8301800041EA042100F1A0408B
:100DD00041EA0541C0F8001730BD1CB500220B46A2
:100DE000009211460192FFF7E7FF1CBD1CB50021E0
:100DF00000910B46012201911146FFF7DDFF1CBD5A
:100E00004058002800D001207047D0F80403084063
:100E100000D0012070474058002800D001207047C2
:100E200009480A490022C37DC1F8082143B1D1F81D
:100E30001815437EC268D154417E491C41767047E3
:100E4000D1F81805704700002C0100200020004058
:100E50001FB501228DF8080004488DF8002001918B
:100E6000D0E90012684690471FBD00002C01002009
:100E700004480021C0F82411C0F8081101210160C4
:100E80007047000000200040064A0020C2F81C0104
:100E90000548838A8168C95C838A5B1C8382C2F8A7
:100EA0001C157047002000402C0100201FB50021B8
:100EB0008DF8080005488DF8001082680192817550
:100EC000D0E90012684690471FBD00002C010020A9
:100ED0000178022901D0012902D14068FFF72ABC1C
:100EE000704700007CB50178264D012909D0022900
:100EF0002CD0002929D129462348FFF725FC80B3AF
:100F000034E04068017820481038FFF738FC1E4C68
:100F1000103C20B101218DF80010019007E0A0687D
:100F2000E168081A012805D100208DF800006968E1
:100F300068468847A068E168081AA188884204D8F2
:100F400010480121801CFFF7C7FD7CBD02218DF8F0
:100F50000010C06801900B480121801CFFF7BCFD08
:100F60000CE0FFE701210748FFF7A2FE0648816871
:100F7000C0688842E9D103208DF80000696868469E
:100F800088477CBD180000205C0100202DE9FF414E
:100F90003E4D4FF400712846FFF737FF01273C4CC8
:100FA0004FF40178002600B34FF492712846FFF702
:100FB00027FFD0B1C5F82461C5F80883A07E00B929
:100FC0006F6002208DF80000D5F88004C5F8800419
:100FD0000390E07D8DF80800E0680190E6752676C4
:100FE000D4E900126846904724E004212846FFF720
:100FF0000CFFF8B14FF484712846FFF701FFC8B128
:10100000FFF70EFFE07D617E884213D1227E3AB168
:10101000607EE168E2752269E2602676667607E026
:10102000A07E00B96F60C5F80883E675607EE16850
:10103000FFF70EFF4FF48E712846FFF7E1FE58B11F
:10104000A18AA07D814202D2FFF71EFF04E0C5F80D
:101050001C6108B1FFF72AFF4FF4A2712846FFF781
:10106000CFFE00280FD0C5F84461A07E00B12F60EC
:10107000E07D002807D0E675607EE16804B0BDE839
:10108000F041FFF7E5BEBDE8FF8100000020004011
:101090002C0100207FB5334C4FF492712046FFF7AE
:1010A000BAFE314D0026B0B1C4F8246102208DF89B
:1010B0000000D4F88004C4F880040390D4F83C0500
:1010C0008DF80800E8680190EE752E76D5E90012DB
:1010D000684690471FE04FF488712046FFF79BFE5B
:1010E000C8B1C4F81061D4F83C05E97DC0B28142B2
:1010F00011D12A7E5AB1E968D4F8003223F02003D6
:10110000C4F80032EA752A69EA602E7601E0EE75CD
:10111000E968FFF79DFE4FF4A2712046FFF77BFEC2
:1011200050B1C4F84461E87D30B1EE75D4F83C05A7
:10113000E968C0B2FFF78CFE4FF490712046FFF7CC
:101140006AFE00280CD0C4F82061A87D002807D0D2
:10115000D4F84C0504B0C0B2BDE87040FFF7A6BE9D
:101160007FBD0000002000402C0100200806FFFF8A
:101170000000000000509D00060000000800000074
:101180000700000005000000000000000000000053
:1011900000009D00030000000600000008000000A1
:1011A0000700000005000000000000000000000033
:1011B00000009D0003000000D81100000000002086
:1011C00020000000F0060000F811000020000020C0
:1011D000502100000007000041466232431B644773
:1011E000453666524736683749316A3E0090D0032B
:0811F0000000000000000000F7
:0400000500000401F2
:00000001FF
