:020000040001F9
:10B00000682F0020F5B001000FB1010011B101005F
:10B010000000000000000000000000000000000030
:10B0200000000000000000000000000013B101005B
:10B03000000000000000000015B1010017B1010080
:10B0400019B1010019B101004DB4010019B101009D
:10B0500019B101000000000065B2010019B1010042
:10B0600019B1010019B1010019B1010019B10100B4
:10B0700019B1010019B1010019B1010019B10100A4
:10B0800019B10100B1B3010019B1010019B10100FA
:10B09000D1B3010019B10100D9B3010019B1010008
:10B0A00019B1010019B1010000000000000000000A
:10B0B0000000000000000000000000000000000090
:10B0C0000348854600F09EF80048004795E10100DE
:10B0D000682F0020401E00BF00BF00BF00BF00BFA0
:10B0E00000BF00BF00BF00BF00BF00BF00BFF1D165
:10B0F000704700000321094802680A4302600848BB
:10B1000002680A4302600748804707480047FEE795
:10B11000FEE7FEE7FEE7FEE7FEE70000240500404D
:10B1200054050040F9B30100C1B0010030B50B4631
:10B13000014600202022012409E00D46D5409D4211
:10B1400005D31D469540491B254695404019154697
:10B15000521E002DF1DC30BD70B5002425460028BC
:10B1600001DA01244042002901DA01254942FFF7B2
:10B17000DDFFAC4200D04042002C00D0494270BDFF
:10B1800003460B439B0703D009E008C9121F08C000
:10B19000042AFAD203E00B780370401C491C521EAB
:10B1A000F9D27047D2B201E00270401C491EFBD2B6
:10B1B00070470022F6E710B513460A4604461946C2
:10B1C000FFF7F0FF204610BD421C0178401C00290B
:10B1D000FBD1801A704730B504460020034600E0DA
:10B1E0005B1C934203D2E05CCD5C401BF8D030BDC9
:10B1F0000321001D401E037812021A43491EF9D58F
:10B2000010467047064C0125064E05E0E36807CC62
:10B210002B430C3C98471034B442F7D3FFF754FF4C
:10B2200068FC010088FC010030B58C180278401CD5
:10B2300013071B0F01D10378401C120906D10278B5
:10B24000401C03E005780D70401C491C5B1EF9D1C1
:10B2500001E00B70491C521EFBD1A142E6D3002035
:10B2600030BD0000F8B50024FF2501350126274632
:10B270000094284603F0F0F8002808D034484068CD
:10B28000304204D0334800212818344301602D1D7A
:10B2900076007F1CADB2042FEBD3FF207D3003F08E
:10B2A000DBF8002807D02C48002101604007044348
:10B2B0002A48006900902A4F200712D00126002555
:10B2C00026420AD02748AA00111808690969C00453
:10B2D000C00E8903BA58890F904776006D1C042D63
:10B2E000EED3002C30DA00241D4E002130194030FE
:10B2F0004156491C25D00778BD06AD0E284601F001
:10B3000081FB80003658002E1BD0BF090121A940C7
:10B31000154AA80080180068009A8003800F114227
:10B3200002D0022802D00CE003280AD1032F05D155
:10B3300002280AD00221284603F07EF83946284622
:10B34000B047641C042CCFD3F8BD0321F3E7000001
:10B3500000630040006000407C6100400005005038
:10B360000427002000650040000700508307FF22EB
:10B37000DB0E9A408907090E994000280BDA000776
:10B38000000F0838830808489B001818C3699343C6
:10B390000B43C3617047830804489B001B1818685F
:10B3A000904308431860704700ED00E000E400E0BF
:10B3B00010B506490020086048608860C8600349ED
:10B3C00040390860486004F005F810BD40110140A4
:10B3D00010B503F095FF10BD10B506484068002871
:10B3E00005D08047002801D000F088F910BD02F098
:10B3F00049FD10BD4020002010B502F08DFD002851
:10B4000005D00E490C484860C8130D4988610D48A5
:10B41000018CC9B201290ED1818C09070BD1018D94
:10B420000906090F042906D1808D0006000F02D1FC
:10B4300005490120886010BDDFFF07C000050040FE
:10B44000006C0040C00F00F00006004010B504F092
:10B4500027F810BD30B47446641E2578641CAB42D6
:10B4600000D21D46635D5B00E31830BC184702E064
:10B4700008C8121F08C1002AFAD17047704700207F
:10B4800001E001C1121F002AFBD17047F7B584B05B
:10B490000025168807461580406B1446002813D0F7
:10B4A00003780598032E51D30221017021881122BF
:10B4B000491C89B2218042542188491C89B22180CB
:10B4C00043542088401C2080386B00281DD005463E
:10B4D0002088059902461232B24237D811220A5406
:10B4E00020881022401C80B220800A542088401CF2
:10B4F00020800F202A5C2388401ECA54228840B234
:10B50000521C22800028F5DA0025384620300290AF
:10B51000807B002806D033462246059902F048FD7C
:10B52000050014D10298407B002806D032462146FF
:10B53000059800F05BFE050009D1B878002823D0FB
:10B54000059886462088001DB04202D90C2007B01D
:10B55000F0BD684679DF0028F9D1218803207246C2
:10B56000505420881921401C80B22080115420881A
:10B570007146401C80B2208041186846008804F063
:10B5800023F8218840182080F878002817D02188D7
:10B5900003230A46FB56C91C0598B142D6D802219E
:10B5A000815421880122491C89B22180425421887A
:10B5B000491C89B2218043542088401C208078682F
:10B5C000002817D021880023C3560A46C91C0598B5
:10B5D000B142BBD80221815421880A22491C89B278
:10B5E000218042542188491C89B2218043542088FB
:10B5F000401C2080388900280AD0009438460196E3
:10B60000062202210830059B04F061F805009ED156
:10B61000388A00280AD00094384601960722032170
:10B620001030059B04F053F8050090D1388B0028AA
:10B630000AD0009438460196152214211830059B33
:10B6400004F045F8050082D1386A002806D0334658
:10B650002246059901F082FB0500D8D1786A0028BE
:10B6600006D033462246059902F03EFE0500CED1B3
:10B670000298007B002807D03346224638460599B9
:10B6800003F0CBFB0500C2D13878002807D0334641
:10B6900022463846059902F079FE0500B7D12846C2
:10B6A00055E710B501220221002001F05FF80028C3
:10B6B00001D0072812D107220221012001F056F8FB
:10B6C000002801D0072809D100210A22084601F0EC
:10B6D0004DF8002801D0072800D1002010BD00003F
:10B6E000BFF34F8F04490348C860BFF34F8F00BFBB
:10B6F000FDE700000400FA0500ED00E00EB50021B2
:10B70000029000916A4601910148FFF7E9FF0000AD
:10B7100001400000014B1B6818470000082600206C
:10B7200038B50C46A2680C235A43064B09789D583D
:10B73000054A126A00920246204608302369A8474B
:10B7400038BD0000F8260020FC1F002010B5064977
:10B7500014230A785A435118091DFFF7E1FF04200A
:10B7600003F02EFC10BD00002C260020094B9B6826
:10B77000002B07D0002A07D0002805D00068037CE2
:10B78000002B03D0082070470720704741744261A6
:10B790000020704720200020FFB59007002581B0D1
:10B7A00014460E46002832D11B4F002C31D003F036
:10B7B00033FA049878610320387033461821224602
:10B7C00000204B43BC601834C10089180D704D70C7
:10B7D0008E704C601C19401C0328F5DBFD607D70E9
:10B7E00001240E48BD702405046003211420FFF7D6
:10B7F000BDFD0B4804600B4C0198A0600321112093
:10B80000FFF7B4FD60683861002005B0F0BD072087
:10B81000FBE7BD60FBE700002020002080E200E0A5
:10B8200000E100E000150140FEB50D461B4917463A
:10B830008968044600292AD0002C28D0052D01D281
:10B840000720FEBD6069002821D0607C012820D03F
:10B85000002603F0FFFEC0001049019089684018DF
:10B86000694603F021FF002815D0012101700C4921
:10B87000446049680830E2C0084901988968411865
:10B8800068460078487003F07DFD0020FEBD08206A
:10B89000FEBD2E46DDE70420FEBD00002020002076
:10B8A00000150140F8B5134D0446A96800291CD0C5
:10B8B000002C1AD06069002817D00026267403F0E7
:10B8C000C9FEC700A8686946381803F0EDFE0028D5
:10B8D0000DD0022101704460A868391868460078CC
:10B8E000487003F04FFD3046F8BD0820F8BD042035
:10B8F000F8BD0000202000200348024941600121DA
:10B90000016070476220000000750040F0B50546F8
:10B91000007D002493B00E4600280DD00120014682
:10B920006846103103940173717B4173817BF92068
:10B9300001406846891C81731C2104A8FFF739FC6B
:10B940006946087C02210843694608742A7DEF2174
:10B95000002A02D01022104300E008406A4610740A
:10B96000059407940894287D002800D003A8099026
:10B9700001270A9410469771304A82800094B27B66
:10B980000270F27B42708078F9221040F722801C0E
:10B990001040EF2108404108490068468170317B22
:10B9A000017214210BA8FFF704FC01A80B90684654
:10B9B0000C908786C486078702A80F90A888AB1DC5
:10B9C0000BAA04A9A2DF002835D1B068002830D026
:10B9D000684687711A4981800094317C017000208B
:10B9E0000146684641708078F9210840F721801CA3
:10B9F0000840EF210840410849006846817011A8BD
:10BA0000B16800F0B6FD064614210BA8FFF7D1FB84
:10BA100001A80B9068460C908686C486068711A8FC
:10BA20000F902A46E8880E320BA9A3DF002802D126
:10BA300000E0EC81002013B0F0BD0000192A0000E6
:10BA40000829000010B5FFF757FF02F081FC0146FE
:10BA5000074800F027FA002809D0082807D0054930
:10BA6000884204D00449884201D0FFF747FE10BD48
:10BA7000A42200200430000001340000F0B50C4680
:10BA800093B01F216A461180072600279180002865
:10BA900009D0C17849070DD502A9FFF7F7FC0028A6
:10BAA00009D102AD01E000251780002C0ED0E0780E
:10BAB000002802D0304613B0F0BD01AA0AA92046E2
:10BAC000FFF7E4FC0028F6D10AAA02E0684600224B
:10BAD000878068468088C3B268460088C1B228461D
:10BAE00072DFE8E770B50D4604991646040042D0AF
:10BAF000002E40D0424800224271C36001612422DE
:10BB000031464048FFF73CFB00F0D4F83D49343162
:10BB10000846103801602031816038215C38FFF719
:10BB200048FB3848217838380170A1788170E17875
:10BB3000C170617841706269216942610161E268A6
:10BB4000A168C26081600146E369A269CB618A6134
:10BB5000616A002919D00146AC310246B83241620F
:10BB60008A60636A1B880B80616A436A898899804E
:10BB70000021436A06E00E2070BD666AB668765CF6
:10BB80005654491C9E888E42F7D8A16A00291CD0C1
:10BB90001C4AAC3211460C398A608162A36A9B88C8
:10BBA0008B80A16A836A098819800021836A04E076
:10BBB000A66AB668765C5654491C9E888E42F7D8B1
:10BBC0002C210A5D0F4918390A73216A002909D00E
:10BBD0000B4914310162226A52884A80216A026A42
:10BBE000098811806168002904D00549891D4160D8
:10BBF00061684160034829463838FFF73FFF70BD50
:10BC0000641F0020F823002010B502881C4C102A65
:10BC100017D00021112A1AD0192A11D180790028B1
:10BC20000ED1607901281ED0022822D0032822D00C
:10BC3000042805D12171E2680846002A00D0904707
:10BC400010BD017D0129FBD18088208110BD61706C
:10BC5000808821898842F9D1012005E021690029E5
:10BC6000F4D0884710BD022000F02CF80028F5D150
:10BC700010BD0320F8E7032020710420F4E7000042
:10BC8000641F002010B5022801D003280ED1084CF3
:10BC9000207800280AD000202070607900F012F887
:10BCA000002803D02169002900D0884710BD00007A
:10BCB000641F002010B507210148FFF77AFA10BD74
:10BCC0007C1F0020F0B5754C87B06071002606A877
:10BCD000069602F06BFD0127082806D000286FD1D8
:10BCE0000698002802D02770D4E00696FFF7E2FFFE
:10BCF0006B4D6878002802D06079012805D0A878BB
:10BD000000280AD06079022807D1E168002903D011
:10BD1000E7700820884700E0E6706079012808D1C4
:10BD20006878002809D05D48193002F0FBFC002833
:10BD300003D06079022802D00CE002206071A8785C
:10BD4000002805D05548193002F0ECFC002801D13C
:10BD500003206071287B002804D16079032801D179
:10BD600004206071287E002804D16079042801D164
:10BD700066712671E16800290AD06079032801D034
:10BD8000042805D12878002802D06078002818D02F
:10BD9000A67018216846FFF70CFA684606700196EF
:10BDA00006720396607901280FD0022816D03C4E07
:10BDB000243637465C3F03281CD004285ED13BE084
:10BDC00069E0A77007208847E3E7344818300190FE
:10BDD0006846077046820682277152E02F48183065
:10BDE00001906846077029894182A9880182022052
:10BDF000207146E0A88A69464882288A0882284835
:10BE0000243003F0D3FC002805D02878002802D085
:10BE10006078002801D003202FE0022069460872D4
:10BE200004200396F8701E4800213838FFF726FEDC
:10BE3000002830D1052020E0A88B69460882288C94
:10BE400048821748243003F0B1FC002805D0287838
:10BE5000002802D06078002801D004200DE00220E4
:10BE60006946087204200396F8700D48002138389E
:10BE7000FFF704FE00280ED106202071607900280B
:10BE800003D0684673DF002805D1E168002901D09E
:10BE900020798847002007B0F0BD0000641F002013
:10BEA000F823002073B586B004002FD06A46217CA9
:10BEB000127F0020914227D0002501266846009578
:10BEC0000680458007A80190E188608A6A46A4DF61
:10BED000002819D16846007F2074608A0D49884285
:10BEE00016D0207D002813D0029503950495059562
:10BEF000E1886846018186724188818104900198B9
:10BF00000590608A02A9A6DF08B070BD0E20FBE78D
:10BF10000820F9E7FFFF000038B50D4604001AD0ED
:10BF2000002D18D0286820600020C0436082287946
:10BF30002075FF2020740121684681700749018027
:10BF4000221D69460120A0DF002803D12946204692
:10BF5000FFF7DCFC38BD0E2038BD00000F180000D4
:10BF600038B5002824D0002922D00A88102A1AD0F7
:10BF7000112A1AD0502A1BD1027D002A18D0CA8853
:10BF80004389891D9A4213D10A8B022A10D1026873
:10BF9000002A0DD0CB7E8C7E19022143C907C90F20
:10BFA00007D0002106E0898801E00021C9434182D1
:10BFB00038BD01216B4619706946904738BD0000B5
:10BFC00070B5054601461C220E48FFF7D9F80E4C05
:10BFD000002626702968002906D00822201DFFF7B8
:10BFE000CFF8201D7ADF02E00748001D7BDF002824
:10BFF00007D1401E60806670044A00210448FFF7A4
:10C00000B5FB70BDE4240020841F0020F1F5010081
:10C0100000FC0100F8B5214C028800271E4DE6897E
:10C02000102A15D01E49112A21D0122A2DD0502AAB
:10C030001CD1C288801DB24218D1028B022A15D1B0
:10C04000C27E837E10021843C007C00F0CD112E0DD
:10C050008188698001461048082216310C30FFF7AC
:10C060008FF86F70002E01D100F0C0FEF8BD0020E7
:10C07000C04368806F700868FFF714FC0028F5D093
:10C08000A1690029F2D08847F8BD811D0248082225
:10C090000C30FFF775F8E7E7841F0020E424002048
:10C0A00000FC010030B5054687B008682860002014
:10C0B000C043E88388890C4628840121684681763C
:10C0C0001C4901832A1D06A90120A0DF00282ED1CA
:10C0D0002146284600F05CFF002828D1214628464A
:10C0E00000F0E2FE002822D1206A002805D0214677
:10C0F000284600F0D3FF002819D1E0690590217E81
:10C1000068460174A17BC170206902906069039048
:10C110000322E11D6846FFF733F8E98A6846418249
:10C12000A988818028466946243000F04BF907B081
:10C1300030BD00001618000030B50446C08B134A0D
:10C140008BB090421FD006AA204600F073FF6946CC
:10C150000546088000200190029003900490E28838
:10C160008A8001228A71088106A803910490E08BDD
:10C1700001A9A6DF002804D169460988A94200D098
:10C180000C200BB030BD0820FBE70000FFFF0000D3
:10C1900038B504460D46243000F07EF92888102872
:10C1A00018D0112818D0502819D1E9886289AD1DFE
:10C1B0002046914213D1298B022910D10268002A0E
:10C1C0000DD0E97EAB7E09021943C907C90F07D01C
:10C1D000002106E0A88801E00020C043E08338BDCC
:10C1E00001216B4619706946904738BD7CB50546FC
:10C1F00008880C460930904201D90C207CBD684665
:10C2000071DF0028FAD121880820685420881B217A
:10C21000401C80B220802954208800A9401C80B294
:10C220002080401906220131FEF7AAFF20886946C6
:10C23000801D80B220800978002900D00121295476
:10C240002088401C208000207CBD00007FB5044673
:10C250000121684681714A4981804A4A01A9012029
:10C26000A0DF00287ED1228825463C35002A09D04F
:10C2700044482B46801C00904348616800F0CAFB8C
:10C2800000287BD12289002A0AD03E482B460A305A
:10C2900000903D48E168401F00F0BCFB00286DD1D4
:10C2A000228A002A0AD037482B461230009036489E
:10C2B0006169001F00F0AEFB00285FD1228B002ACD
:10C2C0000AD030482B461A3000902F48E169801E72
:10C2D00000F0A0FB002851D1228C002A0AD0294866
:10C2E0002B46223000902848616AC01E00F092FB65
:10C2F000002843D1228D002A0AD022482B462A301A
:10C3000000902148E16A401E00F084FB002835D1EE
:10C31000216B00290ED002A802F0BCFF19482B4661
:10C32000323000901848082202A9801F00F072FBEA
:10C33000002823D1606B00280BD012492B463A31DC
:10C340000091027901681048401C00F063FB00284E
:10C3500014D1A16B002910D002A802F00BFA0948F1
:10C36000423000E00AE0009007482B46072202A96D
:10C37000273000F04FFB002800D1002004B070BD32
:10C380000A180000981F0020292A000010B5044652
:10C3900001F07AF821460A48FFF7FAFE08482146DC
:10C3A0001838FFF7DDFD2046FFF734FE204600F089
:10C3B00047F9204602F084F82046FFF725FC10BD1F
:10C3C000BC220020F0B5044600208FB0C043A081FD
:10C3D0000026262006550A7C2277087C0D46002878
:10C3E00006D0E968002903D020460E30FEF7C8FECB
:10C3F000A8886080A8682062E8782070688AA08495
:10C400006869A0620120014608A8103108960170F1
:10C41000297841708178F9273940891C81701C2165
:10C4200001A8FEF7C6FE6846017928200143684648
:10C430000171029608A804960596012207960690B7
:10C44000827114496846818400200146684600963E
:10C450000170A97841708178F7203940891C01402A
:10C460001020014311436846817014210AA8FEF789
:10C47000A0FE09A80A9068460B90068613214686FE
:10C4800081860E966088231D0AAA01A9A2DF0FB03B
:10C49000F0BD0000552A000010B50C8802460023AC
:10C4A0002032112C13D005DC012C28D0102C0DD1FA
:10C4B00089880EE0512C0ED0532C07D1C988808872
:10C4C000814203D19079032800D1937110BD0021DE
:10C4D000C9438181F9E70A1D891D0B78022BF5D12B
:10C4E0009279042AF2D0062AF0D0052AEED04A88A2
:10C4F00083889A42EAD1891C02F02EF810BD917906
:10C500000229FBD102F0E4FB10BDF0B5054604465C
:10C510002035A8798FB0012802D008200FB0F0BDD7
:10C52000684641740227077408AA04A9204600F04F
:10C530005BFE0146684681860026009601960296BB
:10C540000396A1880180877086800DA8029008A8B4
:10C550000390A0896946A6DF0028DFD1AE71DDE730
:10C5600070B504460D460846FEF72EFE2080656035
:10C5700070BD0A780270497841700220704700004F
:10C5800000B585B0002348221749082002F068FD55
:10C59000002801D0FFF7B2F86A460121002002F01E
:10C5A00047FD002801D0FFF7A9F8104802F0C6FBAC
:10C5B000002801D0FFF7A2F8684602F02FFD0028FE
:10C5C00001D0FFF79BF80A4802F01EFD002801D0B9
:10C5D000FFF794F8074802F05BFD002801D0FFF751
:10C5E0008DF805B000BD00005C220020001E002078
:10C5F0008DC3010085F201001CB5044681786A46AE
:10C600000C4802F0E7F8002812D160781C2148435A
:10C6100009491C2340181A46694602F095F9064854
:10C6200006494430807A80000A582146684690477F
:10C630001CBD0000F41F0020C425002020FC0100C8
:10C6400010B51C4C0188606810290DD011290AD141
:10C65000401E606007D1FFF724F8002803D021684E
:10C66000002900D0884710BD00281ED100210122DA
:10C67000084600F07BF8002801D0072811D10722D6
:10C680000221012000F072F8002801D0072808D10B
:10C6900004220221002000F069F8002805D00728B4
:10C6A00003D02168002900D088476068401C606082
:10C6B00010BD0000581F002010B5032000F084F9C1
:10C6C000002801D0062800D1002010BDF8B507468B
:10C6D0000024234802E0641C042C1AD2A2008258D1
:10C6E000BA42F8D1042C14D21D481E4E0C38002931
:10C6F00029D001290ED002290BD160002018801901
:10C700004578002D05D018480169002901D0284638
:10C710008847F8BD61006118755C8E197178002931
:10C720000CD011490A224968806851430E4A521CB4
:10C73000FFF77AF8002801D10B4847700A48B17812
:10C7400014300155DDE78068FFF7ACF8064861005A
:10C75000611814308919005D8D78A842D1D0F8BDD8
:10C76000D0FB010094230020401F002070B500235F
:10C77000042811D2440004190D4D012A02D10129C7
:10C780000DD0002246008019094E801900290CD0D6
:10C79000012906D0022906D00723184670BD0D30A6
:10C7A000C2B22A55F9E74270F7E78270F5E7000058
:10C7B0009423002010B5054A0146127A0020D207C2
:10C7C00002D0084600F004F810BD0000401F002011
:10C7D000FEB57A4D0722EB6892059A4302936B6887
:10C7E00000939C0006461B19002001210193490576
:10C7F0000746734C3300FEF72DFE180D151537470D
:10C8000055677C887F8891DE9E9E9E9E9EC8CED175
:10C81000D8DEDE140F21029A49059143A160E7603A
:10C820002F70FEBDA260E76060680F225205504085
:10C83000800209D5A160E760022E02D1E120C0008C
:10C840000AE07D20400107E0E160A760022E01D1EF
:10C85000C82001E0FF2091302E706421FEF766FCB5
:10C860000099414300223FE0A260E76060680F2228
:10C8700052055040800204D5A160E76019204001B4
:10C88000EAE7E160A760E3E7A260E76060680F2283
:10C8900052055040800202D5A160E760D1E7E16017
:10C8A000A760D7E7A260E76060680F22520550409A
:10C8B000800202D5A160E76001E0E160A7602E7010
:10C8C0000098410000220FE0A260E76060680F223C
:10C8D00052055040800202D5A160E76001E0E160AE
:10C8E000A7602E700099002236480068FEF79CFF72
:10C8F000FEBDA260E7601BE0616801208005024682
:10C900008A43A2600140E16010E06068012189056E
:10C910000A468243A2600840E060E3E760680121C4
:10C9200089050A468243A2600840E0600199C9E790
:10C93000E160A7602DE023484068FEF7B3FF1121B6
:10C940008A1B01D0002807D00F22E9685205114048
:10C95000A160E760EF60FEBD0121C905E960012A21
:10C960000CD91046C82148436421FEF7DFFB6968F3
:10C970000022414313484068FEF756FF0F22E96842
:10C9800052051140E160A760FEBD0F214905A1607D
:10C99000E7602E70FEBD07229205AAE70D2149052A
:10C9A000A160E76001218905C2E70321C905A160F3
:10C9B000E7608910BCE70F214905B9E7401F002057
:10C9C00000050050C4FB0100F0B500210B4C0C4DDC
:10C9D00003273F048A00A2589200561932680123A7
:10C9E0008B40034000D00323BA431B04134333603E
:10C9F000491C0429EED30020F0BD0000D0FB01004B
:10CA0000000700500249091820200856704700000E
:10CA100004270020FFB58FB01E4615460F0002D137
:10CA20000020FEF76BFE002D02D10020FEF766FE0F
:10CA30001C216846FEF7BDFB6846017802200143D1
:10CA40006846017000240194039404940594012124
:10CA500008A80694817068460F990184079431787C
:10CA6000017771784177807FF9210840F721801C98
:10CA70000840EF21084041084900684681771421A9
:10CA800009A8FEF796FB08A8099007A80A9068462F
:10CA90008585C485058604480D9709AA69460088DE
:10CAA000189BA2DF13B0F0BD981F0020F8B53E48D8
:10CAB0001422017851430C18E0680C2148433A498C
:10CAC0002769CC314018058941890091241D4668A9
:10CAD00001F00EFF01463846FEF728FB002932D050
:10CAE00000200099A2884D436188AE198918CD199C
:10CAF00000222E4900280A6109D001F0F9FE618860
:10CB0000884222D0B54202D1A08800281DD0A0685A
:10CB100002281AD001F0ECFEA188CA19014610467D
:10CB2000FEF704FB214C8808E06001F0E1FE0146BD
:10CB30002846FEF7FBFA002911D00020B5422FD07D
:10CB400000280ED02CE00120CBE701F0D1FE0146F9
:10CB50003846FEF7EBFA15494861032021E0012031
:10CB6000ECE7ADB2B7B201F0C3FE01463846FEF7BE
:10CB7000DDFA064601F0BCFE01462846FEF7D6FA6D
:10CB8000864201D1781B09E001F0B2FE064601F0B1
:10CB9000AFFE01462846FEF7C9FA701A80082061E8
:10CBA000022002F00DFAF8BD2C260020FC1F002008
:10CBB00010B5074814220178514308180079042859
:10CBC00002D000F059F810BD012002F0F9F910BDB3
:10CBD0002C26002010B50B48142201785143081868
:10CBE000094AC18811620079012806D0032801D0C2
:10CBF000042801D1FFF75AFF10BD012002F0E0F92F
:10CC000010BD00002C260020FC1F002014225043E1
:10CC1000054A002180180171C18001220161C260B2
:10CC200041610181704700002C260020F8B5104CAE
:10CC3000069E65780A2D19D027787D190A2D00D314
:10CC40000A3D14277D432D1928716A6103C92961A2
:10CC5000E860EB802E816078401C607005480078A9
:10CC6000002801D1FFF7B6FF0020F8BD0420F8BD71
:10CC70002C260020FC1F002010B50D4C142120781C
:10CC8000484301190020091DFEF74AFD2078FFF7EF
:10CC9000BDFF6078401E60702078401CC0B22070DC
:10CCA0000A2801D100202070002002F089F910BD6F
:10CCB0002C260020F8B52348C16800293ED00E6814
:10CCC00021494C680769C078E11B0D022D0AED1C53
:10CCD000002814D101201D4A000450601B4A403A2C
:10CCE00050601B49400008601A4908601A49012039
:10CCF00008602F20FEF7EEF912490120C870B542F6
:10CD000000D23546E81900020F4B000A4033186084
:10CD10000D4A5168001B091B0902090A0002000A9A
:10CD2000C91C814209D9506818602F20FEF7D2F93A
:10CD300001200749400480390860F8BD01F06CFF0C
:10CD4000F8BD0000202000200015014040130140E4
:10CD500080E200E000E100E000100140F8B5064686
:10CD6000108814468446801D0D46984201D90C2037
:10CD7000F8BD32880720062AFAD31927FF01184B7D
:10CD8000BA4201D99A42F3D171880629F0D3B94247
:10CD900001D99942ECD19A4203D0994201D08A42FA
:10CDA000E6D805216046295420881221401C80B213
:10CDB000208029542088401C80B22080411930886E
:10CDC00002F002FC2188401880B22080411970884E
:10CDD00002F0FAFB2188401820800020F8BD0000F6
:10CDE000FFFF000010B5FEF789FC10BDF8B516482E
:10CDF00001F084F8144D00260C3D144C002807D097
:10CE0000616900291CD001206A461070684616E04E
:10CE10002878002805D06169002911D0684606707D
:10CE20000DE0687800280DD0A1680948002200684C
:10CE3000FEF7FAFC002803D0A169002900D088473A
:10CE40002E70F8BD6168F0E7901F0020E4240020F8
:10CE500000FC010070B5094B04469E7A08200025AD
:10CE60000E4207D00648844202D01889A04202D15F
:10CE70000020156070BD052070BD0000FC2500205D
:10CE8000FFFF00000C214843064910B5012240185D
:10CE90008272911E0181FF21C1720721FEF789F97B
:10CEA00010BD0000FC25002070B590B00E46054670
:10CEB0001C216846FEF77DF96A4610780221084376
:10CEC000107000240194039404940594012008AA8E
:10CED0000694907015486A4610840794B07A1077CB
:10CEE0005477907FF9210840F721801C0840EF21FA
:10CEF0000840400840009077142109A8FEF759F92E
:10CF0000B0890EA902F065FB08A9099107A90A9149
:10CF10006A469085D48510860EA80D902B46A88869
:10CF20000E3309AA6946A2DF10B070BD5C2A00006A
:10CF30007FB5684600F000F969461148FFF7FCF834
:10CF4000104C002808D0082806D0A04204D00E4972
:10CF5000884201D0FEF7D2FB0C4D687800280ED035
:10CF6000074801212430FFF7D0FA002805D008280F
:10CF700003D0A04203D0FEF7C1FB002068707FBD44
:10CF8000BC2200200430000001340000001F0020FB
:10CF900070B500240546601C98B00007000F08AA71
:10CFA00010300D94107508795075907DF926304039
:10CFB000801C90751C2106A8FEF7FBF86A46107EBF
:10CFC0001021084310760DA807940B9009940A9439
:10CFD000012108AA0C94917615486A461087002012
:10CFE000059410755075907DF7223040801C1040DC
:10CFF000EF22104008436A46907514216846FEF7F8
:10D00000D8F80EA8009005A801900FAA14A92846E8
:10D0100000F010F86A4610811420548190810FA806
:10D020000490A888AB1D06A9A2DF18B070BD00004F
:10D030005B2A0000F7B500980026008C01271446F3
:10D040000D46C00711D0287800280ED0696861709D
:10D050000A0AA2700A0CE270090E21710126611DF4
:10D06000288902F0B6FA401DC7B20098008C8007EC
:10D0700010D5687800280DD002200643E119688990
:10D0800002F0A7FAC019C7B2E119A88902F0A1FA03
:10D09000C019C7B226703846FEBD000070B590B00A
:10D0A0000D4606461C216846FEF783F8684601785F
:10D0B0000220014368460170002401940394049403
:10D0C0000594012108A8069481701A4968460184D4
:10D0D00025200794415D6846017700200146684697
:10D0E0004177827FF9200240F720921C0240EF2016
:10D0F0000240510849006846817714210AA8FEF7CA
:10D1000058F8296A0120002902D0097808AA11716B
:10D1100008A90A9107A90B91694608864C8688865A
:10D1200009A80E903346B08816330AAAA2DF10B0C1
:10D1300070BD00005D2A0000F8B5012705460770A4
:10D140002649274801F05CFEFF211731484386B28B
:10D150007D20C0007D217043C900FDF7E7FF204C12
:10D16000183C2189401880B21E49FDF7DFFFE268B4
:10D170008018E06021816860701A80023146FDF7F6
:10D18000EBFFE18840182881144920466F70103168
:10D19000203001F035FE0621484386B27D2130461D
:10D1A000C9004843FDF7C2FF61894018FF2180B2E2
:10D1B0006931FDF7BBFFA2888018A080618168817A
:10D1C000701A80023146FDF7C7FF0146E088091852
:10D1D000A981B9024018E080F8BD00003423002086
:10D1E000181F00203408000010B5034610201070EE
:10D1F00008785070487890704C780320012C0CD13E
:10D200000978042909D1002104E05C18A47B145496
:10D21000401C491C1C7F8C42F7DC10BD10B5134C20
:10D22000207900071FD46069401C6061E068002815
:10D2300001D0042004E000F093FE002803D0022077
:10D2400002F016F810BD2069002809D06068C107F7
:10D2500001D00320F4E70121084360600020EFE7DC
:10D26000FFF7A6FC10BD01F0F7FF10BDFC1F00206A
:10D2700010B5084841680A0708D48A0702D5012278
:10D2800011434160022001F0F3FF10BD01F0E4FF03
:10D2900010BD0000FC1F0020FEB50E46044681783C
:10D2A0006A46234801F096FA002827D160780C21BD
:10D2B000204F4843C019807A400620D4022E1ED049
:10D2C000012E1ED01C4DA0781C2148431949002373
:10D2D000FC3941181C226846A847002813D0022EAA
:10D2E0000CD020780C21484312490C314018807A28
:10D2F000124980000A58214668469047FEBD104DED
:10D30000E1E7104DDFE7022EF8D060780C214843AA
:10D31000C019817ABF221140817260781C21484374
:10D320000449383941181C231A466846A847D8E7EB
:10D33000F41F0020FC250020DDF1010010FC01009D
:10D3400089EB0100ADEA010070B50546114A1248AB
:10D3500000241C2363431B189B7EFF2B04D0641CFA
:10D36000072CF6D3104670BD0A78022A09D01C2279
:10D3700062431018FD22827607221030FDF700FF6D
:10D3800004E01C2161430818FE2181762C700022E4
:10D39000E8E700004380000000250020F7B50525E0
:10D3A0000F4F06460024002E0AD01C206043C019EF
:10D3B000072231461030FDF70EFF002807D00AE0A3
:10D3C0001C206043C019018B0298814203D101984F
:10D3D0000025046002E0641C072CE4D32846FEBD4F
:10D3E000002500207CB5054681B26A46074801F059
:10D3F000F1F9040008D15821684601F015FA04003B
:10D4000002D1284601F09AF920467CBDF41F002085
:10D4100010B5100001D0FEF771F9002010BD00001A
:10D420001FB56946087301F069FA002801D0FEF7BC
:10D4300065F903A800F020FA002801D0FEF75EF994
:10D4400001A805210130FDF7B4FE694648790122A3
:10D450001043E1210840DF210C3008406946487143
:10D46000072088711020C871054800900A7105488E
:10D4700000F014FB002801D0FEF740F91FBD0000AA
:10D4800011D40100001F0020F0B5054693B0002024
:10D490000290FF24EC480E940078002849D0EB4F0E
:10D4A0003868002845D001A800F0D8F9002801D03C
:10D4B000FEF724F9281D05902A2069460883FF20DD
:10D4C000002688710E710396E04C28880C3C1028C9
:10D4D0000ED0A88803AA0221FFF7BCFC002807D1C0
:10D4E00003980C2141430919CA7A69468A71487127
:10D4F0002888132217287CD00FDC10281BD0112875
:10D5000053D0132876D0142813D103980C21484304
:10D510000019C07AFF2871D08DE0CD4918286BD052
:10D520001C286AD0522804D1B87A8000095801A872
:10D53000884713B0F0BDC74F03AA01213846FFF753
:10D5400089FC0028F5D103990C20484302220019D8
:10D55000827211236A4613745171A98801810722CE
:10D56000A91DFDF70DFE687DC10707D04108B6482B
:10D570000830405CFF2808D00E9006E03A460EA91D
:10D58000A81DFFF70BFF00280ED103990C22514371
:10D5900009190E98C8728A7A08231A438A72694652
:10D5A000887101A8FFF728F839E103980C21484356
:10D5B0000119887AFD2210408872010706D5C0093A
:10D5C0000DD0002101A8FFF767FE08E068468079CA
:10D5D000FF2804D001F0B2F8FF2069468871039853
:10D5E0000C225043102100198172122069460874E0
:10D5F00015E17FE030E001E0D5E00EE1EA890EA917
:10D600000020FFF7CBFE00280ED103980C225043D8
:10D6100000190E99C172837A0822134383726846F7
:10D62000817101A8FEF7E8FF03980C214843001917
:10D63000C07AFF2806D003981C2148438349443907
:10D640004018029003981C21484383494218A88837
:10D650000023029982DF6CE768460274039B0C206A
:10D6600058430119887A042210438872C87AFF2827
:10D6700030D01620694608741C2043437348142197
:10D68000283818180830FDF794FD03980C214843FA
:10D690000019817A40221143817203990C220020E3
:10D6A0004A430A901219D27A1C235A436A4B0C90AF
:10D6B000D2180B921C2251431A46C4328918079182
:10D6C000089009903A1DA88807AB00217FDF002849
:10D6D000C1D1A4E00EA8FFF737FE002801D006460E
:10D6E000DBE769460E98887103990C2251430919AA
:10D6F000C872D2E7787A400840007872039A0C200A
:10D700009446424311198B7AFB2003408B721420FC
:10D710006F463874A879002804D0C87AFFF762FEF3
:10D72000AE797CE0E879400779D5B879FF2876D0E2
:10D7300008273B438B72EB7A9B0708D51C250346D1
:10D740006B43454D5B199D7E6D086D009D76CB7AD0
:10D75000FF2B64D0A25C022A10D01C2250433E4D05
:10D76000072240191030FDF70BFD684680791C2117
:10D7700048434019817EFD2211400EE061461C2283
:10D780005143324A443A89184A8A1C214843324953
:10D7900040180283817E490849008176012101A851
:10D7A000FFF77AFD3BE0A8790209012A23D100079F
:10D7B000000F01281FD103980C2242431219927ABC
:10D7C000120718D51C214843204928394018142134
:10D7D0000830FDF7EEFC16206946087403980C210A
:10D7E00048430119887A602210438872787A0221AE
:10D7F000084378720FE003980C2250430019827A94
:10D8000080231A43827215206A461074B87A800009
:10D81000095801A88847002601E06846027432468C
:10D8200004A901A8FDF776FF6846007C122800D005
:10D830007FE603980C2141430919897A0129F7D021
:10D84000FFF720FB75E60000E41F002008260020FB
:10D8500030FC0100FFFF000000250020002806D05A
:10D86000FF21017041708170C17000207047014834
:10D87000704700000E800000F0B585B0040036D07F
:10D88000294800250560457285722846FFF7FAFA97
:10D8900025481C212838FDF78CFC0026FF27304640
:10D8A00000F04CFF21488755761C072EF7D35821EE
:10D8B000684681800721C1801D481C4900900831BD
:10D8C000684601F095F800280FD1184E0120083E57
:10D8D0003070207800280CD069468888C988484371
:10D8E00081B23046103000F09FFF05B0F0BD114806
:10D8F000FBE7114F00240D48A1B202AA083000F046
:10D9000069FF002809D11C206043C01900231C2294
:10D9100002A901F019F8002801D03570E5E7641C70
:10D92000072CE8D3E1E7000008260020EC1F0020C8
:10D930003DD901000E80000000250020FFB55448AD
:10D940008FB00068189F1E4600284FD0582F4DD822
:10D950006846FFF783FF002801D0FDF7CFFE0024C3
:10D96000684604700471254605970696A9B20DAA6B
:10D97000484800F02FFF002806D108220DA90F9873
:10D98000FDF729FC002819D06D1C072DEED3684641
:10D9900080780790FF2829D010982025032810D0E0
:10D9A0003D481C21301AFDF7C1FB012707282DD265
:10D9B00004A80290119800281AD021E068468570CA
:10D9C000E5E7582F03D040206946087101E068461A
:10D9D000057169460879032108436946087104A85E
:10D9E000029001A96846119AFDF794FE13B0F0BDAC
:10D9F0000799384688402749103949680842F5D0C8
:10DA0000079801F0EBFD6846057138E020481C21BD
:10DA10004438301AFDF78AFB00280BD01C4D1C211E
:10DA2000283D701BFDF782FB00281AD04020694674
:10DA30000871DBE704A80290684605714470144839
:10DA40000A940C300B9050380790684680781C215F
:10DA5000484311494018089007A8069018200590DF
:10DA60000DE03021684601714470C77008480C38D9
:10DA7000807A800703D428461C21FDF79AFB109872
:10DA800069460228087901D00221A5E73843A5E7B5
:10DA900008260020F41F00200025002070B506464F
:10DAA00018480D46007800280ED01749002E0ED0D9
:10DAB000002D0CD02868002809D0144C21680029BA
:10DAC00007D011480A3870BD0F48801F70BD084646
:10DAD00070BD20600522691D201DFDF751FB2879CE
:10DAE000A072207A0221400840000843FB22104027
:10DAF0002072E0790123184308431040E0710020B0
:10DB0000307070BDE41F00200E8000000826002049
:10DB100010B50E4900234A788C78A24212D0521CCC
:10DB2000D2B24A70022A00D14B704A78074B920059
:10DB300018339A580260086910180002000A086138
:10DB4000012010BD0360002010BD00002020002037
:10DB500010B5002803D0112802D0FDF7F7FD10BD45
:10DB60000248082241681143416010BDFC1F00209B
:10DB700010B51C4C217820464068012906D00229A6
:10DB800029D0032912D1000717D513E0000711D4BB
:10DB900015481422017851430818C188A28B891AAC
:10DBA0000904090CC18002D001F01AFB10BDFFF777
:10DBB00063F810BD00F08CFB10BD6069401C606113
:10DBC00000F0CEF9002803D0207801F0F9F910BD5B
:10DBD000FEF7EEFF10BD60780449800008588047CA
:10DBE00010BD0000FC1F00202C26002054FC01006A
:10DBF00010B528DFFFF7ACFF10BD10B529DFFFF728
:10DC0000A7FF10BD0EB51120694608720A220FA1A8
:10DC100002A87CDF002801D0FDF770FD0E4878DFF8
:10DC2000002801D0FDF76AFD0021FF20913000910E
:10DC30006A4601911080430053809180D0806846ED
:10DC40007ADF002801D0FDF759FD0EBD4E6F7264DA
:10DC500069635F4353430000850400000020704760
:10DC60000020704700207047F8B5064640781C2118
:10DC700004464C4324490C2250436118224A002593
:10DC80004B681C328018AE462F469C46002B0CD0A9
:10DC9000827A1346D20908D05A0606D40D461A4A8B
:10DCA000614689B2175908358E46174C00891C34D5
:10DCB0003B4672462946A9DF0B2819D0002800D020
:10DCC0001248012F13D170780C21484300190089A4
:10DCD0000F4AA7DF00280AD00E49884212D0082830
:10DCE00010D0891C88420DD011280BD00020F8BD1F
:10DCF00070780C2148430123001900897246294697
:10DD0000A9DFE0E70148F8BDE025002041800000E0
:10DD1000FFFF00000230000070B50C46014660783D
:10DD20001C22084D50434019382300F00DFE0028F6
:10DD300007D161781C22514349194A68521C00D10D
:10DD40004A6070BDE0250020F3B587B00D46142071
:10DD50006946888268780C2103274843224E3B4657
:10DD60008019008905AA6946AADF002838D1687899
:10DD70001C214843741A001969468A8A0830FDF745
:10DD80002AFA0028687807D01C21484301194968FD
:10DD900000290DD0154E0CE00C2141438919897AD8
:10DDA00089071DD41C2148430019FDF702FA17E02A
:10DDB0000F4E27506846828A68781C214843001914
:10DDC000426068784843001969460830FDF7D8F981
:10DDD00068781C214843011938231C220798B04752
:10DDE000002009B0F0BD0000FC25002089EB0100F7
:10DDF000ADEA010010B5FFF737FF10BD10B5FFF712
:10DE00008BFF10BD10B5FFF79FFF10BD70B51B4C09
:10DE1000207900072ED41A481422017851430D1896
:10DE20002E6900F065FD0146E8882A89761E801873
:10DE30008019FDF77BF921690025002909D0616966
:10DE4000814206D1E56060680121084360600020DE
:10DE50000AE000F085F8002802D00220E56003E027
:10DE60002069002803D0032001F002FA70BDFEF7FC
:10DE70009FFE70BD01F0F0F970BD0000FC1F002096
:10DE80002C260020F8B51C4C2078002833D02069BF
:10DE9000002807D00026E068002805D00025002EC5
:10DEA00004D011E00126F6E70125F8E7684652DFC5
:10DEB000052804D0002804D0FDF720FC04E001264A
:10DEC00002E0216900988847002D10D160886946DA
:10DED0000880A06861DF052804D0002804D0FDF781
:10DEE0000DFC04E0012502E0E168A0688847002EEF
:10DEF000DCD0002DD3D0F8BD40200020418805485B
:10DF00000288914204D34088814201D801207047A1
:10DF100000207047881F00201048018CC9B20129D9
:10DF200017D1818C090714D1018D09060A0F03D17D
:10DF3000828D1206120F0ED0090F012903D1828D96
:10DF40001206120F07D0032903D1808D0006000F9F
:10DF500001D000207047012070470000C00F00F082
:10DF600070B50E481422017851430C18256900F051
:10DF7000BFFC0146E08822896D1E80184019FDF71C
:10DF8000D5F807494A69824206D3824202D108691C
:10DF9000002801D0002070BD012070BD2C2600207B
:10DFA000FC1F0020800701D000207047012070472F
:10DFB00030B51588EC1C9C4201D90C2030BD0224E0
:10DFC0004C5513881C255B1C9BB21380CD541388C1
:10DFD0005B1C9BB21380012807D0022807D00328BE
:10DFE00007D0042807D0072030BD002004E001201E
:10DFF00002E0CC5401E00320C8541088401C10807B
:10E00000002030BDF8B52C49C8680A690C780F7932
:10E0100089688646944600913EE00099E2005518D2
:10E020002A7836E0182353436968521CC918AB7824
:10E03000D2B2934200D100220B78022B02D0032BE4
:10E0400027D123E04E680346014603E0B14204D0E5
:10E050000B46C96900291CD0F8E7002919D08B426A
:10E0600008D1C069002805D1144F0126BE600026E2
:10E07000B44601270E68C969D961002909D00B6827
:10E080009B190B6005E00174C06900E000210028C5
:10E09000F9D169789142C5D12146641EE4B20029C4
:10E0A000BBD1054962460A61C8600F71704501D055
:10E0B0000120F8BD0020F8BD202000200010014004
:10E0C000F8B5044631480026C168009107784EE053
:10E0D0002E48F90080680D1843E0002C02D020463D
:10E0E000E4691FE02878182141436A68401CC0B2E7
:10E0F00051182870AA78904200D12E700A7848688A
:10E10000012A30D1027C002A2DD18A684260CA6877
:10E1100082600A69C260496981611C4909790029E4
:10E1200000D04660194943680A699C46991A090259
:10E13000174B090A994202D28268891807E06146A2
:10E14000511A09028268090A8A4202D9511A0160E9
:10E1500000E006604660012186600174C66101F03E
:10E1600019F9002CB9D1287869788842BAD1384693
:10E170007F1EFFB20028ABD10448C16800988142DD
:10E1800001D00120F8BD0020F8BD000020200020B3
:10E19000FFFF7F00002398B0444A05211846FDF791
:10E1A000FBFA002801D0FDF7A9FA414A01214148B4
:10E1B000FDF7DCFA002801D0FDF7A0FA3D483E4A01
:10E1C0000121001DFDF7D2FA002801D0FDF796FAD3
:10E1D000FEF7D6F92046FFF723F9FFF713FD3821A4
:10E1E00001A8FCF7E6FF0221684601710124847151
:10E1F0000621C171032585823048069024210FA88D
:10E20000FCF7D7FF10A80472282000241390B42034
:10E21000009414902A4B0FAA214601A8FDF762FC36
:10E22000002801D0FDF76AFA00F03EFE00F08EFDF6
:10E230001C216846FCF7BDFF0520C00301900F209C
:10E24000000402900094684605731E4841896846A0
:10E25000C18104741C4805901C4806906846FDF76F
:10E26000AFFE002801D0FDF749FAFDF745FB114C40
:10E270000121002209042068FDF7D6FA002801D008
:10E28000FDF73CFA0121C90300226068FDF7CCFAD2
:10E29000002801D0FDF732FA0320FDF713FD00E05E
:10E2A00048DF0028FCD0FDF729FAF9E79420002088
:10E2B00045BA0100BCF7010031CF0100321F002038
:10E2C00087E40100BC22002039E50100E5CD010012
:10E2D00010B504480822416891434160007800F07D
:10E2E0006FFE10BDFC1F002070B5144682880E46DC
:10E2F00005462088111D4118921C994201D8FE2A1A
:10E3000001D90C2070BD521C32542088FF21401CC2
:10E3100080B2208031542088401C80B22080811936
:10E32000288801F051F92188401880B22080AA88FD
:10E33000002A09D0A968002908D08019FCF720FF1D
:10E340002088A98840182080002070BD072070BD5B
:10E35000094A002010600949012008601368002B59
:10E36000FCD0074A1368012BFCD0064A926848602B
:10E370000548805C7047000000710040007000405C
:10E380000074004000750040C4F70100F8B50F4666
:10E39000017814460546012902D16878002806D084
:10E3A0002088821C9A422DD8012902D006E007203D
:10E3B000F8BD69784118891C994223D8181A801E23
:10E3C00086B2684606802188B81C081869467DDF39
:10E3D0000028EDD12878022805D169460988B14284
:10E3E00001D809210AE00821012805D16878B04246
:10E3F00002D86A46108001E06846068068460088B8
:10E40000FE2801D90C20F8BD2288401CB854208871
:10E41000401C80B22080395420886946401C2080EE
:10E420000988401820800020F8BD00207047002097
:10E4300070470020704700008200064810180268EC
:10E4400003231B049A430260026809040A43026022
:10E450007047000000070050034940180068012879
:10E4600000D00020704700000060004040580028A5
:10E4700000D0012070470322120280184068084033
:10E4800000D00120704710B5002808D0032805D11E
:10E490000220FEF78FF910E0FDF730F910BD0020E3
:10E4A000FEF788F9002801D0FDF728F9FEF704F9F6
:10E4B000002801D0FDF722F93CDF0028ECD110BD87
:10E4C0007FB504461B4D00886A88102823D005DCE0
:10E4D00002281FD10021104667DF17E0112823D042
:10E4E000512817D1A179002914D0A07A042803D08B
:10E4F000062801D005280DD1022919D0012069462E
:10E500000870FF20833088801046A8DF002801D0E3
:10E51000FDF7F4F87FBD0720FEF74CF9002801D085
:10E52000FDF7ECF8A08801E00020C04368807FBDC3
:10E530000220E4E7001F002010B50078002807D172
:10E5400004483B21408876DF002801D0FDF7D6F84B
:10E5500010BD0000001F0020F0B5714A0D460446B2
:10E5600007CA93B008AB07C30222694600200A74A9
:10E57000088348830790888201278F750D908A86CB
:10E58000C8860FA80E902189A0890DAAA5DF0028B2
:10E5900003D0A16A002900D088476846808F2646AC
:10E5A0008007C00F203600282DD0B079002801D078
:10E5B000FF20813069468882A08904A9A8DF00284D
:10E5C00003D0A16A002900D088476846808A0028C5
:10E5D00072D10220B07169464870297E28461A30EF
:10E5E0000906090E0AD0057808A90D70012D10D072
:10E5F000022D19D0032D09D0042D15D008A80178BB
:10E60000684601707CE0FF208230D3E740780872D2
:10E610000AE0401C0890FCF7EBFD01020898090A8B
:10E62000C07800060143099168460570012D44D069
:10E63000022D52D0032D07D0042D61D12078C007C0
:10E640005ED0684647705BE02078C00758D008A8C5
:10E65000017A0020227F1DE023189B7B8B4218D17A
:10E6600008A8027A02776846477000210D918786D4
:10E67000C1860FA80E9008A801730274226A002AAE
:10E680000CD00BA92046904769464870012805D058
:10E6900036E0401C8242DFDC03200AE0A18CA08926
:10E6A0000DAAA4DF00282BD0A16A002900D088473A
:10E6B00004206946487023E02FE0207880071FD5AA
:10E6C0006846477008A8077309980C90226A002AC8
:10E6D00016D00BA920469047EBE7207840070FD5CE
:10E6E000B771022508A80573226A002A08D00BA971
:10E6F0002046904769464870C0B2012800D0B571E5
:10E7000022462E3269462046FEF76EFD7073B079C0
:10E71000022802D1204600F0DBFA13B0F0BD000061
:10E7200004FC01000021425C002A01D00120704756
:10E73000491C0629F7D300207047000070B5054634
:10E740001C200B4968434418204611300621FCF771
:10E7500030FD20461021FCF72CFDFF212174002004
:10E76000A176C0432083284600F038FF70BD00002A
:10E770000025002070B50D00044602D10020FCF7F2
:10E78000BDFF002C02D10020FCF7B8FF28782070D4
:10E7900069886170090AA170A988E170090A21716C
:10E7A000E8886071000AA07170BD0000074909790E
:10E7B000490701D408207047002804D0044949784B
:10E7C0000160002070470E2070470000FC1F0020F1
:10E7D0002C26002030B5124B1B795B0701D4082092
:10E7E00030BD002805D0002A03D00468002C10D1C9
:10E7F00001E00E2030BD0B4B1D68002D09D045688F
:10E800001889414369185D8945435868281888422A
:10E8100001D8072030BD14600020516030BD0000D9
:10E82000FC1F0020F8260020FEB5054625480E46B0
:10E830000079400701D40820FEBD002D03D02868D0
:10E84000002834D101E00E20FEBD1F4C21680029B4
:10E850002DD06089218948436168411868688142E8
:10E8600025D9FFF79FFB00280FD068680190296821
:10E870000C2251430F1979680091401A39890C46CE
:10E88000FCF754FC002912D101E01020FEBD214606
:10E890003046FCF74BFC002909D1002E07D07889BF
:10E8A00044430198811900980019814201D9072039
:10E8B000FEBD002002460090334629460320FEF7A5
:10E8C000B5F9FEBDFC1F0020F826002010B5074852
:10E8D0004469601C06D000F00BF801462046FCF7A6
:10E8E00025FC10BD01200007406910BD001000107C
:10E8F00001200007006980B27047000070B5002455
:10E900000F482546047044702846FEF77FF96D1CB9
:10E910000A2DF9D30B4D6C80FFF7D8FF861EFFF749
:10E92000E7FF46430648AE60CC306C61046004816A
:10E9300044812C70AC610420EC616860002070BDE3
:10E940002C260020FC1F0020FFB5274881B000794D
:10E950001F4616460D46400702D4082005B0F0BDFC
:10E96000002D06D00198002803D02868002815D172
:10E9700001E00E20F2E71D4C206800280ED06189CE
:10E9800020896268414389186A68914206D9002E3D
:10E9900004D0B04202D3F119814201D90720DDE74A
:10E9A0000198FFF7FFFA00281BD03846FFF7FAFA64
:10E9B000002816D06868FFF7F5FA002811D06868BB
:10E9C0003246C1190198FCF7DBFB009628680C2140
:10E9D00048432458002202212846019BA0470020DA
:10E9E000BCE71020BAE70000FC1F0020F82600203A
:10E9F000F8B52C4D044628790E46400701D408206E
:10EA0000F8BD002C20D0002E1ED0206800281BD07E
:10EA1000FFF76EFF0146A088814213D3102811D35F
:10EA2000E08800280ED0FFF751FF471EFFF760FF78
:10EA30004743E288A188A8684A431218974201D345
:10EA4000890703D00720F8BD0E20F8BD6988012989
:10EA500026D031600C22144B51437060CA185060AC
:10EA600020685850A0881081E0885081FFF740FF4F
:10EA70000646FFF73DFFA188E288401E514340183B
:10EA80003146FCF769FB0446FFF732FF0146A868F0
:10EA900061430818A8606888401C68800020F8BDA1
:10EAA0000420F8BDFC1F0020F8260020F8B504461D
:10EAB00020481E46007915460F46400701D408201D
:10EAC000F8BD002F05D0002C03D02068002815D1F8
:10EAD00001E00E20F8BD1848016800290ED04289D7
:10EAE000018940684A4310186268904206D9002D97
:10EAF00004D0A94202D3A819884201D90720F8BD41
:10EB00003846FFF74FFA002811D03046FFF74AFA8F
:10EB100000280CD06068FFF745FA002807D02B4684
:10EB20003A46214601200096FEF780F8F8BD1020F5
:10EB3000F8BD0000FC1F0020F826002010B5114988
:10EB400002460878002811D004280FD0022A16D0D7
:10EB5000032A0BD10A79120711D48A69521C8A61DF
:10EB6000032A08D0022802D000F02AFA10BD487803
:10EB700000F07EFB10BD0D20FCF7E8FD10BDFEF798
:10EB8000F7FF10BDFC1F0020F8B5044620481E46C4
:10EB9000007915460F46400701D40820F8BD002F24
:10EBA00005D0002C03D02068002815D101E00E20EC
:10EBB000F8BD1848016800290ED0428901894068D3
:10EBC0004A4310186268904206D9002D04D0A94229
:10EBD00002D3A819884201D90720F8BD3846FFF7AB
:10EBE000E1F9002811D03046FFF7DCF900280CD0FD
:10EBF0006068FFF7D7F9002807D02B463A46214630
:10EC000004200096FEF712F8F8BD1020F8BD0000B1
:10EC1000FC1F0020F826002070B501240B49600479
:10EC200008600B4940108860094940398860094DE7
:10EC30006C602F20FCF74EFAAC60074D00242F20AB
:10EC40002C61FCF747FAEC7070BD000080E100E039
:10EC500040130140001001402020002030B50A4838
:10EC6000FF21C57D0022094C0931094B002D62505E
:10EC700007D09969437EC268D154417E491C4176D0
:10EC800030BD986930BD00004C27002000200040B6
:10EC9000002500401FB501236A4613701072034817
:10ECA000019106C8684690471FBD00004C27002010
:10ECB0000A780648012A02D0022A05D102E04968F2
:10ECC000C16001E00121417001207047001F002058
:10ECD000F0B5054604462035A87985B0022819D13B
:10ECE000697B684601800026019602960396049689
:10ECF000A1888180022787710681039020462E30EB
:10ED00000490A08901A9A6DF0B49002804D0C842BD
:10ED100008D1AF7105B0F0BD6946687B09888842AB
:10ED200006D00C20AE71A16A0029F3D08847F1E724
:10ED30000320A871EEE70000FCCFFFFF08B50249F1
:10ED40000020009108BD0000001F002010B51648EB
:10ED500051210160012464218460416004730146F3
:10ED6000124800F041F810480A2110300160846018
:10ED7000282141600024047301460C48083000F04B
:10ED800033F809481421203001606E2141600321CD
:10ED90008160047301460548103000F025F80348EF
:10EDA0001038C460447010BD24230020101F0020C0
:10EDB00010B503680A6889689C1A8C4202D9591AEE
:10EDC000016010BD01210260017110BD10B54B68DA
:10EDD000026889689C1A8C4202D95118016010BDE2
:10EDE00000210360017110BD0A7B002A03D049682D
:10EDF0000160002102E00968016001210171704792
:10EE000010B5044600790028204602D0FFF7DEFF47
:10EE100001E0FFF7CDFF206810BDFFB50746806A0F
:10EE200081B0144600283DD000253846203000909F
:10EE300033E00C20B96A68430E18B088801CFE28A5
:10EE400002D90C2005B0F0BD22880299401C8854DC
:10EE500020881622401C80B2208002990A54208803
:10EE6000401C80B2208002994118308800F0ACFB31
:10EE70002188401880B22080B288002A0AD0B16868
:10EE800000290FD0029BC018FCF77AF92088B188BE
:10EE9000401820806D1C0098EDB2007BA842C8D8B5
:10EEA0000020CFE70720CDE710B5A0B0282110A89B
:10EEB000FCF77FF90024072110A810948181601CC1
:10EEC0000207120F10A810320271601C0207120F05
:10EED00010A810328272601C0207120F10A81032A4
:10EEE00042720120024610A81032C27181732C4870
:10EEF00014902C4815900A2110A80176042118A816
:10EF000001771FA818900120014618A810314171FF
:10EF100010A92548FDF7C6F8002801D0FCF7EEFB44
:10EF200014211AA8FCF745F90120014618A8103150
:10EF300041750120014618A8103181750020014655
:10EF400018A8C1750120014618A8103101760121C9
:10EF50001A94017364211C94017513481AA9183876
:10EF6000FCF7DAFF002801D0FCF7C8FB4021684617
:10EF7000FCF71FF90DA16846FDF7F2FA01200146E2
:10EF800008A8103101770020014608A8417768469B
:10EF9000FDF75CF9002801D0FCF7B0FB20B010BDF4
:10EFA000B1EC0100281F0020BC2200204E6F7264CB
:10EFB000696353656D69636F6E647563746F720026
:10EFC00010B50F490028087009D0012811D0022877
:10EFD00012D0032802D14869FEF70AFE10BD0020B6
:10EFE0008861C861074840780028F7D0FDF7F2FD36
:10EFF00010BD00F0F5F810BD00F054F810BD000091
:10F00000FC1F00202C260020002803D00249C860E5
:10F01000002070470E207047402000201CB5034997
:10F0200001910091694660DF1CBD0000001F0020B7
:10F0300070B50E460546144614211046FCF7B9F883
:10F040000120002120802161217326726572002D2C
:10F0500000D0A072002070BD10B5FCF741FB10BDC0
:10F0600070B5002901D08C0701D0072070BD064C77
:10F070000125A16062800549636010DF0028F5D199
:10F08000257016202EDF70BD4020002059F00100B1
:10F09000002803D002490861002070470E20704705
:10F0A00040200020F8B5164C14226068400840004B
:10F0B00060601448017851430E183769FFF718FC57
:10F0C00001463846FCF732F805466061FFF710FC50
:10F0D0000146F0887F1EC019FCF728F802228542FD
:10F0E000606801D1104300E090436060E168104027
:10F0F000084303D0002000F0BBF8F8BD0220FAE777
:10F10000FC1F00202C26002010B502484069FEF7A5
:10F110006FFD10BDFC1F002010B5FFF7D7FB441E8C
:10F12000FFF7E6FB4443FFF7E3FB04494A69521E3D
:10F130005043CA682146FEF760FD10BDFC1F002049
:10F14000F8B510481422017851430C182569FFF7CF
:10F15000CFFB0146E088228980184019FBF7E6FFC3
:10F160000F46FFF7B3FB461EFFF7C2FB4643E0889E
:10F170002289F1198018044A40191269FEF73DFDF1
:10F18000F8BD00002C260020FC1F002070B5FFF702
:10F19000AFFB0546FFF79AFB441EFFF7A9FB604350
:10F1A0002946FBF7C3FFFEF723FD70BD70B5FFF7DF
:10F1B0009FFB8608FFF79CFB0749496948430446C3
:10F1C000FFF784FB451EFFF793FB68433246214659
:10F1D000FEF713FD70BD0000FC1F002000207047EB
:10F1E00070B514481422017851430C18241DFFF700
:10F1F0007FFB6188104E884211D2FFF779FB61884E
:10F200000D1AFFF775FB8208A188E0684018216994
:10F2100040194919FEF7F1FCFFF76AFB07E0A288E5
:10F22000E06880188A082169FEF7E7FC6088F061D1
:10F2300070BD00002C260020FC1F002010B50548E2
:10F240000079000703D4012000F012F810BD00F08F
:10F2500003F810BDFC1F002010B5044808224168C7
:10F2600091434160407800F003F810BDFC1F00207E
:10F27000024948700249800008580047FC1F0020DE
:10F2800040FC010010B50446FFF758FC2046FCF78F
:10F29000F9FC10BD70B50C00054602D10020FCF74A
:10F2A0002DFA002D02D10020FCF728FA20782870D2
:10F2B0002088FF2109020840000A687020680902BE
:10F2C0000840000CA8702068000EE87020792871B2
:10F2D000207A68712089000AA871A068000CE87182
:10F2E00070BD000010B505480079000702D4FDF795
:10F2F0005FFC10BDFFF7B0FF10BD0000FC1F002039
:10F30000FEB51F4C00252769E06802906846FEF7AD
:10F31000FFFB0190FEF776FE06460198002822D0FA
:10F3200000230098E16817E00E680A46864202D979
:10F33000301A086012E0801BF31800261660D668A9
:10F34000D169B446002E07D0FE183602360A566040
:10F3500066469660D56115460029E5D12846E160EC
:10F36000FEF7AEFE06E02846FEF7AAFE002801D111
:10F37000002E02D00298FDF79DFC00202071FEBDFA
:10F38000202000200120024900050860704700008D
:10F3900000E200E010B50E4BD968002906D00268E3
:10F3A0000C68A24204D8A21A0A60C161D86010BDDC
:10F3B0000B4604E00B46C969121B002904D00C68F7
:10F3C0009442F7D3A41A0C600260C161D86110BDE9
:10F3D00020200020F8B51D4DEC68002C34D01C48CE
:10F3E000002740682969401A0602360A2068B042A0
:10F3F00018D8361AC7192246107CE46900280FD0A5
:10F40000002010746B69002B07D0916950699847F0
:10F41000002805D0FCF772F902E05169906988472D
:10F42000002CE3D16978A878814206D1401CC0B293
:10F43000A870022801D10020A87004490006800DA0
:10F4400018310F50FFF79EFFF8BD0000202000206C
:10F4500000150140FF2107481D3100224250064897
:10F46000828A8168895C828A521C82820348C161D7
:10F4700070470000002000404C270020002500407D
:10F480001FB500216A46117010720448826801920B
:10F49000817506C8684690471FBD00004C270020B4
:10F4A000F0B5454D012185B049022846FEF7E3FF3E
:10F4B00001270026414C002824D0FF212531284671
:10F4C000FEF7D4FF00281DD0FF2025302E508120CC
:10F4D0003B4980008860A07E002800D16F60022137
:10F4E000684601703749086808600390E17D684606
:10F4F0000172E0680190E675267606CC6846083C05
:10F5000090472BE004212846FEF7B5FF002825D0C0
:10F51000FF2109312846FEF7A9FF00281ED0FFF77A
:10F520009DFBE07D617E884218D1207E002808D0B6
:10F53000627EE168E0752069E060267666761046B6
:10F540000AE0A07E002800D16F6081201C49800065
:10F550008860E675607EE168FFF79CFBFF211D3146
:10F560002846FEF783FF00280DD0A18AA07D8142A6
:10F5700002D2FFF76FFF06E0FF211D316E50002819
:10F5800001D0FFF77DFFFF2145312846FEF76EFFD2
:10F5900000280ED0FF2045302E50A07E002800D03D
:10F5A0002F60E07D002804D0E675607EE168FFF7FB
:10F5B00071FB05B0F0BD0000002000404C2700208A
:10F5C00000230040802400400870000A4870022098
:10F5D00070470870000A487002207047012181407E
:10F5E000024842688A43426070470000E41F0020DE
:10F5F00038B51549154A488890420FD04A78144CBE
:10F60000521CD2B24A70237B934208D3091D75DF86
:10F61000002803D0A169002900D0884738BD002503
:10F620004D70217C002907D03B2176DF002803D0D4
:10F63000A169002900D0884761690029EED0684699
:10F640000570884738BD0000841F0020FFFF0000C0
:10F65000E424002012494868C005C00D19D01038B4
:10F6600040B2002807DA0207120F083A9208920007
:10F670005118C96904E081080A4A89008918096893
:10F680008007C00EC1400806800F012803D0032860
:10F6900003D002207047002070470120704700000F
:10F6A00000ED00E000E400E042788378521CD2B222
:10F6B000934200D100220378934201D10020704789
:10F6C0000A70416840781822504308187047FFB507
:10F6D00083B016460C9D0D9C1F4602220095019496
:10F6E000039800F00CF8002807D13B461022314661
:10F6F00000950194039800F002F807B0F0BDFFB543
:10F7000083B0074600200C9C8646268805463AE0D2
:10F710007868A90042181188684681805188C180A4
:10F720000022694601A865DF002839D168460178C2
:10F730000598814226D17046002801D0002200E0C1
:10F7400002222088891842180D998A4227D87146CA
:10F7500000290AD1401C80B22080069A04991154D5
:10F760002088401C208001208646218806980A189F
:10F77000694601A865DF002812D16946208809780A
:10F78000401820806D1C3888A842C1DC70460028D3
:10F790000AD02088801B401E80B2FF2802D90C208E
:10F7A00007B0F0BD069988550020F9E701790029D6
:10F7B00002D1007B002800D0012070475420002097
:10F7C00074200020CED4DADDE1E3E6E8EAEBEDEFE9
:10F7D000F0F1F2F4F5F6F7F8F8F9FAFBFCFCFDFEAF
:10F7E000FFFF0000010202030304040505060607EB
:10F7F00007080809090A0A0A0B0B0C0C0C0D0D0D61
:10F800000E0E0F0F0F1010101111111112121213F2
:10F810001313141414141515151516161617171797
:10F82000171818181818191919191A1A1A1A1B1B47
:10F830001B1B1B1C1C1C1C1D1D1D1D1D1E1E1E1EFE
:10F840001E1F1F1F1F1F1F202020202021212121BC
:10F85000212122222222222323232323232424247E
:10F860002424242525252525252526262626262645
:10F87000272727272727272828282828282829290D
:10F8800029292929292A2A2A2A2A2A2A2B2B2B2BD9
:10F890002B2B2B2B2C2C2C2C2C2C2C2D2D2D2D2DA7
:10F8A0002D2D2D2E2E2E2E2E2E2E2E2E2F2F2F2F77
:10F8B0002F2F2F2F30303030303030303031313149
:10F8C000313131313131323232323232323232331D
:10F8D00033333333333333333434343434343434F0
:10F8E00034343535353535353535353536363636C6
:10F8F000363636363636373737373737373737379E
:10F900003838383838383838383838393939393972
:10F9100039393939393A3A3A3A3A3A3A3A3A3A3A4C
:10F920003A3B3B3B3B3B3B3B3B3B3B3B3C3C3C3C24
:10F930003C3C3C3C3C3C3C3C3D3D3D3D3D3D3D3DFF
:10F940003D3D3D3E3E3E3E3E3E3E3E3E3E3E3E3FD9
:10F950003F3F3F3F3F3F3F3F3F3F3F3F40404040B3
:10F960004040404040404040404141414141414190
:10F97000414141414142424242424242424242426C
:10F98000424242434343434343434343434343434A
:10F990004444444444444444444444444444454525
:10F9A0004545454545454545454545454646464603
:10F9B00046464646464646464646474747474747E1
:10F9C00047474747474747474848484848484848BF
:10F9D000484848484848482B2B2B2B2B2B2B2B2BAC
:10F9E0002B2B2B2B2B2B4A4A4A4A4A4A4A4A4A4A31
:10F9F0004A4A4A4A4A4B4B4B4B4B4B4B4B4B4B4B5C
:10FA00004B4B4B4B4C4C4C4C4C4C4C4C4C4C4C4C3A
:10FA10004C4C4C4C4D4D4D4D4D4D4D4D4D4D4D4D1A
:10FA20004D4D4D4D4E4E4E4E4E4E4E4E4E4E4E4EFA
:10FA30004E4E4E4E4F4F4F4F4F4F4F4F4F4F4F4FDA
:10FA40004F4F4F4F4F5050505050505050505050BB
:10FA5000505050505051515151515151515151519B
:10FA6000515151515151525252525252525252527C
:10FA7000525252525252525353535353535353535D
:10FA8000535353535353535354545454545454543E
:10FA90005454545454545454545455555555555520
:10FAA0005555555555555555555555565656565601
:10FAB00056565656565656565656565656575757E3
:10FAC00057575757575757575757575757575758C5
:10FAD00058585858585858585858585858585858A6
:10FAE0005858595959595959595959595959595988
:10FAF000595959595A5A5A5A5A5A5A5A5A5A5A5A6A
:10FB00005A5A5A5A5A5A5A5B5B5B5B5B5B5B5B5B4C
:10FB10005B5B5B5B5B5B5B5B5B5B5C5C5C5C5C5C2F
:10FB20005C5C5C5C5C5C5C5C5C5C5C5C5C5D5D5D12
:10FB30005D5D5D5D5D5D5D5D5D5D5D5D5D5D5D5DF5
:10FB40005E5E5E5E5E5E5E5E5E5E5E5E5E5E5E5ED5
:10FB50005E5E5E5F5F5F5F5F5F5F5F5F5F5F5F5FB8
:10FB60005F5F5F5F5F5F606060606060606060609B
:10FB7000606060606060606060606161616161617F
:10FB80006161616161616161616161616161626263
:10FB90006262626262626262626262626262626245
:10FBA0006263636363636363636363636363636326
:10FBB000636363636364646464646464646464640A
:10FBC000646464645423002074230020A023002074
:10FBD00011000000120000001300000014000000DB
:10FBE00011000300CDC6010012000300CDC60100C4
:10FBF00013000300CDC6010014000300CDC60100B0
:10FC0000C4240020100000000000000000000000DC
:10FC100033E4010049DD010065DC010005DE01007F
:10FC20002FE4010019DD010061DC0100FDDD0100B0
:10FC30002BE4010069DC01005DDC0100F5DD010061
:10FC40008DF10100ADF1010009F1010041F1010068
:10FC500019F101003DF2010071D201001DD2010035
:10FC6000E5F201000DDE010088FC0100001F00200C
:10FC70005401000028B20100ACFC01005420002017
:10FC8000140F00007EB40100310325FFFF2E040590
:10FC9000060708090A0B0C0D16180108250F180194
:0CFCA000000A1801A324F403E7FFFF0092
:040000050001B0C185
:00000001FF
