:020000040001F9
:10B00000D8460020F5B001000FB1010011B10100D8
:10B010000000000000000000000000000000000030
:10B0200000000000000000000000000013B101005B
:10B03000000000000000000015B1010017B1010080
:10B0400019B1010019B1010051B4010019B1010099
:10B0500019B10100000000004DB2010019B101005A
:10B0600019B1010019B1010019B1010019B10100B4
:10B0700019B1010019B1010019B1010019B10100A4
:10B0800019B10100B5B3010019B1010019B10100F6
:10B09000D5B3010019B10100DDB3010019B1010000
:10B0A00019B1010019B1010000000000000000000A
:10B0B0000000000000000000000000000000000090
:10B0C0000348854600F092F80048004705ED01006E
:10B0D000D8460020401E00BF00BF00BF00BF00BF19
:10B0E00000BF00BF00BF00BF00BF00BF00BFF1D165
:10B0F000704700000321094802680A4302600848BB
:10B1000002680A4302600748804707480047FEE795
:10B11000FEE7FEE7FEE7FEE7FEE70000240500404D
:10B1200054050040FDB30100C1B0010030B50B462D
:10B13000014600202022012409E00D46D5409D4211
:10B1400005D31D469540491B254695404019154697
:10B15000521E002DF1DC30BD10B5431A934209D2C6
:10B160008318881803E0401E01785B1E1970521E78
:10B17000F9D210BD03460B439B0703D009E008C971
:10B18000121F08C0042AFAD203E00B780370401C97
:10B19000491C521EF9D210BDD2B201E00270401C0F
:10B1A000491EFBD270470022F6E710B513460A4647
:10B1B00004461946FFF7F0FF204610BD30B504469F
:10B1C0000020034600E05B1C934203D2E05CCD5CB0
:10B1D000401BF8D030BD0321001D401E0378120231
:10B1E0001A43491EF9D5104670470000064C012548
:10B1F000064E05E0E36807CC2B430C3C984710341F
:10B20000B442F7D3FFF760FFF824020018250200CC
:10B2100030B58C180278401C13071B0F01D103783E
:10B22000401C120906D10278401C03E005780D701D
:10B23000401C491C5B1EF9D101E00B70491C521ED9
:10B24000FBD1A142E6D3002030BD0000F8B50024B8
:10B25000FF250135012627460094284604F032F9DF
:10B26000002808D034484068304204D033480021D8
:10B270002818344301602D1D76007F1CADB2042FC9
:10B28000EBD3FF207D3004F01DF9002807D02C48B7
:10B2900000210160400704432A48006900902A4FBA
:10B2A000200712D00126002526420AD02748AA00EE
:10B2B000111808690969C004C00E8903BA58890FBA
:10B2C000904776006D1C042DEED3002C30DA00245C
:10B2D0001D4E0021301940304156491C25D00778B9
:10B2E000BD06AD0E284601F045FC80003658002E04
:10B2F0001BD0BF090121A940154AA8008018006889
:10B30000009A8003800F114202D0022802D00CE084
:10B3100003280AD1032F05D102280AD0022128468A
:10B3200004F0C0F839462846B047641C042CCFD33B
:10B33000F8BD0321F3E70000006300400060004017
:10B340007C61004000050050043C00200065004086
:10B35000000700508307FF22DB0E9A408907090E81
:10B36000994000280BDA0007000F083883080848C6
:10B370009B001818C36993430B43C361704783084C
:10B3800004489B001B1818689043084318607047D6
:10B3900000ED00E000E400E0052801D20120704744
:10B3A000002070473A214843001D80B2C01C80082D
:10B3B0007047000010B506490020086048608860AA
:10B3C000C860034940390860486006F065FC10BD5C
:10B3D0004011014010B506F0F5FB10BD10B5064850
:10B3E0004068002805D08047002801D000F032FADC
:10B3F00010BD03F0A1F810BDC030002010B503F05F
:10B4000023F9002805D00E490C484860C8130D499F
:10B4100088610D48018CC9B201290ED1818C0907C0
:10B420000BD1018D0906090F042906D1808D000674
:10B43000000F02D105490120886010BDDFFF07C061
:10B4400000050040006C0040C00F00F00006004006
:10B4500010B506F0DFFC10BD30B47446641E2578CC
:10B46000641CAB4200D21D46635D5B00E31830BC38
:10B47000184702E008C8121F08C1002AFAD1704715
:10B480007047002001E001C1121F002AFBD1704764
:10B4900010B500280CD000290AD002780B789A4207
:10B4A00006D10622401C491CFFF788FE002801D067
:10B4B000002010BD012010BDF7B584B0002516880E
:10B4C00007461580406B1446002813D00378059872
:10B4D000032E51D30221017021881122491C89B207
:10B4E000218042542188491C89B2218043542088FC
:10B4F000401C2080386B00281DD005462088059907
:10B5000002461232B24237D811220A542088102241
:10B51000401C80B220800A542088401C20800F20CC
:10B520002A5C2388401ECA54228840B2521C2280C2
:10B530000028F5DA0025384620300290807B00286C
:10B5400006D033462246059903F0ADF8050014D124
:10B550000298407B002806D032462146059800F02C
:10B5600047FF050009D1B878002823D00598864602
:10B570002088001DB04202D90C2007B0F0BD6846FB
:10B5800079DF0028F9D121880320724650542088A1
:10B590001921401C80B22080115420887146401C23
:10B5A00080B2208041186846008806F0C7FC2188D8
:10B5B00040182080F878002817D0218803230A46F5
:10B5C000FB56C91C0598B142D6D802218154218866
:10B5D0000122491C89B2218042542188491C89B228
:10B5E000218043542088401C20807868002817D090
:10B5F00021880023C3560A46C91C0598B142BBD80E
:10B600000221815421880A22491C89B22180425496
:10B610002188491C89B2218043542088401C208005
:10B62000388900280AD00094384601960622022163
:10B630000830059B06F00BFD05009ED1388A0028D6
:10B640000AD0009438460196072203211030059B4A
:10B6500006F0FDFC050090D1388B00280AD000943C
:10B6600038460196152214211830059B06F0EFFC90
:10B67000050082D1386A002806D033462246059953
:10B6800001F0C4FB0500D8D1786A002806D0334603
:10B690002246059903F014FC0500CED10298007BE8
:10B6A000002807D0334622463846059905F012FE99
:10B6B0000500C2D13878002807D0334622463846E4
:10B6C000059903F047FC0500B7D1284655E770B54A
:10B6D00000238D880C680DE0E6187678E15C8642E0
:10B6E00006D1E018801C491E10609180002070BDBA
:10B6F0005B185B1C9D42EFD8052070BD10B5012280
:10B700000221002001F08EF8002801D0072812D174
:10B7100007220221012001F085F8002801D0072826
:10B7200009D100210A22084601F07CF8002801D046
:10B73000072800D1002010BDF0B50F468DB00021C4
:10B7400016466D460F24621A825C6A54491C102901
:10B75000F9D328460D211030FFF725FD0020221ACD
:10B76000395C5219401C11740328F8D368464DDF28
:10B770000020211A4919203109783154401C03282E
:10B78000F7D30DB0F0BD0000044842680121C9059F
:10B790000B46934383600A40C26070470005005027
:10B7A00070B50024064D06E06968E000085C0121E0
:10B7B00003F07EFC641C28788442F5D3002070BD21
:10B7C00070300020F8B515460C460646052A01D211
:10B7D0000720F8BD03F042FD002803D103F014FD5B
:10B7E0000028F6D1104900204E600C70C8608D60B2
:10B7F00008610E4D0DE0E0006968801900918178C4
:10B800006A46517000780A4A694603F0A1FC002894
:10B81000DFD12046641EE4B20028ECD1054A0021A5
:10B82000024800F055F8F8BD70300020D024020026
:10B83000B1DE010055D00100BFF34F8F044903482A
:10B84000C860BFF34F8F00BFFDE700000400FA059A
:10B8500000ED00E00EB50021029000916A460191D2
:10B860000148FFF7E9FF00000140000070B5074DF7
:10B8700006460024A0002958002901D030468847F8
:10B88000641CE4B2032CF5D370BD0000943C00208E
:10B890001EB40279012A02D0022A0FD105E000224B
:10B8A0006B461A70C268019208E001236A46137061
:10B8B000038942899C1A6A469480D38000680B46AB
:10B8C0000468684607C8A44603B010BC604700007F
:10B8D000094B9B68002B07D0002A07D0002805D011
:10B8E0000068037C002B03D00820704707207047B6
:10B8F000417442610020704784300020FFB59007FA
:10B90000002581B014460E46002832D11B4F002C72
:10B9100031D005F0F3FA049878610320387033468B
:10B920001821224600204B43BC601834C1008918FE
:10B930000D704D708E704C601C19401C0328F5DB97
:10B94000FD607D7001240E48BD7024050460032154
:10B950001420FFF7FFFC0B4804600B4C0198A0601B
:10B9600003211120FFF7F6FC60683861002005B064
:10B97000F0BD0720FBE7BD60FBE70000843000203E
:10B9800080E200E000E100E000150140FEB50D4658
:10B990001B4917468968044600292AD0002C28D064
:10B9A000052D01D20720FEBD6069002821D0607CF2
:10B9B000012820D0002606F00DFBC00010490190A0
:10B9C00089684018694606F02FFB002815D0012130
:10B9D00001700C49446049680830E2C00849019888
:10B9E0008968411868460078487006F02DF90020F3
:10B9F000FEBD0820FEBD2E46DDE70420FEBD000092
:10BA00008430002000150140F8B5134D0446A968A4
:10BA100000291CD0002C1AD06069002817D00026FD
:10BA2000267406F0D7FAC700A8686946381806F0E9
:10BA3000FBFA00280DD0022101704460A868391873
:10BA400068460078487006F0FFF83046F8BD0820D8
:10BA5000F8BD0420F8BD00008430002070B588B027
:10BA6000154604461E4620221A496846FFF774FB15
:10BA7000A06806902079002801D0012100E0002173
:10BA80006846017506776079002800D00E20694667
:10BA90004875E0780290A078039020780190607853
:10BAA00000900D48002145608170207902280ED059
:10BAB0000A49684603F0DAFB002806D103F060FC6F
:10BAC00005480121401C03F035FC08B070BD06207C
:10BAD000FBE700009024020044300020BD1D02005E
:10BAE00070B5044688B0008800F06EFB05462088DB
:10BAF00002F04CFC0646A17968460170E1790175B7
:10BB0000022D3AD000980490059800901C4800221D
:10BB1000417B208800F0A8FB002D2CD0002130466E
:10BB200004F0ACF9174D00280DD0294624310EC978
:10BB300005910793069222886946CA820E83079070
:10BB400005A801F0B7FB303507CD01AB07C321884D
:10BB50006846C180E0784007C10F684601722079CD
:10BB60004007C10F68464172017C81720178C17241
:10BB700001A801F09FFB08B070BD05980490C5E7CF
:10BB80000C3000203C240200F0B50C4693B01F217D
:10BB90006A461180072600279180002809D0C178C5
:10BBA00049070DD502A9FFF787FC002809D102AD8E
:10BBB00001E000251780002C0ED0E078002802D08C
:10BBC000304613B0F0BD01AA0AA92046FFF774FC65
:10BBD0000028F6D10AAA02E068460022878068465B
:10BBE0008088C3B268460088C1B2284672DFE8E7A1
:10BBF00070B50D4604991646040042D0002E40D080
:10BC0000424800224271C36001612422314640480B
:10BC1000FFF7A2FA00F0D4F83D4934310846103855
:10BC200001602031816038215C38FFF7BCFA384868
:10BC3000217838380170A1788170E178C17061781D
:10BC400041706269216942610161E268A168C26074
:10BC500081600146E369A269CB618A61616A00295A
:10BC600019D00146AC310246B83241628A60636A3B
:10BC70001B880B80616A436A898899800021436A26
:10BC800006E00E2070BD666AB668765C5654491CA4
:10BC90009E888E42F7D8A16A00291CD01C4AAC327B
:10BCA00011460C398A608162A36A9B888B80A16AE5
:10BCB000836A098819800021836A04E0A66AB6684D
:10BCC000765C5654491C9E888E42F7D82C210A5D1A
:10BCD0000F4918390A73216A002909D00B49143118
:10BCE0000162226A52884A80216A026A09881180A8
:10BCF0006168002904D00549891D4160616841607F
:10BD0000034829463838FFF73FFF70BDB42F0020A5
:10BD1000E833002010B502881C4C102A17D00021EF
:10BD2000112A1AD0192A11D1807900280ED16079F0
:10BD300001281ED0022822D0032822D0042805D1B1
:10BD40002171E2680846002A00D0904710BD017DAD
:10BD50000129FBD18088208110BD617080882189F4
:10BD60008842F9D1012005E021690029F4D08847F3
:10BD700010BD022000F02CF80028F5D110BD0320E2
:10BD8000F8E7032020710420F4E70000B42F00201E
:10BD900010B5022801D003280ED1084C20780028C5
:10BDA0000AD000202070607900F012F8002803D03B
:10BDB0002169002900D0884710BD0000B42F002061
:10BDC00010B507210148FFF7EEF910BDCC2F002078
:10BDD000F0B5754C87B06071002606A8069604F091
:10BDE000BBFE0127082806D000286FD1069800283E
:10BDF00002D02770D4E00696FFF7E2FF6B4D68781B
:10BE0000002802D06079012805D0A87800280AD03F
:10BE10006079022807D1E168002903D0E770082083
:10BE2000884700E0E6706079012808D1687800282A
:10BE300009D05D48193004F0A7FB002803D06079D1
:10BE4000022802D00CE002206071A878002805D0FA
:10BE50005548193004F098FB002801D10320607187
:10BE6000287B002804D16079032801D10420607167
:10BE7000287E002804D16079042801D166712671DA
:10BE8000E16800290AD06079032801D0042805D18F
:10BE90002878002802D06078002818D0A6701821D1
:10BEA0006846FFF780F968460670019606720396A9
:10BEB000607901280FD0022816D03C4E2436374630
:10BEC0005C3F03281CD004285ED13BE069E0A770EA
:10BED00007208847E3E73448183001906846077028
:10BEE00046820682277152E02F481830019068463A
:10BEF000077029894182A98801820220207146E0C9
:10BF0000A88A69464882288A08822848243006F090
:10BF10000DF9002805D02878002802D06078002884
:10BF200001D003202FE00220694608720420039606
:10BF3000F8701E4800213838FFF726FE002830D15F
:10BF4000052020E0A88B69460882288C4882174883
:10BF5000243006F0EBF8002805D02878002802D01D
:10BF60006078002801D004200DE0022069460872A4
:10BF700004200396F8700D4800213838FFF704FEBE
:10BF800000280ED1062020716079002803D0684671
:10BF900073DF002805D1E168002901D020798847A6
:10BFA000002007B0F0BD0000B42F0020E8330020CF
:10BFB00070B5054601461C220E48FFF7CDF80E4C21
:10BFC000002626702968002906D00822201DFFF7C8
:10BFD000C3F8201D7ADF02E00748001D7BDF002840
:10BFE00007D1401E60806670044A00210448FFF7B4
:10BFF0006FFC70BDD4340020D42F0020591F0200E4
:10C0000020240200F8B5214C028800271E4DE68945
:10C01000102A15D01E49112A21D0122A2DD0502ABB
:10C020001CD1C288801DB24218D1028B022A15D1C0
:10C03000C27E837E10021843C007C00F0CD112E0ED
:10C040008188698001461048082216310C30FFF7BC
:10C0500083F86F70002E01D100F020FFF8BD0020A2
:10C06000C04368806F700868FFF7CEFC0028F5D0E9
:10C07000A1690029F2D08847F8BD811D0248082235
:10C080000C30FFF769F8E7E7D42F0020D434002004
:10C090002024020010B503498A7C891C04F0E3FFC8
:10C0A00010BD0000F0340020034B10B50246597D4E
:10C0B000981C04F0C5FF10BDF0340020034B10B5F0
:10C0C0000246997D981C04F0BBFF10BDF03400209F
:10C0D000F0B5044602883A488DB00146133101910B
:10C0E000102A09D0112A50D0182A4AD1A179090959
:10C0F00001294ED901234DE0827CC17C05468A434B
:10C10000811C07A804F0AFFF142207A902A8FFF7BB
:10C1100023F800262A483746123008900AE07100BA
:10C1200002A80818838815220097A81C089904F013
:10C1300047FF761C0298B042F1D8A87CA688C0437D
:10C14000C0B204F061FF1F49884217D04000401977
:10C15000468001233246A81C019904F0A7FF012361
:10C160003246A81C089904F0A1FF207D02280AD0BD
:10C1700000231349A2881431A81C1DE00420FFF7F6
:10C1800069FB0DB0F0BD0123F3E70023A288801CFA
:10C1900012E000230A490546A2881531801C04F0EC
:10C1A00085FFA0790009022801D9012300E00023BE
:10C1B0000349A2881631A81C04F078FFE1E70000CB
:10C1C000F0340020FFFF000070B50B4E0546002440
:10C1D000B17C2A46B01C04F033FF002809D0317D21
:10C1E0002A46B01C04F02CFF002801D0022400E0F5
:10C1F0000124204670BD0000F034002010B500245A
:10C20000204605F0DBFE002805D0641CE4B2102CAB
:10C21000F6D3102010BD044801220188A24011432A
:10C220000180204610BD0000F034002010B5044607
:10C2300005F0C4FE002802D001480019C07D10BDE1
:10C24000F034002070B505460C46084605F0B6FEF1
:10C25000002806D003482A460119C97D801C04F035
:10C26000EFFE70BDF034002070B5064615460C4652
:10C27000084605F0A3FE002807D004482B46011904
:10C280003246801C173104F011FF70BDF0340020DD
:10C2900030B5002815D0002913D00E4A1378002B92
:10C2A00011D09368022B10D011D20B4CDD002C1949
:10C2B00005882580408860805B1C61600020936059
:10C2C00030BD0E2030BD082030BD062030BD04201A
:10C2D00030BD0000E82F0020183500200021034861
:10C2E000012281600270416008467047E82F0020FB
:10C2F00070B5002815D0002913D0244A1278002ADE
:10C300000FD00A88302A17D00CDC04464034102A9B
:10C3100010D0112A05D17C21FEF745FF0020C04333
:10C32000A08670BD322A2DD0332AFAD1091D03F020
:10C33000B9F970BD8888F3E70546C888091D00284B
:10C3400007D00021284600F0E3FE284603F036FA25
:10C3500070BD2C466034207E3A22504340194A89F1
:10C3600002808A894280CA89C280098A018128465E
:10C3700000F008FC0100EBD000206076284600F0B9
:10C38000FDFE70BD091D03F02FF970BDE82F0020E0
:10C3900070B500280DD0144A1378002B0BD0936889
:10C3A000002B08D004466034637E002B05D011209A
:10C3B00070BD0E2070BD082070BD0025034655607D
:10C3C000403399860246A576084825760188118073
:10C3D00040885080988E012190DF0028ECD1012008
:10C3E0006076002070BD0000E82F00201835002086
:10C3F0007CB5054608880C460930904201D90C20CE
:10C400007CBD684671DF0028FAD121880820685475
:10C4100020881B21401C80B220802954208800A93C
:10C42000401C80B22080401906220131FEF794FEA4
:10C4300020886946801D80B220800978002900D0BC
:10C44000012129542088401C208000207CBD000050
:10C4500070B50446FFF73CFE204604F0E9F9A588D4
:10C460002846FFF7B1FE012805D0022820880DD00C
:10C470001B280DD070BD2046FFF74CFC2046FFF76F
:10C48000C1FD21460F4800F0D5F870BD112803D03A
:10C49000204603F039F80DE00B48008885420CD1A6
:10C4A00008482146883800F031F8064821467C3893
:10C4B000FFF71EFF20881128E7D1204603F024F85B
:10C4C00070BD0000EC320020802F002008B500284D
:10C4D00014D0002912D001236A469370084B1380B0
:10C4E000084A9060096881600021C94301800021E9
:10C4F000418005496846FFF7CBFE08BD0E2008BD08
:10C50000141800003830002069CF010010B5002851
:10C510000AD0002908D00A88102A06D0382A07D065
:10C52000392A01D103F00CF910BD8988018010BDB2
:10C5300005F0F2FB10BD000070B500281CD00F4BB9
:10C5400002884488186814214143401C40070C4D60
:10C55000400F186049194C810220C881081D0861EC
:10C5600000248C810120087208714C710A80887047
:10C5700005F0D2FB204670BD0E2070BD3830002083
:10C580008C3A002038B50D4604001ED0002D1CD07A
:10C59000286820600020C043E08268892083012150
:10C5A000684681700A490180221D69460120A0DF8A
:10C5B000002809D12946204604F0D2FB002803D1E7
:10C5C0002946204604F086FB38BD0E2038BD000009
:10C5D0001418000030B58BB0040025D0002923D0FA
:10C5E000E08A134A904221D006AA204604F010FCAB
:10C5F000694605460880002001900290039004904F
:10C60000E2888A8001228A71088106A80391049039
:10C61000E08A01A9A6DF002804D169460988A94259
:10C6200000D00C200BB030BD0E20FBE70820F9E74E
:10C63000FFFF000038B5002821D000291FD00A884C
:10C64000102A17D0112A17D0502A18D1CA88438926
:10C65000891D9A4213D10A8B022A10D10268002A3E
:10C660000DD0CB7E8C7E19022143C907C90F07D09C
:10C67000002106E0898801E00021C943C18238BD5C
:10C6800001216B4619706946904738BD00B585B0E9
:10C69000002348221749082005F098F9002801D006
:10C6A000FFF7D8F86A460121022005F077F9002843
:10C6B00001D0FFF7CFF8104804F07AFC002801D031
:10C6C000FFF7C8F8684605F05FF9002801D0FFF7CA
:10C6D000C1F80A4805F04EF9002801D0FFF7BAF872
:10C6E000074805F08BF9002801D0FFF7B3F805B033
:10C6F00000BD0000E4300020A826002051C4010045
:10C700008D1B02007CB5134E00250C4630600029BD
:10C7100018D06946002000F06FF8002819D101A94F
:10C72000012000F069F8002813D168460179002043
:10C73000002901D0022004E069460978002900D0D0
:10C740000B2020707068002802D1FEF7D7FF054645
:10C7500028467CBDA82F0020F8B5074600242348B2
:10C7600002E0641C042C1AD2A2008258BA42F8D10A
:10C77000042C14D21D481E4E0C38002929D0012942
:10C780000ED002290BD16000201880194578002DA9
:10C7900005D018480169002901D028468847F8BD0E
:10C7A00061006118755C8E19717800290CD01149EF
:10C7B0000A224968806851430E4A521CFFF7E6F886
:10C7C000002801D10B4847700A48B1781430015550
:10C7D000DDE78068FFF718F906486100611814303A
:10C7E0008919005D8D78A842D1D0F8BDF0230200F0
:10C7F00084330020902F002004280CD2074A1269AD
:10C80000074B80001B5C01209840904300D0012022
:10C810000870002070470020FAE700000005005073
:10C82000F023020070B50023042811D2440004193B
:10C830000D4D012A02D101290DD000224600801998
:10C84000094E801900290CD0012906D0022906D0F2
:10C850000723184670BD0D30C2B22A55F9E7427061
:10C86000F7E78270F5E700008433002070B50E46CC
:10C87000204905464E608D6000200A61A9071ED53B
:10C880000024012211462046FFF7CCFF641C042C33
:10C8900002D20028F5D012E0002810D1720804213D
:10C8A0001548FEF78FFF002809D1FEF779FF002811
:10C8B00005D11148114A00211438FFF709F8E9079A
:10C8C00006D00F220E4952058A600023CB608A6190
:10C8D00000280DD108480B4A00211C38FEF7F8FF4C
:10C8E000002805D10448084A01211838FEF7F0FF56
:10C8F00070BD0000902F00200024020005CB010035
:10C9000000050050FDE6010089B70100FEB57A4D33
:10C910000722EB6892059A4302936B6800939C0090
:10C9200006461B1900200121019349050746734C57
:10C930003300FEF791FD180D1515374755677C88B4
:10C940007F8891DE9E9E9E9E9EC8CED1D8DEDE144C
:10C950000F21029A49059143A160E7602F70FEBD47
:10C96000A260E76060680F2252055040800209D53E
:10C97000A160E760022E02D1E120C0000AE07D2024
:10C98000400107E0E160A760022E01D1C82001E06C
:10C99000FF2091302E706421FEF7C8FB00994143BF
:10C9A00000223FE0A260E76060680F22520550401D
:10C9B000800204D5A160E76019204001EAE7E16048
:10C9C000A760E3E7A260E76060680F22520550406D
:10C9D000800202D5A160E760D1E7E160A760D7E7F8
:10C9E000A260E76060680F2252055040800202D5C5
:10C9F000A160E76001E0E160A7602E70009841004F
:10CA000000220FE0A260E76060680F2252055040EC
:10CA1000800202D5A160E76001E0E160A7602E70AE
:10CA20000099002236480068FEF7B0FFFEBDA26004
:10CA3000E7601BE061680120800502468A43A2602E
:10CA40000140E16010E06068012189050A468243E7
:10CA5000A2600840E060E3E76068012189050A46BA
:10CA60008243A2600840E0600199C9E7E160A760E5
:10CA70002DE023484068FEF7C7FF11218A1B01D033
:10CA8000002807D00F22E96852051140A160E76035
:10CA9000EF60FEBD0121C905E960012A0CD91046ED
:10CAA000C82148436421FEF741FB696800224143E5
:10CAB00013484068FEF76AFF0F22E96852051140EB
:10CAC000E160A760FEBD0F214905A160E7602E70FF
:10CAD000FEBD07229205AAE70D214905A160E76086
:10CAE00001218905C2E70321C905A160E76089101A
:10CAF000BCE70F214905B9E7902F00200005005041
:10CB0000E423020010B500780221FFF725FE10BDD6
:10CB10000022D243830004490428CA5002D30818D3
:10CB20002030027770470000043C0020F0B500255B
:10CB3000ED43002A02D00023042601E00423082646
:10CB40000B4C04E09F00E7597F1C04D05B1CB342F0
:10CB5000F8D32846F0BD26185DB2203635709E0009
:10CB6000A151002AF5D1E11820310877F1E7000042
:10CB7000043C002002490918202008567047000094
:10CB8000043C002008B5014660310A46097E3A237C
:10CB90005943D27D0918002A08D0521ED2B20C2364
:10CBA0005A435218528A6B46521C01E0CA886B469F
:10CBB0001A80098959804030808E194692DF08BD5D
:10CBC000002806D00449814204D80449884201D291
:10CBD0000120704700207047D4300020E43000204E
:10CBE000044A0168914201D0083101E00149383915
:10CBF00001607047403D002070B5054611484278FD
:10CC0000032A1DD001788918521C89074270890FA8
:10CC1000142251430C18201D1146FEF7C4FA201DA2
:10CC200014222946FEF798FA074900200A7853078C
:10CC30009B0F04D1022002430A7003F0BBFF70BDBA
:10CC4000042070BD743D0020B4300020F0B53B4D91
:10CC50000F462978182251434C19217C85B0241D98
:10CC60000B00FEF7F9FB0604070707070D1001F09C
:10CC700001FC02E0214604F0CBFE06000CD003E0EC
:10CC800000F036FFF9E703262D480022002F06D0DA
:10CC9000864207D101920EE0002005B0F0BD864229
:10CCA000F8D02DE0254801966430A17C43788B4272
:10CCB00001D3591A4170207B022805D1607B0628D8
:10CCC0000DD0002069460874207B69460870207BDF
:10CCD0000300FEF7C1FB05120606080E1200012034
:10CCE000F0E7A06800E060690290218868468181D1
:10CCF00001E008468A81A188C1816846FEF7B6FD39
:10CD00002878182148434019001DFEF74CFA68782E
:10CD100000280ED02978491C8907890F401E00067B
:10CD20002970000E687004D000210846FFF78EFFBE
:10CD300002E0042000F062FD3046AEE7A03C002097
:10CD40003412000010B5042000F072FD002801D05C
:10CD5000002010BD042000F075FD00210846FFF7FB
:10CD600075FF10BDF8B52348C16800293ED00E6894
:10CD700021494C680769C078E11B0D022D0AED1CA2
:10CD8000002814D101201D4A000450601B4A403A7B
:10CD900050601B49400008601A4908601A49012088
:10CDA00008602F20FEF796F912490120C870B5429D
:10CDB00000D23546E81900020F4B000A40331860D4
:10CDC0000D4A5168001B091B0902090A0002000AEA
:10CDD000C91C814209D9506818602F20FEF77AF9E2
:10CDE00001200749400480390860F8BD04F086F846
:10CDF000F8BD0000843000200015014040130140C0
:10CE000080E200E000E100E000100140F8B50646D5
:10CE1000108814468446801D0D46984201D90C2086
:10CE2000F8BD32880720062AFAD31927FF01184BCC
:10CE3000BA4201D99A42F3D171880629F0D3B94296
:10CE400001D99942ECD19A4203D0994201D08A4249
:10CE5000E6D805216046295420881221401C80B262
:10CE6000208029542088401C80B2208041193088BD
:10CE700005F064F82188401880B22080411970883C
:10CE800005F05CF82188401820800020F8BD0000E3
:10CE9000FFFF000010B5FEF7DDFC10BDF8B5164829
:10CEA00001F086FB144D00260C3D144C002807D0E1
:10CEB000616900291CD001206A461070684616E09E
:10CEC0002878002805D06169002911D068460670CD
:10CED0000DE0687800280DD0A1680948002200689C
:10CEE000FEF754FD002803D0A169002900D088472F
:10CEF0002E70F8BD6168F0E7E02F0020D4340020E8
:10CF0000202402000121C903401880B2704701218A
:10CF10008903401880B2704701218903401AC0B2CA
:10CF2000704700000E494868C005C00D16D0103883
:10CF300040B2002807DA0207120F083A920892005E
:10CF40005118C96904E08108064A890089180968EE
:10CF50008007C00EC1400806800F7047042070474C
:10CF600000ED00E000E400E030B5017885B0002974
:10CF700025D18188134A914221D1817901291ED17D
:10CF8000114943888A6800211380104C037A0EE00F
:10CF90000C254D432D18ED89A54207D10C2359438B
:10CFA0000818038B5380C18A918002E0491C8B4290
:10CFB000EED801206946087093681046984705B07E
:10CFC00030BD00001418000038300020532A000043
:10CFD000F3B5064605466036307E3A214843471988
:10CFE000F47D0C206043C1193A79601C0A3183B08A
:10CFF000904227D101AB0022284601F0E7FA002831
:10D0000023D010E0401EA04201D1002003E00C20FC
:10D010006043C01916300246009001AB284601F06B
:10D02000D5FA002808D00021049840350170A88E58
:10D0300001A993DF05B0F0BDF07D0099401C641C90
:10D04000F075E4B23879A042DCD80498012101706F
:10D050000020EFE7F8B500260124154D23E06968AC
:10D06000F0004718387821462A698140114218D0CB
:10D070008A432A6102F0BEF83A782146EB68914073
:10D0800019400346934099420BD17978012901D088
:10D09000012100E000217B684140002B01D01046B7
:10D0A0009847761CF6B228788642D8D3F8BD00009F
:10D0B00070300020F8B50446008801F067F9054695
:10D0C0001148854217D0114F2088797BFFF7BAF8B5
:10D0D000002810D0A0783D280ED0FF26F136B97B6D
:10D0E0002088FFF7AFF80028208808D000233246B8
:10D0F000294602F03FFCF8BDFF263E36EFE700224E
:10D10000314600F083F8F8BDFFFF00000C3000202E
:10D11000F3B504466030007E3A214843071981B0D8
:10D12000384603F0B9FD060023D0124D6868022886
:10D130001FD24034A18E44220F4C50430319598012
:10D140000299002907D0002121543A223946181D9E
:10D15000FEF702F801E002212154686844214143AE
:10D160000919401C0E646860A968884201D103F067
:10D1700031FBFEBDE82F002028350020F8B504461D
:10D1800060300D46007E3A214843001903F084FDCB
:10D19000010016D00B484268022A12D240344423C0
:10D1A000A68E5343084C1F461B195E800126E65588
:10D1B0005D60521C196442608068824201D103F0B4
:10D1C00009FBF8BDE82F00202835002010B50E49D6
:10D1D00000234A788C78A24212D0521CD2B24A70F4
:10D1E000022A00D14B704A78074B920018339A58A4
:10D1F0000260086910180002000A0861012010BDD1
:10D200000360002010BD0000843000203EB5094DB1
:10D2100038CD0093029501946B46588099809A719D
:10D2200005490022497BFFF71FF8684600F042F8E5
:10D230003EBD0000842402000C3000200EB5002901
:10D2400010D011290ED00022009202926A4650801E
:10D2500001910D2907D0042907D00920107010462C
:10D2600000F038F80EBD0B20F8E70A20F6E70000C2
:10D2700070B506460024054D04E0A000295830464C
:10D280008847641C287BA042F7D870BDB0350020C9
:10D2900070B506460024064D05E0A000401941681F
:10D2A00030468847641C287CA042F6DC70BD000034
:10D2B000783A002070B506460024054D04E0A00031
:10D2C000295830468847641C287BA042F7DC70BD93
:10D2D0000C30002070B506460024054D04E0A00087
:10D2E000295830468847641C287BA042F7DC70BD73
:10D2F0001C30002038B50446022000F099FA0028BE
:10D3000012D0002C12D000221146684603F098FC7F
:10D3100000280DD000980321017304214173216876
:10D320004161FFF70FFD38BD032038BD092038BD2E
:10D330000C2038BD38B50446022000F079FA0028E8
:10D3400004D00C48844203D1052038BD032038BDE9
:10D3500000221146684603F073FC002808D00098AC
:10D3600004210173052141738480FFF7EBFC38BD74
:10D370000C2038BDFFFF000010B504000DD020893F
:10D3800002F04AFA00280AD020890101054809184C
:10D390008889401E8881002010BD092010BD07200B
:10D3A00010BD0000483D0020002805D00022D243D7
:10D3B000028101600020704709207047FEB50178A6
:10D3C0000446012080030B00FEF746F8064E0808CD
:10D3D0001727424E012031E005202FE0E189081A8D
:10D3E00069464880A089FFF797FD69460871A068E3
:10D3F000029060680028EFD1ECE7E189081A6946DD
:10D400004880A089FFF788FD69460871A0680290EE
:10D410006068002812D0042010E0E189081A2189F0
:10D4200080B2002910D1618900290DD005216A46FA
:10D4300011716168002903D007201146087003E0CC
:10D440000321117003F024F96E460024074D08E013
:10D4500008206946F2E7A000401941683046884735
:10D46000641C287FA042F6DCFEBD0000E8360020E8
:10D470001FB501A9684600F059F904B010BD07B501
:10D4800013460A460021684600F050F90EBD30B53B
:10D4900087B0022000F0CCF90024002808D06846AC
:10D4A000047101A80294FEF7E1F9002007B030BD35
:10D4B000012000F0BDF9002801D00420F6E700F0BB
:10D4C00031FA012000F0BEF902F0F6F9050013D0A0
:10D4D000062D13D0002211466846009403F0B0FBDD
:10D4E00000982B000473FDF7B7FF0C1610161016EA
:10D4F00019161916121512160F20D7E7022000F080
:10D50000A1F9012000F07AF9C9E7012100E0022128
:10D51000C17400E0C474FFF715FCC7E70321F7E707
:10D5200070B50D4604001ED0002D1CD0208902F0DD
:10D5300073F9002819D0204600F0C0F8002816D052
:10D54000606800F00FFE002811D020890101094811
:10D5500009188889401C88816068286060680C30E0
:10D560006860002070BD092070BD072070BD0E20CE
:10D5700070BD0000483D0020002805D0002903D0E0
:10D5800000680860002070470920704710B5064AFF
:10D590005178032906D08B00044C491CE05051708F
:10D5A000002010BD102010BDA4300020943C0020AD
:10D5B00038B504460D46022000F03AF900280CD098
:10D5C000002C0CD06946284604F0DAFE002803D16E
:10D5D000694609882180658038BD032038BD09204F
:10D5E00038BD000010B50446022000F021F90028E3
:10D5F00010D0002C10D0208802F00EF9002807D09F
:10D60000208809490001401841896288891A05D596
:10D61000072010BD032010BD092010BDC91E418187
:10D6200000202080608010BD483D00207CB5012591
:10D6300000240195009404F0EBFD7CBD1CB5002492
:10D640000094019404F0E4FD1CBD7CB51C460E461C
:10D6500015460021069B019100902246294630463E
:10D6600004F0D6FD7CBD0000F8B50E460A681249EC
:10D6700000014518002A04D05088800084180C341A
:10D6800001E06C6808340127BF026868C019A04235
:10D690000FD92068401C0CD0204600F063FD002804
:10D6A00002D001203460F8BD6088800004190C3479
:10D6B000EBE70020F8BD0000483D0020F8B500254C
:10D6C000044600958089174F2E46B84206D1164869
:10D6D00061890089814201D10120F8BD208902F0D1
:10D6E0009BF800280ED1258101260BE000982168C7
:10D6F0008068884206D1009860600B48A781008945
:10D700006081E9E720896946FFF7AEFF0028EDD187
:10D710000095002E04D02089411C21810228F1D3DC
:10D720000020F8BD1EF10000683D0020FFB507464F
:10D7300081B01C461546022000F07AF800281CD063
:10D74000002D1DD0002C1BD028496068002688427F
:10D7500009D1274A20685368834204D892688242DC
:10D7600001D380073CD06160268126602089214951
:10D770000001085C022830D128E0032005B0F0BD8C
:10D780000920FBE700202168002F04D00A883B888D
:10D790009A4200D10120029A002A07D08B88128871
:10D7A000934213D1401E074210D101E000280DD052
:10D7B0008868286020892881206868600E48A881D0
:10D7C0000C482030008968810020D7E72089214655
:10D7D000FFF74AFF0028D5D126602089401C208110
:10D7E00020890228C2D30E206660C7E71AE1AB1574
:10D7F000D4300020483D00201EF1000002490A7884
:10D8000082430A7070470000A430002010B504461F
:10D810000078102802D1FEF7F1FC207010BD10B581
:10D8200004460078102802D1FEF7E8FC207010BDF5
:10D8300003490978014201D0012070470020704758
:10D84000A430002002490A7802430A7070470000A1
:10D85000A430002070B5064600200546042906D0F5
:10D86000112902D0002903D070BD012500E001205C
:10D870000F4C002A11D00246A17C3046FEF7F4FC82
:10D88000617C2A463046FEF7EFFCA17B0022304641
:10D89000FEF7EAFC617B002206E00246A17B3046EF
:10D8A000FEF7E2FC617B2A463046FEF7DDFC70BDE8
:10D8B0001C30002010B518460121FFF7C7F910BD34
:10D8C00070B50546164886B0007816460C46C00767
:10D8D00009D02846FFF774F9002806D0A00506D025
:10D8E000102006B070BD0820FBE70F20F9E768683C
:10D8F000A04204D8B002A9680019884201D90B20BF
:10D90000EFE70221684600950171A001010C68460D
:10D910000181002141818681FFF76EF9E1E7000076
:10D92000B4300020F0B5002084461948174A4069F9
:10D93000411C03D101200007406980021549164BA4
:10D94000C91A0C09254600210BE00E01F618B7682C
:10D95000002F04D1767B964201D232468C46491C78
:10D9600089B28D42F1D861460901C91888600A7BE5
:10D970009202801A054A4860641EE4D107480122D9
:10D980000178114301700020F0BD0000FFFF00008E
:10D9900000100010E4300020D4300020B43000200B
:10D9A000F0B50546164885B000781F4616460C4669
:10D9B000C00709D02846FFF703F9002807D03046F2
:10D9C000204380070DD104E0082005B0F0BD0F20F2
:10D9D000FBE76868A04204D8B800A968001988422B
:10D9E00001D91020F1E701216846009501710296E6
:10D9F0000394078200214182FFF7FEF8E5E700006B
:10DA0000B430002010B51C4914230A785A43521828
:10DA10001A49121D0B789C0725D5022802D003282D
:10DA200026D113E0104600224A800179012902D054
:10DA300002291DD104E0418A028A914204D217E0F2
:10DA400041898289914213D1002107E010464A881A
:10DA5000521C92B24A80032A0AD90D21FDF718FF01
:10DA600003F08EF804E0580702D5FB2003400B704A
:10DA700003F0A0F810BD0000743D0020B430002079
:10DA800070B50E4D6888291DFFF7EEFD002812D0F5
:10DA90006A680B4C5088A188C01C86B22068890037
:10DAA00041180220287033460648FFF779FFA18805
:10DAB0008919A18070BD00F07BF870BD683D002021
:10DAC000AC300020D430002010B506490520087085
:10DAD000054802218180016801220448FFF7F0FE19
:10DAE00010BD0000683D0020AC300020D430002084
:10DAF000F8B501460020002901D00120F8BD2A4ACE
:10DB0000012117781646294C0025203E3B00FDF7E1
:10DB1000A3FC0605162B34374004EFE71089401CA0
:10DB200010815580002055600101715C022916D0DA
:10DB300000211318401C80B299720228F4D3901C63
:10DB4000002153189E7A002E11D0174E0F01203E4F
:10DB5000BF19BE89BF7B9D72002E02D007E0012154
:10DB6000E7E7002F03D00180FFF78AFF15E0491C8B
:10DB700089B20229E5D32046F8BDFFF7A5FF0CE0E6
:10DB800005201070508800018019406801F088FE5F
:10DB900003E01170556001F073FE0028ECD0A04244
:10DBA000EAD00220F8BD0000683D002034120000D9
:10DBB00010B50D4C60880101204620380818818975
:10DBC000002902D0FFF780FF10BD084A41681368A2
:10DBD000116043609288028101220548FFF770FEC0
:10DBE0000421217010BD0000683D0020AC300020F1
:10DBF000D43000207047000010B5040007D005485D
:10DC000002F03EF8002801D103490C6010BD0E203F
:10DC100010BD000019FA0100FC2F0020F0B50446E9
:10DC20000088354D8BB0502813D0522802D054288C
:10DC30001FD103E0A08800F099FF1AE0A08800F04F
:10DC4000A5FB00F04FFAA979A0880022FEF70CFB93
:10DC50000FE0207A01280CD1A07E062809D1207D72
:10DC6000012806D1608A2549884202D1A08800F0A7
:10DC7000B9FF6879FEF7DAFA002819D005A8FEF78F
:10DC800009FA142205A96846FDF766FA00246E46D3
:10DC90000BE0600087196979B888FEF7D3FA00288D
:10DCA00002D0B88800F062FF641C0098A042F0D84F
:10DCB0002879FEF7BBFA002819D005A8FEF7EAF983
:10DCC000142205A96846FDF747FA00246E460BE0CA
:10DCD000600087192979B888FEF7B4FA002802D0C5
:10DCE000B88800F07FFF641C0098A042F0D803F0D1
:10DCF000A5FA0BB0F0BD0000F42F002002290000AF
:10DD00007FB5002405460094019402940394408852
:10DD10006946888000F0CCFA694648802E78052153
:10DD2000032202203300FDF797FB0906060B0D13B3
:10DD3000182A1C1F27006A461170547210721BE0CB
:10DD4000082200E0072269460A704C72087213E04C
:10DD500068460170447202720EE00920694608703C
:10DD60000AE06846027007E0042168460170A8686E
:10DD70000290A988684641806846FFF789FA7FBD0E
:10DD800070B505002AD0184800F0ECF8002826D11C
:10DD90001648FFF731FF002821D11548002104461D
:10DDA00041601448256000F029FB002817D1124873
:10DDB00003F0AEFD050012D1FEF720FA2071FEF748
:10DDC0001DFA6071FEF71AFAA0712179102907D0A7
:10DDD0006179102904D0102802D002E00E2070BD15
:10DDE0000325284670BD000001DF0100F5DB0100BE
:10DDF000F42F0020DDE20100E9160200F0B585B045
:10DE000000F0C2F86846FEF745F900246D460C4F55
:10DE10000EE060004619B08800F0B8FAB84205D1AB
:10DE2000084801228179B088FEF71EFA641CA4B26A
:10DE30000098A042EDD803F001FA05B0F0BD000053
:10DE4000FFFF0000F42F002010B504460A48C17DF2
:10DE50002046FEF7F7F900280CD0084800210C22D4
:10DE60004A431218128AA24201D1C8B210BD491CFD
:10DE70000829F4D3FF2010BDD0360020B035002093
:10DE800070B50A4D00242E46FF3621360C20604323
:10DE90004019F17D008AFEF7D5F9002804D0641CF2
:10DEA000082CF3D3FF2070BDE0B270BDB035002068
:10DEB000F8B50746104E0125BD403068FDF7A4FDBA
:10DEC00000280DD10D4C2069284207D1384601F0B9
:10DED00091F90028E06804D0284303E0A8432061BA
:10DEE000F8BDA843E0602069002228432061A168B2
:10DEF0003068FDF74BFDF8BDD024020070300020E3
:10DF00003EB50446154D00782968002811D0012837
:10DF10001BD002280CD12079002809D0608800F09D
:10DF2000C7F90F49884203D0A9790122FEF79CF96D
:10DF30003EBD002268460270628842808847608841
:10DF400000F0B6F900F012FE3EBD012268460270F4
:10DF500062884280A288828088473EBDF42F0020DC
:10DF6000FFFF000010B5040007D0054801F088FE4F
:10DF7000002801D103490C6010BD0E2010BD000027
:10DF800035FA0100043000207CB50C4800680028F8
:10DF900012D00C490A4C03C9019100900120694636
:10DFA00008802546204601F025FE044600226946E9
:10DFB00001F048FEAC42F5D17CBD000004300020E9
:10DFC000FFFF000028240200F1B51E4882B000685F
:10DFD000002811D0029800F0D9F900241A4903252D
:10DFE0000127264688420ED000236A46022101F00E
:10DFF0003BFE002802D006E00820FEBD0198044642
:10E000008688056808342B46324621460298A9DFE7
:10E01000042804D0082804D00B2807D002E01120DF
:10E0200000E00020002FE8D10B20FEBD0027A8074C
:10E0300001D50125E7E73443F6D000242646032521
:10E04000E1E7000004300020FFFF0000FEB50746B6
:10E0500021480068002808D0384600F097F91F4989
:10E060000646884203D11E48FEBD0820FEBD01259C
:10E070002A466D1CADB26B460221304601F040FECF
:10E08000040002D0072C23D023E0019A032313605D
:10E0900091683846121DAADF040004D00C2C08D069
:10E0A000052C0BD00FE00221304601F0E7FE0446BC
:10E0B0000FE00221304601F0C3FED9E702213046CD
:10E0C00001F09EFC00240221304601F0B9FE00E080
:10E0D0000C242046FEBD000004300020FFFF00009D
:10E0E000023000001CB50849096800290BD0074A16
:10E0F0009168D2680192009101216A461180002244
:10E10000694601F09FFD1CBD043000202824020058
:10E110001CB500F03BF900236A46012101F0A4FD83
:10E12000002801D000201CBD019800781CBD000013
:10E13000F8B5094E094C0A4D074632462188384643
:10E14000A7DF082805D0A84204D12088401C2080E1
:10E15000F3E70020F8BD0000FFFF000000300020C2
:10E16000033000000188002905D0808803498842D7
:10E1700001D001207047002070470000FFFF000021
:10E180003EB5044600780D46022815D10322611CD5
:10E190006846FCF7E1FF0322211D02A8FCF7DCFF23
:10E1A00001AA02A92846FDF7C7FA032201A9684679
:10E1B000FDF704F8002801D000203EBD01203EBD3F
:10E1C00070B50D4D0C46297B00290FD0002C0FD0C7
:10E1D000FFF73AFEFF280DD00C21484341190722D2
:10E1E00020461231FCF7B8FF002070BD082070BD3A
:10E1F0000E2070BD052070BDB0350020FEB505466F
:10E20000008810284FD1284E687D3446C10706D0BB
:10E2100040082649400040184030C48D32E0A879BB
:10E2200003282FD0204626E0A879002804D0012812
:10E2300002D002281ED10DE000236A461946384656
:10E2400001F012FD002815D10199A81D1131FDF72B
:10E250001FF90CE000236A461946384601F004FD18
:10E26000002807D10199A81D491CFFF789FF002844
:10E2700000D03C46384601F0BDFC0746B04201D014
:10E28000B442D1D0A888A91D00F0B4FEB4420AD08F
:10E29000A888214600F06CF8A988684641800121D1
:10E2A0000170FEF7E5FFFEBDFFFF0000B035002066
:10E2B000084A00210C234B439B18DB89834204D17D
:10E2C0000C2041438818008A7047491C0829F1D363
:10E2D00001487047B0350020FFFF000010B504462C
:10E2E000007801280DD1608800F040FC6088FFF7BD
:10E2F0000FFF002805D00348012281796088FDF7CF
:10E30000B3FF10BDF42F00207FB50446007800282D
:10E3100019D0012816D10E480122817C6088FDF7B2
:10E32000A3FF002500950195029503956088694635
:10E330004880608800F02AF8694688800D70684639
:10E34000FEF7A6FF7FBDE08801F070FC7FBD0000F6
:10E35000783A00200188002903D142189278002AD7
:10E3600001D001207047491C0829F6D300207047CE
:10E3700010B50C46FFF768FDFF2804D00C21484378
:10E3800001494018C48110BDB035002010B5FFF719
:10E390005BFD06490A7B002A06D0FF2804D00C2228
:10E3A00050434018C08910BD014810BDB035002051
:10E3B000FFFF00007CB5104D0646284615E00023FF
:10E3C0006A46194601F050FC00280DD101990878E1
:10E3D0004631022801D101992A31304600F0A4FDCE
:10E3E000002801D020467CBD204601F003FC0446F5
:10E3F000A842E4D128467CBDFFFF000070B50500AF
:10E4000005D0184C0020217B002902D01FE00E20EF
:10E4100070BDFF2139311348FCF7C5FE0020124EB4
:10E420002073B0751020F075104900200C22424373
:10E430001219401C11820828F8D3FDF7DFFEF07591
:10E4400010280DD00A4801F01BFC0028E0D1217BE8
:10E45000032905D289006550217B491C217370BDB9
:10E46000042070BDB0350020D0360020FFFF000032
:10E4700075FA0100F8B52C4918230A785A43571841
:10E480003F1D002801D00120F8BD284CF97C022650
:10E49000206800290CD0012906D0234DA835022977
:10E4A0000FD003293DD121E001F0EAF9032106E074
:10E4B000014601221E48FFF703FAA68014E0F97412
:10E4C0002BE001F0EDF918492368C83149880A01A9
:10E4D0001549A83151184D6825604B60A3880B8100
:10E4E0001149A680A8318E540121E8E700200101DE
:10E4F000695C01290BD0401C80B20228F7D30220AE
:10E50000FFF7A0F90120FFF779F90A48F8BD0401E7
:10E510006019406801F0C4F92E55002801D002208E
:10E52000F8BD0020F8BD0000A03C0020AC30002069
:10E53000D430002034120000F8B51C4C207800289C
:10E5400033D02069002807D00026E068002805D0D5
:10E550000025002E04D011E00126F6E70125F8E79A
:10E56000684652DF052804D0002804D0FDF772F970
:10E5700004E0012602E0216900988847002D10D1AF
:10E58000608869460880A06861DF052804D00028FB
:10E5900004D0FDF75FF904E0012502E0E168A0681E
:10E5A0008847002EDCD0002DD3D0F8BDC03000202D
:10E5B000418805480288914204D34088814201D8AD
:10E5C0000120704700207047D82F002030B50989FE
:10E5D000002A05D0D088491C814212D1002030BDCC
:10E5E00002466032147E3A256C4324182489A142E5
:10E5F000F4D0491C1980117E3A2251430818008931
:10E6000002E01980D088401E5880012030BD70B5CE
:10E6100004460D46401C00F03BF8002806D01022AE
:10E62000691C601CFCF7CAFD00280AD00026294698
:10E63000204611311130FCF72BFF014630460843CC
:10E6400070BD0126F3E700001048018CC9B2012912
:10E6500017D1818C090714D1018D09060A0F03D146
:10E66000828D1206120F0ED0090F012903D1828D5F
:10E670001206120F07D0032903D1808D0006000F68
:10E6800001D000207047012070470000C00F00F04B
:10E690000021425C002A01D001207047491C10294A
:10E6A000F7D30020704730B51588EC1C9C4201D987
:10E6B0000C2030BD02244C5513881C255B1C9BB2DA
:10E6C0001380CD5413885B1C9BB21380012807D0A4
:10E6D000022807D0032807D0042807D0072030BD20
:10E6E000002004E0012002E0CC5401E00320C854E3
:10E6F0001088401C1080002030BD000010B5044878
:10E70000017AC90702D00078FEF700F910BD0000B9
:10E71000902F0020FFB5254D81B01F460E0003D07D
:10E720000021039A019806E0287D00281BD01F498C
:10E73000039A1531019803F01BF8044601460022A4
:10E740000198FFF787F8002F03D021460198FEF7C4
:10E7500075FD0D2C10D009DC002C0DD0042C19D027
:10E76000082C08D108E0052005B0F0BD112C05D01B
:10E770000F48C44200D003242046F5E7297C3246E6
:10E780000198FDF771FDE97B039A0198FDF76CFD97
:10E790000024F1E7297C32460198FDF765FDE97B0D
:10E7A000039A0198FDF760FDE6E700001C300020A9
:10E7B000FECFFFFFFEB517460C00064604D02078BA
:10E7C000C00704D0012003E000217EDFFEBD02204F
:10E7D000694608713046FFF7D9FD1749054688425A
:10E7E00008D001A800902B463A462146304600F05A
:10E7F00025F806E020782146C007304603D000F017
:10E8000085F804460BE07EDF044600200090002CD3
:10E8100008D0002201232946304602F0DBFC002C00
:10E8200002D006E00122F5E768460179304602F0A1
:10E83000F7FC2046FEBD0000FFFF0000FFB585B0DD
:10E8400000250F462B4601AA29460E9E089801F086
:10E850000BFA040006D1029D28781835012801D151
:10E86000029D34350798204318D1002D16D0284634
:10E8700012300090FFF76EFD00280FD0287C397809
:10E88000C0078907C00FC90F884207D32A460099DD
:10E89000059881DF04460020307022E0002C01D072
:10E8A000052C1ED13878C0070DD003AB0122002102
:10E8B000089801F025FA04000AD10021089801F017
:10E8C00061FB040004D1394605987EDF040008D0BE
:10E8D0000021089801F0B4FA002802D0052800D0E1
:10E8E0000324002000903078002801D0012300E0AC
:10E8F0000023002C07D000220899059802F06AFC3A
:10E90000204609B0F0BD0122F6E70000FEB50F4633
:10E91000064601F07DF905461848854220D001AB36
:10E9200001220021284601F0EBF904000AD1002160
:10E93000284601F027FB040004D1394630467EDF2B
:10E94000040008D00021284601F07AFA002802D0FD
:10E95000052800D0032401200090002C0BD002E0F9
:10E96000032400200090002201232946304602F0B3
:10E9700031FC2046FEBD0122F6E70000FFFF00004B
:10E98000F1B586B00698FDF751FC002821D0684605
:10E99000FDF780FB00246E4618E060008519A8880A
:10E9A0000699FDF74FFC00280FD00B4FA888F97B84
:10E9B000FDF748FC0590397CA888FDF743FC01462B
:10E9C000A8880123059AFFF7A5FE641C0098A042C1
:10E9D000E3D807B0F0BD00001C300020F8B52C498A
:10E9E000C8680A690C780F79896886469446009150
:10E9F0003EE00099E20055182A7836E01823534388
:10EA00006968521CC918AB78D2B2934200D1002277
:10EA10000B78022B02D0032B27D123E04E6803464C
:10EA2000014603E0B14204D00B46C96900291CD05D
:10EA3000F8E7002919D08B4208D1C069002805D118
:10EA4000144F0126BE600026B44601270E68C9692E
:10EA5000D961002909D00B689B190B6005E001748E
:10EA6000C06900E000210028F9D169789142C5D140
:10EA70002146641EE4B20029BBD1054962460A6101
:10EA8000C8600F71704501D00120F8BD0020F8BDAD
:10EA90008430002000100140F8B5044631480026BB
:10EAA000C168009107784EE02E48F90080680D1883
:10EAB00043E0002C02D02046E4691FE028781821AA
:10EAC00041436A68401CC0B251182870AA7890422D
:10EAD00000D12E700A784868012A30D1027C002AC1
:10EAE0002DD18A684260CA6882600A69C260496939
:10EAF00081611C490979002900D0466019494368A1
:10EB00000A699C46991A0902174B090A994202D2CE
:10EB10008268891807E06146511A09028268090A69
:10EB20008A4202D9511A016000E006604660012164
:10EB300086600174C66103F08FF8002CB9D1287883
:10EB400069788842BAD138467F1EFFB20028ABD11F
:10EB50000448C1680098814201D00120F8BD00201E
:10EB6000F8BD000084300020FFFF7F00FEB50446A2
:10EB70001948002784422DD02046FFF725FA174E6A
:10EB8000050012D00B2D14D0112D10D01448C54201
:10EB90001BD00821684601702046FFF7F7FB0146AD
:10EBA00068464180848002950DE0022102E0012741
:10EBB0000BE00321684601702046FFF7E7FB0146A2
:10EBC0006846418084803168884771793A4620469A
:10EBD000FDF74AFBFEBD0000FFFF0000F42F002000
:10EBE000FECFFFFFFEB504460027FFF72FFA194DB1
:10EBF00006460C281AD004DC002E13D0042E05D1B2
:10EC000026E0112E10D01448C6421BD008216846B9
:10EC100001702046FFF7BAFB0146684641808480B8
:10EC200002960DE0012102E001270BE00621684673
:10EC3000017084802046FFF7A9FB014668464180A9
:10EC40002968884729793A462046FDF70DFBFEBD25
:10EC50000721ECE7F42F0020FECFFFFFF8B50646B2
:10EC600000780D460027284221D10020694608700F
:10EC7000FEF758F90446012807D0684636DF022817
:10EC800017D0002801D0FCF7E5FD3078284202D1EA
:10EC9000284330700127012C09D062B668460078FD
:10ECA00037DF022803D0002801D0FCF7D3FD384617
:10ECB000F8BD72B6E9E7000030B50E4C87B0207899
:10ECC000002802D0002007B030BD0B4A04AB07CAB1
:10ECD00007C308480125401C0090084802902802FC
:10ECE000039001950323064A694604A8FCF7B6FE83
:10ECF0002570E8E7B8300020EC240200C83D002071
:10ED0000A91D020098B0FFF7D7FF002801D0FCF73B
:10ED1000A1FD00235E4A03211846FCF7EFFD002801
:10ED200001D0FCF797FD00225A490320FDF79EFD14
:10ED3000002801D0FCF78EFD01A90020FDF7E2FCC0
:10ED4000002801D0FCF786FD6846007902287DD0B6
:10ED5000002069460870002003264F49044601251B
:10ED60002A468240120302D5820052181660401CC7
:10ED70002028F5D301204949C004886002F00EFF25
:10ED8000FDF784FC6846007801F0ECFCFDF7A6FA7C
:10ED9000002801D0FCF75EFD4148009069464148DB
:10EDA000FDF794FB002801D0FCF754FD11206946C3
:10EDB000087205223CA102A87CDF002801D0FCF7E4
:10EDC00049FD009406276846019407801821418078
:10EDD000FF2184809131C1807ADF002801D0FCF7C7
:10EDE00039FD1C216846FCF7DEF90520C0030190BF
:10EDF0000F20000402900094684600210673C94366
:10EE0000C18105742A48069005946846FDF7D0F83C
:10EE1000002801D0FCF71EFD02F0A4FA382101A859
:10EE2000FCF7C1F90221684601718571C7718582BD
:10EE30002048069024210FA8FCF7B5F910A8057208
:10EE4000FF202D301390B4201B4B00E017E00094FE
:10EE500014900FAA002101A8FCF7CAFE002801D0D7
:10EE6000FCF7F8FC87DF154886DF082803D0002868
:10EE700001D0FCF7EFFC0320FCF7AAFF02E0012021
:10EE800067E748DF0028FCD0FCF7E4FCF9E7000066
:10EE90002C310020CD0C0000000700500005005070
:10EEA000750E0200643200204D756C74690000001C
:10EEB00095CE0100822F0020F3F40100D42302003C
:10EEC00070B5144682880E4605462088111D4118EB
:10EED000921C994201D8FE2A01D90C2070BD521C07
:10EEE00032542088FF21401C80B220803154208879
:10EEF000401C80B220808119288803F01FF82188E7
:10EF0000401880B22080AA88002A09D0A968002968
:10EF100008D08019FCF720F92088A98840182080A3
:10EF2000002070BD072070BD10B50C460346FFF7EA
:10EF300011FA00280BD018882188884206D10822AF
:10EF4000A11C981CFCF73AF9002801D0002010BD44
:10EF5000012010BDF8B50F46017814460546012979
:10EF600002D16878002806D02088821C9A422DD8C9
:10EF7000012902D006E00720F8BD69784118891CF4
:10EF8000994223D8181A801E86B2684606802188C6
:10EF9000B81C081869467DDF0028EDD128780228C2
:10EFA00005D169460988B14201D809210AE0082142
:10EFB000012805D16878B04202D86A46108001E085
:10EFC0006846068068460088FE2801D90C20F8BDF6
:10EFD0002288401CB8542088401C80B220803954BC
:10EFE00020886946401C2080098840182080002025
:10EFF000F8BD0000F8B5FF240F46054600291ED0D5
:10F00000104EB5421BD010480122C17D2846FDF7A5
:10F010002BF92846FEF718FF0446FF2804D1FEF717
:10F020002FFF0446FF280AD00C20084960434018EF
:10F030000582C681072239461230FCF78DF820463A
:10F04000F8BD0000FFFF0000D0360020B0350020E2
:10F050008207D30EFF229A408907090E10B5994006
:10F0600000280BDA03071B0F083B9C080C4BA4007D
:10F07000E318DC6994430C43DC6107E08408094B26
:10F08000A400E418236893430B432360C106C90E10
:10F0900001208840044908600449086010BD000050
:10F0A00000ED00E000E400E080E200E000E100E0CC
:10F0B000F3B581B00F46019801F0A2FB01240028AE
:10F0C0001E4E019817D0FDF755FD80192030007FA6
:10F0D0008009032802D0012806D007E018480069FB
:10F0E00001998C40204201D1022100E003210198C6
:10F0F00000F0D8F9FEBD01F08FFB0028FAD001988E
:10F10000FDF738FD05468100C81D0E4AF930891803
:10F110000A6980B222430A610B494018002101604C
:10F12000002FE7D00198FDF725FD8000305800281A
:10F13000E0D00648AC404460FEBD0000043C002026
:10F140000005005000650040006000400063004082
:10F15000FEB5044623480E460019202141560027DB
:10F16000C8171346401C01D0082738E0F27819462A
:10F170002046FDF7DBFC0546401C2FD0B078002868
:10F1800007D01948A10009180868022290430860B6
:10F1900007E000217378204600910A46019100F0B3
:10F1A00049F9F078002810D01048AA0010183178DA
:10F1B00002690F4B1A400261E206D20C8907890BE3
:10F1C0000A4301690A43026109E00648327840199E
:10F1D0002030017F92011143017700E00427384677
:10F1E000FEBD0000043C0020000700500065004008
:10F1F000FFE0FCFF03490969C140C807C00F00D008
:10F20000012070470005005070B5124D2879002884
:10F2100001D0082070BD0F4900204039421E0B1854
:10F220002033401CC0B21A702028F8D30024204696
:10F23000FDF76EFC641CE4B2082CF8D30321062011
:10F24000FFF706FF01200449C0074860012028712C
:10F25000002070BD443C002000630040024800795B
:10F26000002800D001207047443C0020F3B52A4C10
:10F270000746E07E81B0002801D00820FEBD002FA7
:10F2800000D1264F386800F002F93878012631465F
:10F290008140234881600021786800F0EFF8214D1B
:10F2A000B8696862787D397D0843E86603CFE86015
:10F2B0006961387B083F01280FD10021B86800F050
:10F2C000DDF8F86800F0E3F8387B314681401448F7
:10F2D0008160F968B868A96028610298606039693E
:10F2E000216000280ED0FF230F481D33397F0022F4
:10F2F000C250FF234533C2500D4A0C4850600220D3
:10F30000FFF7A6FE042028600020E0752076A07597
:10F31000E676A076FEBD00004C3C0020B024020042
:10F320000005005000250040002000408000020041
:10F3300000230040F8B5104B81245E680022A40031
:10F340000E4D002E00D0AC60DF7D002F0BD01A7E5A
:10F35000002A04D0002E00D06C601120F8BD186186
:10F360000122197604E0D9750024D8605C761C76F9
:10F3700000F012F8F8BD00004C3C002000230040D3
:10F3800010B5044CA07E002803D101F003FE01203B
:10F39000A07610BD4C3C0020F8B5234DA87E10434C
:10F3A00001D101F0F7FD6868204C002805D08120CC
:10F3B0001F49800048600020F8BDFF204530002133
:10F3C0002150FF212531204600F086F80546FF2117
:10F3D0000931204600F080F80746FF2145312046DC
:10F3E00000F07AF80646394631432943E9D02846E9
:10F3F000304306D101F0A4FD0B48C17D407E81421F
:10F40000DFD800210848002DC17501D00320F8BDC8
:10F41000002E01D00F20F8BD817E0120002901D0EF
:10F420002060C8E76060C6E74C3C00200020004038
:10F430000023004030B552000A439900039C0A4360
:10F440002102049D0A4329040A430249800040180E
:10F45000026030BD0007005030B552000A439900E9
:10F46000039C0A432102049D0A4329040A430249DA
:10F4700080004018026030BD000700501CB500221B
:10F480000B46009211460192FFF7E6FF1CBD1CB52A
:10F49000002100910B46012201911146FFF7DCFF8C
:10F4A0001CBD0000820006481018026803231B04DC
:10F4B0009A430260026809040A4302607047000030
:10F4C00000070050034940180068012800D00020C0
:10F4D00070470000006000404058002800D0012024
:10F4E00070470322120280184068084000D00120B3
:10F4F000704710B5002806D10320FCF769FC0028EE
:10F5000001D0FCF7A7F910BDF0B5011D0088304D02
:10F51000304E85B0192809D00ADC102812D01128E5
:10F5200004D108882988884200D12E8005B0F0BD1A
:10F530001B2815D01D28F9D10888891C75DF0028E3
:10F5400006D1F3E709882448FCF722FF002802D0FF
:10F55000FCF780F9EAE701202049C004C860E5E72C
:10F5600008460B300290887A8C1CC0086946888156
:10F570006A4602A90220FCF7AAF8002806D06A46CB
:10F5800002A90320FCF7A3F80028CFD1002718E038
:10F590007900009A481C105C515C0002014310483D
:10F5A00081420DD12888B0420AD10948072221465C
:10F5B000801DFBF7D1FD0B4A20461146083188DF3C
:10F5C0007F1C684680884008B842E1D8AEE700005A
:10F5D000802F0020FFFF0000703200200005005047
:10F5E00014180000CC230200F3B583B0039E3A2226
:10F5F0006036307E5043039A85184888002837D1FA
:10F60000083100912C7908782018042800D90420AA
:10F610002871002711E00A200099784341180C2036
:10F620006043401901900A220A30891CFBF794FDBF
:10F6300000210198641C81827F1C2879A042EAD8AD
:10F640000C2044436019C288307E3A230399584302
:10F650004018008982420BD22879042808D0F0751E
:10F660000398FDF78FFA01000ED00020707608E0B5
:10F670000024F47569460398FDF7AAFC010005D043
:10F6800074760398FDF77AFD05B0F0BD6846007802
:10F690000028F9D001210398FDF73AFD039800F006
:10F6A0008DF8F1E7F8B50446054660340B46207E38
:10F6B0003A2148434219E07D0C26704380180A30F5
:10F6C0008446194658880831002812D11B4E0B88F1
:10F6D0000DE0062747437F18BF88B74206D10623AF
:10F6E0005843401841886046418102E0401C8342F3
:10F6F000EFD8002668460670E07D1179401C8842EC
:10F7000003D10120694608700FE0E075694628467C
:10F71000FDF75EFC010004D066762846FDF72EFD5D
:10F72000F8BD684600780028FAD001212846FDF788
:10F73000EFFC284600F042F8F8BD00000229000066
:10F7400070B504460A468889A1880C3286B0884282
:10F7500031D10220694608709079C307DB0F0B7125
:10F7600090798007C50F4D7190794007C00F88715F
:10F77000117AD6790802304369460881507A887236
:10F780000420002B06D0D17A937A080218436946E8
:10F7900088810620002D0AD01518AD1D2846FBF7DC
:10F7A0001AFD0002E978000A090608430490A268DD
:10F7B00069462046904706B070BD000070B504460B
:10F7C00005466034A07E1249401CC0B2A07689680C
:10F7D000002688421AD2E675207E3A21401CC0B22B
:10F7E00041434A1920760B49C00040180188118016
:10F7F0004088508074201671405B012190DF010029
:10F8000003D066762846FDF7B9FC70BD667670BDFC
:10F81000E82F002018350020022801D2012070476F
:10F8200000207047F7B50E460121890247180446AB
:10F83000002508340220308015E0002D05D1204637
:10F84000FEF790FC002800D101250C48A168426811
:10F85000914200D94160608881000C1931880818F4
:10F86000C01C30800C34BC4202D22068401CE4D161
:10F870000298002800D00570FEBD0000A4300020D2
:10F8800010B5044802230168034A0448FEF788F8CB
:10F8900010BD0000AC300020DC240200D430002079
:10F8A00010B501460223024A0248FEF779F810BD5E
:10F8B000E4240200D4300020F8B50025284F2C465F
:10F8C0002E467868B1024018264A0168914205D157
:10F8D000254A4168891819D0012905D000218A00DC
:10F8E0008258521C0CD11FE0204900220860091DDB
:10F8F000FFF798FF1D48808802282FD00820054375
:10F90000761CB6B2032EDCD32846F8BD1849022374
:10F9100022018B5451180A4648600E320831FFF715
:10F9200081FF0220054312E0491CFF29D7D90F4A65
:10F93000012113680D43002B0CD00D4A2301D15433
:10F940009918486002200881104620304480641CC9
:10F95000A4B2D5E7106002209080D1E70420CEE762
:10F96000D4300020DEC0ADDE02FEE10EAC3000205F
:10F97000483D0020FEB5114D0E46044623CD6F468E
:10F9800023C768464480828083710D4D2046E97B01
:10F99000FCF758FC002803D0304600F047F903E09C
:10F9A0000021304600F04CFA697B00222046FCF72B
:10F9B0005BFC6846FDF77EFCFEBD0000782402007B
:10F9C0000C300020F0B585B00746FCF72FFC00286E
:10F9D00014D06846FCF75EFB00246D460BE0600027
:10F9E0004619B0883946FCF72DFC002802D0B088B3
:10F9F00001F072FF641C0098A042F0D805B0F0BD81
:10FA000010B5044A127E002A02D000F087FB10BD18
:10FA1000082010BD0837002008B5012269460A7089
:10FA200040884880024801686846884708BD000051
:10FA3000FC2F00201FB504460078012817D120793B
:10FA4000012814D16088002302AA012100F00CF9DA
:10FA500000280CD10221684601706188418003981A
:10FA600001786846017102480168684688471FBDF1
:10FA70000430002070B586B0040033D02078002810
:10FA800030D1207900282DD10023608802AA1946A0
:10FA900000F0EAF8002825D1134E30461DE000237F
:10FAA00004AA194600F0E0F8002815D16088A842A1
:10FAB00012D005990398FEF7AAFD00280CD06088A3
:10FAC000FEF7F6FB69464880002008706088888051
:10FAD000CD806846FDF7CCFB284600F08BF8054644
:10FAE000B042DCD106B070BDFFFF0000F0B585B0BC
:10FAF00000250446009501950295039540886946C6
:10FB00008880FEF7D5FB69464880277801200626C5
:10FB1000052103223B00FBF79FFC0805050B11178D
:10FB2000271E21246846017021790172457218E070
:10FB3000684606702179017245720AE06A461170C2
:10FB40002179117250720CE069460E7023790B72A4
:10FB50004872039205E06846027002E0042069469C
:10FB600008706846FDF794FB05B0F0BD3EB504464D
:10FB70000078002810D1207900280DD1074A6B4663
:10FB800007CA07C36088FEF793FB69464880608810
:10FB900088806846FDF78EFB3EBD000048240200C9
:10FBA00010B500780A4C0300FBF756FC060A0A0A57
:10FBB0000A0A0410A07CFFF705FFA07BFEF7E0FE19
:10FBC000607CFFF7FFFE607BFEF7DAFE10BD0000F1
:10FBD0001C30002070B506460024054D04E0A0004E
:10FBE000295830468847641C287EA042F7DC70BD47
:10FBF0000837002010B50449097E002902D000F022
:10FC000077FA10BD014810BD08370020FFFF000043
:10FC100010B50448007E002802D000F037FC10BD6B
:10FC2000014810BD08370020FFFF000010B504494F
:10FC3000097E002902D000F03FFC10BD082010BD55
:10FC40000837002038B5074B1B7E002B08D0002357
:10FC500000938C7813460A46214602F06BFB38BDB0
:10FC6000082038BD0837002010B5044C247E002C35
:10FC700002D000F08DFA10BD082010BD083700201A
:10FC8000FEB51C4C0746207E062801D30420FEBD8D
:10FC9000002F02D0002802D024E00E20FEBD154E19
:10FCA000D0213046FBF77FFA0025142068438019E5
:10FCB0002C3002F05DFA6D1C082DF6DB0E4800F0CA
:10FCC00035FC0028EAD15022082101206D4607C5E5
:10FCD00008490A4BD0310846D200B43800F0E9FD9B
:10FCE0000028DBD1207E80002750207E401C20761B
:10FCF0000020FEBD08370020EDFF01000830002085
:10FD0000FFB54C4883B0007E1E461546002806D03D
:10FD1000002E07D00498052806D2012005E008200F
:10FD200007B0F0BD0E20FBE700204042284213D070
:10FD3000082D11D8039800F0E7FB00280CD0049997
:10FD4000039802F0FBF93C49041E009126D0A068FC
:10FD5000A84212D2002709E00720E1E7E078C019A5
:10FD6000C1B2009800F0DDFD7F1CFFB2A068B84270
:10FD7000F4D8204602F0FCF910E0A8421AD9EFB2FC
:10FD800007E0E078C019C1B2009800F0CAFD7F1CFE
:10FD9000FFB2A068B842F4D8002C0BD103980190B0
:10FDA00005212648049F02F0C9F9041E06D00199D6
:10FDB0000180A770E078FF2802D008E01120AFE7AB
:10FDC0002946009800F046FDE070FF2817D0C1B228
:10FDD000A560009800F08EFD040028D00246ABB26A
:10FDE0003046049900F00EFC0499284650225043F6
:10FDF0000B00FBF731FB051A1A080F191C002046EF
:10FE000002F0B6F9DAE771680C348C6071680C386E
:10FE100088800AE0716808344C603A210838FBF7A2
:10FE200085F97168086000E07460002078E70320BD
:10FE300076E700000837002024370020FFFF00008D
:10FE400070B50D4A127E002A11D0002402F076F916
:10FE500005000ED0E868002804D000F0A9FA0400DC
:10FE600000D00324284602F095F9204670BD0820F2
:10FE700070BD052070BD000008370020FEB50746A4
:10FE80003F480D46007E00280FD0002001900290D0
:10FE9000684685712946384602F050F9040006D0BC
:10FEA0002079400705D50020FEBD0820FEBD0520B5
:10FEB000FEBD3348E1781C3000F01CFD020034D058
:10FEC000294601A8A36800F06AFB01262B00FBF776
:10FED000C3FA050406092E343B00142006E06846E8
:10FEE000868005E002988088083029E0694688808D
:10FEF000E06823460090103301AA2946384602F0F4
:10FF000019FA22791E49D3078031002B04D09207B9
:10FF100002D5CA6C521ECA64FD22002816D01128D0
:10FF20001BD0042821D00728C2D00320FEBD029890
:10FF3000008880B2FBF736FAD8E720895021484381
:10FF400080B2C01C8008D1E70720FEBD21790423C0
:10FF500019434908490011400FE0C86C401CC864AF
:10FF600020793043104020719DE7CA6C521CCA644E
:10FF7000217902224908490011432171FEBD000088
:10FF8000083700207CB50E461749097E002909D0A4
:10FF90000025314602F0D2F8040005D0E0680028C0
:10FFA00004D01CE008207CBD05207CBD0E48E17813
:10FFB0001C3000F09FFC0246002000900190684633
:10FFC0008670002A0DD03146A36800F0E8FA214679
:10FFD0000C31684600F0CCF90546092801D02846C6
:10FFE0007CBD03207CBD000008370020FEB5002644
:10FFF0000096019602960446418868464180217920
:020000040002F8
:10000000017137462179608802F098F82178012241
:10001000364D0B00FBF720FA0906063F301919414F
:100020003043300000280DD0017949070AD502F08D
:10003000B1F8684607702078012800D00020694692
:10004000087216E06846027014E000280FD00169BB
:10005000A36899420BD10179490708D5E96CFB23C4
:10006000491CE964017919401143017104E002203F
:1000700017E00846FFF7AEFDE86C00282ED01B4FB6
:100080000024803F14206043C51929462031087C94
:10009000C2070DD108E0032003E0042001E001269F
:1000A000052069460870E4E78007C00F304218D089
:1000B000897BA88DFFF7E2FE002812D014214C4363
:1000C000E1198A8D694620354A80AA7B0A71042885
:1000D00005D0072008700846FFF77CFDFEBD06200E
:1000E000F8E7641C082CCDDBFEBD0000883700203B
:1000F00010B508490446087F002803D00878002876
:1001000002D003E0044810BD00F002FB204600F0DE
:10011000E3FA10BDE8360020FFFF000030B50446CA
:100120001A4887B0007F0D46002826D0FF2C26D81D
:100130000846FBF731F9002821D0002004900590F3
:10014000069001200121C00389032818611880B29C
:1001500089B204AB6A46FDF78BF900280BD16846DB
:10016000FDF7C8F8002806D002280CD0092808D0CE
:100170000C2808D0032007B030BD0820FBE707207B
:10018000F9E70E20F7E71120F5E70000E836002038
:10019000F0B5064622488BB0007F1F4615460C4638
:1001A000002823D0FF2E23D80846FBF7F5F80028B7
:1001B0001ED0002D1ED006A800902046FBF7ECF8BC
:1001C000002810D000200121059003900490C9035D
:1001D00060184910711880B289B203AB009AFDF71C
:1001E00047F9002808D005200BB0F0BD0820FBE738
:1001F0000720F9E70E20F7E701A906A8FDF790F917
:1002000006A8FDF7B9F8AC700198002F4088288047
:100210000298686002D00198806838600020E3E7A7
:10022000E8360020F0B507468BB000200090264845
:100230001D46007F16460C46002830D0A078FBF7FC
:10024000ABF8002838D0002C34D0A078FCF75AFE48
:100250000146684601803846FCF759FE014668466B
:10026000418009AA05A9204600F09EF9314601A85F
:10027000FDF79AF86846808C05ABC2B201A80099D8
:10028000FDF7D4F900280DD00300FBF7E5F80E11B7
:100290001B191B1B151B1B1B131B1719151B0820D8
:1002A0000BB0F0BD002D03D0294601A8FDF764F97D
:1002B0000020F5E70E20F3E70720F1E70420EFE741
:1002C0001120EDE70320EBE7E836002070B5064685
:1002D0008AB00020009025481546007F0C46002873
:1002E00022D0FF2E3BD8A078FBF756F8002836D056
:1002F000A078FCF707FE0146684601803046FCF70F
:1003000006FE01466846418009AA05A9204600F07C
:100310004BF96846808C05ABC2B201A80099FDF785
:100320008DF9040003D008E008200AB070BD002D4C
:1003300003D0294601A8FDF71FF90B2C11D006DCCC
:10034000002C0AD0022C0ED0052C04D107E00C2C76
:1003500009D00D2C03D00320E7E70020E5E70720B4
:10036000E3E70420E1E71120DFE70000E8360020A2
:1003700070B504460D480D46007F002810D0002CB3
:1003800010D0002D0ED0A078FBF706F800280BD077
:1003900021882846FDF70CF9002800D0042070BD04
:1003A000082070BD0E2070BD072070BDE83600200B
:1003B00001B50948007F002809D00098002808D01E
:1003C0006846FDF70FF9002800D0052008BD082079
:1003D00008BD0E2008BD0000E83600207FB50646A7
:1003E0008CB00020019028481D46007F0C46002854
:1003F00026D0002C3FD0FF2E3FD8A078FAF7CCFFB4
:1004000000283AD0A078FCF77DFD0146684681803F
:100410003046FCF77CFD01466846C1800AAA06A961
:10042000204600F0C1F806A800906846008D02A999
:10043000C3B20EA8019AFDF708F9040003D008E042
:10044000082010B070BD002D03D0294602A8FDF78A
:1004500093F8092C0FD006DC002C0AD0022C10D007
:10046000052C04D109E00C2C0BD00D2C07D0032057
:10047000E7E70020E5E70E20E3E70720E1E70920B2
:10048000DFE71120DDE70000E836002010B508495D
:10049000084C087F002803D00878002802D003E029
:1004A000204610BD00F034F9204600F0D1F810BD10
:1004B000E8360020FFFF000010B504461148017F18
:1004C000002903D0FF2C03D9072010BD082010BD40
:1004D0000078002801D100F01BF9012080032018CA
:1004E00080B2FCF727FF0028F1D0022807D00928A6
:1004F00003D00C2803D0032010BD0E2010BD112006
:1005000010BD0000E836002010B507490446087FFA
:10051000002807D00878002801D100F0F9F820461B
:1005200000F0CEF810BD0000E836002070B5144C85
:100530000546207F062801D3042070BD002D02D07F
:10054000002802D012E00E2070BD0D482021FAF7DD
:100550002AFE00F0A7F80B48FDF718F8002803D191
:10056000FCF795FF002801D0032070BD207F80009C
:1005700000194560207F401C2077002070BD0000DE
:10058000E8360020BDD301000021425C002A01D0E2
:1005900001207047491C0629F7D30020704710B589
:1005A0009BB200F02FF810BDF0B5002A0FD0002646
:1005B00000280BD0002909D08778022401253B00B0
:1005C000FAF74AFF0506060C150604001680F0BD72
:1005D00043680B60008888801580F0BD43680B601D
:1005E0008C8043689B688B600088801E07E04368AE
:1005F0000B608D8043685B688B600088401E88813B
:100600001480F0BD10B504465020434398B2A17049
:100610000B00FAF721FF0504070A0E151A00142033
:10062000626010E0012062600DE0083080B262601C
:1006300007E03A216260FAF779FDFAF7B3FE02E0CB
:100640006260C01C8008208010BD0020FBE7000015
:1006500070B50D4D04462846AC4208D1FF24013444
:1006600021460A4800F0EAF9A0420AD070BDFF2CEA
:10067000FCD82146054800F0D3F9002801D02046D7
:1006800070BD284670BD0000FFFF0000583A0020F2
:1006900010B5FF2803D80146014800F0F5F910BD58
:1006A000583A002010B505482021FAF77CFDFF21BB
:1006B0000131024800F0ACF910BD0000583A0020AA
:1006C00010B5FF2804D80146024800F0D1F910BD4A
:1006D000002010BD583A002070B50B4DA84201D142
:1006E000002000E0401C84B209E02146074800F0E9
:1006F000BFF9002801D0204670BD641CA4B2FF2CB5
:10070000F3D9284670BD0000FFFF0000583A0020D2
:10071000F0B589B00020124D02900390049001269C
:100720002878F603002809D1771002AA05A93046D7
:10073000FCF7A5FE002803D00120287009B0F0BD09
:10074000694605A8FCF7ECFE00988088C01B84B2BF
:1007500005A8FCF711FE2046FFF77AFFE5E7000049
:10076000E83600201CB5044600F010F9002801D03E
:10077000FBF770F8002C01D000F0B6F900200090D3
:1007800069460190087801221043E1210840DF21E9
:100790000C300840694608700720487010208870A7
:1007A000C878022310431843C870087910431843CF
:1007B0000871684600F0C0F9002801D0FBF74AF83C
:1007C000034800F0A3F9002801D0FBF743F81CBD53
:1007D0004D09020070B50024074D084E05E0442085
:1007E00060438019016C8847641CA8688442F6D372
:1007F0000020686070BD0000E82F00202835002030
:100800000449081820214156042901DB01207047C2
:1008100000207047043C002004490818202141565C
:10082000042901D20120704700207047043C0020B9
:1008300010B5044606480078002808D02046FDF789
:10084000DDFC204600F0BCFD2046FDF7E7F910BDB9
:10085000783A0020F8B50F46060028D03068002806
:1008600025D07068002822D0FF2400251CE02946EE
:10087000706800F0D5F8002808D0FF2C00D12C4675
:10088000281B401CB8420DD12046F8BDFF2C06D1D4
:1008900008E02146304600F044F8641CE4B2AC4263
:1008A000F7D3FF246D1CEDB2B068A842DFD8FF205B
:1008B000F8BDF8B50400069E089D079818D00029D9
:1008C00016D0002B14D007466F43974210D8C21D94
:1008D000D208B2420CD800280AD0002D08D0E5601A
:1008E000A0600AC481B2184600F092F80020F8BD5A
:1008F0000720F8BD70B504000D4610D02068002810
:100900000DD0606800280AD0FF2D08D000F0B0F8A4
:10091000002804D0E06821686843081870BD0020F2
:1009200070BD70B504000D460FD0206800280CD0B3
:100930006068002809D0FF2D07D000F099F8002842
:1009400003D02946606800F09FF870BD10B50178AB
:100950000B00FAF781FD081313051314131618136F
:100960004189FF39072909D14088012100F040F869
:10097000082803D0002801D0FAF76CFF10BD80686A
:10098000F8E70020F8E700F03FF810BD10B5134875
:10099000FFF776F9002803D0082800D0032010BD07
:1009A0000F4800F0C9FD0028F8D10E48FDF7E8F91E
:1009B0000028F3D10C48FDF721FD0028EED1FBF70C
:1009C0001DFC0A4C10286074E8D0FBF717FCA074DB
:1009D0001028E3D001202070002010BDEDFA0100A6
:1009E000DD13020001DD010009E30100783A002077
:1009F00010B5044A1278002A02D000F08DFD10BD17
:100A0000082010BD783A002010B5FDF7F7F910BDA9
:100A100010B5002803D0C91DC908FAF7C4FB10BDE2
:100A200010B5002809D04B075B0F01229A40C90876
:100A3000D2B208181146FEF711F910BDF8B50D46EF
:100A4000060013D0002401270EE06107490F384645
:100A50008840C1B2E0088019FEF700F9002801D0F3
:100A60002046F8BD641CA4B2AC42EED32846F8BDC3
:100A7000002807D0CA08805C4A07520F0121914024
:100A8000084000D001207047F8B504464805050E1F
:100A90004907490F01208840C7B2002C21D0605D72
:100AA00038421ED0002069460870FCF73BFA064623
:100AB000012807D0684636DF022813D0002801D06D
:100AC000FAF7C8FE605DB8436055012E09D062B6E2
