:020000040001F9
:10B00000C8450020F5B001000FB1010011B10100E9
:10B010000000000000000000000000000000000030
:10B0200000000000000000000000000013B101005B
:10B03000000000000000000015B1010017B1010080
:10B0400019B1010019B1010051B4010019B1010099
:10B0500019B10100000000004DB2010019B101005A
:10B0600019B1010019B1010019B1010019B10100B4
:10B0700019B1010019B1010019B1010019B10100A4
:10B0800019B10100B5B3010019B1010019B10100F6
:10B09000D5B3010019B10100DDB3010019B1010000
:10B0A00019B1010019B1010000000000000000000A
:10B0B0000000000000000000000000000000000090
:10B0C0000348854600F092F80048004749ED01002A
:10B0D000C8450020401E00BF00BF00BF00BF00BF2A
:10B0E00000BF00BF00BF00BF00BF00BF00BFF1D165
:10B0F000704700000321094802680A4302600848BB
:10B1000002680A4302600748804707480047FEE795
:10B11000FEE7FEE7FEE7FEE7FEE70000240500404D
:10B1200054050040FDB30100C1B0010030B50B462D
:10B13000014600202022012409E00D46D5409D4211
:10B1400005D31D469540491B254695404019154697
:10B15000521E002DF1DC30BD10B5431A934209D2C6
:10B160008318881803E0401E01785B1E1970521E78
:10B17000F9D210BD03460B439B0703D009E008C971
:10B18000121F08C0042AFAD203E00B780370401C97
:10B19000491C521EF9D210BDD2B201E00270401C0F
:10B1A000491EFBD270470022F6E710B513460A4647
:10B1B00004461946FFF7F0FF204610BD30B504469F
:10B1C0000020034600E05B1C934203D2E05CCD5CB0
:10B1D000401BF8D030BD0321001D401E0378120231
:10B1E0001A43491EF9D5104670470000064C012548
:10B1F000064E05E0E36807CC2B430C3C984710341F
:10B20000B442F7D3FFF760FF30230200502302005F
:10B2100030B58C180278401C13071B0F01D103783E
:10B22000401C120906D10278401C03E005780D701D
:10B23000401C491C5B1EF9D101E00B70491C521ED9
:10B24000FBD1A142E6D3002030BD0000F8B50024B8
:10B25000FF250135012627460094284604F03EF8D4
:10B26000002808D034484068304204D033480021D8
:10B270002818344301602D1D76007F1CADB2042FC9
:10B28000EBD3FF207D3004F029F8002807D02C48AC
:10B2900000210160400704432A48006900902A4FBA
:10B2A000200712D00126002526420AD02748AA00EE
:10B2B000111808690969C004C00E8903BA58890FBA
:10B2C000904776006D1C042DEED3002C30DA00245C
:10B2D0001D4E0021301940304156491C25D00778B9
:10B2E000BD06AD0E284601F027FC80003658002E22
:10B2F0001BD0BF090121A940154AA8008018006889
:10B30000009A8003800F114202D0022802D00CE084
:10B3100003280AD1032F05D102280AD0022128468A
:10B3200003F0CCFF39462846B047641C042CCFD329
:10B33000F8BD0321F3E70000006300400060004017
:10B340007C61004000050050003C0020006500408A
:10B35000000700508307FF22DB0E9A408907090E81
:10B36000994000280BDA0007000F083883080848C6
:10B370009B001818C36993430B43C361704783084C
:10B3800004489B001B1818689043084318607047D6
:10B3900000ED00E000E400E0052801D20120704744
:10B3A000002070473A214843001D80B2C01C80082D
:10B3B0007047000010B506490020086048608860AA
:10B3C000C860034940390860486006F0DDFB10BDE5
:10B3D0004011014010B506F06DFB10BD10B50648D8
:10B3E0004068002805D08047002801D000F032FADC
:10B3F00010BD03F0E9F810BDBC30002010B503F01B
:10B400006BF9002805D00E490C484860C8130D4957
:10B4100088610D48018CC9B201290ED1818C0907C0
:10B420000BD1018D0906090F042906D1808D000674
:10B43000000F02D105490120886010BDDFFF07C061
:10B4400000050040006C0040C00F00F00006004006
:10B4500010B506F021FC10BD30B47446641E25788A
:10B46000641CAB4200D21D46635D5B00E31830BC38
:10B47000184702E008C8121F08C1002AFAD1704715
:10B480007047002001E001C1121F002AFBD1704764
:10B4900010B500280CD000290AD002780B789A4207
:10B4A00006D10622401C491CFFF788FE002801D067
:10B4B000002010BD012010BDF7B584B0002516880E
:10B4C00007461580406B1446002813D00378059872
:10B4D000032E51D30221017021881122491C89B207
:10B4E000218042542188491C89B2218043542088FC
:10B4F000401C2080386B00281DD005462088059907
:10B5000002461232B24237D811220A542088102241
:10B51000401C80B220800A542088401C20800F20CC
:10B520002A5C2388401ECA54228840B2521C2280C2
:10B530000028F5DA0025384620300290807B00286C
:10B5400006D033462246059903F0F5F8050014D1DC
:10B550000298407B002806D032462146059800F02C
:10B560000FFF050009D1B878002823D0059886463A
:10B570002088001DB04202D90C2007B0F0BD6846FB
:10B5800079DF0028F9D121880320724650542088A1
:10B590001921401C80B22080115420887146401C23
:10B5A00080B2208041186846008806F009FC218896
:10B5B00040182080F878002817D0218803230A46F5
:10B5C000FB56C91C0598B142D6D802218154218866
:10B5D0000122491C89B2218042542188491C89B228
:10B5E000218043542088401C20807868002817D090
:10B5F00021880023C3560A46C91C0598B142BBD80E
:10B600000221815421880A22491C89B22180425496
:10B610002188491C89B2218043542088401C208005
:10B62000388900280AD00094384601960622022163
:10B630000830059B06F04DFC05009ED1388A002895
:10B640000AD0009438460196072203211030059B4A
:10B6500006F03FFC050090D1388B00280AD00094FA
:10B6600038460196152214211830059B06F031FC4E
:10B67000050082D1386A002806D033462246059953
:10B6800001F0A6FB0500D8D1786A002806D0334621
:10B690002246059903F02AFC0500CED10298007BD2
:10B6A000002807D0334622463846059905F09EFD0E
:10B6B0000500C2D13878002807D0334622463846E4
:10B6C000059903F05DFC0500B7D1284655E770B534
:10B6D00000238D880C680DE0E6187678E15C8642E0
:10B6E00006D1E018801C491E10609180002070BDBA
:10B6F0005B185B1C9D42EFD8052070BD10B5012280
:10B700000221002001F070F8002801D0072812D192
:10B7100007220221012001F067F8002801D0072844
:10B7200009D100210A22084601F05EF8002801D064
:10B73000072800D1002010BDF0B50F468DB00021C4
:10B7400016466D460F24621A825C6A54491C102901
:10B75000F9D328460D211030FFF725FD0020221ACD
:10B76000395C5219401C11740328F8D368464DDF28
:10B770000020211A4919203109783154401C03282E
:10B78000F7D30DB0F0BD0000044842680121C9059F
:10B790000B46934383600A40C26070470005005027
:10B7A00070B50024064D06E06968E000085C0121E0
:10B7B00003F094FC641C28788442F5D3002070BD0B
:10B7C00074300020F8B515460C460646052A01D20D
:10B7D0000720F8BD03F058FD002803D103F02AFD2F
:10B7E0000028F6D1104900204E600C70C8608D60B2
:10B7F00008610E4D0DE0E0006968801900918178C4
:10B800006A46517000780A4A694603F0B7FC00287E
:10B81000DFD12046641EE4B20028ECD1054A0021A5
:10B82000024800F055F8F8BD7430002014230200DF
:10B8300005DF010069D00100BFF34F8F04490348C1
:10B84000C860BFF34F8F00BFFDE700000400FA059A
:10B8500000ED00E00EB50021029000916A460191D2
:10B860000148FFF7E9FF00000140000070B5074DF7
:10B8700006460024A0002958002901D030468847F8
:10B88000641CE4B2032CF5D370BD0000903C002092
:10B890001EB40279012A02D0022A0FD105E000224B
:10B8A0006B461A70C268019208E001236A46137061
:10B8B000038942899C1A6A469480D38000680B46AB
:10B8C0000468684607C8A44603B010BC604700007F
:10B8D000094B9B68002B07D0002A07D0002805D011
:10B8E0000068037C002B03D00820704707207047B6
:10B8F000417442610020704788300020FFB59007F6
:10B90000002581B014460E46002832D11B4F002C72
:10B9100031D005F06FFA049878610320387033460F
:10B920001821224600204B43BC601834C1008918FE
:10B930000D704D708E704C601C19401C0328F5DB97
:10B94000FD607D7001240E48BD7024050460032154
:10B950001420FFF7FFFC0B4804600B4C0198A0601B
:10B9600003211120FFF7F6FC60683861002005B064
:10B97000F0BD0720FBE7BD60FBE70000883000203A
:10B9800080E200E000E100E000150140FEB50D4658
:10B990001B4917468968044600292AD0002C28D064
:10B9A000052D01D20720FEBD6069002821D0607CF2
:10B9B000012820D0002606F04FFAC000104901905F
:10B9C00089684018694606F071FA002815D00121EF
:10B9D00001700C49446049680830E2C00849019888
:10B9E0008968411868460078487006F0A5F800207C
:10B9F000FEBD0820FEBD2E46DDE70420FEBD000092
:10BA00008830002000150140F8B5134D0446A968A0
:10BA100000291CD0002C1AD06069002817D00026FD
:10BA2000267406F019FAC700A8686946381806F0A7
:10BA30003DFA00280DD0022101704460A868391831
:10BA400068460078487006F077F83046F8BD082060
:10BA5000F8BD0420F8BD00008830002070B5044611
:10BA600088B0008800F078FB0546208802F0B8FC1A
:10BA70000646A17968460170E1790175022D3AD038
:10BA800000980490059800901C480022417B208873
:10BA900000F0B2FB002D2CD00021304604F052F90A
:10BAA000174D00280DD0294624310EC90591079362
:10BAB000069222886946CA820E83079005A801F083
:10BAC00003FC303507CD01AB07C321886846C18030
:10BAD000E0784007C10F6846017220794007C10F26
:10BAE00068464172017C81720178C17201A801F03F
:10BAF000EBFB08B070BD05980490C5E71830002036
:10BB0000C0220200F0B50C4693B01F216A46118096
:10BB1000072600279180002809D0C17849070DD554
:10BB200002A9FFF7C9FC002809D102AD01E00025F8
:10BB30001780002C0ED0E078002802D0304613B0D9
:10BB4000F0BD01AA0AA92046FFF7B6FC0028F6D1ED
:10BB50000AAA02E068460022878068468088C3B24D
:10BB600068460088C1B2284672DFE8E770B50D4626
:10BB700004991646040042D0002E40D042480022CC
:10BB80004271C3600161242231464048FFF7E4FA64
:10BB900000F0D4F83D4934310846103801602031B6
:10BBA000816038215C38FFF7FEFA38482178383850
:10BBB0000170A1788170E178C1706178417062692B
:10BBC000216942610161E268A168C2608160014649
:10BBD000E369A269CB618A61616A002919D00146D3
:10BBE000AC310246B83241628A60636A1B880B80BE
:10BBF000616A436A898899800021436A06E00E20C1
:10BC000070BD666AB668765C5654491C9E888E4242
:10BC1000F7D8A16A00291CD01C4AAC3211460C3955
:10BC20008A608162A36A9B888B80A16A836A098883
:10BC300019800021836A04E0A66AB668765C5654CF
:10BC4000491C9E888E42F7D82C210A5D0F4918396D
:10BC50000A73216A002909D00B4914310162226A52
:10BC600052884A80216A026A098811806168002925
:10BC700004D00549891D4160616841600348294637
:10BC80003838FFF73FFF70BDC02F0020E43300209D
:10BC900010B502881C4C102A17D00021112A1AD086
:10BCA000192A11D1807900280ED1607901281ED07F
:10BCB000022822D0032822D0042805D12171E2686D
:10BCC0000846002A00D0904710BD017D0129FBD114
:10BCD0008088208110BD6170808821898842F9D1D7
:10BCE000012005E021690029F4D0884710BD022019
:10BCF00000F02CF80028F5D110BD0320F8E7032050
:10BD000020710420F4E70000C02F002010B50228A5
:10BD100001D003280ED1084C207800280AD000203A
:10BD20002070607900F012F8002803D02169002902
:10BD300000D0884710BD0000C02F002010B507219B
:10BD40000148FFF730FA10BDD82F0020F0B5754C30
:10BD500087B06071002606A8069604F071FE0127E0
:10BD6000082806D000286FD10698002802D0277036
:10BD7000D4E00696FFF7E2FF6B4D6878002802D00A
:10BD80006079012805D0A87800280AD060790228B7
:10BD900007D1E168002903D0E7700820884700E058
:10BDA000E6706079012808D16878002809D05D48DC
:10BDB000193004F04DFB002803D06079022802D02E
:10BDC0000CE002206071A878002805D05548193091
:10BDD00004F03EFB002801D103206071287B00287D
:10BDE00004D16079032801D104206071287E0028E5
:10BDF00004D16079042801D166712671E1680029B7
:10BE00000AD06079032801D0042805D128780028B9
:10BE100002D06078002818D0A67018216846FFF775
:10BE2000C2F9684606700196067203966079012889
:10BE30000FD0022816D03C4E243637465C3F0328EC
:10BE40001CD004285ED13BE069E0A770072088473A
:10BE5000E3E734481830019068460770468206824E
:10BE6000277152E02F4818300190684607702989E1
:10BE70004182A98801820220207146E0A88A694691
:10BE80004882288A08822848243006F091F8002841
:10BE900005D02878002802D06078002801D003203F
:10BEA0002FE002206946087204200396F8701E48AD
:10BEB00000213838FFF726FE002830D1052020E089
:10BEC000A88B69460882288C48821748243006F0DF
:10BED0006FF8002805D02878002802D06078002864
:10BEE00001D004200DE00220694608720420039668
:10BEF000F8700D4800213838FFF704FE00280ED1F5
:10BF0000062020716079002803D0684673DF00287E
:10BF100005D1E168002901D020798847002007B0C9
:10BF2000F0BD0000C02F0020E433002070B50546AE
:10BF300001461C220E48FFF70FF90E4C0026267012
:10BF40002968002906D00822201DFFF705F9201DC9
:10BF50007ADF02E00748001D7BDF002807D1401E82
:10BF600060806670044A00210448FFF7B1FC70BD90
:10BF7000D0340020E02F0020DD1D0200A4220200AA
:10BF8000F8B5214C028800271E4DE689102A15D0ED
:10BF90001E49112A21D0122A2DD0502A1CD1C28824
:10BFA000801DB24218D1028B022A15D1C27E837E37
:10BFB00010021843C007C00F0CD112E081886980BD
:10BFC00001461048082216310C30FFF7C5F86F7093
:10BFD000002E01D100F044FFF8BD0020C04368806E
:10BFE0006F700868FFF710FD0028F5D0A1690029DF
:10BFF000F2D08847F8BD811D024808220C30FFF7B7
:10C00000ABF8E7E7E02F0020D0340020A4220200A4
:10C0100010B503498A7C891C04F0A1FF10BD000003
:10C02000EC340020034B10B50246597D981C04F0F7
:10C0300083FF10BDEC340020034B10B50246997D00
:10C04000981C04F079FF10BDEC34002010B50349B2
:10C05000087DC97C084004F0A5FF10BDEC34002029
:10C06000F0B5044602883A488DB00146133101917B
:10C07000102A09D0112A50D0182A4AD1A1790909C9
:10C0800001294ED901234DE0827CC17C05468A43BB
:10C09000811C07A804F063FF142207A902A8FFF778
:10C0A0005BF800262A483746123008900AE07100F3
:10C0B00002A80818838815220097A81C089904F084
:10C0C000FBFE761C0298B042F1D8A87CA688C0433B
:10C0D000C0B204F015FF1F49884217D04000401934
:10C0E000468001233246A81C019904F06BFF01230E
:10C0F0003246A81C089904F065FF207D02280AD06A
:10C1000000231349A2881431A81C1DE00420FFF766
:10C11000A1FB0DB0F0BD0123F3E70023A288801C32
:10C1200012E000230A490546A2881531801C04F05C
:10C1300049FFA0790009022801D9012300E000236A
:10C140000349A2881631A81C04F03CFFE1E7000077
:10C15000EC340020FFFF000070B50B4E05460024B4
:10C16000B17C2A46B01C04F0E7FE002809D0317DDE
:10C170002A46B01C04F0E0FE002801D0022400E0B2
:10C180000124204670BD0000EC34002010B50024CE
:10C19000204605F055FE002805D0641CE4B2102CA2
:10C1A000F6D3102010BD044801220188A24011439B
:10C1B0000180204610BD0000EC34002010B504467C
:10C1C00005F03EFE002802D001480019C07D10BDD8
:10C1D000EC34002070B505460C46084605F030FEEC
:10C1E000002806D003482A460119C97D801C04F0A6
:10C1F000A3FE70BDEC34002070B5064615460C4613
:10C20000084605F01DFE002807D004482B460119FA
:10C210003246801C173104F0D5FE70BDEC3400208E
:10C2200030B5002815D0002913D00E4A1378002B02
:10C2300011D09368022B10D011D20B4CDD002C19B9
:10C2400005882580408860805B1C616000209360C9
:10C2500030BD0E2030BD082030BD062030BD04208A
:10C2600030BD0000F42F00201435002000210348C9
:10C27000012281600270416008467047F42F00205F
:10C2800070B5002815D0002913D0244A1278002A4E
:10C290000FD00A88302A17D00CDC04464034102A0C
:10C2A00010D0112A05D17C21FEF77DFF0020C0436C
:10C2B000A08670BD322A2DD0332AFAD1091D03F091
:10C2C00055F970BD8888F3E70546C888091D002820
:10C2D00007D00021284600F025FF284603F0D2F9B8
:10C2E00070BD2C466034207E3A22504340194A8962
:10C2F00002808A894280CA89C280098A01812846CF
:10C3000000F022FC0100EBD000206076284600F00F
:10C310003FFF70BD091D03F0CBF870BDF42F002066
:10C3200070B500280DD0144A1378002B0BD09368F9
:10C33000002B08D004466034637E002B05D011200A
:10C3400070BD0E2070BD082070BD002503465560ED
:10C35000403399860246A5760848257601881180E3
:10C3600040885080988E012190DF0028ECD1012078
:10C370006076002070BD0000F42F002014350020EE
:10C380007CB5054608880C460930904201D90C203E
:10C390007CBD684671DF0028FAD1218808206854E6
:10C3A00020881B21401C80B220802954208800A9AD
:10C3B000401C80B22080401906220131FEF7CCFEDD
:10C3C00020886946801D80B220800978002900D02D
:10C3D000012129542088401C208000207CBD0000C1
:10C3E00070B50446FFF73CFE204604F08FF9A5889F
:10C3F0002846FFF7B1FE012805D00228208820D06A
:10C400001B2820D070BD2388012100201D4A090669
:10C41000102B02D0112B09D106E00123DB0593601C
:10C42000D060D160906001E09160D0602046FFF75D
:10C430002FFC2046FFF7A4FD2146134800F0DCF84E
:10C4400070BD112802D0204602F076FF0F4E00206A
:10C450004100715AA9420AD10B482146883800F0A0
:10C4600037F8094821467C38FFF70AFF0420401CB2
:10C47000C0B20328ECD320881128E1D1204602F075
:10C480005BFF70BD00050050E8320020842F0020C3
:10C4900008B5002814D0002912D001236A469370F1
:10C4A000084B1380084A9060096881600021C943E5
:10C4B00001800021418005496846FFF7B1FE08BDB3
:10C4C0000E2008BD141800004430002051CF010098
:10C4D00010B500280AD0002908D00A88102A06D0F2
:10C4E000382A07D0392A01D103F08EF810BD898887
:10C4F000018010BD05F088FB10BD000070B500285C
:10C500001CD00F4B02884488186814214143401CFA
:10C5100040070C4D400F186049194C810220C8811A
:10C52000081D086100248C810120087208714C717B
:10C530000A80887005F068FB204670BD0E2070BD33
:10C5400044300020883A002038B50D4604001ED043
:10C55000002D1CD0286820600020C043E08268893C
:10C5600020830121684681700A490180221D6946A5
:10C570000120A0DF002809D12946204604F064FBF1
:10C58000002803D12946204604F018FB38BD0E20B0
:10C5900038BD00001418000030B58BB0040025D061
:10C5A000002923D0E08A134A904221D006AA2046CF
:10C5B00004F0A2FB69460546088000200190029025
:10C5C00003900490E2888A8001228A71088106A87B
:10C5D00003910490E08A01A9A6DF002804D16946EE
:10C5E0000988A94200D00C200BB030BD0E20FBE71B
:10C5F0000820F9E7FFFF000038B5002821D0002906
:10C600001FD00A88102A17D0112A17D0502A18D103
:10C61000CA884389891D9A4213D10A8B022A10D1F4
:10C620000268002A0DD0CB7E8C7E19022143C907F7
:10C63000C90F07D0002106E0898801E00021C94325
:10C64000C18238BD01216B4619706946904738BDDB
:10C6500000B585B0002348221749082005F042F9AB
:10C66000002801D0FFF7F6F86A460121032005F003
:10C6700021F9002801D0FFF7EDF8104804F014FC70
:10C68000002801D0FFF7E6F8684605F009F9002810
:10C6900001D0FFF7DFF80A4805F0F8F8002801D0CC
:10C6A000FFF7D8F8074805F035F9002801D0FFF763
:10C6B000D1F805B000BD0000E0300020F82A0020CD
:10C6C000E1C30100A51A02007CB5134E00250C46FB
:10C6D0003060002918D06946002000F06FF800286B
:10C6E00019D101A9012000F069F8002813D168468A
:10C6F00001790020002901D0022004E06946097870
:10C70000002900D00B2020707068002802D1FEF7AD
:10C71000F5FF054628467CBDB42F0020F8B5074636
:10C720000024234802E0641C042C1AD2A200825880
:10C73000BA42F8D1042C14D21D481E4E0C380029E0
:10C7400029D001290ED002290BD1600020188019B0
:10C750004578002D05D018480169002901D02846E8
:10C760008847F8BD61006118755C8E1971780029E1
:10C770000CD011490A224968806851430E4A521C64
:10C78000FFF704F9002801D10B4847700A48B17837
:10C7900014300155DDE78068FFF736F9064861007F
:10C7A000611814308919005D8D78A842D1D0F8BD88
:10C7B00074220200803300209C2F002004280CD219
:10C7C000074A1269074B80001B5C01209840904388
:10C7D00000D001200870002070470020FAE7000018
:10C7E000000500507422020070B50023042811D205
:10C7F000440004190D4D012A02D101290DD0002257
:10C8000046008019094E801900290CD0012906D054
:10C81000022906D00723184670BD0D30C2B22A5532
:10C82000F9E74270F7E78270F5E7000080330020F7
:10C8300070B50E46204905464E608D6000200A61A5
:10C84000A9071ED50024012211462046FFF7CCFF80
:10C85000641C042C02D20028F5D012E0002810D16C
:10C86000720804211548FEF7ADFF002809D1FEF734
:10C8700097FF002805D11148114A00211438FFF70D
:10C8800027F8E90706D00F220E4952058A600023D7
:10C89000CB608A6100280DD108480B4A00211C3862
:10C8A000FFF716F8002805D10448084A0121183876
:10C8B000FFF70EF870BD00009C2F002084220200BC
:10C8C000C9CA0100000500508DE7010089B70100C9
:10C8D000FEB57A4D0722EB6892059A4302936B6886
:10C8E00000939C0006461B19002001210193490575
:10C8F0000746734C3300FEF7AFFD180D151537478B
:10C9000055677C887F8891DE9E9E9E9E9EC8CED174
:10C91000D8DEDE140F21029A49059143A160E76039
:10C920002F70FEBDA260E76060680F225205504084
:10C93000800209D5A160E760022E02D1E120C0008B
:10C940000AE07D20400107E0E160A760022E01D1EE
:10C95000C82001E0FF2091302E706421FEF7E6FB35
:10C960000099414300223FE0A260E76060680F2227
:10C9700052055040800204D5A160E76019204001B3
:10C98000EAE7E160A760E3E7A260E76060680F2282
:10C9900052055040800202D5A160E760D1E7E16016
:10C9A000A760D7E7A260E76060680F225205504099
:10C9B000800202D5A160E76001E0E160A7602E700F
:10C9C0000098410000220FE0A260E76060680F223B
:10C9D00052055040800202D5A160E76001E0E160AD
:10C9E000A7602E700099002236480068FEF7CEFF3F
:10C9F000FEBDA260E7601BE0616801208005024681
:10CA00008A43A2600140E16010E06068012189056D
:10CA10000A468243A2600840E060E3E760680121C3
:10CA200089050A468243A2600840E0600199C9E78F
:10CA3000E160A7602DE023484068FEF7E5FF112183
:10CA40008A1B01D0002807D00F22E9685205114047
:10CA5000A160E760EF60FEBD0121C905E960012A20
:10CA60000CD91046C82148436421FEF75FFB696872
:10CA70000022414313484068FEF788FF0F22E9680F
:10CA800052051140E160A760FEBD0F214905A1607C
:10CA9000E7602E70FEBD07229205AAE70D21490529
:10CAA000A160E76001218905C2E70321C905A160F2
:10CAB000E7608910BCE70F214905B9E79C2F0020EA
:10CAC000000500506822020010B500780221FFF72F
:10CAD00025FE10BD0022D243830004490428CA5019
:10CAE00002D308182030027770470000003C002075
:10CAF000F0B50025ED43002A02D00023042601E012
:10CB0000042308260B4C04E09F00E7597F1C04D047
:10CB10005B1CB342F8D32846F0BD26185DB2203620
:10CB200035709E00A151002AF5D1E1182031087717
:10CB3000F1E70000003C00200249091820200856B7
:10CB400070470000003C002008B5014660310A46ED
:10CB5000097E3A235943D27D0918002A08D0521E73
:10CB6000D2B20C235A435218528A6B46521C01E02F
:10CB7000CA886B461A80098959804030808E1946D0
:10CB800092DF08BD002806D00449814204D8044938
:10CB9000884201D20120704700207047D030002029
:10CBA000E0300020044A0168914201D0083101E0E0
:10CBB00001493839016070473C3D002070B5054699
:10CBC00011484278032A1DD001788918521C890720
:10CBD0004270890F142251430C18201D1146FEF794
:10CBE000E2FA201D14222946FEF7B6FA0749002072
:10CBF0000A7853079B0F04D1022002430A7003F006
:10CC00004DFF70BD042070BD703D0020B830002085
:10CC1000F0B53B4D0F462978182251434C19217C21
:10CC200085B0241D0B00FEF717FC06040707070755
:10CC30000D1001F067FC02E0214604F075FE0600CD
:10CC40000CD003E000F07EFFF9E703262D48002218
:10CC5000002F06D0864207D101920EE0002005B0D9
:10CC6000F0BD8642F8D02DE0254801966430A17CC5
:10CC700043788B4201D3591A4170207B022805D199
:10CC8000607B06280DD0002069460874207B694629
:10CC90000870207B0300FEF7DFFB05120606080E76
:10CCA00012000120F0E7A06800E06069029021888E
:10CCB0006846818101E008468A81A188C181684671
:10CCC000FEF7D4FD2878182148434019001DFEF7CF
:10CCD0006AFA687800280ED02978491C8907890FDC
:10CCE000401E00062970000E687004D0002108461E
:10CCF000FFF78EFF02E0042000F0AAFD3046AEE709
:10CD00009C3C00203412000010B5042000F0BAFD55
:10CD1000002801D0002010BD042000F0BDFD00213E
:10CD20000846FFF775FF10BDF8B52348C168002914
:10CD30003ED00E6821494C680769C078E11B0D029E
:10CD40002D0AED1C002814D101201D4A000450605A
:10CD50001B4A403A50601B49400008601A4908606D
:10CD60001A49012008602F20FEF7B4F9124901206A
:10CD7000C870B54200D23546E81900020F4B000AD0
:10CD8000403318600D4A5168001B091B0902090A4B
:10CD90000002000AC91C814209D9506818602F207E
:10CDA000FEF798F901200749400480390860F8BD72
:10CDB00004F020F8F8BD0000883000200015014084
:10CDC0004013014080E200E000E100E0001001407B
:10CDD000F8B50646108814468446801D0D469842D4
:10CDE00001D90C20F8BD32880720062AFAD319276A
:10CDF000FF01184BBA4201D99A42F3D17188062932
:10CE0000F0D3B94201D99942ECD19A4203D0994268
:10CE100001D08A42E6D80521604629542088122193
:10CE2000401C80B2208029542088401C80B2208081
:10CE30004119308804F0C4FF2188401880B2208056
:10CE40004119708804F0BCFF218840182080002020
:10CE5000F8BD0000FFFF000010B5FEF7FBFC10BDA1
:10CE6000F8B5164801F0ECFB144D00260C3D144CAF
:10CE7000002807D0616900291CD001206A46107083
:10CE8000684616E02878002805D06169002911D08D
:10CE9000684606700DE0687800280DD0A168094842
:10CEA00000220068FEF772FD002803D0A169002966
:10CEB00000D088472E70F8BD6168F0E7EC2F0020A5
:10CEC000D0340020A422020030B50020064A0549D3
:10CED0000446131F450051531C54401CC0B2032884
:10CEE000F8D330BDFFFF0000842F00200121C903CB
:10CEF000401880B2704701218903401880B2704702
:10CF000001218903401AC0B2704700000E494868E9
:10CF1000C005C00D16D0103840B2002807DA02074D
:10CF2000120F083A920892005118C96904E081086A
:10CF3000064A8900891809688007C00EC1400806A2
:10CF4000800F70470420704700ED00E000E400E02F
:10CF500030B5017885B0002925D18188134A9142E6
:10CF600021D1817901291ED1114943888A68002184
:10CF70001380104C037A0EE00C254D432D18ED89DB
:10CF8000A54207D10C2359430818038B5380C18A4B
:10CF9000918002E0491C8B42EED80120694608705E
:10CFA00093681046984705B030BD00001418000083
:10CFB00044300020532A000003490C200862FF205F
:10CFC00002490130C8617047000700500005005059
:10CFD00003480069C00501D5002070470120704753
:10CFE00000050050F3B5064605466036307E3A210E
:10CFF00048434719F47D0C206043C1193A79601CFD
:10D000000A3183B0904227D101AB0022284601F0BB
:10D0100025FB002823D010E0401EA04201D10020B3
:10D0200003E00C206043C01916300246009001ABAB
:10D03000284601F013FB002808D000210498403551
:10D040000170A88E01A993DF05B0F0BDF07D0099B5
:10D05000401C641CF075E4B23879A042DCD8049816
:10D06000012101700020EFE7F8B500260124154DDD
:10D0700023E06968F0004718387821462A69814022
:10D08000114218D08A432A6102F0CAF83A78214640
:10D09000EB68914019400346934099420BD179784F
:10D0A000012901D0012100E000217B684140002BD3
:10D0B00001D010469847761CF6B228788642D8D31D
:10D0C000F8BD000074300020F8B50446008801F077
:10D0D00087F905461148854217D0114F2088797B82
:10D0E000FFF778F8002810D0A0783D280ED0FF2652
:10D0F000F136B97B2088FFF76DF80028208808D02A
:10D1000000233246294602F099FBF8BDFF263E3641
:10D11000EFE70022314600F083F8F8BDFFFF000082
:10D1200018300020F3B504466030007E3A214843B1
:10D13000071981B0384603F023FD060023D0124DB5
:10D14000686802281FD24034A18E44220F4C5043FD
:10D15000031959800299002907D0002121543A224D
:10D160003946181DFDF7F8FF01E0022121546868D7
:10D17000442141430919401C0E646860A968884233
:10D1800001D103F095FAFEBDF42F002024350020D4
:10D19000F8B5044660300D46007E3A214843001938
:10D1A00003F0EEFC010016D00B484268022A12D2AE
:10D1B00040344423A68E5343084C1F461B195E80FF
:10D1C0000126E6555D60521C196442608068824207
:10D1D00001D103F06DFAF8BDF42F002024350020B2
:10D1E00010B50E4900234A788C78A24212D0521C06
:10D1F000D2B24A70022A00D14B704A78074B920093
:10D2000018339A580260086910180002000A086171
:10D21000012010BD0360002010BD000088300020F8
:10D220003EB5094D38CD0093029501946B46588068
:10D2300099809A7105490022497BFEF7DDFF684617
:10D2400000F042F83EBD0000082302001830002024
:10D250000EB5002910D011290ED0002200920292A2
:10D260006A46508001910D2907D0042907D0092072
:10D270001070104600F038F80EBD0B20F8E70A20B9
:10D28000F6E7000070B506460024054D04E0A00056
:10D29000295830468847641C287BA042F7D870BDC7
:10D2A000AC35002070B506460024064D05E0A00010
:10D2B0004019416830468847641C287CA042F6DC4F
:10D2C00070BD0000743A002070B506460024054D7C
:10D2D00004E0A000295830468847641C287BA042FF
:10D2E000F7DC70BD1830002070B506460024054DEF
:10D2F00004E0A000295830468847641C287BA042DF
:10D30000F7DC70BD2830002038B50446022000F05C
:10D31000B9FA002812D0002C12D00022114668461B
:10D3200003F002FC00280DD00098032101730421B2
:10D33000417321684161FFF7E7FC38BD032038BD28
:10D34000092038BD0C2038BD38B50446022000F055
:10D3500099FA002804D00C48844203D1052038BD36
:10D36000032038BD00221146684603F0DDFB00288B
:10D3700008D0009804210173052141738480FFF7D0
:10D38000C3FC38BD0C2038BDFFFF000010B5040001
:10D390000DD0208902F0A4F900280AD020890101CB
:10D3A000054809188889401E8881002010BD092081
:10D3B00010BD072010BD0000443D0020002805D00E
:10D3C0000022D2430281016000207047092070478B
:10D3D00070470000FEB501780446012080030B0071
:10D3E000FEF73AF8064E08081727424E012031E0B2
:10D3F00005202FE0E189081A69464880A089FFF7D7
:10D400007FFD69460871A068029060680028EFD12E
:10D41000ECE7E189081A69464880A089FFF770FDAA
:10D4200069460871A06802906068002812D0042044
:10D4300010E0E189081A218980B2002910D16189A0
:10D4400000290DD005216A4611716168002903D0B9
:10D4500007201146087003E00321117003F07CF8E7
:10D460006E460024074D08E008206946F2E7A00058
:10D470004019416830468847641C287FA042F6DC8A
:10D48000FEBD0000E43600201FB501A9684600F08B
:10D4900077F904B010BD07B513460A460021684667
:10D4A00000F06EF90EBD000008B5022000F0EAF9A8
:10D4B00000280FD000221146684603F035FB0028F3
:10D4C0000AD0009905200873044900200870FFF76E
:10D4D0001BFC08BD032008BD0C2008BD643D0020D6
:10D4E00030B587B0022000F0CDF90024002808D024
:10D4F0006846047101A80294FEF7B8F9002007B04D
:10D5000030BD012000F0BEF9002801D00420F6E76C
:10D5100000F032FA012000F0BFF902F031F9050005
:10D5200013D0062D13D0002211466846009403F054
:10D53000FBFA00982B000473FDF78EFF0C161016F3
:10D54000101619161916121512160F20D7E70220F9
:10D5500000F0A2F9012000F07BF9C9E7012100E009
:10D560000221C17400E0C474FFF7CEFBC7E70321BA
:10D57000F7E7000070B50D4604001ED0002D1CD04A
:10D58000208902F0ADF8002819D0204600F0C0F83C
:10D59000002816D0606800F00FFE002811D0208906
:10D5A0000101094809188889401C88816068286041
:10D5B00060680C306860002070BD092070BD0720D5
:10D5C00070BD0E2070BD0000443D0020002805D035
:10D5D000002903D0006808600020704709207047C8
:10D5E00010B5064A5178032906D08B00044C491C1B
:10D5F000E0505170002010BD102010BDA830002058
:10D60000903C002038B504460D46022000F03AF95F
:10D6100000280CD0002C0CD06946284604F0F2FDFE
:10D62000002803D1694609882180658038BD032020
:10D6300038BD092038BD000010B50446022000F0B6
:10D6400021F9002810D0002C10D0208802F048F8D2
:10D65000002807D0208809490001401841896288C4
:10D66000891A05D5072010BD032010BD092010BD63
:10D67000C91E418100202080608010BD443D0020F3
:10D680007CB5012500240195009404F003FD7CBDC8
:10D690001CB500240094019404F0FCFC1CBD7CB576
:10D6A0001C460E4615460021069B0191009022461D
:10D6B0002946304604F0EEFC7CBD0000F8B50E466D
:10D6C0000A68124900014518002A04D050888000D9
:10D6D00084180C3401E06C6808340127BF026868C4
:10D6E000C019A0420FD92068401C0CD0204600F081
:10D6F00063FD002802D001203460F8BD60888000FE
:10D7000004190C34EBE70020F8BD0000443D002074
:10D71000F8B50025044600958089174F2E46B8427B
:10D7200006D1164861890089814201D10120F8BDE6
:10D73000208901F0D5FF00280ED1258101260BE0BC
:10D74000009821688068884206D1009860600B4884
:10D75000A78100896081E9E720896946FFF7AEFF6C
:10D760000028EDD10095002E04D02089411C218194
:10D770000228F1D30020F8BD1EF10000643D002016
:10D78000FFB5074681B01C461546022000F07AF826
:10D7900000281CD0002D1DD0002C1BD0284960680B
:10D7A0000026884209D1274A20685368834204D85A
:10D7B0009268824201D380073CD061602681266056
:10D7C000208921490001085C022830D128E003208B
:10D7D00005B0F0BD0920FBE700202168002F04D030
:10D7E0000A883B889A4200D10120029A002A07D079
:10D7F0008B881288934213D1401E074210D101E05A
:10D8000000280DD0886828602089288120686860F9
:10D810000E48A8810C482030008968810020D7E795
:10D8200020892146FFF74AFF0028D5D126602089AC
:10D83000401C208120890228C2D30E206660C7E7E1
:10D840001AE1AB15D0300020443D00201EF100004D
:10D8500002490A7882430A7070470000A83000200D
:10D8600010B504460078102802D1FEF78FFC207016
:10D8700010BD10B504460078102802D1FEF786FCD2
:10D88000207010BD03490978014201D00120704782
:10D8900000207047A830002002490A7802430A702D
:10D8A00070470000A830002070B5064600200546ED
:10D8B000042906D0112902D0002903D070BD01250A
:10D8C00000E001200F4C002A11D00246A17C304616
:10D8D000FEF792FC617C2A463046FEF78DFCA17B68
:10D8E00000223046FEF788FC617B002206E00246FB
:10D8F000A17B3046FEF780FC617B2A463046FEF76E
:10D900007BFC70BD2830002010B518460121FFF7C0
:10D910007FF910BD70B50546164886B000781646EA
:10D920000C46C00709D02846FFF72CF9002806D07E
:10D93000A00506D0102006B070BD0820FBE70F2020
:10D94000F9E76868A04204D8B002A96800198842C3
:10D9500001D90B20EFE70221684600950171A00173
:10D96000010C68460181002141818681FFF726F97B
:10D97000E1E70000B8300020F0B5002084461948E7
:10D98000174A4069411C03D1012000074069800209
:10D990001549164BC91A0C09254600210BE00E014A
:10D9A000F618B768002F04D1767B964201D2324632
:10D9B0008C46491C89B28D42F1D861460901C918CB
:10D9C00088600A7B9202801A054A4860641EE4D18E
:10D9D000074801220178114301700020F0BD0000CA
:10D9E000FFFF000000100010E0300020D0300020C9
:10D9F000B8300020F0B50546164885B000781F46BF
:10DA000016460C46C00709D02846FFF7BBF8002889
:10DA100007D03046204380070DD104E0082005B030
:10DA2000F0BD0F20FBE76868A04204D8B800A968E1
:10DA30000019884201D91020F1E7012168460095BC
:10DA4000017102960394078200214182FFF7B6F824
:10DA5000E5E70000B830002010B51C4914230A780F
:10DA60005A4352181A49121D0B789C0725D50228D3
:10DA700002D0032826D113E0104600224A80017903
:10DA8000012902D002291DD104E0418A028A914273
:10DA900004D217E041898289914213D1002107E025
:10DAA00010464A88521C92B24A80032A0AD90D2194
:10DAB000FDF7EEFE02F0D8FF04E0580702D5FB2088
:10DAC00003400B7002F0EAFF10BD0000703D002023
:10DAD000B830002070B50E4D6888291DFFF7EEFDA7
:10DAE000002812D06A680B4C5088A188C01C86B2EE
:10DAF0002068890041180220287033460648FFF745
:10DB000079FFA1888919A18070BD00F07BF870BDF4
:10DB1000643D0020B0300020D030002010B5064910
:10DB2000052008700548022181800168012204480F
:10DB3000FFF7F0FE10BD0000643D0020B030002073
:10DB4000D0300020F8B501460020002901D0012086
:10DB5000F8BD2A4A012117781646294C0025203E97
:10DB60003B00FDF779FC0605162B34374004EFE740
:10DB70001089401C10815580002055600101715CA6
:10DB8000022916D000211318401C80B29972022875
:10DB9000F4D3901C002153189E7A002E11D0174EFA
:10DBA0000F01203EBF19BE89BF7B9D72002E02D09F
:10DBB00007E00121E7E7002F03D00180FFF78AFF8C
:10DBC00015E0491C89B20229E5D32046F8BDFFF7CC
:10DBD000A5FF0CE0052010705088000180194068F6
:10DBE00001F0C2FD03E01170556001F0ADFD0028A9
:10DBF000ECD0A042EAD00220F8BD0000643D002035
:10DC00003412000010B50D4C608801012046203808
:10DC100008188189002902D0FFF780FF10BD084A4B
:10DC200041681368116043609288028101220548AF
:10DC3000FFF770FE0421217010BD0000643D00203C
:10DC4000B0300020D03000207047000010B5040034
:10DC500007D0054801F078FF002801D103490C6086
:10DC600010BD0E2010BD0000E1F8010008300020BA
:10DC7000F0B504460088354D8BB0502813D052289B
:10DC800002D054281FD103E0A08800F0B7FF1AE0AB
:10DC9000A08800F0A5FB00F04FFAA979A088002227
:10DCA000FEF7AAFA0FE0207A01280CD1A07E062800
:10DCB00009D1207D012806D1608A2549884202D1F8
:10DCC000A08800F0D7FF6879FEF778FA002819D00D
:10DCD00005A8FEF79DF9142205A96846FDF73CFA50
:10DCE00000246E460BE0600087196979B888FEF75A
:10DCF00071FA002802D0B88800F080FF641C0098F8
:10DD0000A042F0D82879FEF759FA002819D005A8C2
:10DD1000FEF77EF9142205A96846FDF71DFA0024D6
:10DD20006E460BE0600087192979B888FEF752FA31
:10DD3000002802D0B88800F09DFF641C0098A04223
:10DD4000F0D803F007FA0BB0F0BD0000003000205F
:10DD5000022900007FB50024054600940194029436
:10DD6000039440886946888000F0CCFA6946488070
:10DD70002E780521032202203300FDF76DFB0906F2
:10DD8000060B0D13182A1C1F27006A4611705472C7
:10DD900010721BE0082200E0072269460A704C72EC
:10DDA000087213E068460170447202720EE00920A6
:10DDB000694608700AE06846027007E00421684678
:10DDC0000170A8680290A988684641806846FFF7FC
:10DDD00069FA7FBD70B505002AD0184800F0ECF84C
:10DDE000002826D11648FFF731FF002821D1154819
:10DDF0000021044641601448256000F029FB0028FA
:10DE000017D1124803F010FD050012D1FEF7BEF93C
:10DE10002071FEF7BBF96071FEF7B8F9A0712179A6
:10DE2000102907D06179102904D0102802D002E00F
:10DE30000E2070BD0325284670BD000055DF01008F
:10DE400049DC01000030002031E30100011602002E
:10DE5000F0B585B000F0C2F86846FEF7D9F80024A6
:10DE60006D460C4F0EE060004619B08800F0B8FA1D
:10DE7000B84205D1084801228179B088FEF7BCF983
:10DE8000641CA4B20098A042EDD803F063F905B079
:10DE9000F0BD0000FFFF00000030002010B5044678
:10DEA0000A48C17D2046FEF795F900280CD00848A5
:10DEB00000210C224A431218128AA24201D1C8B290
:10DEC00010BD491C0829F4D3FF2010BDCC3600201A
:10DED000AC35002070B50A4D00242E46FF362136A1
:10DEE0000C2060434019F17D008AFEF773F9002889
:10DEF00004D0641C082CF3D3FF2070BDE0B270BDC9
:10DF0000AC350020F8B50746104E0125BD403068FD
:10DF1000FDF77AFD00280DD10D4C2069284207D16C
:10DF2000384601F07DF90028E06804D0284303E07A
:10DF3000A8432061F8BDA843E0602069002228437F
:10DF40002061A1683068FDF721FDF8BD14230200AF
:10DF5000743000203EB50446154D0078296800282D
:10DF600011D001281BD002280CD12079002809D01B
:10DF7000608800F0C7F90F49884203D0A9790122CF
:10DF8000FEF73AF93EBD0022684602706288428080
:10DF90008847608800F0B6F900F030FE3EBD0122EF
:10DFA0006846027062884280A288828088473EBDAF
:10DFB00000300020FFFF000010B5040007D0054826
:10DFC00001F0C2FD002801D103490C6010BD0E20F4
:10DFD00010BD0000FDF80100103000207CB50C4899
:10DFE0000068002812D00C490A4C03C90191009026
:10DFF0000120694608802546204601F05FFD044661
:10E000000022694601F082FDAC42F5D17CBD0000E2
:10E0100010300020FFFF0000AC220200F1B51E48C6
:10E0200082B00068002811D0029800F0D9F90024CD
:10E030001A4903250127264688420ED000236A4646
:10E04000022101F075FD002802D006E00820FEBD87
:10E05000019804468688056808342B4632462146D6
:10E060000298A9DF042804D0082804D00B2807D080
:10E0700002E0112000E00020002FE8D10B20FEBDBF
:10E080000027A80701D50125E7E73443F6D000248F
:10E0900026460325E1E7000010300020FFFF0000C6
:10E0A000FEB5074621480068002808D0384600F031
:10E0B00097F91F490646884203D11E48FEBD082035
:10E0C000FEBD01252A466D1CADB26B4602213046CD
:10E0D00001F07AFD040002D0072C23D023E0019A3E
:10E0E0000323136091683846121DAADF040004D090
:10E0F0000C2C08D0052C0BD00FE00221304601F08B
:10E1000021FE04460FE00221304601F0FDFDD9E773
:10E110000221304601F0D8FB00240221304601F0F4
:10E12000F3FD00E00C242046FEBD0000103000206E
:10E13000FFFF0000023000001CB5084909680029F3
:10E140000BD0074A9168D2680192009101216A467A
:10E1500011800022694601F0D9FC1CBD103000205E
:10E16000AC2202001CB500F03BF900236A460121F5
:10E1700001F0DEFC002801D000201CBD01980078D1
:10E180001CBD0000F8B5094E094C0A4D0746324641
:10E1900021883846A7DF082805D0A84204D1208866
:10E1A000401C2080F3E70020F8BD0000FFFF0000C6
:10E1B0000C300020033000000188002905D0808841
:10E1C0000349884201D001207047002070470000B9
:10E1D000FFFF00003EB5044600780D46022815D129
:10E1E0000322611C6846FCF7B7FF0322211D02A829
:10E1F000FCF7B2FF01AA02A92846FDF79DFA032207
:10E2000001A96846FCF7DAFF002801D000203EBDD6
:10E2100001203EBD70B50D4D0C46297B00290FD065
:10E22000002C0FD0FFF73AFEFF280DD00C214843F9
:10E230004119072220461231FCF78EFF002070BDE5
:10E24000082070BD0E2070BD052070BDAC350020CB
:10E25000FEB50546008810284FD1284E687D34460B
:10E26000C10706D040082649400040184030C48D00
:10E2700032E0A87903282FD0204626E0A87900288C
:10E2800004D0012802D002281ED10DE000236A46E6
:10E290001946384601F04CFC002815D10199A81DFB
:10E2A0001131FDF7F5F80CE000236A4619463846AF
:10E2B00001F03EFC002807D10199A81D491CFFF779
:10E2C00089FF002800D03C46384601F0F7FB07469E
:10E2D000B04201D0B442D1D0A888A91D00F0A0FE60
:10E2E000B4420AD0A888214600F06CF8A988684694
:10E2F000418001210170FEF7C5FFFEBDFFFF000058
:10E30000AC350020084A00210C234B439B18DB89C5
:10E31000834204D10C2041438818008A7047491C6D
:10E320000829F1D301487047AC350020FFFF0000F9
:10E3300010B50446007801280DD1608800F05EFC1D
:10E340006088FFF70FFF002805D00348012281797C
:10E350006088FDF751FF10BD003000207FB50446F6
:10E360000078002819D0012816D10E480122817C9E
:10E370006088FDF741FF0025009501950295039502
:10E38000608869464880608800F02AF8694688807D
:10E390000D706846FEF786FF7FBDE08801F0AAFB9E
:10E3A0007FBD0000743A00200188002903D1421883
:10E3B0009278002A01D001207047491C0829F6D321
:10E3C0000020704710B50C46FFF768FDFF2804D009
:10E3D0000C21484301494018C48110BDAC350020D0
:10E3E00010B5FFF75BFD06490A7B002A06D0FF281F
:10E3F00004D00C2250434018C08910BD014810BD04
:10E40000AC350020FFFF00007CB5104D06462846C5
:10E4100015E000236A46194601F08AFB00280DD159
:10E42000019908784631022801D101992A313046F4
:10E4300000F090FD002801D020467CBD204601F070
:10E440003DFB0446A842E4D128467CBDFFFF000006
:10E4500070B5050005D0184C0020217B002902D0A2
:10E460001FE00E2070BDFF2139311348FCF79BFEE1
:10E470000020124E2073B0751020F0751049002056
:10E480000C2242431219401C11820828F8D3FDF7D0
:10E490007DFEF07510280DD00A4801F055FB0028CC
:10E4A000E0D1217B032905D289006550217B491CDD
:10E4B000217370BD042070BDAC350020CC36002027
:10E4C000FFFF00003DF9010010B504494000085A63
:10E4D000034908800846FEF711F810BD842F00207C
:10E4E00060320020054904488862012104488902FD
:10E4F0008161C16070470000010300000007005007
:10E5000000050050F8B52C4918230A785A435718CB
:10E510003F1D002801D00120F8BD284CF97C0226BF
:10E52000206800290CD0012906D0234DA8350229E6
:10E530000FD003293DD121E001F006F9032106E0C7
:10E54000014601221E48FFF7E5F9A68014E0F974A0
:10E550002BE001F009F918492368C83149880A01FC
:10E560001549A83151184D6825604B60A3880B816F
:10E570001149A680A8318E540121E8E7002001014D
:10E58000695C01290BD0401C80B20228F7D302201D
:10E59000FFF782F90120FFF75BF90A48F8BD040193
:10E5A0006019406801F0E0F82E55002801D00220E3
:10E5B000F8BD0020F8BD00009C3C0020B0300020D9
:10E5C000D030002034120000F8B51C4C2078002810
:10E5D00033D02069002807D00026E068002805D045
:10E5E0000025002E04D011E00126F6E70125F8E70A
:10E5F000684652DF052804D0002804D0FDF72AF928
:10E6000004E0012602E0216900988847002D10D11E
:10E61000608869460880A06861DF052804D000286A
:10E6200004D0FDF717F904E0012502E0E168A068D5
:10E630008847002EDCD0002DD3D0F8BDBC300020A0
:10E64000418805480288914204D34088814201D81C
:10E650000120704700207047E42F002030B5098961
:10E66000002A05D0D088491C814212D1002030BD3B
:10E6700002466032147E3A256C4324182489A14254
:10E68000F4D0491C1980117E3A22514308180089A0
:10E6900002E01980D088401E5880012030BD70B53E
:10E6A00004460D46401C00F03BF8002806D010221E
:10E6B000691C601CFCF782FD00280AD00026294650
:10E6C000204611311130FCF7E3FE01463046084385
:10E6D00070BD0126F3E700001048018CC9B2012982
:10E6E00017D1818C090714D1018D09060A0F03D1B6
:10E6F000828D1206120F0ED0090F012903D1828DCF
:10E700001206120F07D0032903D1808D0006000FD7
:10E7100001D000207047012070470000C00F00F0BA
:10E720000021425C002A01D001207047491C1029B9
:10E73000F7D30020704730B51588EC1C9C4201D9F6
:10E740000C2030BD02244C5513881C255B1C9BB249
:10E750001380CD5413885B1C9BB21380012807D013
:10E76000022807D0032807D0042807D0072030BD8F
:10E77000002004E0012002E0CC5401E00320C85452
:10E780001088401C1080002030BD000010B50448E7
:10E79000017AC90702D00078FEF79AF810BD000090
:10E7A0009C2F0020FFB5254D81B01F460E0003D0E1
:10E7B0000021039A019806E0287D00281BD01F49FC
:10E7C000039A1531019802F05FFF044601460022CA
:10E7D0000198FFF769F8002F03D021460198FEF752
:10E7E00037FD0D2C10D009DC002C0DD0042C19D0D5
:10E7F000082C08D108E0052005B0F0BD112C05D08B
:10E800000F48C44200D003242046F5E7297C324655
:10E810000198FDF7F1FCE97B039A0198FDF7ECFC08
:10E820000024F1E7297C32460198FDF7E5FCE97BFD
:10E83000039A0198FDF7E0FCE6E70000283000208D
:10E84000FECFFFFFFEB517460C00064604D0207829
:10E85000C00704D0012003E000217EDFFEBD0220BE
:10E86000694608713046FFF7BBFD174905468842E7
:10E8700008D001A800902B463A462146304600F0C9
:10E8800025F806E020782146C007304603D000F086
:10E8900085F804460BE07EDF044600200090002C43
:10E8A00008D0002201232946304602F01FFC002C2C
:10E8B00002D006E00122F5E768460179304602F011
:10E8C0003BFC2046FEBD0000FFFF0000FFB585B009
:10E8D00000250F462B4601AA29460E9E089801F0F6
:10E8E00027F9040006D1029D28781835012801D1A6
:10E8F000029D34350798204318D1002D16D02846A4
:10E9000012300090FFF750FD00280FD0287C397896
:10E91000C0078907C00FC90F884207D32A4600994C
:10E92000059881DF04460020307022E0002C01D0E1
:10E93000052C1ED13878C0070DD003AB0122002171
:10E94000089801F041F904000AD10021089801F06B
:10E950007DFA040004D1394605987EDF040008D012
:10E960000021089801F0D0F9002802D0052800D035
:10E970000324002000903078002801D0012300E01B
:10E980000023002C07D000220899059802F0AEFB66
:10E99000204609B0F0BD0122F6E70000FEB50F46A3
:10E9A000064601F099F805461848854220D001AB8B
:10E9B00001220021284601F007F904000AD10021B4
:10E9C000284601F043FA040004D1394630467EDF80
:10E9D000040008D00021284601F096F9002802D052
:10E9E000052800D0032401200090002C0BD002E069
:10E9F000032400200090002201232946304602F023
:10EA000075FB2046FEBD0122F6E70000FFFF000077
:10EA1000F1B586B00698FDF7D1FB002821D06846F5
:10EA2000FDF7F6FA00246E4618E060008519A88804
:10EA30000699FDF7CFFB00280FD00B4FA888F97B74
:10EA4000FDF7C8FB0590397CA888FDF7C3FB01469C
:10EA5000A8880123059AFFF7A5FE641C0098A04230
:10EA6000E3D807B0F0BD000028300020F8B52C49ED
:10EA7000C8680A690C780F798968864694460091BF
:10EA80003EE00099E20055182A7836E018235343F7
:10EA90006968521CC918AB78D2B2934200D10022E7
:10EAA0000B78022B02D0032B27D123E04E680346BC
:10EAB000014603E0B14204D00B46C96900291CD0CD
:10EAC000F8E7002919D08B4208D1C069002805D188
:10EAD000144F0126BE600026B44601270E68C9699E
:10EAE000D961002909D00B689B190B6005E00174FE
:10EAF000C06900E000210028F9D169789142C5D1B0
:10EB00002146641EE4B20029BBD1054962460A6170
:10EB1000C8600F71704501D00120F8BD0020F8BD1C
:10EB20008830002000100140F8B504463148002626
:10EB3000C168009107784EE02E48F90080680D18F2
:10EB400043E0002C02D02046E4691FE02878182119
:10EB500041436A68401CC0B251182870AA7890429C
:10EB600000D12E700A784868012A30D1027C002A30
:10EB70002DD18A684260CA6882600A69C2604969A8
:10EB800081611C490979002900D046601949436810
:10EB90000A699C46991A0902174B090A994202D23E
:10EBA0008268891807E06146511A09028268090AD9
:10EBB0008A4202D9511A016000E0066046600121D4
:10EBC00086600174C66102F0BFFF002CB9D12878BD
:10EBD00069788842BAD138467F1EFFB20028ABD18F
:10EBE0000448C1680098814201D00120F8BD00208E
:10EBF000F8BD000088300020FFFF7F00FEB504460E
:10EC00001948002784422DD02046FFF707FA174EF7
:10EC1000050012D00B2D14D0112D10D01448C54270
:10EC20001BD00821684601702046FFF7D9FB01463A
:10EC300068464180848002950DE0022102E00127B0
:10EC40000BE00321684601702046FFF7C9FB01462F
:10EC50006846418084803168884771793A46204609
:10EC6000FDF7CAFAFEBD0000FFFF000000300020E3
:10EC7000FECFFFFFFEB504460027FFF711FA194D3E
:10EC800006460C281AD004DC002E13D0042E05D121
:10EC900026E0112E10D01448C6421BD00821684629
:10ECA00001702046FFF79CFB014668464180848046
:10ECB00002960DE0012102E001270BE006216846E3
:10ECC000017084802046FFF78BFB01466846418037
:10ECD0002968884729793A462046FDF78DFAFEBD16
:10ECE0000721ECE700300020FECFFFFFF8B5064615
:10ECF00000780D460027284221D10020694608707F
:10ED0000FEF704F90446012807D0684636DF0228DA
:10ED100017D0002801D0FCF79DFD3078284202D1A1
:10ED2000284330700127012C09D062B6684600786C
:10ED300037DF022803D0002801D0FCF78BFD3846CE
:10ED4000F8BD72B6E9E70000002398B05D4A0321E0
:10ED50001846FCF7D3FD002801D0FCF77BFD00220C
:10ED600059490320FDF764FD002801D0FCF772FD2E
:10ED700069460020FDF7A8FC002801D0FCF76AFDD9
:10ED80006846007802287DD0002168460171FEF7B0
:10ED90009BF8FFF7A7FB01204C4D8002A860FEF70F
:10EDA0000BF9FDF755FC6846007901F03FFCFDF7D3
:10EDB0005DFA002801D0FCF74DFD454800906946FA
:10EDC0004448FDF765FB002801D0FCF743FD112006
:10EDD00069460873072240A103A87CDF002801D000
:10EDE000FCF738FD0024009406276846019407804C
:10EDF00018214180FF2184809131C1807ADF002871
:10EE000001D0FCF727FD1C216846FCF7CCF9052052
:10EE1000C00301900F200004029000940321684673
:10EE20000173091FC181012606742D4806900594BF
:10EE30006846FDF77BF8002801D0FCF70BFD02F0D7
:10EE40001DFA382101A8FCF7AEF9022168460171CC
:10EE50008671C77181822348069024210FA8FCF790
:10EE6000A2F910A80672FF202D301390B420009450
:10EE700014901D4B0FAA002101A8FCF777FE002873
:10EE800003D000E01BE0FCF7E5FC01F0FFFF0120F0
:10EE90004005E860AC600320FCF758FF002801D073
:10EEA000FCF7D8FC48DF002801D0FCF7D3FCFEF7C4
:10EEB0008FF80028F6D00020FFF706FBF2E70121CB
:10EEC00063E7000028310020CD0C00000005005051
:10EED0005D0D02006032002052656C617965720040
:10EEE00059CE0100922F00200DF3010070B5144699
:10EEF00082880E4605462088111D4118921C9942B1
:10EF000001D8FE2A01D90C2070BD521C3254208831
:10EF1000FF21401C80B2208031542088401C80B2E8
:10EF200020808119288802F04BFF2188401880B288
:10EF30002080AA88002A09D0A968002908D0801951
:10EF4000FCF70AF92088A98840182080002070BDAD
:10EF5000072070BD10B50C460346FFF725FA0028C0
:10EF60000BD018882188884206D10822A11C981C41
:10EF7000FCF724F9002801D0002010BD012010BDAD
:10EF8000F8B50F46017814460546012902D1687884
:10EF9000002806D02088821C9A422DD8012902D050
:10EFA00006E00720F8BD69784118891C994223D8EA
:10EFB000181A801E86B2684606802188B81C081878
:10EFC00069467DDF0028EDD12878022805D1694601
:10EFD0000988B14201D809210AE00821012805D198
:10EFE0006878B04202D86A46108001E06846068020
:10EFF00068460088FE2801D90C20F8BD2288401CF4
:10F00000B8542088401C80B220803954208869463A
:10F01000401C20800988401820800020F8BD000096
:10F02000F8B5FF240F46054600291ED0104EB54204
:10F030001BD010480122C17D2846FDF7DDF8284687
:10F04000FEF72CFF0446FF2804D1FEF743FF0446D9
:10F05000FF280AD00C200849604340180582C68169
:10F06000072239461230FCF777F82046F8BD000039
:10F07000FFFF0000CC360020AC3500208207D30E05
:10F08000FF229A408907090E10B5994000280BDA33
:10F0900003071B0F083B9C080C4BA400E318DC691A
:10F0A00094430C43DC6107E08408094BA400E41896
:10F0B000236893430B432360C106C90E0120884097
:10F0C000044908600449086010BD000000ED00E03C
:10F0D00000E400E080E200E000E100E0F3B581B090
:10F0E0000F46019801F0FAFA012400281E4E0198FB
:10F0F00017D0FDF721FD80192030007F80090328FB
:10F1000002D0012806D007E01848006901998C4018
:10F11000204201D1022100E00321019800F0CEF845
:10F12000FEBD01F0E7FA0028FAD00198FDF704FDD2
:10F1300005468100C81D0E4AF93089180A6980B257
:10F1400022430A610B49401800210160002FE7D0DB
:10F150000198FDF7F1FC800030580028E0D0064807
:10F16000AC404460FEBD0000003C002000050050A3
:10F17000006500400060004000630040FEB50446AA
:10F1800023480E460019202141560027C817134670
:10F19000401C01D0082738E0F27819462046FDF7D8
:10F1A000A7FC0546401C2FD0B078002807D019488E
:10F1B000A1000918086802229043086007E00021B6
:10F1C0007378204600910A46019100F065F8F078C6
:10F1D000002810D01048AA001018317802690F4B8F
:10F1E0001A400261E206D20C8907890B0A430169C1
:10F1F0000A43026109E00648327840192030017F55
:10F2000092011143017700E004273846FEBD00005B
:10F21000003C00200007005000650040FFE0FCFFBC
:10F2200003490969C140C807C00F00D001207047D9
:10F230000005005070B5124D2879002801D0082033
:10F2400070BD0F4900204039421E0B182033401C6E
:10F25000C0B21A702028F8D300242046FDF73AFCEB
:10F26000641CE4B2082CF8D303210620FFF706FF44
:10F2700001200449C007486001202871002070BDAA
:10F28000403C00200063004002480079002800D084
:10F2900001207047403C002030B552000A439900DD
:10F2A000039C0A432102049D0A4329040A4302499C
:10F2B00080004018026030BD000700508200064800
:10F2C0001018026803231B049A43026002680904B1
:10F2D0000A430260704700000007005003494018CD
:10F2E0000068012800D00020704700000060004046
:10F2F0004058002800D001207047032212028018D5
:10F300004068084000D001207047000010B5002878
:10F3100008D0032805D101210648C905C160002194
:10F32000816010BD0320FCF711FD0028F9D0FCF727
:10F3300091FA10BD00050050F0B5041D0088564E2E
:10F3400089B0192824D025DC544F554D10282DD0D4
:10F3500011281DD10020311D420023888E5AB3424E
:10F3600006D10023DB438B524B4A00231354042065
:10F37000401CC0B20328EFD3EF600024AC60FCF760
:10F3800065FE0006000E03D101208005A860EC6038
:10F3900009B0F0BD1B283ED01D28F9D12088A11C42
:10F3A00075DF0028F4D0FCF755FAF1E73A48A11CC4
:10F3B00007220A30FBF702FF00281CD1364807213C
:10F3C0000A30FBF7F0FE0020315C002907D13249FA
:10F3D00043002288091DCA52012131540420401CD7
:10F3E000C0B20328F0D321882E48FCF799FF0028EB
:10F3F00001D0FCF72FFA01208005E8600024AC6002
:10F40000FCF724FE032804D0EF60AC6001F03EFD61
:10F41000BEE7AF60BBE7A01C069009300490A07A5D
:10F420006946C00888826A4604A90220FCF74FF9A1
:10F43000002806D06A4604A90320FCF748F90028F2
:10F44000A6D1002422E06100009A481C105C555CA3
:10F45000002700020543384613498D420AD1315C2A
:10F46000002907D10C48012707220A300699FBF72B
:10F4700073FE0420401CC0B20328EDD3002F04D03B
:10F480000A4A06981146083188DF641C684680885D
:10F490004008A042D7D87BE7802F00200000200042
:10F4A000000500506C3200201418000050220200A9
:10F4B000F3B583B0039E3A226036307E5043039A00
:10F4C00085184888002837D1083100912C790878B0
:10F4D0002018042800D904202871002711E00A20F0
:10F4E0000099784341180C206043401901900A228A
:10F4F0000A30891CFBF730FE00210198641C8182D0
:10F500007F1C2879A042EAD80C2044436019C288A5
:10F51000307E3A23039958434018008982420BD227
:10F520002879042808D0F0750398FDF70DFB010039
:10F530000ED00020707608E00024F4756946039828
:10F54000FDF750FD010005D074760398FDF720FE0D
:10F5500005B0F0BD684600780028F9D00121039875
:10F56000FDF7E0FD039800F08DF8F1E7F8B50446EB
:10F57000054660340B46207E3A2148434219E07D1F
:10F580000C26704380180A30844619465888083182
:10F59000002812D11B4E0B880DE0062747437F1829
:10F5A000BF88B74206D106235843401841886046B9
:10F5B000418102E0401C8342EFD800266846067075
:10F5C000E07D1179401C884203D101206946087012
:10F5D0000FE0E07569462846FDF704FD010004D000
:10F5E00066762846FDF7D4FDF8BD68460078002809
:10F5F000FAD001212846FDF795FD284600F042F893
:10F60000F8BD00000229000070B504460A4688894A
:10F61000A1880C3286B0884231D102206946087038
:10F620009079C307DB0F0B7190798007C50F4D717F
:10F6300090794007C00F8871117AD679080230435B
:10F6400069460881507A88720420002B06D0D17A4E
:10F65000937A08021843694688810620002D0AD053
:10F660001518AD1D2846FBF7B6FD0002E978000A23
:10F67000090608430490A26869462046904706B0F0
:10F6800070BD000070B5044605466034A07E124986
:10F69000401CC0B2A0768968002688421AD2E6755E
:10F6A000207E3A21401CC0B241434A1920760B49C2
:10F6B000C000401801881180408850807420167165
:10F6C000405B012190DF010003D066762846FDF7FC
:10F6D0005FFD70BD667670BDF42F002014350020EC
:10F6E000022801D20120704700207047F7B50E466E
:10F6F0000121890247180446002508340220308081
:10F7000015E0002D05D12046FEF756FD002800D15A
:10F7100001250C48A1684268914200D94160608887
:10F7200081000C1931880818C01C30800C34BC4290
:10F7300002D22068401CE4D10298002800D0057055
:10F74000FEBD0000A830002010B504480223016867
:10F75000034A0448FEF74EF910BD0000B030002007
:10F7600020230200D030002010B501460223024AB7
:10F770000248FEF73FF910BD28230200D0300020D8
:10F78000F8B50025284F2C462E467868B10240185F
:10F79000264A0168914205D1254A4168891819D045
:10F7A000012905D000218A008258521C0CD11FE08B
:10F7B000204900220860091DFFF798FF1D48808836
:10F7C00002282FD008200543761CB6B2032EDCD3C6
:10F7D0002846F8BD1849022322018B5451180A46C5
:10F7E00048600E320831FFF781FF0220054312E026
:10F7F000491CFF29D7D90F4A012113680D43002B5B
:10F800000CD00D4A2301D154991848600220088178
:10F81000104620304480641CA4B2D5E7106002205A
:10F820009080D1E70420CEE7D0300020DEC0ADDEEE
:10F8300002FEE10EB0300020443D0020FEB5114D27
:10F840000E46044623CD6F4623C768464480828017
:10F8500083710D4D2046E97BFCF7BCFC002803D0EA
:10F86000304600F047F903E00021304600F04CFA42
:10F87000697B00222046FCF7BFFC6846FDF724FDAB
:10F88000FEBD0000FC22020018300020F0B585B05B
:10F890000746FCF793FC002814D06846FCF7B8FB39
:10F8A00000246D460BE060004619B0883946FCF72D
:10F8B00091FC002802D0B08801F09AFF641C0098E7
:10F8C000A042F0D805B0F0BD10B5044A127E002A5F
:10F8D00002D000F087FB10BD082010BD04370020C7
:10F8E00008B5012269460A704088488002480168CC
:10F8F0006846884708BD0000083000201FB5044650
:10F900000078012817D12079012814D160880023BC
:10F9100002AA012100F00CF900280CD1022168464E
:10F92000017061884180039801786846017102483E
:10F930000168684688471FBD1030002070B586B04A
:10F94000040033D02078002830D1207900282DD130
:10F950000023608802AA194600F0EAF8002825D1A1
:10F96000134E30461DE0002304AA194600F0E0F8CB
:10F97000002815D16088A84212D005990398FEF797
:10F980008EFE00280CD06088FEF7BCFC69464880DB
:10F990000020087060888880CD806846FDF772FC82
:10F9A000284600F08BF80546B042DCD106B070BDA9
:10F9B000FFFF0000F0B585B00025044600950195D5
:10F9C00002950395408869468880FEF79BFC69464E
:10F9D0004880277801200626052103223B00FBF7FB
:10F9E0003BFD0805050B1117271E212468460170F1
:10F9F00021790172457218E068460670217901721A
:10FA000045720AE06A4611702179117250720CE059
:10FA100069460E7023790B724872039205E06846BE
:10FA2000027002E00420694608706846FDF73AFC5F
:10FA300005B0F0BD3EB504460078002810D120790D
:10FA400000280DD1074A6B4607CA07C36088FEF736
:10FA500059FC69464880608888806846FDF734FC18
:10FA60003EBD0000CC22020010B500780A4C030015
:10FA7000FBF7F2FC060A0A0A0A0A0410A07CFFF748
:10FA800005FFA07BFEF7C4FF607CFFF7FFFE607BF5
:10FA9000FEF7BEFF10BD00002830002070B50646FE
:10FAA0000024054D04E0A000295830468847641C16
:10FAB000287EA042F7DC70BD0437002010B5044951
:10FAC000097E002902D000F077FA10BD014810BD70
:10FAD00004370020FFFF000010B50448007E002816
:10FAE00002D000F037FC10BD014810BD04370020E3
:10FAF000FFFF000010B50449097E002902D000F084
:10FB00003FFC10BD082010BD0437002038B5074B5E
:10FB10001B7E002B08D0002300938C7813460A46E6
:10FB2000214602F049FB38BD082038BD04370020CB
:10FB300010B5044C247E002C02D000F08DFA10BDCC
:10FB4000082010BD04370020FEB51C4C0746207E5F
:10FB5000062801D30420FEBD002F02D0002802D0C9
:10FB600024E00E20FEBD154ED0213046FBF71BFBD6
:10FB700000251420684380192C3002F03BFA6D1CDC
:10FB8000082DF6DB0E4800F035FC0028EAD15022A3
:10FB9000082101206D4607C508490A4BD0310846A7
:10FBA000D200B43800F0F3FD0028DBD1207E8000C5
:10FBB0002750207E401C20760020FEBD0437002008
:10FBC000B5FE010014300020FFB54C4883B0007E24
:10FBD0001E461546002806D0002E07D0049805289A
:10FBE00006D2012005E0082007B0F0BD0E20FBE79B
:10FBF00000204042284213D0082D11D8039800F06D
:10FC0000E7FB00280CD00499039802F0D9F93C498D
:10FC1000041E009126D0A068A84212D2002709E055
:10FC20000720E1E7E078C019C1B2009800F0E7FDD5
:10FC30007F1CFFB2A068B842F4D8204602F0DAF97F
:10FC400010E0A8421AD9EFB207E0E078C019C1B2BB
:10FC5000009800F0D4FD7F1CFFB2A068B842F4D831
:10FC6000002C0BD10398019005212648049F02F037
:10FC7000A7F9041E06D001990180A770E078FF283B
:10FC800002D008E01120AFE72946009800F050FDAF
:10FC9000E070FF2817D0C1B2A560009800F098FD71
:10FCA000040028D00246ABB23046049900F00EFCA6
:10FCB00004992846502250430B00FBF7CDFB051A50
:10FCC0001A080F191C00204602F094F9DAE771684F
:10FCD0000C348C6071680C3888800AE071680834D4
:10FCE0004C603A210838FBF721FA7168086000E09F
:10FCF0007460002078E7032076E7000004370020D6
:10FD000020370020FFFF000070B50D4A127E002A48
:10FD100011D0002402F054F905000ED0E868002844
:10FD200004D000F0A9FA040000D00324284602F011
:10FD300073F9204670BD082070BD052070BD00001D
:10FD400004370020FEB507463F480D46007E0028D8
:10FD50000FD00020019002906846857129463846F0
:10FD600002F02EF9040006D02079400705D50020C6
:10FD7000FEBD0820FEBD0520FEBD3348E1781C30E5
:10FD800000F026FD020034D0294601A8A36800F047
:10FD90006AFB01262B00FBF75FFB050406092E34E6
:10FDA0003B00142006E06846868005E002988088C3
:10FDB000083029E069468880E068234600901033C7
:10FDC00001AA2946384602F0F7F922791E49D307DD
:10FDD0008031002B04D0920702D5CA6C521ECA642F
:10FDE000FD22002816D011281BD0042821D0072876
:10FDF000C2D00320FEBD0298008880B2FBF7D2FA81
:10FE0000D8E720895021484380B2C01C8008D1E740
:10FE10000720FEBD217904231943490849001140F8
:10FE20000FE0C86C401CC86420793043104020713A
:10FE30009DE7CA6C521CCA64217902224908490014
:10FE400011432171FEBD0000043700207CB50E4631
:10FE50001749097E002909D00025314602F0B0F883
:10FE6000040005D0E068002804D01CE008207CBD18
:10FE700005207CBD0E48E1781C3000F0A9FC02464C
:10FE800000200090019068468670002A0DD031460F
:10FE9000A36800F0E8FA21460C31684600F0CCF97E
:10FEA0000546092801D028467CBD03207CBD000002
:10FEB00004370020FEB500260096019602960446FF
:10FEC00041886846418021790171374621796088EF
:10FED00002F076F821780122364D0B00FBF7BCFAD0
:10FEE0000906063F301919413043300000280DD073
:10FEF000017949070AD502F08FF868460770207823
:10FF0000012800D000206946087216E06846027099
:10FF100014E000280FD00169A36899420BD1017940
:10FF2000490708D5E96CFB23491CE96401791940AC
:10FF30001143017104E0022017E00846FFF7AEFD0F
:10FF4000E86C00282ED01B4F0024803F1420604313
:10FF5000C51929462031087CC2070DD108E00320CD
:10FF600003E0042001E00126052069460870E4E76B
:10FF70008007C00F304218D0897BA88DFFF7E2FEC2
:10FF8000002812D014214C43E1198A8D694620358E
:10FF90004A80AA7B0A71042805D007200870084609
:10FFA000FFF77CFDFEBD0620F8E7641C082CCDDBC6
:10FFB000FEBD00008437002010B508490446087FC4
:10FFC000002803D00878002802D003E0044810BDC0
:10FFD00000F002FB204600F0E3FA10BDE4360020FA
:10FFE000FFFF000030B504461A4887B0007F0D4679
:10FFF000002826D0FF2C26D80846FBF7CDF900288C
:020000040002F8
:1000000021D0002004900590069001200121C0031A
:1000100089032818611880B289B204AB6A46FDF7DB
:1000200033FA00280BD16846FDF76EF9002806D098
:1000300002280CD0092808D00C2808D0032007B0CB
:1000400030BD0820FBE70720F9E70E20F7E7112075
:10005000F5E70000E4360020F0B5064622488BB0F4
:10006000007F1F4615460C46002823D0FF2E23D8BC
:100070000846FBF791F900281ED0002D1ED006A8D7
:1000800000902046FBF788F9002810D000200121BD
:10009000059003900490C90360184910711880B24C
:1000A00089B203AB009AFDF7EFF9002808D00520CC
:1000B0000BB0F0BD0820FBE70720F9E70E20F7E7BB
:1000C00001A906A8FDF756FA06A8FDF75FF9AC707E
:1000D0000198002F408828800298686002D001981B
:1000E000806838600020E3E7E4360020F0B507467A
:1000F0008BB00020009026481D46007F16460C4617
:10010000002830D0A078FBF747F9002838D0002C21
:1001100034D0A078FCF7EAFE0146684601803846F4
:10012000FCF7E9FE01466846418009AA05A9204678
:1001300000F09EF9314601A8FDF740F96846808C31
:1001400005ABC2B201A80099FDF79AFA00280DD0BC
:100150000300FBF781F90E111B191B1B151B1B1B41
:10016000131B1719151B08200BB0F0BD002D03D071
:10017000294601A8FDF72AFA0020F5E70E20F3E74B
:100180000720F1E70420EFE71120EDE70320EBE77C
:10019000E436002070B506468AB00020009025485D
:1001A0001546007F0C46002822D0FF2E3BD8A078B1
:1001B000FBF7F2F8002836D0A078FCF797FE01464E
:1001C000684601803046FCF796FE0146684641804D
:1001D00009AA05A9204600F04BF96846808C05ABBA
:1001E000C2B201A80099FDF753FA040003D008E059
:1001F00008200AB070BD002D03D0294601A8FDF7E4
:10020000E5F90B2C11D006DC002C0AD0022C0ED004
:10021000052C04D107E00C2C09D00D2C03D00320B1
:10022000E7E70020E5E70720E3E70420E1E7112006
:10023000DFE70000E436002070B504460D480D46A7
:10024000007F002810D0002C10D0002D0ED0A078F8
:10025000FBF7A2F800280BD021882846FDF7D2F939
:10026000002800D0042070BD082070BD0E2070BD95
:10027000072070BDE436002001B50948007F002842
:1002800009D00098002808D06846FDF7D5F9002865
:1002900000D0052008BD082008BD0E2008BD0000C4
:1002A000E43600207FB506468CB000200190284837
:1002B0001D46007F0C46002826D0002C3FD0FF2E84
:1002C0003FD8A078FBF768F800283AD0A078FCF770
:1002D0000DFE0146684681803046FCF70CFE014663
:1002E0006846C1800AAA06A9204600F0C1F806A8FF
:1002F00000906846008D02A9C3B20EA8019AFDF7CE
:10030000CEF9040003D008E0082010B070BD002D25
:1003100003D0294602A8FDF759F9092C0FD006DCB5
:10032000002C0AD0022C10D0052C04D109E00C2C92
:100330000BD00D2C07D00320E7E70020E5E70E20C7
:10034000E3E70720E1E70920DFE71120DDE7000010
:10035000E436002010B50849084C087F002803D077
:100360000878002802D003E0204610BD00F034F9E0
:10037000204600F0D1F810BDE4360020FFFF000059
:1003800010B504461148017F002903D0FF2C03D982
:10039000072010BD082010BD0078002801D100F012
:1003A0001BF901208003201880B2FCF7CDFF002844
:1003B000F1D0022807D0092803D00C2803D003204D
:1003C00010BD0E2010BD112010BD0000E43600202D
:1003D00010B507490446087F002807D00878002890
:1003E00001D100F0F9F8204600F0CEF810BD000071
:1003F000E436002070B5144C0546207F062801D352
:10040000042070BD002D02D0002802D012E00E2082
:1004100070BD0D482021FAF7C6FE00F0A7F80B4882
:10042000FDF7DEF8002803D1FDF75AF8002801D0C7
:10043000032070BD207F800000194560207F401C94
:100440002077002070BD0000E4360020D5D30100E5
:100450000021425C002A01D001207047491C062976
:10046000F7D30020704710B59BB200F02FF810BDF5
:10047000F0B5002A0FD0002600280BD0002909D0A3
:100480008778022401253B00FAF7E6FF0506060CF3
:10049000150604001680F0BD43680B600088888054
:1004A0001580F0BD43680B608C8043689B688B604F
:1004B0000088801E07E043680B608D8043685B689E
:1004C0008B600088401E88811480F0BD10B5044602
:1004D0005020434398B2A1700B00FAF7BDFF05040A
:1004E000070A0E151A001420626010E001206260F5
:1004F0000DE0083080B2626007E03A216260FAF7EE
:1005000015FEFAF74FFF02E06260C01C80082080F1
:1005100010BD0020FBE7000070B50D4D04462846D5
:10052000AC4208D1FF24013421460A4800F0FAF910
:10053000A0420AD070BDFF2CFCD82146054800F02F
:10054000E3F9002801D0204670BD284670BD0000A8
:10055000FFFF0000543A002010B5FF2803D80146E1
:10056000014800F005FA10BD543A002010B50548C6
:100570002021FAF718FEFF210131024800F0BCF9F2
:1005800010BD0000543A002010B5FF2804D80146E1
:10059000024800F0E1F910BD002010BD543A0020DF
:1005A00070B50B4DA84201D1002000E0401C84B280
:1005B00009E02146074800F0CFF9002801D0204685
:1005C00070BD641CA4B2FF2CF3D9284670BD000096
:1005D000FFFF0000543A0020F0B589B00020124D12
:1005E00002900390049001262878F603002809D190
:1005F000771002AA05A93046FCF74DFF002803D06A
:100600000120287009B0F0BD694605A8FCF7B2FFCB
:1006100000988088C01B84B205A8FCF7B7FE20466E
:10062000FFF77AFFE5E70000E43600201CB504463A
:1006300000F020F9002801D0FBF70CF9002C01D0C4
:1006400000F0C6F900200090694601900878012268
:100650001043E1210840DF210C3008406946087052
:100660000720487010208870C87802231043184370
:10067000C8700879104318430871684600F0D0F933
:10068000002801D0FBF7E6F8074800F0B3F900288E
:1006900001D0FBF7DFF80548FCF7A2FF002801D0E6
:1006A000FBF7D8F81CBD000029080200D1D30100D7
:1006B00070B50024074D084E05E0442060438019C2
:1006C000016C8847641CA8688442F6D300206860E7
:1006D00070BD0000F42F00202435002004490818C4
:1006E00020214156042901DB01207047002070477A
:1006F000003C00200449081820214156042901D259
:100700000120704700207047003C002010B50446CF
:1007100006480078002808D02046FDF799FD2046BD
:1007200000F0DAFD2046FDF7A3FA10BD743A002070
:10073000F8B50F46060028D03068002825D070682C
:10074000002822D0FF2400251CE02946706800F014
:10075000DBF8002808D0FF2C00D12C46281B401CB9
:10076000B8420DD12046F8BDFF2C06D108E0214645
:10077000304600F044F8641CE4B2AC42F7D3FF24E6
:100780006D1CEDB2B068A842DFD8FF20F8BDF8B507
:100790000400069E089D079818D0002916D0002B4B
:1007A00014D007466F43974210D8C21DD208B242F8
:1007B0000CD800280AD0002D08D0E560A0600AC43B
:1007C00081B2184600F098F80020F8BD0720F8BD67
:1007D00070B504000D4610D0206800280DD0606868
:1007E00000280AD0FF2D08D000F0B6F8002804D069
:1007F000E06821686843081870BD002070BD70B5BE
:1008000004000D460FD0206800280CD06068002836
:1008100009D0FF2D07D000F09FF8002803D029460B
:10082000606800F0A5F870BD10B501780B00FAF70C
:1008300013FE081313051419131B1D134189FF39E7
:10084000072909D14088012100F046F8082803D083
:10085000002801D0FAF7FEFF10BDFCF725FE112895
:10086000F6D110BD8068F3E70020F3E700F040F810
:1008700010BD000010B51348FFF766F9002803D03B
:10088000082800D0032010BD0F4800F0E1FD00282B
:10089000F8D10E48FDF79EFA0028F3D10C48FDF779
:1008A000D7FD0028EED1FBF771FC0A4C10286074CC
:1008B000E8D0FBF76BFCA0741028E3D00120207077
:1008C000002010BDB5F90100F512020055DD010050
:1008D0005DE30100743A002010B5044A1278002A42
:1008E00002D000F0A5FD10BD082010BD743A002014
:1008F00010B5FDF7ADFA10BD10B5002803D0C91D25
:10090000C908FAF750FC10BD10B5002809D04B07F4
:100910005B0F01229A40C908D2B208181146FEF7AF
:10092000E5F910BDF8B50D46060013D000240127E7
:100930000EE06107490F38468840C1B2E0088019CF
:10094000FEF7D4F9002801D02046F8BD641CA4B2FB
:10095000AC42EED32846F8BD002807D0CA08805C18
:100960004A07520F01219140084000D001207047F2
:10097000F8B504464805050E4907490F012088408F
:10098000C7B2002C21D0605D38421ED000206946DD
:100990000870FCF7BBFA0646012807D0684636DF28
:1009A000022813D0002801D0FAF754FF605DB84345
:1009B0006055012E09D062B66846007837DF0228FC
:1009C00003D0002801D0FAF745FFF8BD72B6EDE775
:1009D00070B5074C254605E02046FFF76FF8044642
:1009E000FFF788F82846FFF769F8A842F4D170BDF0
:1009F000FFFF000009490A78002A04D00A7C032A74
:100A000003D30420704708207047920052185060AA
:100A1000087C401C0874002070470000743A0020D5
:100A200010B506490978002905D000F059FD0828BD
:100A300000D1032010BD082010BD0000743A002032
:100A400007490979490701D408207047002804D0D4
:100A5000044949780160002070470E20704700006B
:100A600050300020283B00200A484178491E0906E2
:100A7000090E417004D10849FD230A781A400A7012
:100A80000178491CC9B20170042901D1002101700B
:100A900070470000703D0020B830002070B520483D
:100AA0001422017851430C184078241D00282CD0C2
:100AB0002079012803D002281FD0032517E0218ABE
:100AC000608A091AFF2901DC8EB201E0FF26013697
