:020000040000FA
:1000000070090020D5000000EF000000F1000000A2
:1000100000000000000000000000000000000000E0
:10002000000000000000000000000000F3000000DD
:100030000000000000000000F5000000F7000000D4
:10004000F9000000F9000000A9010000F90000001B
:10005000F900000000000000F9000000F9000000B5
:10006000F9000000F9000000F9000000F9000000AC
:10007000F9000000F9000000F9000000F90000009C
:10008000F9000000F9000000F9000000F90000008C
:10009000F9000000F9000000F9000000F90000007C
:1000A000F9000000F900000000000000000000005E
:1000B0000000000000000000000000000000000040
:1000C0000348854600F034F800480047010400006A
:1000D000700900200321094802680A4302600848A9
:1000E00002680A4302600748804707480047FEE766
:1000F000FEE7FEE7FEE7FEE7FEE70000240500401E
:100100005405004055010000C100000003460B43A8
:100110009B0703D009E008C9121F08C0042AFAD2BD
:1001200003E00B780370401C491C521EF9D2704743
:10013000064C0125064E05E0E36807CC2B430C3C3A
:1001400098471034B442F7D3FFF7BEFFF40A00001B
:10015000140B000010B500F02FF9002805D00E494F
:100160000C484860C8130D4988610D48018CC9B21C
:1001700001290ED1818C09070BD1018D0906090FC8
:10018000042906D1808D0006000F02D10549012007
:10019000886010BDDFFF07C000050040006C004014
:1001A000C00F00F00006004010B500F0E9FB10BDE4
:1001B00010B5024A024900F014F810BDAB0300006C
:1001C0002000002002E008C8121F08C1002AFAD14E
:1001D00070477047002001E001C1121F002AFBD1C7
:1001E0007047F8B516460F460446002503E0394629
:1001F000B047641C6D1C20780028F8D12846F8BD53
:10020000BFF34F8F04490348C860BFF34F8F00BF4F
:10021000FDE700000400FA0500ED00E00EB5002146
:10022000029000916A4601910148FFF7E9FF000042
:100230000140000010B58268C368934203D000F00B
:10024000A1F8002010BD052010BD002906D0002A0D
:1002500002D0531E134203D0092070470E2070476E
:100260000160838000218160C1600846704710B53D
:100270008268C3689A1A83889A4203D800F08CF87F
:10028000002010BD042010BD10B504460948816847
:10029000C2688088511A814207D10121064800F0C6
:1002A000B3F9002801D0052010BD21460148FFF711
:1002B000C1FF10BD4C0100201A00002070B504469B
:1002C000224888B01E460D0042601CD0A8882968CC
:1002D00082B21F48FFF7B9FF002815D1A889A96885
:1002E00082B21B481030FFF7B0FF00280CD120224B
:1002F00018496846FFF70AFFA06806902079002891
:1003000004D0012103E0072008B070BD0021684639
:10031000017506776079002800D00E20694648757F
:10032000E0780290A07803902078019060780090A7
:100330000949684600F004F90028E5D100F08AF97F
:1003400002480121801C00F05FF9DDE71800002061
:100350004C010020D40A0000D108000010B504466A
:10036000064801214470401C00F0CEF9112803D149
:1003700021460348FFF77BFF10BD00001800002056
:100380005C010020826883881A4003689A5C0A70C6
:100390008168491C81607047C26883881A4003687D
:1003A0009954C168491CC160704710B50446C0B279
:1003B000FFF7D4FF204610BD1048018CC9B20129B7
:1003C00017D1818C090714D1018D09060A0F03D1B9
:1003D000828D1206120F0ED0090F012903D1828DD2
:1003E0001206120F07D0032903D1808D0006000FDB
:1003F00001D000207047012070470000C00F00F0BE
:10040000002001212D4B88B0032204460D46854073
:10041000ED012D0F02D08500ED182A60401C202828
:10042000F4D30F21264849058160C460254A01ABF9
:1004300007CA07C3244804900A20059022480323D2
:100440000A300690FF2001300790204A04A901A835
:10045000FFF734FF002801D0FFF7E0FE1CA0FFF7F4
:10046000A7FE0025684604701C4F2C4601266846EE
:10047000FFF70AFF0028FAD12846FFF76FFF002890
:10048000FAD16846007869280BD0492809D072282B
:1004900001D05228EBD1002E05D060003D5C002633
:1004A00007E06925E3E76000C019641C4578E4B201
:1004B0000126092CDBD90024D9E7000000070050F1
:1004C00000050050A80A000024000020BD0800001C
:1004D0000A0D53746172743A200A0D000000002066
:1004E0008207D30EFF229A408907090E10B5994062
:1004F00000280BDA03071B0F083B9C080C4BA400D9
:10050000E318DC6994430C43DC6107E08408094B81
:10051000A400E418236893430B432360C106C90E6B
:1005200001208840044908600449086010BD0000AB
:1005300000ED00E000E400E080E200E000E100E027
:10054000F3B52A4C0746E07E81B0002801D0082090
:10055000FEBD002F00D1264F386800F03AF93878F8
:10056000012631468140234881600021786800F0EF
:1005700027F9214DB8696862787D397D0843E866BE
:1005800003CFE8606961387B083F01280FD1002163
:10059000B86800F015F9F86800F01BF9387B3146AF
:1005A000814014488160F968B868A96028610298A0
:1005B00060603969216000280ED0FF230F481D3389
:1005C000397F0022C250FF234533C2500D4A0C48E8
:1005D00050600220FFF784FF042028600020E075AF
:1005E0002076A075E676A076FEBD000030010020E2
:1005F000B40A000000050050002500400020004023
:100600008000020000230040F8B5104B81245E6892
:100610000022A4000E4D002E00D0AC60DF7D002F24
:100620000BD01A7E002A04D0002E00D06C6011205E
:10063000F8BD18610122197604E0D9750024D8604C
:100640005C761C7600F012F8F8BD00003001002046
:100650000023004010B5044CA07E002803D100F018
:10066000F9F80120A07610BD30010020F8B5234D27
:10067000A87E104301D100F0EDF86868204C0028F6
:1006800005D081201F49800048600020F8BDFF2070
:10069000453000212150FF212531204600F0A3F8EC
:1006A0000546FF210931204600F09DF80746FF214D
:1006B0004531204600F097F8064639463143294334
:1006C000E9D02846304306D100F09AF80B48C17DA6
:1006D000407E8142DFD800210848002DC17501D03D
:1006E0000320F8BD002E01D00F20F8BD817E01202F
:1006F000002901D02060C8E76060C6E73001002013
:10070000002000400023004010B5064A937D002BD6
:1007100001D0112010BD917590600020908200F0F2
:1007200003F810BD30010020F8B50026194FFF2551
:100730001D357E510120B86000F09AF8164C6168B2
:10074000002910D022E0FF2701372946114800F088
:100750004AF8002802D1A08AB842F6D1A08AB8424D
:1007600001D000F085F8A08AA17D8842EBD3A18A50
:10077000C81FF9380CD0074F2946384600F033F827
:100780000028F9D00120F8600020A0753046F8BD9F
:100790000F26F9E7002000403001002030B552005C
:1007A0000A439900039C0A432102049D0A43290439
:1007B0000A43024980004018026030BD0007005023
:1007C0001CB500220B46009211460192FFF7E6FF8E
:1007D0001CBD1CB5002100910B4601220191114660
:1007E000FFF7DCFF1CBD4058002800D001207047F7
:1007F0000322120280184068084000D00120704790
:1008000030B50A48FF21C57D0022094C0931094B4A
:10081000002D625007D09969437EC268D154417E51
:10082000491C417630BD986930BD00003001002080
:1008300000200040002500401FB501236A461370C8
:1008400010720348019106C8684690471FBD00001A
:1008500030010020FF220548253200218150FF226F
:1008600009328150012101607047000000200040E2
:10087000FF2107481D31002242500648828A8168C4
:10088000895C828A521C82820348C16170470000E1
:100890000020004030010020002500401FB500214D
:1008A0006A4611701072044882680192817506C808
:1008B000684690471FBD00003001002010B5017848
:1008C000022901D0012902D14068FFF7A7FC10BD21
:1008D0007CB50178284D01290AD002292FD00029A2
:1008E0002CD129462548FFF7A5FC002833D036E057
:1008F0004068017821481038FFF7B9FC1F4C103CC4
:10090000002805D001216A4611700190684608E070
:10091000A068E168081A012805D10020694608701E
:10092000684669688847A068E168081AA188884213
:1009300004D811480121801CFFF766FE7CBD02210E
:100940006A461170C06801900B480121801CFFF7B6
:100950005BFE68460CE001210748FFF7D5FE07481B
:100960008168C0688842E9D10320694608706846FA
:10097000696888477CBD0000180000205C010020E9
:10098000F0B5454D012185B049022846FFF730FFFB
:1009900001270026414C002824D0FF21253128467C
:1009A000FFF721FF00281DD0FF2025302E50812089
:1009B0003B4980008860A07E002800D16F60022142
:1009C000684601703749086808600390E17D684611
:1009D0000172E0680190E675267606CC6846083C10
:1009E00090472BE004212846FFF702FF002825D07E
:1009F000FF2109312846FFF7F6FE00281ED0FFF739
:100A0000FFFEE07D617E884218D1207E002808D05C
:100A1000627EE168E0752069E060267666761046C1
:100A20000AE0A07E002800D16F6081201C49800070
:100A30008860E675607EE168FFF7FEFEFF211D31EC
:100A40002846FFF7D0FE00280DD0A18AA07D814264
:100A500002D2FFF70DFF06E0FF211D316E50002886
:100A600001D0FFF71BFFFF2145312846FFF7BBFEF2
:100A700000280ED0FF2045302E50A07E002800D048
:100A80002F60E07D002804D0E675607EE168FFF706
:100A9000D3FE05B0F0BD0000002000403001002072
:100AA00000230040802400400B09FFFF00000000ED
:100AB00000509D00090000000B0000000A0000002B
:100AC00008000000000000000000000000509D0031
:100AD00003000000090000000B0000000A000000F5
:100AE00008000000000000000000000000509D0011
:100AF00003000000140B0000000000202400000090
:100B0000C4010000380B0000240000204C09000044
:100B1000D401000041466232431B644745366652A9
:100B20004736683749316A3E0024F400000000006F
:080B30000000000000000000BD
:04000005000000C136
:00000001FF
